:200000000C943B020C9400000C9400000C9400000C9400000C9400000C9400000C940000A3
:200020000C9400000C9400000C9400000C9400000C9400000C9400000C9400000C940000C0
:200040000C944C030C9400000C9400000C9400000C9400000C9400000C9400000C94000051
:200060000C9400000C9400000C9400000C9400000C9400000C9400000C9400000C94000080
:200080000C9400000C9400000C9400001027E80364000A00010000100001100001000000CD
:2000A000000000000000000000000000000000000000000000000000000000000000000040
:2000C0000000000000000000000000000000000000000000000020202020202020202020E0
:2000E0002020202020202020202020202020202020202020202020202020202020200049F7
:200100006E69636A616C697A756A65206D61737A796E65005779637A79737A637A6F6E6FE4
:20012000206D61737A796E65004D61737A796E61207A61696E69636A616C697A6F77616E48
:200140006100437A656B616D206E612070726574206777696E746F77616E7900507261631C
:2001600061005A616B726563696C656D2077737A7973746B6965207A6164616E6520707562
:200180006368617279004272616B2077796D6167616E65676F206369736E69656E69612086
:2001A000362062617200446F7A6F776E696B206B6C656A7520707265746F77206E696520E7
:2001C000676F746F777900446F7A6F776E696B206B6C656A75206E616B726574656B206EE3
:2001E000696520676F746F77790057796C61637A206D61737A796E65206920706F637A65FD
:200200006B616A2031206D696E757465004F64736C6F6E2069207A7265736574756A206B86
:20022000757274796E65004D6F6E7465722033206E6965206E616369736E616C2070656431
:20024000616C6100437A656B616D206E612072756368206C616E637563686100506F707254
:2002600061772070726574207A2067727A79626B69656D2069206E616369736E696A2067BE
:20028000757A696B005573756E2070726574207A6520737A637A656B2069206E61636973A5
:2002A0006E696A2067757A696B0057796D69656E206C7562206E616B7265632F646F6B7264
:2002C00065632067727A7962656B2069206E616369736E696A2067757A696B004D6F6E7458
:2002E00065722033202D207A64656D6F6E74756A20707563686172206920706F74776965A3
:2003000072647A004D6F6E7465722033202D2077797A776F6C207265637A6E696520637A8F
:20032000756A6E696B207075636861726100534C415645206E696520706F74776965726433
:200340007A696C20706F64616E6961206E616B7265746B6900534C415645206E6965207072
:200360006F7477696572647A696C207A657A776F6C656E6961206E6120737A637A656B69B6
:200380000057657A207072657461207A2067727A656269656E692069206E616369736E69E4
:2003A0006A2067757A696B206269616C79004E69652077796B7279746F207769657A796338
:2003C0007A6B69207A69656C6F6E656A202D207A7265736574756A004E69652077796B725D
:2003E00079746F207769657A79637A6B6920637A6572776F6E656A202D207A726573657497
:20040000756A00506F64616A20696C6F7363207075636861726F772069206E616369736E27
:20042000696A207374617274002020202020202020202020202020202020202020202020BB
:20044000202020202020202020202020202020202020202020202020202020003025640083
:200460003A0001002D4E414E00494E4600000100070662040000F894EE27ECBBF1E0F5BF19
:20048000E5BFE0936C00F8E1F1BDE1BD8DE0A2E0BB27ED938A95E9F780E090E1A0E0B1E082
:2004A000ED930197E9F7EEE6F4E085919591009761F0A591B59105901590BF01F00105907C
:2004C0000D920197E1F7FB01F0CF8BBFEFEFEDBFE0E1EEBFC0E0D5E00C94781B0E94401E88
:2004E00025C00E94401EE69521C00E94401EE695E6951CC00E94401EE695E695E69516C0A2
:200500000E94401EE29512C00E94401EE295EF70E6950CC00E94401EE295EF70E695E695A9
:2005200005C00E94401EEE1FE0E0EE1FE170239608950E944F1E0E94541E0E945C1EEC81C9
:20054000EA930E94C01CEA810E94641E0E2F1127F80119810881269608950E94E7260FEF7A
:200560001FEF20E030E0EE81FF812E173F0704F5F901A885B985AE0FBF1FEC91F0E00E2768
:200580001F2740E050E04830E0E05E0774F400FF07C016950795E1E0F0EA0E271F2702C0DB
:2005A000169507954F5F5F4FEECF2F5F3F4FDBCFF8010E94EE262A960895E0919B00E072AB
:2005C000E1F3E881E0939C00219608950E94E9260E947D1E0E947D1EC0DF8F01E0919B0015
:2005E000E064E0939B0020E030E0EC81FD812E173F075CF4F901AE81BF81AE0FBF1FEC9152
:20060000EA93DBDF2F5F3F4FF0CF0A93D6DFE12FEA93D3DFE0919B00E074E1F30E94F0264B
:20062000289608952B97E1E0E883E0E1E983E889EA83EF85EB83E0E0EC83E2E0ED83E4E05F
:20064000EE83AB85BC858D859E85E8E00E94F825EF83EB85E887E8E10E94F825E987EB8543
:20066000FC856D857E850E940426EA87FE01FA93EA93EBE0F0E0FA93EA93A8DF61960895FE
:200680000E94821E0E94881E0E948E1EE0E0E093CD05E093CE0508956A937A93AA93BA9306
:2006A000EA93FA93EFB7EA93AAE3B5E00E94941EAEE3B5E00E94941EA2E4B5E00E94941EAE
:2006C000A6E4B5E00E94941EAAE4B5E00E94941EAEE4B5E00E94941EA7ECB5E00E949D1E30
:2006E000A091C705B091C805DC97D1F40E94821EA9ECB5E00E949D1E0E94A31EDC9781F4A3
:200700000E94881EABECB5E00E949D1E0E94A81EDC9731F40E948E1EADECB5E00E949D1E2F
:20072000E991EFBFF991E991B991A9917991699118950E94AD1EE13019F4DC9A0E94B81EDF
:200740000E94AD1EE03081F4A0914E05B0914F058091500590915105A538ECE1BE07E0E082
:200760008E07E0E09E070CF403C0DC980E94B81E08950E944F1E0E94AD1EE13011F4DC9A2B
:20078000FACF0E94C21E0431E0E01E077CF40E94AD1EE13041F40E94AD1EE13011F4DC9AD8
:2007A000FACF0E94C21E0F5F1F4FEDCFE4E1F0E0E0939305F09394050991199108950E9417
:2007C000541E0E94CA1E0E94D61EE0E02BC0E0E0E09392050E94541E0E945C1E0E94DE1E44
:2007E000E0E30E94641EE0939205F0E008950E94541E0E94CA1E0E94E21EE1E013C00E9425
:20080000E71E88DEE03011F4DF9801C0DF9A0895A5E9B5E00E949D1E0E94F11E0E94541EC5
:200820000E94F71EEA930E94C01C08950E94541E0E94051F0E940E1F0E94121FE7E10E9483
:200840001B1F0E940E1FEFEFF0E0B0C00E94541EEBE10E941B1F0E940E1FE9E2F1E0A6C0E4
:200860000E94541EECE10E941B1F0E940E1FE2E4F1E09CC00E94541E0E94051F0E940E1F50
:200880000E94121FE8E00E941B1F0E940E1FECE5F1E08CC00E94541EEBE10E941B1F0E94C6
:2008A0000E1FE6EEF0E00E94231F0E94541EE6E20E941B1F0E940E1FE2E6F1E077C00E948A
:2008C000541EE2E20E941B1F0E940E1FE6E8F1E06DC00E94541EE5E20E941B1F0E940E1FE5
:2008E000EAEEF1E063C00E94541EECE10E941B1F0E940E1FEDE0F2E059C00E94541EEFE104
:200900000E941B1F0E940E1FE7E2F2E04FC00E94541EEAE10E941B1F0E940E1FE4E4F2E05E
:2009200045C00E94541EEBE20E941B1F0E940E1FECE5F2E03BC00E94541EE7E20E941B1FCF
:200940000E940E1FE5E8F2E031C00E94541EE4E30E941B1F0E940E1FEAEAF2E027C00E9483
:20096000541EEEE20E941B1F0E940E1FEEEAF3E01DC00E94541EEEE20E941B1F0E940E1F73
:20098000E8EDF3E013C00E94541EE8E20E941B1F0E940E1FE3E0F4E009C00E94541EE5E317
:2009A0000E941B1F0E940E1FE9E2F4E0FA93EA9380E00E94041E229608950E942A1F0E94DD
:2009C0005C1E0E94311FE0E80E94641E0E2F11270E94351F21F420E030E0DD9803C021E0F6
:2009E00030E0D898F8010E94F026249608950E94541E0E945C1E0E94DE1EE0E40E94641EB9
:200A00000E943A1F11F40E94451F08950E94E72640E050E0E0E0E093920510E0AE81BF810B
:200A20001197F1F50E94541E0E945C1E0E94DE1EE0E40E94641E0E943A1F11F40E94451F6C
:200A40000E94541E0E945C1E0E944C1FE0E10E94641E0E94501F39F4E1E0F0E0E0939D0590
:200A6000F0939E0505C0E0E0E0939D05E0939E050E94541E0E945C1E0E944C1FE0E20E94FF
:200A8000641E0E94501F39F4E1E0F0E0E0939B05F0939C0505C0E0E0E0939B05E0939C0522
:200AA0000E94541E0E945C1E0E94DE1EE0E50E94641EF0E0E0933205F09333050E94551F34
:200AC0001E2EAE81BF810E945C1F0E94621FE4E0F0E00E943026E021E12971F10E94541E0E
:200AE0000E945C1E0E94DE1EE0E60E94641E0E94501F39F4E1E0F0E0E093C105F093C20500
:200B000005C0E0E0E093C105E093C205E0917605F09177056091780570917905A7E0B0E0F0
:200B200080E090E00E947326E0936205F09363056093640570936505E091A305F091A405D9
:200B4000309771F4E1E0F0E0E093A305F093A405E0916205F0916305E093A505F093A60585
:200B60000E94671FA091A505B091A6050E940E260E94E22629F0E0E0E093A305E093A405F6
:200B8000D6010E945C1F0E94551FE02161F10E94541E0E945C1E0E94DE1E0E94701F0E9457
:200BA000741F0E94781F0E94781F0E94BC1C0E94BC1C4E2F55270E94BC1CF0E00E947E1FBA
:200BC0000024041605066CF4FA01AFEFB0E00E946E260E94621FEA0FFB1FE40FF51F0E942E
:200BE0007E1F0E94831FAE81BF811197C1F40E94541E0E945C1E0E948C1FE0E30E94641EE4
:200C00000E94501F39F4E1E0F0E0E093D505F093D60505C0E0E0E093D505E093D6050E9498
:200C2000541E0E945C1E0E948C1FE0E40E94641EF0E0E093D705F093D8050E94541E0E94BC
:200C40005C1E0E948C1FE0E50E94641EF0E0E093DB05F093DC050E94541E0E945C1E0E948B
:200C60008C1FE0E60E94641E0E94901FE091D505F091D605309711F00C94B4060E94961F6E
:200C8000ED37A0E0FA0719F4E3E0F0E068C0E837A0E0FA0719F4E4E0F0E061C0E337A0E0EB
:200CA000FA0719F4E5E0F0E05AC0EE36A0E0FA0719F4E6E0F0E053C0E936A0E0FA0719F46F
:200CC000E7E0F0E04CC0E436A0E0FA0719F4E8E0F0E045C0EF35A0E0FA0719F4E9E0F0E0E1
:200CE0003EC0EA35A0E0FA0719F4E8E1F0E037C0E535A0E0FA0719F4E9E1F0E030C0E03572
:200D0000A0E0FA0719F4EAE1F0E029C0EB34A0E0FA0719F4EBE1F0E022C0E634A0E0FA07FB
:200D200019F4ECE1F0E01BC0E134A0E0FA0719F4EDE1F0E014C0EC33A0E0FA0719F4EEE19D
:200D4000F0E00DC0E733A0E0FA0719F4EFE1F0E006C0E233A0E0FA0731F4E0E2F0E0E09328
:200D6000D905F093DA0590C00E949B1FE2E3F0E00E941826E02121F0E1E1F0E00E94A91F04
:200D80000E949B1FE7E3F0E00E941826E02121F0E2E1F0E00E94A91F0E949B1FECE3F0E073
:200DA0000E941826E02121F0E3E1F0E00E94A91F0E949B1FE1E4F0E00E941826E02121F060
:200DC000E4E1F0E00E94A91F0E949B1FE6E4F0E00E941826E02121F0E5E1F0E00E94A91F2C
:200DE0000E949B1FEBE4F0E00E941826E02121F0E6E1F0E00E94A91F0E94AE1FE2E3F0E001
:200E00000E941826E02121F0EBE0F0E00E94A91F0E94AE1FE7E3F0E00E941826E02121F0E0
:200E2000ECE0F0E00E94A91F0E94AE1FECE3F0E00E941826E02121F0EDE0F0E00E94A91FA5
:200E40000E94AE1FE1E4F0E00E941826E02121F0EEE0F0E00E94A91F0E94AE1FE6E4F0E08B
:200E60000E941826E02121F0EFE0F0E00E94A91F0E94AE1FEBE4F0E00E941826E02121F077
:200E8000E0E1F0E00E94A91F0E94EE265AC20E94541E0E94CA1E0E94BC1FE09138050E941A
:200EA000C11F0E94CA1E0E94311F0E94DE1EE09132050E94C11F0E94CA1E0E94E21E0E9440
:200EC000741F0E94541E0E94CA1E0E94701F0E94DE1EE5E00E94C11F0E94C51F0E944C1F38
:200EE0000E94DE1E0E94741F0E94541E0E94C51F0E948C1F0E94DE1E0E94741F0E94541E51
:200F00000E94C51F0E94CE1F0E94741F0E94541E0E94D31F0E94D61E0E94741F0E94541E00
:200F20000E94D31F0E94BC1FE2E00E94C11F0E94D31F0E94311F0E94DE1EE2E30E94C11FF1
:200F40000E94D31F0E94E21EEDE70E94C11F0E94DC1F0E94311F0E94CE1F0E94DE1E0E94A7
:200F6000541E0E94DC1F0E94E21E0E94DE1EE6E90E94C11F0E94DC1F0E94E41F0E944C1F82
:200F80000E94DE1EEBE90E94C11F0E94DC1F0E94E41F0E948C1F0E94DE1EEAEFEA930E9438
:200FA000C01C08950E94E9260E94E81F5CF00E94EE1F0E948B268F010E94EE1F0E94902679
:200FC0009F0102C00E94F31F0E94541E0E94CA1EE0E80E94F81F0E94E81F1CF00E94FE1F68
:200FE00006C0AF81AA2312F0EE8101C0E0E0EA930E94C01C0E9403205CF00E9409200E94C3
:201000008B268F010E9409200E9490269F0102C00E94F31F0E94541E0E94C51FE0E40E9456
:20102000F81F0E9403201CF00E94FE1F01C0EC81EA930E94C01C83C10E94541E0E940E20B8
:201040000E944C1F0E94A31E1A971CF4ECE5F4E002C0EDE5F4E0FA93EA930E9417200E94CD
:2010600024200E94A81E1A971CF4ECE5F4E002C0EDE5F4E0FA93EA930E9427200E9424201D
:20108000A091CD05B091CE051A971CF4ECE5F4E002C0EDE5F4E0FA93EA930E9434200895CE
:2010A0000E94541E0E940E200E94DE1E0E94A31E1A971CF4ECE5F4E002C0EDE5F4E0FA93F0
:2010C000EA930E9417200E9424200E94A81E1A971CF4ECE5F4E002C0EDE5F4E0FA93EA9394
:2010E0000E9427200E942420A091CD05B091CE051A971CF4ECE5F4E002C0EDE5F4E0FA93AF
:20110000EA930E94342008950E94541EEBE0EA930E94C01CE2E8EA930E94C01C0E944C1F13
:201120000E940E1FE091C905F091CA050E944120EA0FFB1FE093CF05F093D0050E94412099
:20114000DD976CF0E091CF05F091D005FC97E093CF05F093D005A1EDB5E00E949D1EE09101
:20116000CB05F091CC050E944620EA0FFB1FE093D105F093D2050E944620DD976CF0E09146
:20118000D105F091D205FC97E093D105F093D205A3EDB5E00E949D1EE091CD05F091CE05D2
:2011A0000E944B20EA0FFB1FE093D305F093D4050E944B20DD9774F0E091D305F091D405E0
:2011C000FC97E093D305F093D405E0E0E093D305E093D4050E9441201A971CF4ECE5F4E015
:2011E00002C0EDE5F4E0FA93EA93E091CF05F091D0050E9450200E9424200E9446201A9731
:201200001CF4ECE5F4E002C0EDE5F4E0FA93EA93E091D105F091D2050E9450200E94242010
:201220000E944B201A971CF4ECE5F4E002C0EDE5F4E0FA93EA93E091D305F091D4050E9484
:20124000502008950E94E9260E94541E0E94CA1E0E944C1F0E94DE1EEE850E94C11F0E94F0
:20126000CA1E0E948C1F0E94DE1EEC850E94C11F0E94C51F0E94D61EEA850E94C11F0E94F9
:20128000C51F0E94311F0E94DE1EE885EA930E94C01C0E94E81F5CF00E94EE1F0E948B267B
:2012A0008F010E94EE1F0E9490269F0102C00E94F31F0E94F026609608950E94E9260E94E3
:2012C000541E0E94C51F0E94E41F0A930E94C01C0E94E81F1CF00E94FE1F06C0AF81AA231F
:2012E00012F0EE8101C0E0E0EA930E94C01C0E9403205CF00E9409200E948B268F010E94A0
:2013000009200E9490269F0102C00E94F31F0E94541E0E94C51F0E94701F0A930E94C01C50
:201320000E9403201CF00E94FE1F06C0AD81AA2312F0EC8101C0E0E0EA930E94C01C0E94CF
:20134000F0262896089508950E944F1E0E945920E8D8E03011F00C94A00A0E94632041F5DF
:20136000E091E705F091E805309709F516DB0E94541E0E945C1E0E9469200E2F1127002EEE
:20138000012A31F4E0E0E093E905E093EA0506C0E1E0F0E0E093E905F093EA050E946F201F
:2013A0001D9A0E9475200E947D200E948320C7C0E130A0E0FA0731F41D980E947D200E94E7
:2013C0008A20BDC0E230A0E0FA0779F41E9A0E945920A0D8E03039F4E0DA0E9491200E94AF
:2013E00099201E9801C093DAAAC0E330A0E0FA0711F00C945B0AE091E905F091EA05E0930A
:20140000E105F093E205E091E905F091EA05309799F40E94A02062D8E03021F40E94AA202C
:201420000E94B3200E94A02060D8E03021F40E94BC200E94C52016C0E130A0E0FA0791F486
:201440000E94A0204BD8E03021F40E94AA200E94C5200E94A02049D8E03021F40E94BC20C9
:201460000E94B3200E94592055D8E13019F595DAA0919F05B091A005129721F4E3E0F0E015
:201480000E94CE200E94D320309721F4E2E0F0E00E94CE200E94D820E091EB05F091EC05BC
:2014A000309709F45CDAE091ED05F091EE05309709F45FDA44C0E430A0E0FA0711F00C9424
:2014C0009F0A0E94DF20129759F50E94E42011F40E94EA200E947D200E947D200E94E42050
:2014E00011F40E94F2200E947D200E947D200E94E42011F40E94FA200E947D200E947D20D0
:201500000E9475200E94E42011F40E9402210E947D200E947D200E947D200E948A200FC04C
:20152000E1E0F0E00E94CE20E0E0E093EB05E093EC05E093ED05E093EE050E940A2114C097
:20154000E13091F4D0D91D981E980E9491200E9410210E940A210E94162111F40E941C2131
:201560000E9425210E944B210E94D3200991199108950E942A1F0E945C1E0E9469200E2F90
:201580001127002E012A19F420E030E002C021E030E0F9010E94F026249608950E94E92610
:2015A0000E94F31FDE9A0E945121EC81FD810E171F070CF50E9459200E947102E13019F466
:2015C000DB9A21E030E00E9459200E9471020E945721D9010E945C21E02119F0DB9822E0C3
:2015E00030E0E2E0F0E0E217F30721F40F5F1F4F23E030E0DACF0E945121DE980E94F02667
:20160000269608950E94961FE093DF05F093E0050E94541E0E945C1E0E948C1FE0E60E9476
:20162000641E0E94901F0E94961FA091DF05B091E005EA17FB0711F40C94950B0E94961FA6
:20164000ED37A0E0FA0719F4E3E0F0E068C0E837A0E0FA0719F4E4E0F0E061C0E337A0E021
:20166000FA0719F4E5E0F0E05AC0EE36A0E0FA0719F4E6E0F0E053C0E936A0E0FA0719F4A5
:20168000E7E0F0E04CC0E436A0E0FA0719F4E8E0F0E045C0EF35A0E0FA0719F4E9E0F0E017
:2016A0003EC0EA35A0E0FA0719F4E8E1F0E037C0E535A0E0FA0719F4E9E1F0E030C0E035A8
:2016C000A0E0FA0719F4EAE1F0E029C0EB34A0E0FA0719F4EBE1F0E022C0E634A0E0FA0732
:2016E00019F4ECE1F0E01BC0E134A0E0FA0719F4EDE1F0E014C0EC33A0E0FA0719F4EEE1D4
:20170000F0E00DC0E733A0E0FA0719F4EFE1F0E006C0E233A0E0FA0731F4E0E2F0E0E0935E
:20172000D905F093DA050E94612108952C97E0E0E883E9830E94E7260E946A210E946F2140
:201740000E94752101E010E00E940A21E0E0E88BE98B0E947A211CF00E940A2102C00E9492
:201760007F21D8010E945C210E9486210E9497210E949D210E9497210E945C210E949721FB
:201780000E94A2210E9497210E94A7210E949721E4E0F0E00E941826E02911F40C94C00DD7
:2017A000D8010E945C210E948621E02911F40C94930CF801E130A0E0FA07B9F4DA010E94E6
:2017C0005C210E94AC210E22D601E8E0F0E00E942A26E02949F00E947A210CF4C59A02E0CC
:2017E00010E0E0E00E9475219EC0E230A0E0FA07D1F50E94E71E0E9484020E945721D6018A
:20180000E8E0F0E00E942A26E021EF930E94E71E0E948402A1E00E9413260E94AC21E02120
:20182000AF91EA2B11F0C5981BC00E94B321EF930E94E71E0E949102A1E00E941326AF91AA
:20184000EA2311F00E94BE210E94B321EF930E94E71E0E94CC21AF91EA2321F00E94D221D8
:2018600003E010E060C0E330A0E0FA0779F5A091AF05B091B005119769F40E94D92119F4EA
:20188000D89ADD9802C0DD9AD898E0E0E093AF05E093B0050E94E71E0E9480020E94E22139
:2018A000A091AF05B091B0050E949D21E02169F0AE81BF81119719F4D89ADD9802C0DD9A4F
:2018C000D8980E94E7210E94EE212DC0E430A0E0FA0749F50E9459200E947502E03011F434
:2018E0000E94FE210E94E71E0E948002E03041F40E940522C698C298E1E0F0E0E88BF98B0E
:20190000A889B9890E945C210E940F220E941922E02149F0D898DD980E940522E0E0E88B6A
:20192000E98B05E010E00E9459200E949102E03011F00C94AC0D0E946320C9F50E945920A6
:201940000E94CC21EF930E9459200E942022AF91EA2331F0A091EF05B091F005109709F00E
:2019600013C007DEE093F105F093F2054BDE0E946F2013D80E9475201D9A0E946F210E94C5
:2019800026220E94832012C00E9459200E947A020E94E221D9010E949D21E02131F0A0E826
:2019A000B5E00E949D1E21E030E0D5C0D4C0E130A0E0FA07A1F40E9459200E9491020E94E2
:2019C00057210E942F2249F00E9437222CF01D980E948A200E94472201C0BDC0BCC0E23074
:2019E000A0E0FA0701F50E9459200E949102E030B9F40E9437229CF01E9A0E9459200E9467
:201A00008A02E03051F40E944F220E945622E0E0EC87ED87EE87EF8702C00E94870402C075
:201A2000C19899C098C0E330A0E0FA0711F00C947C0DE091F105F091F2053097A9F40E94F9
:201A4000A0200E946E02E03021F40E945A220E9463220E94A0200E947502E03021F40E9408
:201A600067220E94702218C0E130A0E0FA07A1F40E94A0200E946E02E03021F40E945A22F3
:201A80000E9470220E94A0200E947502E03021F40E9467220E9463220E9459200E948A02D7
:201AA000E13031F40E94A0200E948402E03009F022C00E94CD041E98A091F505B091F605EB
:201AC000119731F4A091F305B091F405119709F002C00E94D820E091F305F091F40530972F
:201AE00011F40E94AF04E091F505F091F605309711F40E94B9042FC0E430A0E0FA0759F5A8
:201B00000E947F21E0E0E093F505E093F605E093F305E093F405E091F705F091F805FA9399
:201B2000EA93E091F905F091FA05FA93EA93C5DBE0E0E093F705E093F805E093F905E0930C
:201B4000FA050E947422E02109F0DA9A0E947F22E02109F0DA9A11C0E13079F40E948A2292
:201B60001E98DA980E940A210E946F210E9426220E94162111F40E941C210E949022F1CD85
:201B80000E94EE2662960895609780E1A0E0B0E0EEE9F0E00E94F5260E94E7260E94F31FCB
:201BA00040E050E00E946A210E946F210E94752101E010E00E940A21E0E0EC8BED8B0E944F
:201BC0007A211CF00E940A2102C00E947F210E94351F21F1E2E0F0E0E017F107F9F0E3E058
:201BE000F0E0E017F107D1F0E4E0F0E0E017F107A9F00E94A922109789F00E94A9221197A7
:201C000069F00E94A922129749F00E94A922139729F00E94A922149709F0EAC10E94351F3A
:201C200081F0E2E0F0E0E017F10759F0E3E0F0E0E017F10731F0E4E0F0E0E017F10709F04A
:201C400092C0F801E130A0E0FA0799F40E94AE2219F40E947A211CF40E947A214CF40E942F
:201C60007A210CF4C59A02E010E0E0E00E9475217AC0E230A0E0FA0781F50E94E71E0E9414
:201C80008402E03019F40E947A2154F00E94E71E0E948402E13019F40E947A210CF402C034
:201CA000C59818C00E94B32234F00E94E71E0E949102E13009F002C00E94BE210E94B322B4
:201CC00034F00E94E71E0E949102E03009F004C00E94D22103E010E046C0E330A0E0FA0735
:201CE00059F40E94D92119F4D89ADD9802C0DD9AD8980E94EE2137C0E430A0E0FA0799F593
:201D00000E9459200E947502E03011F40E94FE210E94E71E0E948002E03041F40E940522E0
:201D2000C698C298E1E0F0E0EC8BFD8BAC89BD890E945C210E940F22EAE0F0E060E070E0C4
:201D40000E943E26E02179F0D898DD98E1E0F0E0E093E305F093E4050E940522E0E0EC8BD6
:201D6000ED8B05E010E00E9459200E949102E03011F00C94E20F0E94632011F00C94120F3D
:201D80000E9459200E94CC21EF930E9459200E942022AF91EA2331F0A091FB05B091FC0537
:201DA000109709F02CC00E94BF220E94C422EA8BFB8BACE9BFEF0E946E26E88BF98BE7E05A
:201DC000EA93E6E0EA93EA89FB890E94CA22D1DBE093FD05F093FE05E093E105F093E20554
:201DE00011DC0E946F200E94CD040E9475201D9A0E946F210E9426220E94832012C00E948F
:201E000059200E947A020E94E221D9010E949D21E02131F0A0E8B5E00E949D1E21E030E09F
:201E2000D0C0CFC0E130A0E0FA07A1F40E9459200E9491020E9457210E942F2249F00E9424
:201E400037222CF01D980E948A200E94472201C0B8C0B7C0E230A0E0FA0701F50E945920AD
:201E60000E949102E030B9F40E9437229CF01E9A0E9459200E948A02E03051F40E944F2280
:201E80000E945622E0E0EC87ED87EE87EF8702C00E94870402C0C19894C093C0E330A0E052
:201EA000FA0711F00C94B20FA0914A05B0914B0580914C0590914D050E94D02214F0C698E3
:201EC000C298E091FD05F091FE053097A9F40E94A0200E946E02E03021F40E94D8220E9476
:201EE00063220E94A0200E947502E03021F40E94E1220E94702218C0E130A0E0FA07A1F4E5
:201F00000E94A0200E946E02E03021F40E94D8220E9470220E94A0200E947502E03021F4B8
:201F20000E94E1220E9463220E9459200E948A02E130B9F40E94A0200E948402E03019F427
:201F40000E94EA220CF008C00E94CD04E0E00E9426221E980E94D8200E94EA2214F00E944E
:201F6000D8202FC0E430A0E0FA0759F50E947F21E0E0E0930106E0930206E093FF05E093B6
:201F80000006E0910306F0910406FA93EA93E0910506F0910606FA93EA938FD9E0E0E0937E
:201FA0000306E0930406E0930506E09306060E947422E02109F0DA9A0E947F22E02109F0BB
:201FC000DA9A11C0E13079F40E948A221E98DA980E940A210E946F210E9426220E94162106
:201FE00011F40E941C210E9490220E949903EFCD0E94EE2666960895A89788E2A0E0B0E0A7
:20200000EEEAF0E00E94F5260E94E7260E94F31F40E050E0E0910005E0610E94EF220E949C
:20202000541E0E945C1E0E94F422E0E30E94641E4E2F55270E94AE2211F4D99A01C0D9985E
:202040000E94541E0E945C1E0E94F422E0E40E94641EF0E0ECA7FDA7ACA5BDA5119711F449
:20206000C59A01C0C5980E94541E0E945C1E0E94F422E0E50E94641EF0E0EAA7FBA7AAA5C0
:20208000BBA5119711F4C09A01C0C098022E032AD1F40E94541E0E945C1E0E94311FE0E8B4
:2020A0000E94641EF0E0EA8BFB8BAA89BB89119729F4E0E0E88BE98BDD9805C0E1E0F0E083
:2020C000E88BF98BD8980E94541E0E945C1E0E94F422E0E60E94641E2E2F3327E1E0F0E07F
:2020E000E217F30769F4AA89BB89119711F4D89ADD98A889B989119711F4D898DD9A02C0BC
:20210000D898DD980E94541E0E945C1E0E94F422E0E90E94641EF0E0EAA3FBA3AAA1BBA163
:20212000119721F4E0910005E06203C0E0910005EF7DE0930005E09362000E94541E0E9482
:202140005C1E0E94F422E0E80E94641EF0E0E8A3F9A3A8A1B9A1119721F4E0910005E06450
:2021600003C0E0910005EF7BE0930005E09362000E94541E0E945C1E0E94F422E0E70E941E
:20218000641EF0E0EE8FFF8FAE8DBF8D119711F4AD9A01C0AD980E94541E0E945C1E0E948F
:2021A000311FE0E00E94641EF0E0EC8FFD8FAC8DBD8D119711F4DC9A01C0DC980E94541E25
:2021C0000E945C1E0E948C1FE0E60E94641E0E94901F0E94961FED37A0E0FA0719F4E3E08F
:2021E000F0E068C0E837A0E0FA0719F4E4E0F0E061C0E337A0E0FA0719F4E5E0F0E05AC02E
:20220000EE36A0E0FA0719F4E6E0F0E053C0E936A0E0FA0719F4E7E0F0E04CC0E436A0E079
:20222000FA0719F4E8E0F0E045C0EF35A0E0FA0719F4E9E0F0E03EC0EA35A0E0FA0719F4FD
:20224000E8E1F0E037C0E535A0E0FA0719F4E9E1F0E030C0E035A0E0FA0719F4EAE1F0E07E
:2022600029C0EB34A0E0FA0719F4EBE1F0E022C0E634A0E0FA0719F4ECE1F0E01BC0E13415
:20228000A0E0FA0719F4EDE1F0E014C0EC33A0E0FA0719F4EEE1F0E00DC0E733A0E0FA078A
:2022A00019F4EFE1F0E006C0E233A0E0FA0731F4E0E2F0E0E093D905F093DA050E94541E97
:2022C0000E945C1E0E94311FE0E10E94641EF0E0EA8FFB8FAA8DBB8D119711F00C94B211AD
:2022E0000E94BF220E94F8220E949902EC87FD870E94BF220E94C422EA87FB87ACE9BFEF2A
:202300000E946E26E887F9870E94BF22E0E2F0E00E94FD22EE83FF83E7E0EA93E6E0EA9348
:20232000EA85FB850E94CA220E944B210E9461210E9410210E94D320309719F40E940123EC
:20234000F9CF0E9410210E94541E0E94DC1F0E94311F0E944C1F0E94DE1E0E94DE1EE0E036
:20236000EA8FEB8F0E94541E0E945C1E0E94311FE0E20E94641EF0E0E8A7F9A7A8A5B9A5B8
:20238000119711F4C69A01C0C6980E94541E0E945C1E0E94311FE0E30E94641EF0E0EEA3A7
:2023A000FFA3AEA1BFA1119711F4C29A01C0C2980E94541E0E945C1E0E94311FE0E40E9420
:2023C000641EF0E0ECA3FDA3ACA1BDA1119711F4C19A01C0C1980E94541E0E945C1E0E94DD
:2023E000311FE0E50E94641EF0E0E88FF98FA88DB98D119711F4C79A01C0C7980E94541E18
:202400000E945C1E0E94311FE0E60E94641EF0E0EE8BFF8BAE89BF89119711F4AC9A01C0BE
:20242000AC980E94541E0E945C1E0E94311FE0E70E94641EF0E0EC8BFD8BAC89BD89119759
:2024400011F4C49A01C0C4980E94541E0E945C1E0E94311FE0E90E94641EF0E0EE87FF8722
:20246000AE85BF85119751F5C398AA981A9AA99AC79A0E940423A9980E940423C39A1A9820
:202480000E940423D99AAB9AE8E8F3E10E940A23D998D998AB98C798C3980E940423AA985E
:2024A0000E9404230E94541E0E94DC1F0E94311F0E940E1F0E94DE1E0E94DE1E0E94AE2233
:2024C00011F40C94A012ACA5BDA51197C9F1AAA5BBA51197A9F1E1E0F0E0E217F30781F1A9
:2024E000AAA1BBA1119761F1A8A1B9A1119741F1AE8DBF8D119721F1AC8DBD8D119701F160
:20250000AA8DBB8D1197E1F0A8A5B9A51197C1F0AEA1BFA11197A1F0ACA1BDA1119781F013
:20252000A88DB98D119761F0AE89BF89119741F0AC89BD89119721F0AE85BF85119719F46F
:2025400001E010E002C000E010E0F8010E94EE26AE9608950E944F1E0E9447070E94E71EE2
:202560000E946E02E03019F40E945F04F7CF0E94CD040E94A3090E94CD040E9416040E94CF
:20258000CD040E94E71E0E948002E13011F4D89AF8CF0E94E721D898DD98AB98A998AA9AF9
:2025A0001A98C7980E94B9030E94CD040E942604E0919205E03029F50E940E23A0919B0593
:2025C000B0919C051197A9F40E944B21AA981A9A0E940423A99A0E940423AA9A1A980E9463
:2025E0001423AA981A9A0E940423A9980E946904FFCF002E012A11F40E941723FDDC8F0124
:20260000D7CFE0E0E093920591D8AD9A0E944B21AD988CD80E944B2189D80E944B2186D808
:202620000E9410210E940A210E94DF200E945C1F0E94DF200E94A2210E2A0E94DF200E94BB
:20264000A721E02919F00E940123EECF0E9410210E944B210E940E230E941C23AC9AE1E081
:20266000F0E04CC0E1E0F0E00E942423E0918A05F0918B0508951A930A931F9A0E94592038
:202680000E947102E03019F401E010E002C000E010E0002E012AB1F4A091AD05B091AE05D0
:2026A000159721F40E947D040E942923ADEAB5E00E949D1E0E942F23E1E0F0E0E09388053A
:2026C000F09389050E94351FA9F40E942923A0918805B0918905119739F40E94CD04E0E0D3
:2026E000E0938805E0938905E1E0F0E00E9435231F98DA98E0918E05F0918F0509911991C8
:2027000008950E944F1EE0911805F0911905309729F40E943A230E944003FDC0E130A0E0CA
:20272000FA0761F5AF9A0E94E71E0E947502E03031F40E94E71E0E947A02E03009F014C062
:20274000E0E0E0935205E0935305E0935405E09355050E944123E2E0F0E00E944B230E9441
:2027600050230E943A0409C00E9457230E94602324F00E9430040E944123CDC0E230A0E0ED
:20278000FA0759F40E9468233CF0AF980E944123E3E0F0E00E944B23BEC0E330A0E0FA0790
:2027A00059F40E9471233CF0AE9A0E944123E4E0F0E00E944B23AFC0E430A0E0FA0761F41F
:2027C0000E94712344F0AE98C49A0E944123E5E0F0E00E944B239FC0E530A0E0FA0759F4FE
:2027E0000E9468233CF0C4980E944123E6E0F0E00E944B2390C0E630A0E0FA0711F00C94F0
:202800004A140E94E71E0E947502E03031F40E94E71E0E947A02E13009F004C00E943A23D3
:202820000E9473230E94E71E0E947502E13031F40E94E71E0E947A02E03009F004C00E9436
:202840003A230E9473230E94E71E0E947502A0E00E941326EF930E94E71E0E942022AF917B
:20286000EA2331F0E3E0F0E00E944B230E9473230E94E71E0E947502E13031F40E94E71EB2
:202880000E947A02E13009F004C0E7E0F0E00E944B2341C0E730A0E0FA0759F40E94712389
:2028A0003CF0AD9A0E944123E8E0F0E00E944B2332C0E830A0E0FA0761F40E94712344F0AD
:2028C000AD98C49A0E944123E9E0F0E00E944B2322C0E930A0E0FA0759F40E9457230E941F
:2028E00080232CF0C498EAE0F0E00E944B2313C0EA30A0E0FA0779F40E944123E0E0E093FF
:202900001805E093190501E010E00E94EA2219F4E2E0F0E06F0194C30E944F1EE0911A0585
:20292000F0911B05309781F4E0E0E0935605E0935705E0935805E09359050E940522EAE128
:20294000F5E00E94882350C0E130A0E0FA0761F40E948D230E94962334F00E940522EAE1F9
:20296000F5E00E949E2340C0E230A0E0FA0761F40E948D230E94A32334F00E940522EAE1C5
:20298000F5E00E94AB2330C0E330A0E0FA0761F40E948D230E94802334F00E940522EAE1CA
:2029A000F5E00E94B02320C0E430A0E0FA0751F40E948D230E94802324F0EAE1F5E00E9426
:2029C000B52312C0E530A0E0FA0771F40E940522EAE1F5E00E94BA23E3E0F0E0EC15FD05D4
:2029E00019F4E4E0F0E06F012BC30E944F1EE0911C05F0911D05309791F4E0E0E0935A05B6
:202A0000E0935B05E0935C05E0935D050E94C123C398AA98ECE1F5E00E94882355C1E13001
:202A2000A0E0FA07F1F40E94CB23A230E0E0BE07E0E08E07E0E09E0734F0A091E305B09111
:202A4000E405119709F00CC0E0E0E093E305E093E4051A9A0E94C123ECE1F5E00E949E236A
:202A600033C1E230A0E0FA07E9F4A0919D05B0919E05119721F40E94D4230E94DB230E94A3
:202A8000CB230E94D0226CF0A99AC79A0E94C1230E94E42011F40E94EA20ECE1F5E00E9493
:202AA000AB2312C1E330A0E0FA07A1F40E94CB230E94802374F0A998A3E9B5E0ED91FD91A5
:202AC0003197FE93EE930E94C123ECE1F5E00E94B023FAC0E430A0E0FA0761F40E94E42035
:202AE00011F40E94F2200E94C123ECE1F5E00E94B523EAC0E530A0E0FA07A9F40E94CB230E
:202B00000E9460237CF0C39A1A980E94E42011F40E94FA200E94E223ECE1F5E0A6E0B0E04F
:202B2000A083B183D1C0E630A0E0FA07D1F40E94CB23A932E0E0BE07E0E08E07E0E09E07A7
:202B40007CF00E94E42011F40E940221D99AAB9A0E94C123ECE1F5E0A7E0B0E0A083B1834B
:202B6000B3C0E730A0E0FA07C9F50E9459200E9484020E9457210E94E8230E949D21E02121
:202B800011F00E94D4230E94ED230E2EE0913205F09133050E94CB230E9409260E943626ED
:202BA000E02131F0C398D9980E94C1230E94EF23E0913405F09135050E94CB230E94092627
:202BC0000E94E22654F4C398D998A1EBB5E00E949D1E0E94E2230E94EF2376C0E830A0E090
:202BE000FA07A9F50E94F6230E94ED23E02109F0AA9A0E94F6230E94E8230E949D21E021C2
:202C000009F0AA9A0E94CB230E9419220E2E0E94ED23E02141F00E94FF232CF0C79A0E9407
:202C2000C1230E94DB230E94CB230E9419220E2E0E94E8230E949D21E02141F00E94FF2364
:202C40002CF0C79A0E94C1230E94DB233DC0E930A0E0FA07F9F40E94CB23A630E0E0BE0762
:202C6000E0E08E07E0E09E07A4F0AB980E94CB23A232E0E0BE07E0E08E07E0E09E074CF0E4
:202C8000C7980E94C123ECE1F5E0AAE0B0E0A083B1831AC0EA30A0E0FA07B1F4E091970515
:202CA000F0919805E0939905F0939A050E94C123ECE1F5E00E94BA23E5E0F0E0EC15FD0584
:202CC00019F4E6E0F0E06F01BBC10E944F1EE0911E05F0911F05309791F4E0E0E0935E053B
:202CE000E0935F05E0936005E09361050E940924EEE1F5E00E9488230E94F11EA1C1E13068
:202D0000A0E0FA0791F40E940924AC980E94F7040E9413241CF00E94E42011F41B9A1C9A02
:202D2000EEE1F5E00E949E238BC1E230A0E0FA0701F50E941B240E94802344F00E94132484
:202D40001CF00E94E42011F41B981C980E941B240E9496236CF0E0910005EE7F0E94EF2227
:202D6000C19AC09A0E940924EEE1F5E00E94AB2367C1E330A0E0FA0711F00C940417A09112
:202D80009905B0919A050E945C210E2EA0919D05B0919E050E949D210E22A091A905B091F3
:202DA000AA050E949D210E22A091B305B091B4050E945C21E02109F50E9408040E94A504DA
:202DC000E1E0F0E0E093A905F093AA050E94E71E0E949102E030B9F4A091B305B091B40593
:202DE0000E945C1FD601E7E0F0E00E942426E02121F0A5EBB5E00E949D1EEEE1F5E00E9482
:202E0000B0230E9409241CC1E430A0E0FA07D1F50E942424DC9741F00E94CD04E0E0E093A4
:202E2000A905E093AA05C59A0E942424ECE3F0E00E941826EF930E94E71E0E94CC21AF9102
:202E4000EA23A9F00E9429240E942F240E9436240E943D240E944424EEE1F5E0A0E0B0E02B
:202E6000A083B183E7E0F0E06F010E94C40D0E942424DC9731F00E940924EEE1F5E00E94EE
:202E8000B523DEC0E530A0E0FA0711F00C949B170E941B24E9E1F0E060E070E00E943E26C2
:202EA000EF930E94E71E0E948402A1E00E941326AF91EA230E2EA0E0C599A1E0E1E00E941A
:202EC0001326E02149F0C69A0E940924EEE1F5E0A6E0B0E0A083B1830E941B24E2E3F0E0C9
:202EE00060E070E00E943E26EF930E94E71E0E948402A0E00E941326AF91EA2339F00E9478
:202F000009240E9408040E949104C598A0E0C599A1E0E0E00E941326EF930E94E71E0E947D
:202F2000CC21AF91EA2331F00E94CD04EEE1F5E00E94B02385C0E630A0E0FA07A1F40E9497
:202F40001B24AA31E0E0BE07E0E08E07E0E09E074CF0C29A0E940924EEE1F5E0A7E0B0E0F6
:202F6000A083B1836DC0E730A0E0FA0779F40E941B240E94A3234CF0C0980E940924EEE14D
:202F8000F5E0A8E0B0E0A083B1835AC0E830A0E0FA0779F40E941B240E94A3234CF0C598EB
:202FA0000E940924EEE1F5E0A9E0B0E0A083B18347C0E930A0E0FA0799F40E944C247CF082
:202FC000E091E105F091E205309709F4C2980E940924EEE1F5E0AAE0B0E0A083B18330C040
:202FE000EA30A0E0FA0771F40E944C2454F0C198AC9A0E940924EEE1F5E0ABE0B0E0A0832B
:20300000B1831EC0EB30A0E0FA07D1F40E944C24BCF00E940924EEE1F5E00E94BA23A6E304
:20302000B5E0ED91FD913197FE93EE93E7E0F0E0EC15FD0529F4E8E0F0E06F010E944E2442
:20304000F8010991199108950E9468240E945C1F0E946D24E02129F054DBE0930405F093D0
:2030600005050E9473240E9478240E947E240E948624E02129F050DCE0930605F0930705EC
:203080000E948B240E9478240E947E240E9490240E948624E02129F0A8DCE0930805F0931A
:2030A0000905E0910A05F0910B050E9478240E947E240E949024D601E5E0F0E00E941E26C7
:2030C0000E22E6E0F0E00E941E260E220E948624E02129F0FADDE0930A05F0930B05089525
:2030E000AA24BB240E94A1240E944E240E941C080E944003089524970E94E92600E010E024
:203100000E94A82420E030E00E94AE240E2ED6010E94A221E02189F00E9417230E94B02479
:203120000E94C324E02149F00E94C9240E94CE240E944424E3E0F0E06F010E94AE240E2EEC
:203140000E9473240E94D124D601E4E0F0E00E941826E021A9F00E9417230E94B0240E94C6
:20316000C324E02169F00E94C9240E94CE240E942F240E944003E5E0F0E06F010E94D7246F
:203180000E94AE240E2E0E9473240E94D1240E948B240E94D124D601E6E0F0E00E9418267A
:2031A000E021A9F00E9417230E94B0240E94C324E02169F00E94C9240E94CE240E942F2428
:2031C0000E9436240E944424E7E0F0E06F010E94AE240E2E0E9473240E94D1240E948B2411
:2031E0000E94D124E0910A05F0910B050E94D124D601E8E0F0E00E942426E02111F40C948F
:20320000451A0E9417232EDA0E942423E1E0F0E0E0938C05F0938D05D5010E945C210E2EA7
:20322000A0919205E1E00E9413260E22A0918A05B0918B050E945C210E94C324E02111F4BB
:203240000C94451A0E942F230E94A8240E94DD240E94E224E021C9F00E94ED2419F40BDA63
:203260000E9435230E94052514F00E94A8240E94DD24D9010E949D21E02131F0A2E8B5E0F8
:203280000E949D1E21E030E0E1CF0E94DD240E9411250E9417250E945C21E02161F00E94A4
:2032A000ED2419F4E8D90E9435230E94052514F00E94A824EACF0E94C40D0E94621F1397FE
:2032C00011F00C94AF19E0E1F0E0FA93EA93E0E8F0E00E94FD22E093E505F093E6053097FF
:2032E000F1F50E94DF030E94CD040E94C3040E9499030E94F822E0E3F0E00E94FD228F01AA
:203300000E94541E0E94F71EEA930E94C01C0E94351F21F50E94F822E0E4F0E00E94FD22CA
:20332000E0933805F09339050E94F822E0E7F0E00E94FD2233960E947E1F0E94831FE1E0FB
:20334000F0E0E0932C05F0932D050E941D250E9422250E9429250E94CD0401C0C8CF0E941A
:20336000F8220E940605A091C105B091C2050E945C210E2EA091C505B091C6050E949D21C5
:20338000E021C9F0E0E0E093C105E093C205E1E0F0E0E093C505F093C6050E94F703E4E0C4
:2033A000F0E00E947E1F0E94831FEEEFFFEFE0932C05F0932D05F60131966F01E8EEF3E0BF
:2033C000EC15FD051CF4E4E6F0E06F010E94621FE3E0F0E00E9430260E2E0E948624E02199
:2033E00051F00E94D7240E9429240E942F240E9436240E943D240E94621F139744F00E9469
:2034000050230E942F240E9436240E943D240E94621F129734F00E9450230E9436240E94A2
:203420003D240E94621F0E94DE2624F40E9450230E943D2455DE0E941D253197A091A70576
:20344000B091A8050E9418260E2EA091AB05B091AC050E949D21E021C1F00E944A040E94EB
:20346000821E0E94881E0E948E1EE0E0E093CD05E093CE05DC98DA980E94F7030E94DF03C5
:20348000E0E0E0939205CC24DD240E94F02628960895D601E8E0F0E00E9418260E2ED501FD
:2034A0000E949D21E02119F0E1E0F0E05F01D601E9E0F0E00E9424260E2ED5010E949D21E3
:2034C000E02111F40C942E1B042C0528A9F40E94671FA0916A05B0916B0580916C059091E7
:2034E0006D050E942D25E02121F0AAE7B5E00E949D1EE1E0F0E02F01062C0728A9F40E9470
:20350000671FA0916E05B0916F0580917005909171050E942D25E02121F0ACE7B5E00E94DF
:203520009D1EE1E0F0E03F010E9459200E943125D4010E949D210E22D601EBE0F0E00E9473
:203540002A260E9417250E949D21E021B9F00E943425E02111F00E943E250E9441255CF0DD
:203560000E9446250E9449250E944C2531970E9429250E942521E1E0F0E04F010E9459207F
:203580000E943125D4010E949D210E22D601E9E0F0E00E9418260E9417250E945C21E02180
:2035A00019F0E1E0F0E04F010E9459200E943125D4010E949D210E2A0E9411250E941725EB
:2035C0000E945C21E021B9F00E943425E02111F00E943E250E9441255CF00E9446250E941D
:2035E00049250E944C2531970E9429250E942521E1E0F0E04F010E9459200E943125D401E1
:203600000E949D210E2A0E94E224E021B9F00E943425E02111F00E943E250E9441255CF06A
:203620000E9446250E9449250E944C2531970E9429250E942521E1E0F0E04F01D2010E9464
:203640005C210E2ED3010E945C210E22D4010E945C21E02119F0E1E0F0E05F0108950C2CCA
:203660000D2811F00C94771BE0919205E03029F40E9417230E9450083AC00E940E230E9468
:203680001C230E9410210E940A210E94DF200E945C1F0E94DF200E94A2210E2A0E94DF20AE
:2036A0000E94A721E02919F00E940123EECF0E9410210E944F250E9429240E942F240E949C
:2036C00036240E943D240E94CD04DC98E0E0E093C505E093C6050E941D250E9422250E94FC
:2036E00029250E948408AC9AE1E0F0E06F010895EFEFEABBE0E0EBBBE8BBEFEFE7BBE0E09E
:20370000E5BBEFEFE4BBE0E0E1BBE2BBE3B9EFEFE2B9E0936100E0E0E0936200E09365003D
:20372000EFE1E0936400E0E0E0BFE7E0E3BFE0E0E2BFE1BFEFBDEEBDEDBDECBDE7BDE6BD28
:20374000EBBDEABDE9BDE8BDE0937900E0937800E5BDE4BDE3BDE0938B00E0938A00E093A7
:203760008900E0938800E0938100E0938000E0938700E0938600E0938500E0938400E09389
:203780008300E0938200E0936A00EABFE9BFE1E0E7BFE0E0E0937D00EBB9E8E1EAB9E6E096
:2037A000E0939500E0E0E0939000E7E6E9B9E0E0E0939800E9E1E0939900E8E1E0939A0058
:2037C000EEE0E0939D00E0919B00E064E0939B00E0E8E8B9E0E0E0BDE6B9EDB9E0937400BB
:2037E0000E948A2578940E9414230E9414230E94541E0E94F71EEA93C3D0E3E0F0E0FA93BF
:20380000EA930E94CE0ACC24DD24E0E0E0936205E0936305E0936405E09365050E94A1242B
:20382000AA24BB24E4E6F0E060E070E0E0936605F093670560936805709369050E94D72476
:20384000EEE3F0E060E070E0E0937605F093770560937805709379050E9410210E940A21B9
:20386000ECEDF0E0E0933405F0933505E0E0E0933205E0933305E0E5F0E0E0933805F09359
:203880003905E0E0E0932E05E0932F050E944F25E0E0E0939005E0939105E093A305E09368
:2038A000A405E093A505E093A605E093A905E093AA050E942923E0E0E093AB05E093AC05EC
:2038C000E093AF05E093B005E093B105E093B205E093B505E093B605E093B305E093B40594
:2038E000E093B705E093B805E093B905E093BA05E093BB05E093BC05E093BD05E093BE0534
:203900000E946F20E0E0E093C505E093C605E093D905E093DA05E093DB05E093DC05E0937E
:20392000DD05E093DE05E0939205E0938405E0938505E0938605E0938705E0938805E093DC
:203940008905E0938A05E0938B05E0938C05E0938D050E942F230C2C0D2821F40E94AA12F7
:203960006F01F9CF0E9499037ADE6EDB92DDC3DB0E94FF03F7CFFFCF5F9BFECFECB10895EA
:203980005D9BFECFE881ECB921960895EA81EA93F7DFA881B9810E949D1E2396089526976F
:2039A0000E94E72610E0AC85BD85E0E0F0E0ED93FC93EA89FB893196EA8BFB8B3197E49160
:2039C0002E2FE03011F40C94FC1DE12FE03039F4253211F411E002C00E9463250CC1E13058
:2039E000A9F4253219F40E94632504C112E040E000E02D3211F401E0FEC02B3211F44BE253
:203A0000FAC0203211F440E2F6C002C0E23039F450E013E0203311F40068EDC004C0E33055
:203A200011F00C94FB1D203310F02A3308F007C0AAE05A9F502DE22FE0535E0FDCC0E22F00
:203A4000E33649F40E946C25E889F989A481AA930E947225CFC0E33741F40E946C250E949C
:203A60007A250E942B1E1E2F0AC0E03761F40E946C250E947A250E94351E1E2F08600260B9
:203A80000F7730E035C0E43611F0E93611F4046002C0E53731F4ECE8F0E0EE83FF8315E069
:203AA0000DC0E83511F4086004C0E83711F00C94FA1DE6E9F0E0EE83FF8314E002FF14C0B9
:203AC0000E946C250E948225AB85AA233AF4EA85FB850E94EC25EA87FB874DE2403011F00A
:203AE0001F5F01C00B7F04C00E946C250E94822500FD11C0151778F407FF08C002FF04C0C4
:203B00000B7F242F115001C020E301C020E20E9463255150EFCF312F01FF17C03030A1F02F
:203B200003FF06C0EE81FF812591EE83FF8305C0AE81BF812D91AE83BF830E946325503016
:203B400009F051503150EACF4BC020E3EE81FF810E94CD26E887F987EE81FF813296EE83E8
:203B6000FF83E885F985AA85BB85AE17BF0750F02F5FA885B985EA85FB85EA1BFB0BEA873A
:203B8000FB87EFCF2A3328F003FF02C0295F01C0295D04FD1AC0213320F4A885B985119787
:203BA00009F409C0531710F000FF01C013C020E207FF0BC020E3006102FF07C00B7F4A93DC
:203BC0000E947225503009F051500E946325503009F051503150A885B985129708F0B5CF3D
:203BE00000FF08C0503031F05150E0E2EA930E947225F8CF10E0DDCEAC85BD850E94BF26E8
:203C00000E94EE2664960895FF92F82E26971A930A93DE0114960E94E8258D01E0E0EC83A4
:203C2000ED83EE83EF83DE0118960E94E8250E94BF26FA93EA931A930A93E6ECFCE1FA93DE
:203C4000EA93FE013896FA93EA93A9DE198108812896FF900895A991B991EE27FF276D91BF
:203C6000662311F03196FBCF0895AA27BB27E991F9910590002011F01196FBCFFD01089513
:203C80000E948F25E881EA930E94C325E0E0EA930E94A825EA830E949E25EA8108951A932B
:203CA0000A9300E010E00895EAE5EA930E94C01CE5EAEA930C94C01CE4E0EA930E94C01CA9
:203CC000E3E8EA930C94C01CEA930E94C01CE1E0EA930E94C01C0E94BC1C0E94BC1C0E94D3
:203CE000BC1C0E94BC1C0E94BC1C0E94BC1C0E94BC1C0E94BC1C0C94BC1CEE81FF81FA9396
:203D0000EA930895E0E0E093C705E093C8050895E0E0E093C905E093CA050895E0E0E0939A
:203D2000CB05E093CC0508950E94C326EF5FFF4F6F4F7F4F0E94C8260895ED91FD9131961F
:203D4000FE93EE930895A091C905B091CA050895A091CB05B091CC050895E2E0F5E0A1E040
:203D60000E94D626E3E7F0E0FA93EA930C947102E0E0E0934E05E0934F05E0935005E09366
:203D800051050895E0EDF7E0FA93EA930E94DC25DC980895E5E0EA930E94C01CE2E8EA93C7
:203DA0000E94C01CE0E0EA930C94C01CE0E3EA930E94C01CE0E0EA930C94C01CE0E0EA9318
:203DC0000C94C01CE0E6EA930E94C01CF7CFE2E0F5E0A1E00E94D626E3E7F0E0FA93EA9386
:203DE0000895E0E0E0939505E09396050895E3E0EA930E94C01CE0E8EA930E94C01CE2E06B
:203E0000EA930E94C01CE0E10895E3E2EA930E94C01CE2E8EA930E94C01CD0CFE0E9EA93DF
:203E20000C94C01CE6EDF0E0FA93EA9380E00E94041E229639CFEA930E94C01CE2E8EA9333
:203E40000E94C01CBBCFFA93EA9380E00E94041E229608950E94E92600E010E020E030E046
:203E600023CFE0E5EA930C94C01CE1E0F0E0E017F1070895F0E0E0933805F0933905A09103
:203E80003805B0913905DC970895EDE3F0E0E0933805F09339050895E0E1EA930C94C01CEE
:203EA0002E2F3327022E032A0895AE81BF81E1E0F0E00E9418260895E0E0F0E00E94182664
:203EC0000E2E0895A0913605B09137050895E0916205F09163056091640570916505089560
:203EE000E0E7EA930C94C01CE1E0EA930C94C01C0E94BC1C0E94BC1C0C94BC1CE09336052E
:203F0000F09337050895E0913605F0913705E093A705F093A8050895E0E2EA930C94C01C35
:203F2000F0E0E093DD05F093DE050895E091DD05F091DE050895A091D705B091D805E1E019
:203F4000F0E00E9418260E2EA091DB05B091DC050895E093D905F093DA050895A091D70548
:203F6000B091D805E2E0F0E00E9418260E2EA091DB05B091DC050895E0E4EA930E94C01CE6
:203F80001DCFEA930E94C01C8FCEE5E0EA930E94C01CE2E8EA930E94C01C7ECFE0E8EA93C6
:203FA0000E94C01C0BCFE5E0EA930E94C01CE2E8EA930E94C01CB0CFE5E0EA930E94C01CE5
:203FC000E2E8EA930C94C01CE0E6EA930C94C01CAE81BF81A030E1E0BE070895AE81BF818E
:203FE000EFEFF0E0089500E010E020E030E00895EA930E94C01C0A930C94C01CAFEF0A023B
:20400000F001E20F0895AC81BD81A030E1E0BE070895AC81BD81EFEFF0E00895EBE0EA93C5
:204020000E94C01CE2E8EA930E94C01C75CFE091C905F091CA050E9409260E94D12684E09C
:204040000E94041E26960895E0E6F4E0FCCEE091CB05F091CC050E9409260E94D12684E07E
:204060000E94041E26960895E091CD05F091CE050E9409260E94D12684E00E94041E26963E
:204080000895A091CF05B091D0050895A091D105B091D2050895A091D305B091D40508954F
:2040A0000E9409260E94D12684E00E94041E26960895E3E0F5E0A1E00E94D626E9E7F0E0BE
:2040C000FA93EA930895E091A105F091A20530970895E0E4EA930E94C01CE0E2F5CDE0E093
:2040E000E093BF05E093C0050895E0910005E460E0930005E09362000895E0E9F1E0FA93E9
:20410000EA930C94DC25E1E0F0E0E093A105F093A2050895E2E0F0E0E093A105F093A2053B
:204120000895E0910005EB7FE0930005E09362000895E3E0F0E0E093A105F093A2050895A5
:20414000E1E0F5E0A1E00E94D626E1E7F0E0FA93EA930895E1E0F0E0E093EB05F093EC0503
:20416000E09100050895E160E0930005E260E0930005E09362000895E1E0F0E0E093ED0551
:20418000F093EE05E09100050895EE7FE0930005ED7FE0930005E09362000895E0939F0544
:2041A000F093A0050895E0919F05F091A0050895E4E0F0E0E093A105F093A2050895A091BD
:2041C0009F05B091A0050895A091E105B091E20511970895E0910005E064E0930005E0938F
:2041E00062000895E0910005EF7BE0930005E09362000895E0910005E062E0930005E09353
:2042000062000895E0910005EF7DE0930005E09362000895E0E0E093A105E093A205089543
:20422000E0E0E0939F05E093A0050895E091BF05F091C00530970895E1E0F0E0E093BF054B
:20424000F093C005A7EBB5E078CDE091B505F091B605FA93EA93E091B105F091B205FA934D
:20426000EA93E091B705F091B805FA93EA93E091C305F091C405FA93EA93E0918005F09148
:204280008105FA93EA93E0918205F0918305FA93EA930C942209E8EEF3E0FA93EA930C9465
:2042A000DC25E4EFF1E0FA93EA930C94DC25A0E00E9413260E2E0895E1E0F0E00E94182609
:2042C0000895E091D905F091DA05FA93EA930E94CE0AE7CF20E030E040E050E082CDE0E0E9
:2042E000EC87ED87EE87EF870895E887E987EA87EB870895E8E0F0E0CE16DF060895E5E02D
:20430000F0E0E093A105F093A20508950E2ED801E2E0F0E00E9418260E2AE3E0F0E00E94F9
:2043200018260E2AE4E0F0E00E94182608950E2AA091A105B091A2050895E0E0F0E00E9430
:2043400018260895E2E0F0E00E9418260895E3E0F0E00E94182608950E2ED601E8E0F0E0B8
:204360000E9424260895A885B9858A859B85E0EDF7E060E070E00E943E2608950E94080495
:204380000E949B04C598E1E2FEE460E070E0E887F9876A877B8708950E949102A0E00E9474
:2043A000132608950E94CD04E0E09FDFC298C6980895C7980E94DD04EE83FF83AE81BF81DD
:2043C00011970895A1E00E9413260E2E0895E1E0F0E0E093AF05F093B0050895E0E0E093A3
:2043E000B305E093B405E0933E05E0933F05E0934005E093410504E010E00895E1E0F0E0F9
:20440000E093B305F093B4050895E0E0E0933E05E0933F05E0934005E093410508950E2E21
:20442000A0913E05B0913F0580914005909141050895E5E0F0E060E070E00E943E26089561
:204440000E947A02A0E00E9413260895E0934A05E0934B05E0934C05E0934D050895A0E01B
:20446000C199A1E0E0E00E941326E0210895A0914A05B0914B0580914C0590914D05A6306C
:20448000E0E0BE07E0E08E07E0E09E070895E0E0DDDFE0E0EC87ED87EE87EF87089541E074
:2044A00050E0E0E022DF0E94CD0443CEE0E0CEDF1E9837CEE1E0F0E0E093F305F093F405E7
:2044C000A7EFB5E03ACC3197E09100054CCEE1E0F0E0E093F505F093F605A9EFB5E02DCCB1
:2044E0003197E091000551CED601EAE0F0E00E9424260E2EA091D505B091D6051ECFD601DB
:20450000E9E0F0E00E9424260E2EA091D505B091D605D2CE0E94CD040E9473041D9801CE03
:20452000EC85FD856E857F85EF5FFF4F6F4F7F4FEC87FD876E877F87E885F9856A857B859D
:20454000EF5FFF4F6F4F7F4FE887F9876A877B870895A091A105B091A2050895E1E0F0E0C7
:20456000E417F5070895A885B9858A859B85A13DE7E0BE07E0E08E07E0E09E070895E0E686
:20458000F0E0FA93EA930895E0E1F0E0FA93EA930C9499020E9409260E94D1260C941203AF
:2045A000AB30E0E0BE07E0E08E07E0E09E070895E1E0F0E0E093FF05F0930006A3E0B6E09A
:2045C000BCCBE1E0F0E0E0930106F0930206A5E0B6E0B3CBE1E0F0E0EC15FD050895E09381
:2045E0000005E09362000895E0E4EA930C94C01CE0E0F0E0FA93EA930895FA93EA930C94A6
:2046000099020E94A409CACDE8EBFBE0FA93EA930C94DC25FA93EA930C94DC25E1E0F0E084
:20462000FA93EA930C940605E0EDF7E0F3CF0E94E703E09392050895E091D905F091DA057D
:20464000FA93EA930C94CE0AE0938A05F0938B050895E0E0E093AD05E093AE050895E0E0BE
:20466000E0938E05E0938F050895E0938E05F0938F050895E1E0F0E0E0931805F093190514
:204680000895E0E0E0933A05E0933B05E0933C05E0933D050895E0931805F0931905089584
:2046A000E1E0F0E0E0933005F09331050895A0913A05B0913B0580913C0590913D05089528
:2046C000A531E0E0BE07E0E08E07E0E09E070895EEDFA932E0E0BE07E0E08E07E0E09E0741
:2046E0000895E5DFEDCFE5E1F0E060E070E0E0933A05F0933B0560933C0570933D050895EC
:20470000A333E0E0BE07E0E08E07E0E09E070895A1E0B0E0A083B1830895A0913E05B0912D
:204720003F0580914005909141050895AD33E0E0BE07E0E08E07E0E09E070895A2E0B0E00D
:20474000A083B1830895AF31E0E0BE07E0E08E07E0E09E070895A3E0B0E0A083B1830895A2
:20476000A4E0B0E0A083B1830895A5E0B0E0A083B1830895A0E0B0E0A083B18301E010E0F0
:204780000895E0E0E0934205E0934305E0934405E09345050895A0914205B091430580911F
:2047A0004405909145050895E1E0F0E0E0939705F0939805E6CFECE1F5E0A9E0B0E0A08355
:2047C000B1830895E0E0E0939705E0939805D9CFA0919705B09198050895FADF6DCDECE159
:2047E000F5E0A8E0B0E0A083B1830895D4DFE0E0F0E060E070E00E943E260E2E0895C798C7
:20480000CADFAE30E0E0BE07E0E08E07E0E09E070895E0E0E0934605E0934705E093480538
:20482000E09349050895A0913805B0913905A634E0E0BE070895A0914605B0914705809117
:204840004805909149050895A0913805B09139050895E0E0E0930405E09305050895E6E059
:20486000F5E0A0E0B0E0A083B1830895E8E0F5E0A0E0B0E0A083B1830895EAE0F5E0A0E09F
:20488000B0E0A083B18308950E944003E0E0E0933005E09331050895CEDF12CFE0E0E09340
:2048A0006A05E0936B05E0936C05E0936D05E0936E05E0936F05E0937005E0937105E093CC
:2048C0007205E0937305E0937405E09375050895A0910405B09105050895D601E0E0F0E077
:2048E0000E941E260895E0910605F09107050895A0E0B0E00E9418260E2EEFCF0E22D6019E
:20490000E1E0F0E00E941E260E220895A0913005B0913105D1CCE0910805F091090508952F
:20492000D601E2E0F0E00E941E260E22E3E0F0E00E941E260E22E4E0F0E00E941E260E22A5
:2049400008954424552466247724882499240895E0E0EC83ED83EE83EF830895B9DFACCC7F
:204960000E94321371DEE1E0F0E0E0938C05F0938D05A09192050E9413260E2EA0918A05B8
:20498000B0918B0599CC0E22A0918C05B0918D0593CC0E94C40D0E941C082ACE0E940605DF
:2049A00058CFA1E0B0E00E9418260E220895E0E0E0933005E09331050895A0918E05B0915F
:2049C0008F057ACAD601EBE0F0E00E9424260E22A091D505B091D605B0CCEC81FD816E81F4
:2049E0007F81EF5FFF4F6F4F7F4FEC83FD836E837F83AC81BD818E819F81A130E0E0BE07BD
:204A0000E0E08E07E0E09E070895AC81BD818E819F81A536E0E0BE07E0E08E07E0E09E078B
:204A20000895D601EAE0F0E00E94242608950E22A091D505B091D6050895E0912C05F091C8
:204A40002D050895FA93EA93E091B905F091BA050895FA93EA930C94D2070E943E260E2EAC
:204A6000E0CF0E94800223CC32DAA0917205B09173058091740590917505EFCFAEE7B5E0FA
:204A80005CC9EAE0F0E0CE16DF060895ACE2B5E054C9A9EBB5E051C9D0DF3197D3CFE0E095
:204AA000E0932C05E0932D05EFEFFFEFE0937A05F0937B05E0937C05F0937D05E0937E05FD
:204AC000F0937F0508952A93ED85FE85FA93EA93E989FA8909950895E889F9893497E88B15
:204AE000F98B0895ED85FE85FA93EA93E989FA8909950895A889B98914960E94BF26EE8351
:204B0000FF83FBC8A889B98914960E94BF26EA87FB87089590989198889A899815C0899892
:204B20008898EE270000819B0895809B089504D0899A02D0889AE1E06BE107C0899A889ACB
:204B400003D08898F9DF899865E36A95F1F7089578E08898F1DF809BFECFEEDF889481996A
:204B60000894889AF1DFEE1F7A9599F77991772311F4899801C0899ADFDF8898E5DF889A89
:204B8000DBDF8998D9CFE99178E0EE0F10F4899801C0899AD9DF8898CFDF809BFECFCCDFA1
:204BA000889A7A9591F78998C7DF8898CDDFE1E08199EE27889AC0CFE991F991309639F015
:204BC00080EA9FE00197F1F7A8953197C9F708950024AF0DB01D0895F195E195F0400895F7
:204BE000F09560957095E195FF4F6F4F7F4F0895EE230E2EFD01BC0131F076956795F7958D
:204C0000E7950A94D1F70895E62FF72F60E070E008956F2F660F660B762F08958B2F880F96
:204C2000880B982F0895EA17E1E009F0EE270895EA17FB07E1E009F0EE270895EA17FB079E
:204C4000E1E009F4EE270895AE17BF07E1E00CF4EE270895AE17BF07E1E00CF0EE270895EC
:204C6000EA17FB07E1E00CF0EE270895AE17BF0786079707E1E00CF4EE270895EA17FB0796
:204C800068077907E1E00CF0EE270895FA9FF02DEB9FF00DEA9FE02DF10D08957A9F702D92
:204CA0006B9F700DF89F700DE99F700D6A9F602D710DFB9F600D711DE89F600D711D88277A
:204CC000FA9FF02D610D781FEB9FF00D611D781FEA9FE02DF10D681F781F08952FD0D6DF7A
:204CE0000EF47ADF089538D0D9DF0EF479DF08950024112490E1AA0FBB1F001C111C0E1A37
:204D00001F0A18F40E0E1F1E01C0A1609A9599F7FD01D001089512D0EBDF0EF45DDF089591
:204D2000E894B7FF04C0A095B09511966894F7FD53DFDEDFFD010EF44FDF0895E894F7FF40
:204D400002C04ADF6894B7FF06C0A095B095119600F8039400FA0895E89477FF02C040DFD6
:204D6000689497FF0BC00024A095B095809590951196801D901D00F8039400FA0895ED9169
:204D8000FC9111970895ED91FD916D917D9108957E936E93FE93EE9308950590F491E02DA4
:204DA00008957A936A93FA93EA930895BB27EA0FFB1F02900A921197E1F7089500240A1621
:204DC0000B060895EA17FB076807790708955A934A933A932A931A930A9308955D814C81B0
:184DE0003B812A81198108810895AC0FBD1F05900D928A95E1F7089535
:00000001FF
