:200000000C94DB010C9400000C9400000C9400000C9400000C9400000C9400000C94000004
:200020000C9400000C9400000C9400000C9400000C9400000C9400000C9400000C940000C0
:200040000C9445020C9400000C9400000C9400000C9400000C9400000C9400000C94000059
:200060000C9400000C9400000C9400000C9400000C9400000C9400000C9400000C94000080
:200080000C9400000C9400000C9400001027E80364000A00010000100001100001000000CD
:2000A000000000000000000000000000000000000000000000000000000000000000202000
:2000C000202020202020202020202020202020202020202020202020202020202020202020
:2000E00020202020202000496E69636A616C697A756A65206D61737A796E65005779637A8B
:2001000079737A637A6F6E6F206D61737A796E65004D61737A796E61207A61696E69636A3E
:20012000616C697A6F77616E6100437A656B616D206E612070726574206777696E746F77A5
:20014000616E79005072616361005A616B726563696C656D2077737A7973746B6965207AB2
:200160006164616E652070756368617279004272616B2077796D6167616E65676F206369AF
:20018000736E69656E696120362062617200446F7A6F776E696B206B6C656A7520707265D6
:2001A000746F77206E696520676F746F777900446F7A6F776E696B206B6C656A75206E6141
:2001C0006B726574656B206E696520676F746F77790057796C61637A206D61737A796E65D3
:2001E000206920706F637A656B616A2031206D696E757465004F64736C6F6E2069207A72F8
:2002000065736574756A206B757274796E65004D6F6E7465722033206E6965206E6163693D
:20022000736E616C20706564616C6100437A656B616D206E612072756368206C616E63753A
:2002400063686100506F707261772070726574207A2067727A79626B69656D2069206E6118
:200260006369736E696A2067757A696B005573756E2070726574207A6520737A637A656B75
:200280002069206E616369736E696A2067757A696B0057796D69656E206C7562206E616BE6
:2002A0007265632F646F6B7265632067727A7962656B2069206E616369736E696A2067754B
:2002C0007A696B004D6F6E7465722033202D207A64656D6F6E74756A2070756368617220F8
:2002E0006920706F7477696572647A004D6F6E7465722033202D2077797A776F6C207265A5
:20030000637A6E696520637A756A6E696B207075636861726100534C415645206E696520AB
:20032000706F7477696572647A696C20706F64616E6961206E616B7265746B6900534C41AB
:200340005645206E696520706F7477696572647A696C207A657A776F6C656E6961206E6172
:2003600020737A637A656B690020202020202020202020202020202020202020202020207A
:20038000202020202020202020202020202020202020202020202020202020003025640044
:2003A0003A0001002D4E414E00494E4600000100E105A2030000F894EE27ECBBF1E0F5BFC2
:2003C000E5BFE0936C00F8E1F1BDE1BD8DE0A2E0BB27ED938A95E9F780E090E1A0E0B1E043
:2003E000ED930197E9F7EEEAF3E085919591009761F0A591B59105901590BF01F00105903A
:200400000D920197E1F7FB01F0CF8BBFEFEFEDBFE0E1EEBFC0E0D5E00C9439160E94F018E2
:2004200025C00E94F018E69521C00E94F018E695E6951CC00E94F018E695E695E69516C064
:200440000E94F018E29512C00E94F018E295EF70E6950CC00E94F018E295EF70E695E6956C
:2004600005C00E94F018EE1FE0E0EE1FE170239608950E94FF180E9405190E940B19E0E08D
:20048000E093C905E093CA0508956A937A93AA93BA93EA93FA93EFB7EA93AAE3B5E00E94B7
:2004A0001119AEE3B5E00E941119A2E4B5E00E941119A6E4B5E00E941119A3ECB5E00E9488
:2004C0001A19A091C305B091C405DC97D1F40E94FF18A5ECB5E00E941A190E942019DC97AC
:2004E00081F40E940519A7ECB5E00E941A190E942519DC9731F40E940B19A9ECB5E00E94C0
:200500001A19E991EFBFF991E991B991A9917991699118950E942A19E13009F4DC9AA0E05E
:20052000DC99A1E0E1E00E94571FEF930E942A19A0E00E94571FAF91EA2321F0A7EBB5E068
:200540000E9411190E942A190E943519A091B705B091B8058091B9059091BA05E0EAF6E8B8
:2005600061E070E00E94821FE02141F00E943A19DC98E0E0E0938B05E0938C0508951A93FB
:200580000A9301E010E0F80123C00E9444190E942A19E13011F4DC9AFACF0E94491904319F
:2005A000E0E01E077CF40E942A19E13041F40E942A19E13011F4DC9AFACF0E9449190F5F0F
:2005C0001F4FEDCFE4E1F0E0E0938D05F0938E050991199108950E9451190E9459190E949E
:2005E00065190E946919E0E02EC0E0E0E0938A050E9451190E946D190E9469190E94651971
:200600000E947519E0938A05F0E008950E9451190E9459190E948B190E946919E1E013C01D
:200620000E948F1917DFE03011F4DF9801C0DF9A0895A1E9B5E00E941A190E9499190E942D
:2006400051190E949F19EA930E946B1708950E9451190E94AD190E94B6190E94BA19E7E176
:200660000E94C3190E94B619E7EEF0E092C00E945119EBE10E94C3190E94B619E1E1F1E03A
:2006800088C00E945119ECE10E94C3190E94B619EAE2F1E07EC00E9451190E94AD190E9459
:2006A000B6190E94BA19E8E00E94C3190E94B619E4E4F1E06EC00E945119EBE10E94C31922
:2006C0000E94B619EEECF0E00E94CB190E945119E6E20E94C3190E94B619EAE4F1E059C0FE
:2006E0000E945119E2E20E94C3190E94B619EEE6F1E04FC00E945119E5E20E94C3190E9494
:20070000B619E2EDF1E045C00E945119ECE10E94C3190E94B619E5EFF1E03BC00E945119F1
:20072000EFE10E94C3190E94B619EFE0F2E031C00E945119EAE10E94C3190E94B619ECE2D4
:20074000F2E027C00E945119EBE20E94C3190E94B619E4E4F2E01DC00E945119E7E20E942A
:20076000C3190E94B619EDE6F2E013C00E945119E4E30E94C3190E94B619E2E9F2E009C08C
:200780000E945119E5E30E94C3190E94B619E9E6F3E0FA93EA9380E00E94B41822960895C7
:2007A0000E94D2190E9451190E946D190E94D9190E94DD190E9475190E2F1127E1E0F0E016
:2007C000E017F10721F420E030E0DD9803C021E030E0D898F8010E943420249608950E9464
:2007E0002B2040E050E0E0E0E0938A0510E0AE81BF81119711F00C9442040E9451190E9400
:200800006D190E9469190E94E119F0E00E94E6190E94EB19DC9721F4EDE3F0E00E94E619B2
:200820000E9451190E946D190E94F0190E94F0190E9475190E94F41939F4E1E0F0E0E0931E
:200840009905F0939A0505C0E0E0E0939905E0939A050E9451190E946D190E94F0190E94AF
:20086000F9190E9475190E94F41939F4E1E0F0E0E0939705F093980505C0E0E0E093970506
:20088000E09398050E9451190E946D190E9469190E94D9190E947519F0E0E0933205F0932F
:2008A00033050E94FD191E2EAE81BF810E94041A0E940A1AE4E0F0E00E94741FE021E12933
:2008C00079F10E9451190E946D190E9469190E948B190E9475190E94F41939F4E1E0F0E073
:2008E000E093BD05F093BE0505C0E0E0E093BD05E093BE05E0916E05F0916F05609170054E
:2009000070917105A7E0B0E080E090E00E94B71FE0935A05F0935B0560935C0570935D0593
:20092000E0919F05F091A005309771F4E1E0F0E0E0939F05F093A005E0915A05F0915B05CF
:20094000E093A105F093A2050E940F1AA091A105B091A2050E94521F0E94262029F0E0E0F6
:20096000E0939F05E093A005D6010E94041A0E94FD19E02161F10E9451190E946D190E94D0
:2009800069190E94181A0E941C1A0E94201A0E94201A0E9467170E9467174E2F55270E9496
:2009A0006717F0E00E94261A0024041605066CF4FA01AFEFB0E00E94B21F0E940A1AEA0F03
:2009C000FB1FE40FF51F0E94261A0E942B1AAE81BF811197C9F40E9451190E946D190E9483
:2009E000F9190E9465190E9475190E94F41939F4E1E0F0E0E093D105F093D20505C0E0E000
:200A0000E093D105E093D2050E9451190E946D190E94F9190E94E119F0E0E093D305F09321
:200A2000D4050E9451190E946D190E94F9190E94D9190E947519F0E0E093D705F093D805B2
:200A40000E9451190E946D190E94F9190E948B190E9475190E94341AE091D105F091D205A9
:200A6000309711F00C94A7050E943A1A19F4E3E0F0E068C0E837A0E0FA0719F4E4E0F0E063
:200A800061C0E337A0E0FA0719F4E5E0F0E05AC0EE36A0E0FA0719F4E6E0F0E053C0E93664
:200AA000A0E0FA0719F4E7E0F0E04CC0E436A0E0FA0719F4E8E0F0E045C0EF35A0E0FA071B
:200AC00019F4E9E0F0E03EC0EA35A0E0FA0719F4E8E1F0E037C0E535A0E0FA0719F4E9E1C3
:200AE000F0E030C0E035A0E0FA0719F4EAE1F0E029C0EB34A0E0FA0719F4EBE1F0E022C0E4
:200B0000E634A0E0FA0719F4ECE1F0E01BC0E134A0E0FA0719F4EDE1F0E014C0EC33A0E001
:200B2000FA0719F4EEE1F0E00DC0E733A0E0FA0719F4EFE1F0E006C0E233A0E0FA0731F472
:200B4000E0E2F0E0E093D505F093D60590C00E94421AE2E3F0E00E945C1FE02121F0E1E184
:200B6000F0E00E94501A0E94421AE7E3F0E00E945C1FE02121F0E2E1F0E00E94501A0E9491
:200B8000421AECE3F0E00E945C1FE02121F0E3E1F0E00E94501A0E94421AE1E4F0E00E9456
:200BA0005C1FE02121F0E4E1F0E00E94501A0E94421AE6E4F0E00E945C1FE02121F0E5E17A
:200BC000F0E00E94501A0E94421AEBE4F0E00E945C1FE02121F0E6E1F0E00E94501A0E9428
:200BE000551AE2E3F0E00E945C1FE02121F0EBE0F0E00E94501A0E94551AE7E3F0E00E94CE
:200C00005C1FE02121F0ECE0F0E00E94501A0E94551AECE3F0E00E945C1FE02121F0EDE0F3
:200C2000F0E00E94501A0E94551AE1E4F0E00E945C1FE02121F0EEE0F0E00E94501A0E94B7
:200C4000551AE6E4F0E00E945C1FE02121F0EFE0F0E00E94501A0E94551AEBE4F0E00E945F
:200C60005C1FE02121F0E0E1F0E00E94501A0E943220BEC00E9451190E9459190E94631A99
:200C8000E09138050E94681A0E9459190E94D9190E946919E09132050E94681A0E945919D6
:200CA0000E948B190E9469190E941C1A0E9451190E9459190E94181A0E946919E5E00E9473
:200CC000681A0E946C1A0E94F0190E9469190E941C1A0E9451190E946C1A0E94F9190E9439
:200CE00069190E941C1A0E9451190E946C1A0E94DD190E9469190E941C1A0E9451190E9424
:200D0000751A0E9465190E9469190E941C1A0E9451190E94751A0E94631AE2E00E94681AE6
:200D20000E94751A0E94D9190E946919E2E30E94681A0E94751A0E948B190E946919EDE772
:200D40000E94681A0E947E1A0E94DD190E9469190E94691908950E942D200E94871A5CF03A
:200D60000E948D1A0E94CF1F8F010E948D1A0E94D41F9F0102C00E94921A0E9451190E94CE
:200D800059190E94DD190A930E94971A1CF00E949A1A06C0AF81AA2312F0EE8101C0E0E042
:200DA000EA930E946B170E949F1A5CF00E94A51A0E94CF1F8F010E94A51A0E94D41F9F01D4
:200DC00002C00E94921A0E9451190E946C1A0E94AA1A0A930E946B170E949F1A1CF00E949F
:200DE0009A1A01C0EC81EA930E946B170E943420289608950E9451190E94AE1A0E94F019FE
:200E00000E9420191A971CF4ECE9F3E002C0EDE9F3E0FA93EA930E94B71A0E94C41A0E9484
:200E200025191A971CF4ECE9F3E002C0EDE9F3E0FA93EA930E94C71A0E94C41AA091C90594
:200E4000B091CA051A971CF4ECE9F3E002C0EDE9F3E0FA93EA930E94D41A08950E9451196B
:200E60000E94AE1A0E9469190E9420191A971CF4ECE9F3E002C0EDE9F3E0FA93EA930E9489
:200E8000B71A0E94C41A0E9425191A971CF4ECE9F3E002C0EDE9F3E0FA93EA930E94C71AC0
:200EA0000E94C41AA091C905B091CA051A971CF4ECE9F3E002C0EDE9F3E0FA93EA930E9423
:200EC000D41A08950E945119EBE0EA930E946B17E2E8EA930E946B170E94F0190E94B61988
:200EE000E091C505F091C6050E94E11AEA0FFB1FE093CB05F093CC050E94E11ADD976CF0B7
:200F0000E091CB05F091CC05FC97E093CB05F093CC05ADECB5E00E941A19E091C705F09153
:200F2000C8050E94E61AEA0FFB1FE093CD05F093CE050E94E61ADD976CF0E091CD05F0915E
:200F4000CE05FC97E093CD05F093CE05AFECB5E00E941A19E091C905F091CA050E94EB1A55
:200F6000EA0FFB1FE093CF05F093D0050E94EB1ADD9774F0E091CF05F091D005FC97E0939F
:200F8000CF05F093D005E0E0E093CF05E093D0050E94E11A1A971CF4ECE9F3E002C0EDE938
:200FA000F3E0FA93EA93E091CB05F091CC050E94F01A0E94C41A0E94E61A1A971CF4ECE95D
:200FC000F3E002C0EDE9F3E0FA93EA93E091CD05F091CE050E94F01A0E94C41A0E94EB1A5F
:200FE0001A971CF4ECE9F3E002C0EDE9F3E0FA93EA93E091CF05F091D0050E94F01A08952F
:201000000E942D200E9451190E9459190E94F0190E946919EE850E94681A0E9459190E94A5
:20102000F9190E946919EC850E94681A0E946C1A0E9465190E946919EA850E94681A0E9444
:201040006C1A0E94D9190E946919E885EA930E94971A5CF00E948D1A0E94CF1F8F010E94BE
:201060008D1A0E94D41F9F0102C00E94921A0E9451190E946C1A0E948B190A930E94971A1A
:201080001CF00E949A1A06C0AF81AA2312F0EE8101C0E0E0EA930E946B170E949F1A5CF0F1
:2010A0000E94A51A0E94CF1F8F010E94A51A0E94D41F9F0102C00E94921A0E9451190E945B
:2010C0006C1A0E94181A0A930E946B170E949F1A1CF00E949A1A06C0AD81AA2312F0EC8108
:2010E00001C0E0E0EA930E946B170E9434206096089508950E9444190E94F91AB2D9E03059
:2011000011F00C942D09E0919D05F0919E05309761F5E091DB05F091DC05309729F530DB01
:201120000E9451190E946D190E94AA1A0E94F9190E9475190E2F1127002E012A31F4E0E07E
:20114000E093DD05E093DE0506C0E1E0F0E0E093DD05F093DE050E94031B1D9A0E94091B95
:201160000E94111B0E94171B77C0E130A0E0FA0731F41D980E94111B0E941E1B6DC0E23042
:20118000A0E0FA0771F41E9A0E94F91A63D9E03031F4F6DA0E94251B0E942D1B01C0C8DA8C
:2011A0005BC0E330A0E0FA0711F00C941909E091DD05F091DE05309779F40E94351B2ED9D9
:2011C000E03011F40E943F1B0E94351B2ED9E03011F40E944A1B12C0E130A0E0FA0771F420
:2011E0000E94351B1BD9E03011F40E944A1B0E94351B1BD9E03011F40E943F1B0E94F91A41
:2012000029D9E130A9F4BCDAA0919B05B0919C05129721F4E3E0F0E00E94551B0E945A1B5B
:20122000309721F4E2E0F0E00E94551B0E945F1B13C0E430A0E0FA0779F40E94661B129771
:2012400029F40E94111B0E941E1B06C0E1E0F0E00E94551B0E946B1B15C0E13099F454DA96
:201260001D981E980E94251B0E94711BE091BB05F091BC05309711F40E94771B0E94801B43
:201280000E94A61B0E945A1B0991199108952C97E0E0E883E9830E942B2020E030E040E07C
:2012A00050E00E9499190E94AC1B0E94B21B01E010E00E946B1BE0E0E88BE98BE8E0F0E09A
:2012C000CE16DF061CF00E946B1B02C00E94B81B0E94BF1B0E94D41B0E94DA1B0E94D41BA5
:2012E0000E94DF1B0E94D41B0E94E41B0E94D41BE3E0F0E00E945C1F0E94D41BE4E0F0E0BA
:201300000E945C1FE02911F40C94510B0E94BF1BE02911F40C94760AF801E130A0E0FA0771
:2013200041F5DA010E94DF1B0E94E91B0E220E94F01B0E94F51BE0211E2ED601E8E0F0E00F
:201340000E946E1F0E2E0E94F01BE8EEF3E060E070E00E94821FE021E12951F0E8E0F0E015
:20136000CE16DF060CF4C59A02E010E00E94B21BBDC0E230A0E0FA0711F00C94060A0E94A1
:201380008F1962D80E943519D601E8E0F0E00E946E1FE021EF930E948F1956D8A1E00E94BF
:2013A000571F0E94E91BE021AF91EA2B11F0C59828C00E94F01B0E94F51BEF930E948F194A
:2013C00050D8A1E00E94571FAF91EA2359F031D9C3D9C598E1E2FEE460E070E0E887F9878F
:2013E0006A877B870E94F01B0E94F51BEF930E948F190E94FC1BAF91EA2339F0C1D90E9464
:20140000B21BC298C69803E010E070C0E330A0E0FA07D1F5A091AB05B091AC05119791F4EA
:20142000C798BED9EE83FF83AE81BF81119719F4D89ADD9802C0DD9AD898E0E0E093AB052C
:20144000E093AC050E948F190E942002A1E00E94571F0E2EA091AB05B091AC050E94DA1B1B
:20146000E02189F0AE81BF81119719F4D89ADD9802C0DD9AD8980E94021C0E94091C0E9415
:201480000F1C04E010E032C0E430A0E0FA0771F50E94F91A0E941502E03031F4E1E0F0E02C
:2014A000E093AF05F093B0050E948F190E942002E03039F4E0E00E940F1CE1E0F0E0E88BF1
:2014C000F98BA889B9890E94DF1B0E2E0E94181C0E94211CE02151F0D898DD98E0E00E94FF
:2014E0000F1CE0E0E88BE98B05E010E00E94F91A0E943102E03011F00C94270BE0919D05C5
:20150000F0919E05309781F50E94F91A0E94FC1BEF930E94F91A0E94281CAF91EA2331F071
:20152000A091DF05B091E005109709F00BC00E94031B26D90E94091B1D9A0E94AC1B0E94BE
:20154000171B11C00E94F91A0E942E1C0E2ED9010E94DA1BE02131F0A8E7B5E00E941A191F
:2015600021E030E073C072C0E130A0E0FA07C9F40E94F91A0E9431020E943519A0E0C19952
:20158000A1E0E0E00E94571FE02149F00E94341C2CF01D980E941E1B0E94AC1B01C056C0DA
:2015A00055C0E230A0E0FA0709F50E94F91A0E943102E030C1F40E94341CA4F01E9A0E9456
:2015C000F91A0E942A02E03061F441E050E00E94B21BD6D80E942D1B0E94251B0E94AC1B22
:2015E00001C0A6D802C0C19831C030C0E330A0E0FA07A9F40E94F91A0E942A02E13071F486
:20160000BFD81E98AC85BD858E859F850E94401C1CF00E945F1B02C00E946B1B17C0E430D8
:20162000A0E0FA0799F40E94B81B0E94481C0E2E0E944E1C0E94DA1BE02109F0DA9A0E9432
:20164000531C0E945A1CE02109F0DA9A15C0E13099F496D859D81D980E94251B1E98DA98C4
:201660000E946B1B0E94AC1BE091BB05F091BC05309711F40E94771BEC85FD856E857F857C
:201680000E945C1CEC87FD876E877F87E885F9856A857B850E945C1CE887F9876A877B8768
:2016A00017CE0E943220629608950E94D219DE9A0E94611CEC81FD810E171F070CF50E94BF
:2016C000F91A0E941102E13019F4DB9A21E030E00E94F91A0E9411020E943519D9010E94C8
:2016E000DF1BE02119F0DB9822E030E0E2E0F0E0E217F30721F40F5F1F4F23E030E0DACF2F
:201700000E94611CDE980E94342026960895A09780E2A0E0B0E0EEE9F0E00E9439200E94F8
:201720002B200E94921A40E050E00E9451190E946D190E94AA1A0E9465190E9475194E2F59
:201740005527E1E0F0E0E417F50711F4D99A01C0D9980E9451190E946D190E94AA1A0E949F
:20176000AA1A0E947519F0E0ECA3FDA3ACA1BDA1119711F4C59A01C0C5980E9451190E94F3
:201780006D190E94AA1A0E94D9190E947519F0E0EAA3FBA3AAA1BBA1119711F4C09A01C02F
:2017A000C098022E032AD9F40E9451190E946D190E94D9190E94DD190E947519F0E0EA87D6
:2017C000FB87AA85BB85119729F4E0E0E887E987DD9805C0E1E0F0E0E887F987D8980E94E8
:2017E00051190E946D190E94AA1A0E948B190E9475192E2F3327E1E0F0E0E217F30769F4E3
:20180000AA85BB85119711F4D89ADD98A885B985119711F4D898DD9A02C0D898DD980E947D
:2018200051190E946D190E94AA1A0E94B6190E947519F0E0EA8FFB8FAA8DBB8D119711F410
:20184000AF9A01C0AF980E9451190E946D190E94AA1A0E94DD190E947519F0E0E88FF98F06
:20186000A88DB98D119711F4AE9A01C0AE980E9451190E946D190E94AA1A0E94181A0E94E1
:201880007519F0E0EE8BFF8BAE89BF89119711F4AD9A01C0AD980E9451190E946D190E9498
:2018A000D9190E9469190E947519F0E0EC8BFD8BAC89BD89119711F4DC9A01C0DC980E949E
:2018C00051190E946D190E94F9190E948B190E9475190E94341A0E943A1A19F4E3E0F0E0C6
:2018E00068C0E837A0E0FA0719F4E4E0F0E061C0E337A0E0FA0719F4E5E0F0E05AC0EE36E3
:20190000A0E0FA0719F4E6E0F0E053C0E936A0E0FA0719F4E7E0F0E04CC0E436A0E0FA07A5
:2019200019F4E8E0F0E045C0EF35A0E0FA0719F4E9E0F0E03EC0EA35A0E0FA0719F4E8E13E
:20194000F0E037C0E535A0E0FA0719F4E9E1F0E030C0E035A0E0FA0719F4EAE1F0E029C067
:20196000EB34A0E0FA0719F4EBE1F0E022C0E634A0E0FA0719F4ECE1F0E01BC0E134A0E087
:20198000FA0719F4EDE1F0E014C0EC33A0E0FA0719F4EEE1F0E00DC0E733A0E0FA0719F406
:2019A000EFE1F0E006C0E233A0E0FA0731F4E0E2F0E0E093D505F093D6050E9451190E941B
:2019C0006D190E94D9190E94F0190E947519F0E0EA8BFB8BAA89BB89119701F50E94671C0D
:2019E0000E94611C0E94711B0E945A1B309721F481DB0E94551BF8CFE0E0E0939B05E0932C
:201A00009C050E9451190E947E1A0E94F0190E9469190E946919E0E0EA8BEB8B0E94511935
:201A20000E946D190E94D9190E94F9190E947519F0E0E8A3F9A3A8A1B9A1119711F4C69A5F
:201A400001C0C6980E9451190E946D190E94D9190E9465190E947519F0E0EE8FFF8FAE8D39
:201A6000BF8D119711F4C29A01C0C2980E9451190E946D190E94D9190E94E119F0E0EC8F47
:201A8000FD8FAC8DBD8D119711F4C19A01C0C1980E9451190E946D190E94D9190E94D919B9
:201AA0000E947519F0E00E946F1C119711F4C79A01C0C7980E9451190E946D190E94D91903
:201AC0000E948B190E947519F0E0EE87FF87AE85BF85119711F4AC9A01C0AC980E9451194A
:201AE0000E946D190E94D9190E94181A0E947519F0E0EC87FD87AC85BD85119711F4C49AE1
:201B000001C0C4980E9451190E946D190E94D9190E94B6190E947519F0E0EE83FF83AE814D
:201B2000BF81119741F5C398AA981A9AA99AC79A0E94741CA9980E94741CC39A1A980E943C
:201B4000741CD99AAB9AE8E8F3E10E947A1CD998D998AB98C798C3980E94741CAA980E946C
:201B6000741C0E9451190E947E1A0E94B6190E9469190E946919E1E0F0E0E417F50711F449
:201B80000C94FD0DACA1BDA11197B9F1AAA1BBA1119799F1E217F30781F1AA8DBB8D119739
:201BA00061F1A88DB98D119741F1AE89BF89119721F1AC89BD89119701F1AA89BB89119711
:201BC000E1F0A8A1B9A11197C1F0AE8DBF8D1197A1F0AC8DBD8D119781F0A889B9891197C1
:201BE00061F0AE85BF85119741F0AC85BD85119721F0AE81BF81119719F401E010E002C061
:201C000000E010E0F8010E943220A69608950E94441930D80E948F190E940E02E03019F40E
:201C20000E947003F7CF0E94C00363DA0E94C0030E9427030E94C0030E948F190E94200283
:201C4000E13011F4D89AF8CF0E94021CD898DD98AB98A998AA9A1A98C7980E94C5020E94AC
:201C6000C0030E943703E0918A05E03029F50E947E1CA0919705B09198051197A9F40E94C9
:201C8000A61BAA981A9A0E94741CA99A0E94741CAA9A1A980E94841CAA981A9A0E94741C86
:201CA000A9980E947A03FFCF002E012A11F40E94871C2DDD8F01D7CFE0E0E0938A05E7DA90
:201CC000AD9A0E94A61BAD98E2DA0E94A61BDFDA0E94A61BDCDA0E94711B0E94661B0E9431
:201CE000041A0E94661B0E94E41B0E2A0E94661BE3E0F0E00E945C1FE02921F0FBD90E9467
:201D0000551BEBCFE0E0E0939B05E0939C050E94A61B0E947E1C0E94671CAC9AE1E0F0E017
:201D20004EC0E1E0F0E00E948C1CE0918205F091830508951A930A931F9A0E94F91A0E94C2
:201D40001102E03019F401E010E002C000E010E0002E012AB1F4A091A905B091AA05159777
:201D600021F40E948E030E94911CA9EAB5E00E941A190E94971CE1E0F0E0E0938005F0936E
:201D80008105E1E0F0E0E017F107A9F40E94911CA0918005B0918105119739F40E94C0039A
:201DA000E0E0E0938005E0938105E1E0F0E00E949D1C1F98DA98E0918605F09187050991BA
:201DC000199108950E944419E0911805F0911905309729F40E94A21C0E943902FBC0E130A3
:201DE000A0E0FA0721F5AF9A0E948F190E94A91CEF930E948F190E94281CAF91EA23A1F0C2
:201E0000E0E0E0934A05E0934B05E0934C05E0934D050E94AF1CE2E0F0E00E94B91C0E94DC
:201E2000BE1C0E944B0302C00E944103D3C0E230A0E0FA0769F40E94C51C0E94CE1C3CF072
:201E4000AF980E94AF1CE3E0F0E00E94B91CC2C0E330A0E0FA0759F40E94D61C3CF0AE9A59
:201E60000E94AF1CE4E0F0E00E94B91CB3C0E430A0E0FA0761F40E94D61C44F0AE98C49A21
:201E80000E94AF1CE5E0F0E00E94B91CA3C0E530A0E0FA0769F40E94C51C0E94CE1C3CF038
:201EA000C4980E94AF1CE6E0F0E00E94B91C92C0E630A0E0FA0711F00C94A70F0E948F19C2
:201EC0000E94A91CEF930E948F190E942E1CAF91EA2321F00E94A21C0E94DF1C0E948F193E
:201EE0000E941502A1E00E94571FEF930E948F190E94281CAF91EA2321F00E94A21C0E947E
:201F0000DF1C0E948F190E94A91CEF930E948F190E94281CAF91EA2331F0E3E0F0E00E94C0
:201F2000B91C0E94DF1C0E948F190E941502A1E00E94571FEF930E948F190E942E1CAF919B
:201F4000EA2321F0E7E0F0E00E94B91C43C0E730A0E0FA0759F40E94D61C3CF0AD9A0E94C4
:201F6000AF1CE8E0F0E00E94B91C34C0E830A0E0FA0761F40E94D61C44F0AD98C49A0E9498
:201F8000AF1CE9E0F0E00E94B91C24C0E930A0E0FA0759F40E94C51C0E94EC1C2CF0C498F6
:201FA000EAE0F0E00E94B91C15C0EA30A0E0FA0789F40E94AF1CE0E0E0931805E0931905D5
:201FC00001E010E0E1E0F0E0EC15FD0519F4E2E0F0E06F015EC30E944419E0911A05F0915C
:201FE0001B05309771F4E0E0E0934E05E0934F05E0935005E09351050E94F41C0E94F91C4E
:2020000048C0E130A0E0FA0751F40E94181C0E94401C24F00E94F41C0E94FE1C3AC0E2307F
:20202000A0E0FA0751F40E94181C0E94031D24F00E94F41C0E940B1D2CC0E330A0E0FA0732
:2020400051F40E94181C0E94EC1C24F00E94F41C0E94101D1EC0E430A0E0FA0751F40E94CC
:20206000181C0E94EC1C24F0EAE1F5E00E94151D10C0E530A0E0FA0761F40E94F41C0E94EB
:202080001A1DE3E0F0E0EC15FD0519F4E4E0F0E06F01FFC20E944419E0911C05F0911D056D
:2020A000309791F4E0E0E0935205E0935305E0935405E09355050E94211DC398AA98ECE19C
:2020C000F5E00E94F91C30C1E130A0E0FA0791F40E942B1DA230E0E0BE07E0E08E07E0E016
:2020E0009E073CF01A9A0E94211DECE1F5E00E94FE1C1AC1E230A0E0FA07C1F4A09199052B
:20210000B0919A05119721F40E94341D0E943B1D0E942B1D0E94421D44F0A99AC79A0E94D0
:20212000211DECE1F5E00E940B1DFEC0E330A0E0FA07A1F40E942B1D0E94EC1C74F0A998D5
:20214000ADE8B5E0ED91FD913197FE93EE930E94211DECE1F5E00E94101DE6C0E430A0E0E4
:20216000FA0739F40E94211DECE1F5E00E94151DDBC0E530A0E0FA0781F40E942B1D0E94A9
:202180004A1D54F0C39A1A980E94521DECE1F5E0A6E0B0E0A083B183C7C0E630A0E0FA0747
:2021A00081F40E942B1D0E94CE1C54F0D99AAB9A0E94211DECE1F5E0A7E0B0E0A083B18348
:2021C000B3C0E730A0E0FA07C9F50E94F91A0E9424020E9435190E94581D0E94DA1BE0211A
:2021E00011F00E94341D0E945D1D0E2EE0913205F09133050E942B1D0E944D1F0E947A1FFF
:20220000E02131F0C398D9980E94211D0E945F1DE0913405F09135050E942B1D0E944D1F75
:202220000E94262054F4C398D998ADEAB5E00E941A190E94521D0E945F1D76C0E830A0E0A4
:20224000FA07A9F50E94661D0E945D1DE02109F0AA9A0E94661D0E94581D0E94DA1BE0218C
:2022600009F0AA9A0E942B1D0E94211C0E2E0E945D1DE02141F00E946F1D2CF0C79A0E9481
:20228000211D0E943B1D0E942B1D0E94211C0E2E0E94581D0E94DA1BE02141F00E946F1DF3
:2022A0002CF0C79A0E94211D0E943B1D3DC0E930A0E0FA07F9F40E942B1DA630E0E0BE07FE
:2022C000E0E08E07E0E09E07A4F0AB980E942B1DA232E0E0BE07E0E08E07E0E09E074CF034
:2022E000C7980E94211DECE1F5E0AAE0B0E0A083B1831AC0EA30A0E0FA07B1F4E091930569
:20230000F0919405E0939505F09396050E94211DECE1F5E00E941A1DE5E0F0E0EC15FD0585
:2023200019F4E6E0F0E06F01B4C10E944419E0911E05F0911F05309791F4E0E0E093560503
:20234000E0935705E0935805E09359050E94791DEEE1F5E00E94F91C0E9499199AC1E130BA
:20236000A0E0FA0781F40E94791DAC980E94EB19A634E0E0BE0714F41B9A1C9AEEE1F5E0CF
:202380000E94FE1C86C1E230A0E0FA07D9F40E94831D0E94EC1C44F00E94EB19A634E0E07A
:2023A000BE0714F41B981C980E94831D0E94401C44F0C19AC09A0E94791DEEE1F5E00E9442
:2023C0000B1D67C1E330A0E0FA0711F00C942D12A0919505B09196050E94DF1B0E2EA09189
:2023E0009905B0919A050E94DA1B0E22A091A505B091A6050E94DA1B0E22A091AF05B091E4
:20240000B0050E94DF1BE02109F50E9419030E94B603E1E0F0E0E093A505F093A6050E94D5
:202420008F190E943102E030B9F4A091AF05B091B0050E94041AD601E7E0F0E00E94681F30
:20244000E02121F0A1EBB5E00E941A19EEE1F5E00E94101D0E94791D1CC1E430A0E0FA0757
:20246000D1F50E94EB19DC9741F00E94C003E0E0E093A505E093A605C59A0E94EB19ECE318
:20248000F0E00E945C1FEF930E948F190E94FC1BAF91EA23A9F00E948C1D0E94921D0E94A6
:2024A000991D0E94A01D0E94A71DEEE1F5E0A0E0B0E0A083B183E7E0F0E06F010E9447099D
:2024C0000E94EB19DC9731F00E94791DEEE1F5E00E94151DDEC0E530A0E0FA0711F00C943D
:2024E000C4120E94831DE9E1F0E060E070E00E94821FEF930E948F190E942402A1E00E94A0
:20250000571FAF91EA230E2EA0E0C599A1E0E1E00E94571FE02149F0C69A0E94791DEEE1E3
:20252000F5E0A6E0B0E0A083B1830E94831DE2E3F0E060E070E00E94821FEF930E948F19E3
:202540000E942402A0E00E94571FAF91EA2339F00E94791D0E9419030E94A203C598A0E08B
:20256000C599A1E0E0E00E94571FEF930E948F190E94FC1BAF91EA2331F00E94C003EEE17D
:20258000F5E00E94101D85C0E630A0E0FA07A1F40E94831DAA31E0E0BE07E0E08E07E0E06F
:2025A0009E074CF0C29A0E94791DEEE1F5E0A7E0B0E0A083B1836DC0E730A0E0FA0779F462
:2025C0000E94831D0E94031D4CF0C0980E94791DEEE1F5E0A8E0B0E0A083B1835AC0E830E6
:2025E000A0E0FA0779F40E94831D0E94031D4CF0C5980E94791DEEE1F5E0A9E0B0E0A08338
:20260000B18347C0E930A0E0FA0779F40E94831D0E94421D4CF0C2980E94791DEEE1F5E0C3
:20262000AAE0B0E0A083B18334C0EA30A0E0FA0781F40E94831D0E94421D54F0C198AC9AFF
:202640000E94791DEEE1F5E0ABE0B0E0A083B18320C0EB30A0E0FA07E1F40E94831D0E94F7
:202660004A1DBCF00E94791DEEE1F5E00E941A1DA6E3B5E0ED91FD913197FE93EE93E7E0C7
:20268000F0E0EC15FD0529F4E8E0F0E06F010E94AF1DF8010991199108950E94C91D0E94D0
:2026A000041A0E94CE1DE02129F08CDBE0930405F09305050E94D41D0E94D91D0E94DF1D1C
:2026C0000E94E71DE02129F086DCE0930605F09307050E94EC1D0E94D91D0E94DF1D0E9448
:2026E000F11D0E94E71DE02129F0D4DCE0930805F0930905E0910A05F0910B050E94D91DA2
:202700000E94DF1D0E94F11DD601E5E0F0E00E94621F0E22E6E0F0E00E94621F0E220E9421
:20272000E71DE02129F001DEE0930A05F0930B050895AA24BB240E94021E0E94AF1D0E946B
:20274000FA060E943902089524971A930A930E94091E00E010E00E940F1E0E2ED6010E94DD
:20276000E41BE02189F00E94871C0E94111E0E942B1E0E94311EE02139F00E94371E0E942B
:20278000A71DE3E0F0E06F010E940F1E0E2E0E94D41D0E94421ED601E4E0F0E00E945C1F4A
:2027A000E021A9F00E94871C0E94111E0E942B1E0E94311EE02159F00E94371E0E94921DFB
:2027C0000E943902E5E0F0E06F010E94481E0E940F1E0E2E0E94D41D0E94421E0E94EC1DC4
:2027E0000E94421ED601E6E0F0E00E945C1FE021A9F00E94871C0E94111E0E942B1E0E9410
:20280000311EE02159F00E94371E0E94921D0E94991D0E94A71DE7E0F0E06F010E940F1E43
:202820000E2E0E94D41D0E94421E0E94EC1D0E94421EE0910A05F0910B050E94421ED60130
:20284000E8E0F0E00E94681FE02111F40C9422150E94871C66DA0E948C1CE1E0F0E0E09307
:202860008405F09385050E94BF02E0938F05F0939005D5010E94DF1B0E2EA0918A05E1E011
:202880000E94571F0E22A0918205B09183050E94DF1B0E942B1E0E94311EE02111F40C9451
:2028A00022150E94971C0E94091E0E944E1E0E94531EE021C9F00E945B1E19F43BDA0E9409
:2028C0009D1C0E94701E14F00E94091E0E944E1ED8010E94DA1BE02131F0AAE7B5E00E94DA
:2028E0001A1901E010E0E1CF0E944E1E0E94481C0E220E945A1CE02161F00E945B1E19F44E
:2029000019DA0E949D1C0E94701E14F00E94091EEBCF0E944709E0E0F0E0FA93EA930E9484
:20292000EF03A091BD05B091BE050E94DF1B0E2EA091C105B091C2050E94DA1BE021C9F086
:20294000E0E0E093BD05E093BE05E1E0F0E0E093C105F093C2050E940603E4E0F0E00E9457
:20296000261A0E942B1AEEEFFFEFE0932C05F0932D05F60131966F01E8EEF3E0EC15FD0532
:202980001CF4E4E6F0E06F010E940A1AE3E0F0E00E94741F0E2E0E94E71DE02151F00E94C9
:2029A000481E0E948C1D0E94921D0E94991D0E94A01D0E940A1A139744F00E94BE1C0E949C
:2029C000921D0E94991D0E94A01D0E940A1A129734F00E94BE1C0E94991D0E94A01D0E9429
:2029E0000A1A0E94222024F40E94BE1C0E94A01DA0DE0E947C1EA091A305B091A4050E94BD
:202A00005C1F0E2EA091A705B091A8050E94DA1BE021C1F00E945B030E94FF180E94051972
:202A20000E940B19E0E0E093C905E093CA05DC98DA980E9406030E94EB02E0E0E0938A05AB
:202A4000CC24DD241981088126960895D601E8E0F0E00E945C1F0E2ED5010E94DA1BE021D3
:202A600019F0E1E0F0E05F010E94531CD5010E94DA1BE02111F40C94FD15042C0528A9F42C
:202A80000E940F1AA0916205B091630580916405909165050E94821EE02121F0A2E7B5E0B3
:202AA0000E941A19E1E0F0E02F01062C0728A9F40E940F1AA0916605B091670580916805F0
:202AC000909169050E94821EE02121F0A4E7B5E00E941A19E1E0F0E03F010E94F91A0E94F6
:202AE000861ED4010E94DA1B0E22D601EBE0F0E00E946E1F0E220E944E1C0E94DA1BE02121
:202B0000A1F00E94891EE02111F00E94931E0E94961E44F00E949B1E0E949E1E0E947C1E07
:202B20000E94A11EE1E0F0E04F010E94F91A0E94861ED4010E94DA1B0E22D601E9E0F0E04C
:202B40000E945C1F0E220E945A1CE02119F0E1E0F0E04F010E94F91A0E94861ED4010E94B3
:202B6000DA1B0E2A0E94481C0E220E945A1CE021A1F00E94891EE02111F00E94931E0E9408
:202B8000961E44F00E949B1E0E949E1E0E947C1E0E94A11EE1E0F0E04F010E94F91A0E94BF
:202BA000861ED4010E94DA1B0E2A0E94531EE021A1F00E94891EE02111F00E94931E0E94E8
:202BC000961E44F00E949B1E0E949E1E0E947C1E0E94A11EE1E0F0E04F01D2010E94DF1B67
:202BE0000E2ED3010E94DF1B0E22D4010E94DF1BE02119F0E1E0F0E05F0108950C2C0D2883
:202C0000B9F5E0918A05E03029F40E94871C0E942E072EC00E947E1C0E94671C0E94AD1E01
:202C20000E94B31E0E948C1D0E94921D0E94991D0E94A01D0E94AD1E0E94C003DC98E0E0C8
:202C4000E093C105E093C205E0912C05F0912D05FA93EA93E091B505F091B605FA93EA9331
:202C60000E94AB060E946207AC9AE1E0F0E06F010895EFEFEABBE0E0EBBBE8BBEFEFE7BB06
:202C8000E0E0E5BBEFEFE4BBE0E0E1BBE2BBE3B9EFEFE2B9E0936100E0E0E0936200E0936D
:202CA0006500EFE1E0936400E0E0E0BFE7E0E3BFE0E0E2BFE1BFEFBDEEBDEDBDECBDE7BDF1
:202CC000E6BDEBBDEABDE9BDE8BDE0937900E0937800E5BDE4BDE3BDE0938B00E0938A0002
:202CE000E0938900E0938800E0938100E0938000E0938700E0938600E0938500E093840014
:202D0000E0938300E0938200E0936A00EABFE9BFE1E0E7BFE0E0E0937D00EBB9E8E1EAB973
:202D2000E6E0E0939500E0E0E0939000E7E6E9B9E0E0E0939A00E0E8E8B9E0E0E0BDE6B961
:202D4000EDB9E09374000E94DF1E78940E94841C0E94841C0E9451190E949F19EA93BBD049
:202D6000E3E0F0E0FA93EA930E94550BCC24DD24E0E0E0935A05E0935B05E0935C05E09317
:202D80005D050E94021EAA24BB24E4E6F0E060E070E0E0935E05F0935F0560936005709320
:202DA00061050E94481EEEE3F0E060E070E0E0936E05F0936F0560937005709371050E9414
:202DC000711BECEDF0E0E0933405F0933505E8E2F0E0E0933205F0933305E0E5F0E00E941F
:202DE000E619E0E0E0932E05E0932F050E94AD1E0E94B31EE0E0E0938805E0938905E093B3
:202E00009F05E093A005E093A105E093A205E093A505E093A6050E94911CE0E0E093A7055A
:202E2000E093A805E093AB05E093AC05E093AD05E093AE05E093B105E093B2050E94091CC6
:202E4000E093B305E093B405E0E0E093B505E093B6050E943A190E94031BE0E0E093C10552
:202E6000E093C205E093D505E093D605E093D705E093D805E093D905E093DA05E0938A0539
:202E8000E0937C05E0937D05E0937E05E0937F05E0938005E0938105E0938205E093830576
:202EA000E0938405E09385050E94971C0C2C0D2821F40E94070E6F01F9CF0E948A029EDEA9
:202EC000ECDBC4DD41DC0E941003F7CFFFCF5F9BFECFECB108955D9BFECFE881ECB9219699
:202EE0000895EA81EA93F7DFA881B9810E941A192396089526970E942B2010E0AC85BD85DC
:202F0000E0E0F0E0ED93FC93EA89FB893196EA8BFB8B3197E4912E2FE03011F40C94AC1846
:202F2000E12FE03039F4253211F411E002C00E94C21E11C1E130A9F4253219F40E94C21E4D
:202F400009C112E040E000E02D3211F401E003C12B3211F44BE2FFC0203211F440E2FBC02A
:202F600002C0E23039F450E013E0203311F40068F2C004C0E33011F00C94AB18203310F02D
:202F80002A3308F007C0AAE05A9F502DE22FE0535E0FE1C0E22FE33651F4E889F989349796
:202FA000E88BF98BA481AA930E94CB1ED3C0E33741F40E94D31E0E94D71E0E94DB181E2F3F
:202FC0000AC0E03761F40E94D31E0E94D71E0E94E5181E2F086002600F7730E039C0E43632
:202FE00011F0E93611F4046002C0E53731F4ECE8F0E0EE83FF8315E00DC0E83511F4086062
:2030000004C0E83711F00C94AA18E6E9F0E0EE83FF8314E002FF15C00E94D31E14960E942F
:203020000320EA87FB87AB85AA232AF40E94411FEA87FB874DE2403011F01F5F01C00B7F01
:2030400007C00E94D31E14960E940320EA87FB8700FD11C0151778F407FF08C002FF04C0BB
:203060000B7F242F115001C020E301C020E20E94C21E5150EFCF312F01FF17C03030A1F082
:2030800003FF06C0EE81FF812591EE83FF8305C0AE81BF812D91AE83BF830E94C21E503069
:2030A00009F051503150EACF4BC020E3EE81FF810E941120E887F987EE81FF813296EE8355
:2030C000FF83E885F985AA85BB85AE17BF0750F02F5FA885B985EA85FB85EA1BFB0BEA87E5
:2030E000FB87EFCF2A3328F003FF02C0295F01C0295D04FD1AC0213320F4A885B985119732
:2031000009F409C0531710F000FF01C013C020E207FF0BC020E3006102FF07C00B7F4A9386
:203120000E94CB1E503009F051500E94C21E503009F051503150A885B985129708F0B5CF3D
:2031400000FF08C0503031F05150E0E2EA930E94CB1EF8CF10E0D8CEAC85BD850E94032007
:203160000E94322064960895FF92F82E26971A930A93DE0114960E943D1F8D01E0E0EC83C2
:20318000ED83EE83EF83DE0118960E943D1F0E940320FA93EA931A930A93E1E7F7E1FA930B
:2031A000EA93FE013896FA93EA93A4DE198108812896FF900895A991B991EE27FF276D916F
:2031C000662311F03196FBCF0895AA27BB27E991F9910590002011F01196FBCFFD010895BE
:2031E0000E94E41EE881EA930E94181FE0E0EA930E94FD1EEA830E94F31EEA810895E0E08A
:20320000E093C305E093C4050895E0E0E093C505E093C6050895E0E0E093C705E093C80583
:2032200008950E940720EF5FFF4F6F4F7F4F0E940C200895ED91FD913196FE93EE93089513
:20324000A091C505B091C6050895A091C705B091C8050895E2E0F5E0A1E00E941A20E3E764
:20326000F0E0FA93EA930C941102A0E00E94571F0E2E0895E0E0E093B705E093B805E093BE
:20328000B905E093BA0508951A930A9300E010E00895E0EDF7E0FA93EA930E94311FDC98D6
:2032A0000895EAE5EA930E946B17E5EAEA930C946B17E5E0EA930E946B17E2E8EA930E9444
:2032C0006B17E0E0EA930C946B17E0E3EA930C946B17E0E0EA930C946B17E4E0EA930E9469
:2032E0006B17E3E8EA930C946B17E1E0EA930E946B170E9467170E9467170E9467170E947E
:2033000067170E9467170E9467170E9467170E9467170C946717E0E6EA930C946B17E2E06A
:20332000F5E0A1E00E941A20E3E7F0E0FA93EA930895E0E0E0939105E09392050895E3E0E7
:20334000EA930E946B17E0E8EA930E946B17E2E0EA930E946B17E0E10895E3E2EA930E94BE
:203360006B17E2E8EA930E946B17B3CFE0E9EA930C946B17EEEBF0E0FA93EA9380E00E94C1
:20338000B41822968ECFEA930E946B17E2E8EA930E946B179ECFFA93EA9380E00E94B418FB
:2033A000229608950E942D2000E010E020E030E00895E0E5EA930C946B17E0E8EA930C9403
:2033C0006B17E0E4EA930E946B178FCFE0933805F09339050895A0913805B0913905089510
:2033E000E0E1EA930C946B172E2F3327022E032A0895E0E2EA930C946B17AE81BF81E1E02B
:20340000F0E00E945C1F0895E0E0F0E00E945C1F0E2E0895A0913605B09137050895E091A5
:203420005A05F0915B0560915C0570915D050895E0E7EA930C946B17E1E0EA930C946B1734
:203440000E9467170E9467170C946717E0933605F09337050895E0913605F0913705E09328
:20346000A305F093A4050895F0E0E093D905F093DA050895E091D905F091DA05ED37A0E068
:20348000FA070895A091D305B091D405E1E0F0E00E945C1F0E2EA091D705B091D8050895B9
:2034A000E093D505F093D6050895A091D305B091D405E2E0F0E00E945C1F0E2EA091D705A9
:2034C000B091D8050895E0E4EA930E946B1701CFEA930E946B17E5CEE5E0EA930E946B1742
:2034E000E2E8EA930E946B177BCFE5E0EA930E946B17E2E8EA930E946B177BCFE5E0EA93BA
:203500000E946B17E2E8EA930E946B1752CFAE81BF81A030E1E0BE070895AE81BF81EFEF4C
:20352000F0E0089500E010E020E030E008950E946B17EDCFAFEF0A02F001E20F0895AC816B
:20354000BD81A030E1E0BE070895AC81BD81EFEFF0E00895E0E4EA930C946B17EBE0EA93D9
:203560000E946B17E2E8EA930E946B1742CFE091C505F091C6050E944D1F0E94152084E0DB
:203580000E94B41826960895E0EAF3E004CFE091C705F091C8050E944D1F0E94152084E020
:2035A0000E94B41826960895E091C905F091CA050E944D1F0E94152084E00E94B418269642
:2035C0000895A091CB05B091CC050895A091CD05B091CE050895A091CF05B091D005089532
:2035E0000E944D1F0E94152084E00E94B41826960895E3E0F5E0A1E00E941A20E9E7F0E026
:20360000FA93EA930895E0E0E093BB05E093BC050895E0910005E460E0930005E093620038
:203620000895E0E9F1E0FA93EA930C94311FE1E0F0E0E0939D05F0939E050895E2E0F0E05E
:20364000E0939D05F0939E050895E0910005EB7FE0930005E09362000895E3E0F0E0E093C2
:203660009D05F0939E051E980895E1E0F5E0A1E00E941A20E1E7F0E0FA93EA930895E0918C
:203680000005EE7FE0930005ED7FE0930005E09362000895E0910005E160E0930005E26079
:2036A000E0930005E09362000895E0939B05F0939C050895E0919B05F0919C050895E4E0B8
:2036C000F0E0E0939D05F0939E050895A0919B05B0919C050895E0E0E0939D05E0939E0507
:2036E0000895E0E0E0939B05E0939C05F4CFE1E0F0E0E093BB05F093BC05A3EBB5E09ACDF1
:20370000E091B105F091B205FA93EA93E091AD05F091AE05FA93EA93E091B305F091B4057C
:20372000FA93EA93E091BF05F091C005FA93EA93E0917805F0917905FA93EA93E0917A0513
:20374000F0917B05FA93EA930C940008E8EEF3E0FA93EA930C94311FE0E0EC87ED87EE87F7
:20376000EF870895E0E0E887E987EA87EB870895E5E0F0E0E0939D05F0939E050895D801D1
:20378000E1E0F0E00E945C1F0E2EE2E0F0E00E945C1F0E2AE3E0F0E00E945C1F0E2AE4E0AC
:2037A000F0E00E945C1F08950E2AA0919D05B0919E050895E0E0F0E00E945C1F0895E1E0E8
:2037C000F0E00E945C1F0895E2E0F0E00E945C1F08950E2ED601E8E0F0E00E94681F0895A2
:2037E000A885B9858A859B850895E0EDF7E060E070E00E94821F08950E943102A0E00E9487
:20380000571F0895E1E0F0E0E093AB05F093AC050895E0E0E093AF05E093B0050895E093F1
:203820003E05E0933F05E0934005E09341050895A0913E05B0913F058091400590914105CA
:203840000895E5E0F0E060E070E00E94821F08950E941A02A0E00E94571F08950E941A0215
:20386000A1E00E94571F0895AC85BD858E859F85A536E0E0BE07E0E08E07E0E09E070895B1
:20388000AD33E0E0BE07E0E08E07E0E09E070895D601EAE0F0E00E94681F0895A091D1052E
:2038A000B091D2050895D601E9E0F0E00E94681F0E2E0895F3DF83CFEF5FFF4F6F4F7F4F95
:2038C0000895E4EFF1E0FA93EA930C94311FE091D505F091D605FA93EA930C94550BE88B89
:2038E000F98BA889B9890895E8EBFBE0FA93EA930C94311FFA93EA930C94311FE1E0F0E001
:20390000FA93EA930C94EF03E0EDF7E0F3CF0E94F502E0938A050895E0938205F093830568
:203920000895E0E0E093A905E093AA050895E0E0E0938605E09387050895E0938605F0936F
:2039400087050895E1E0F0E0E0931805F093190508950E941502A0E00E94571F0895E0E031
:20396000E0933A05E0933B05E0933C05E0933D050895E0931805F09319050895E1E0F0E07D
:20398000E0933005F09331050895A0913A05B0913B0580913C0590913D050895A932E0E04B
:2039A000BE07E0E08E07E0E09E070895EEDFA531E0E0BE07E0E08E07E0E09E070895E5E1A6
:2039C000F0E060E070E0E0933A05F0933B0560933C0570933D050895A333E0E0BE07E0E0E1
:2039E0008E07E0E09E070895E0E019DFEAE1F5E00895A1E0B0E0A083B1830895A2E0B0E024
:203A0000A083B1830895AF31E0E0BE07E0E08E07E0E09E070895A3E0B0E0A083B1830895EF
:203A2000A4E0B0E0A083B1830895A5E0B0E0A083B1830895A0E0B0E0A083B18301E010E03D
:203A40000895E0E0E0934205E0934305E0934405E09345050895A0914205B091430580916C
:203A60004405909145050895E1E0F0E0E0939305F0939405E6CFECE1F5E0A9E0B0E0A083AA
:203A8000B1830895AB30E0E0BE07E0E08E07E0E09E070895A531E0E0BE07E0E08E07E0E02E
:203AA0009E070895E0E0E0939305E0939405C9CFA0919305B09194050895FADF80CEECE121
:203AC000F5E0A8E0B0E0A083B1830895C4DFE0E0F0E060E070E00E94821F0E2E0895C798C7
:203AE000BADFAE30E0E0BE07E0E08E07E0E09E070895E0E0E0934605E0934705E093480576
:203B0000E09349050895A0914605B091470580914805909149050895E0E0E0930405E09325
:203B200005050895E6E0F5E0A0E0B0E0A083B1830895E8E0F5E0A0E0B0E0A083B18308959E
:203B4000EAE0F5E0A0E0B0E0A083B18308950E943902E0E0E0933005E09331050895E0E077
:203B6000E0936205E0936305E0936405E0936505E0936605E0936705E0936805E093690559
:203B8000E0936A05E0936B05E0936C05E0936D050895A0910405B09105050895D601E0E041
:203BA000F0E00E94621F0895E0910605F09107050895A0E0B0E00E945C1F0E2EEFCF0E2278
:203BC000D601E1E0F0E00E94621F0E220895A0913005B0913105F3CDE0910805F0910905E3
:203BE0000895D601E2E0F0E00E94621F0E22E3E0F0E00E94621F0E22E4E0F0E00E94621FCF
:203C00000E2208954424552466247724882499240895E0E0EA83EB83EC83ED830895B9DF1C
:203C2000CECD0E94910E78DEE1E0F0E0E0938405F09385050E94BF02E0938F05F093900536
:203C4000A0918A05E1E00E94571F0E2EA0918205B0918305B4CD0E22A0918405B0918505D8
:203C6000AECD0E22A0918F05B0919005A8CD0E9447090E94FA06E0E0F0E0FA93EA930E94B9
:203C8000EF034ACFA1E0B0E00E945C1F0E220895E0E0E0933005E09331050895A0918605B4
:203CA000B0918705B1CBD601EBE0F0E00E94681F0E22F4DD7FCDEA81FB816C817D81FCDD28
:203CC000EA83FB836C837D83AA81BB818C819D81A130E0E0BE07E0E08E07E0E09E070895CB
:203CE000AA81BB818C819D81A536E0E0BE07E0E08E07E0E09E070895E0912C05F0912D0526
:203D0000319708950E94821F0E2EC2CD0E942002ACCA85DBA0916A05B0916B0580916C05C3
:203D200090916D05EFCFA6E7B5E084CAEAE0F0E0CE16DF060895ACE2B5E07CCAA5EBB5E034
:203D400079CAFA93EA93E091B505F091B6053197FA93EA930E94AB06D3CCE0E0E0932C0587
:203D6000E0932D050895EFEFFFEFE0937205F0937305E0937405F0937505E0937605F093F6
:203D8000770508952A93ED85FE85FA93EA93E989FA8909950895ED85FE85FA93EA93E989AD
:203DA000FA8909950895E889F989349798CD14960E940320EE83FF83FA93EA9308959098F1
:203DC0009198889A899815C089988898EE270000819B0895809B089504D0899A02D0889AF0
:203DE000E1E06BE107C0899A889A03D08898F9DF899865E36A95F1F7089578E08898F1DFAA
:203E0000809BFECFEEDF889481990894889AF1DFEE1F7A9599F77991772311F4899801C0F2
:203E2000899ADFDF8898E5DF889ADBDF8998D9CFE99178E0EE0F10F4899801C0899AD9DF88
:203E40008898CFDF809BFECFCCDF889A7A9591F78998C7DF8898CDDFE1E08199EE27889AA3
:203E6000C0CFE991F991309639F080EA9FE00197F1F7A8953197C9F708950024AF0DB01D48
:203E80000895F195E195F0400895F09560957095E195FF4F6F4F7F4F08956F2F660F660BCC
:203EA000762F08958B2F880F880B982F0895EA17E1E009F0EE270895EA17FB07E1E009F04E
:203EC000EE270895EA17FB07E1E009F4EE270895AE17BF07E1E00CF4EE270895AE17BF0734
:203EE000E1E00CF0EE270895EA17FB07E1E00CF0EE270895AE17BF0786079707E1E00CF46A
:203F0000EE270895EA17FB0768077907E1E00CF0EE270895FA9FF02DEB9FF00DEA9FE02DBB
:203F2000F10D08957A9F702D6B9F700DF89F700DE99F700D6A9F602D710DFB9F600D711DE7
:203F4000E89F600D711D8827FA9FF02D610D781FEB9FF00D611D781FEA9FE02DF10D681FBE
:203F6000781F08952FD0D6DF0EF48BDF089538D0D9DF0EF48ADF08950024112490E1AA0F05
:203F8000BB1F001C111C0E1A1F0A18F40E0E1F1E01C0A1609A9599F7FD01D001089512D079
:203FA000EBDF0EF46EDF0895E894B7FF04C0A095B09511966894F7FD64DFDEDFFD010EF444
:203FC00060DF0895E894F7FF02C05BDF6894B7FF06C0A095B095119600F8039400FA0895D8
:203FE000E89477FF02C051DF689497FF0BC00024A095B095809590951196801D901D00F8BF
:20400000039400FA0895ED91FC9111970895ED91FD916D917D9108957E936E93FE93EE9349
:2040200008950590F491E02D08957A936A93FA93EA930895BB27EA0FFB1F02900A921197A3
:20404000E1F7089500240A160B060895EA17FB076807790708955A934A933A932A931A9369
:204060000A9308955D814C813B812A81198108810895AC0FBD1F05900D928A95E1F70895D5
:00000001FF
