:200000000C94E1010C9400000C9400000C9400000C9400000C9400000C9400000C940000FE
:200020000C9400000C9400000C9400000C9400000C9400000C9400000C9400000C940000C0
:200040000C944B020C9400000C9400000C9400000C9400000C9400000C9400000C94000053
:200060000C9400000C9400000C9400000C9400000C9400000C9400000C9400000C94000080
:200080000C9400000C9400000C9400001027E80364000A00010000100001100001000000CD
:2000A000000000000000000000000000000000000000000000000000000000000000000040
:2000C000000000000000000000002020202020202020202020202020202020202020202060
:2000E00020202020202020202020202020202020202000496E69636A616C697A756A6520BF
:200100006D61737A796E65005779637A79737A637A6F6E6F206D61737A796E65004D617354
:200120007A796E61207A61696E69636A616C697A6F77616E6100437A656B616D206E6120C5
:2001400070726574206777696E746F77616E79005072616361005A616B726563696C656D7F
:200160002077737A7973746B6965207A6164616E652070756368617279004272616B20779C
:20018000796D6167616E65676F206369736E69656E696120362062617200446F7A6F776EA8
:2001A000696B206B6C656A7520707265746F77206E696520676F746F777900446F7A6F7737
:2001C0006E696B206B6C656A75206E616B726574656B206E696520676F746F777900577938
:2001E0006C61637A206D61737A796E65206920706F637A656B616A2031206D696E7574652B
:20020000004F64736C6F6E2069207A7265736574756A206B757274796E65004D6F6E746515
:20022000722033206E6965206E616369736E616C20706564616C6100437A656B616D206EC4
:20024000612072756368206C616E637563686100506F707261772070726574207A20677225
:200260007A79626B69656D2069206E616369736E696A2067757A696B005573756E20707294
:200280006574207A6520737A637A656B2069206E616369736E696A2067757A696B005779BA
:2002A0006D69656E206C7562206E616B7265632F646F6B7265632067727A7962656B206950
:2002C000206E616369736E696A2067757A696B004D6F6E7465722033202D207A64656D6F11
:2002E0006E74756A20707563686172206920706F7477696572647A004D6F6E746572203341
:20030000202D2077797A776F6C207265637A6E696520637A756A6E696B20707563686172E3
:200320006100534C415645206E696520706F7477696572647A696C20706F64616E6961208C
:200340006E616B7265746B6900534C415645206E696520706F7477696572647A696C207AF6
:20036000657A776F6C656E6961206E6120737A637A656B690020202020202020202020203D
:2003800020202020202020202020202020202020202020202020202020202020202020205D
:2003A0002020202020202000302564003A0001002D4E414E00494E4600000100F305AE03D8
:2003C0000000F894EE27ECBBF1E0F5BFE5BFE0936C00F8E1F1BDE1BD8DE0A2E0BB27ED9357
:2003E0008A95E9F780E090E1A0E0B1E0ED930197E9F7EAEBF3E085919591009761F0A59122
:20040000B59105901590BF01F00105900D920197E1F7FB01F0CF8BBFEFEFEDBFE0E1EEBF0A
:20042000C0E0D5E00C94C8180E94811B25C00E94811BE69521C00E94811BE695E6951CC01A
:200440000E94811BE695E695E69516C00E94811BE29512C00E94811BE295EF70E6950CC035
:200460000E94811BE295EF70E695E69505C00E94811BEE1FE0E0EE1FE170239608950E944C
:20048000901B0E94961B0E949C1BE0E0E093CD05E093CE0508956A937A93AA93BA93EA930C
:2004A000FA93EFB7EA93AAE3B5E00E94A21BAEE3B5E00E94A21BA2E4B5E00E94A21BA6E482
:2004C000B5E00E94A21BAAE4B5E00E94A21BA7ECB5E00E94AB1BA091C705B091C805DC9798
:2004E000D1F40E94901BA9ECB5E00E94AB1B0E94B11BDC9781F40E94961BABECB5E00E94E1
:20050000AB1B0E94B61BDC9731F40E949C1BADECB5E00E94AB1BE991EFBFF991E991B991A5
:20052000A9917991699118950E94BB1BE13009F4DC9AA0E0DC99A1E0E1E00E94B522EF93A2
:200540000E94BB1BA0E00E94B522AF91EA2321F0ABEBB5E00E94A21B0E94BB1B0E94C61B47
:20056000A091BB05B091BC058091BD059091BE05E0EAF6E861E070E00E94E022E02141F0C2
:200580000E94CB1BDC98E0E0E0938F05E093900508951A930A9301E010E0F80123C00E945A
:2005A000D51B0E94BB1BE13011F4DC9AFACF0E94DA1B0431E0E01E077CF40E94BB1BE130D4
:2005C00041F40E94BB1BE13011F4DC9AFACF0E94DA1B0F5F1F4FEDCFE4E1F0E0E09391054C
:2005E000F09392050991199108950E94E21B0E94EA1B0E94F61B0E94FA1BE0E02EC0E0E0E2
:20060000E0938E050E94E21B0E94FE1B0E94FA1B0E94F61B0E94061CE0938E05F0E00895D9
:200620000E94E21B0E94EA1B0E941C1C0E94FA1BE1E013C00E94201C13DFE03011F4DF98F3
:2006400001C0DF9A0895A5E9B5E00E94AB1B0E942A1C0E94E21B0E94301CEA930E94FC198F
:2006600008950E94E21B0E943E1C0E94471C0E944B1CE7E10E94541C0E94471CE3EFF0E0B3
:2006800092C00E94E21BEBE10E94541C0E94471CEDE1F1E088C00E94E21BECE10E94541C21
:2006A0000E94471CE6E3F1E07EC00E94E21B0E943E1C0E94471C0E944B1CE8E00E94541CDA
:2006C0000E94471CE0E5F1E06EC00E94E21BEBE10E94541C0E94471CEAEDF0E00E945C1C0E
:2006E0000E94E21BE6E20E94541C0E94471CE6E5F1E059C00E94E21BE2E20E94541C0E94B0
:20070000471CEAE7F1E04FC00E94E21BE5E20E94541C0E94471CEEEDF1E045C00E94E21BF8
:20072000ECE10E94541C0E94471CE1E0F2E03BC00E94E21BEFE10E94541C0E94471CEBE1F5
:20074000F2E031C00E94E21BEAE10E94541C0E94471CE8E3F2E027C00E94E21BEBE20E94C3
:20076000541C0E94471CE0E5F2E01DC00E94E21BE7E20E94541C0E94471CE9E7F2E013C09C
:200780000E94E21BE4E30E94541C0E94471CEEE9F2E009C00E94E21BE5E30E94541C0E944F
:2007A000471CE5E7F3E0FA93EA9380E00E94451B229608950E94631C0E94FE1B0E946A1C72
:2007C0000E946E1C0E94061C0E2F11270E94721C21F420E030E0DD9803C021E030E0D898A6
:2007E000F8010E949223249608950E94892340E050E0E0E0E0938E0510E0AE81BF811197E7
:2008000011F00C9448040E94E21B0E94FE1B0E94FA1B0E94771CF0E00E947C1C0E94811C5C
:20082000DC9721F4EDE3F0E00E947C1C0E94E21B0E94FE1B0E94861C0E94861C0E94061CB0
:200840000E948A1C39F4E1E0F0E0E0939D05F0939E0505C0E0E0E0939D05E0939E050E9405
:20086000E21B0E94FE1B0E94861C0E948F1C0E94061C0E948A1C39F4E1E0F0E0E0939B0552
:20088000F0939C0505C0E0E0E0939B05E0939C050E94E21B0E94FE1B0E94FA1B0E946A1C4F
:2008A0000E94061CF0E0E0933205F09333050E94931C1E2EAE81BF810E949A1C0E94A01C7D
:2008C000E4E0F0E00E94D222E021E12979F10E94E21B0E94FE1B0E94FA1B0E941C1C0E94EC
:2008E000061C0E948A1C39F4E1E0F0E0E093C105F093C20505C0E0E0E093C105E093C20555
:20090000E0917205F09173056091740570917505A7E0B0E080E090E00E941523E0935E057A
:20092000F0935F056093600570936105E091A305F091A405309771F4E1E0F0E0E093A305F4
:20094000F093A405E0915E05F0915F05E093A505F093A6050E94A51CA091A505B091A6053D
:200960000E94B0220E94842329F0E0E0E093A305E093A405D6010E949A1C0E94931CE02129
:2009800061F10E94E21B0E94FE1B0E94FA1B0E94AE1C0E94B21C0E94B61C0E94B61C0E948E
:2009A000F8190E94F8194E2F55270E94F819F0E00E94BC1C0024041605066CF4FA01AFEF3B
:2009C000B0E00E9410230E94A01CEA0FFB1FE40FF51F0E94BC1C0E94C11CAE81BF8111972A
:2009E000C9F40E94E21B0E94FE1B0E948F1C0E94F61B0E94061C0E948A1C39F4E1E0F0E016
:200A0000E093D505F093D60505C0E0E0E093D505E093D6050E94E21B0E94FE1B0E948F1C64
:200A20000E94771CF0E0E093D705F093D8050E94E21B0E94FE1B0E948F1C0E946A1C0E9491
:200A4000061CF0E0E093DB05F093DC050E94E21B0E94FE1B0E948F1C0E941C1C0E94061CA8
:200A60000E94CA1CE091D505F091D605309711F00C94B0050E94D01CED37A0E0FA0719F4EA
:200A8000E3E0F0E068C0E837A0E0FA0719F4E4E0F0E061C0E337A0E0FA0719F4E5E0F0E0FC
:200AA0005AC0EE36A0E0FA0719F4E6E0F0E053C0E936A0E0FA0719F4E7E0F0E04CC0E43657
:200AC000A0E0FA0719F4E8E0F0E045C0EF35A0E0FA0719F4E9E0F0E03EC0EA35A0E0FA0702
:200AE00019F4E8E1F0E037C0E535A0E0FA0719F4E9E1F0E030C0E035A0E0FA0719F4EAE1B9
:200B0000F0E029C0EB34A0E0FA0719F4EBE1F0E022C0E634A0E0FA0719F4ECE1F0E01BC0D1
:200B2000E134A0E0FA0719F4EDE1F0E014C0EC33A0E0FA0719F4EEE1F0E00DC0E733A0E0ED
:200B4000FA0719F4EFE1F0E006C0E233A0E0FA0731F4E0E2F0E0E093D905F093DA0590C0D1
:200B60000E94D51CE2E3F0E00E94BA22E02121F0E1E1F0E00E94E31C0E94D51CE7E3F0E05D
:200B80000E94BA22E02121F0E2E1F0E00E94E31C0E94D51CECE3F0E00E94BA22E02121F0CF
:200BA000E3E1F0E00E94E31C0E94D51CE1E4F0E00E94BA22E02121F0E4E1F0E00E94E31C12
:200BC0000E94D51CE6E4F0E00E94BA22E02121F0E5E1F0E00E94E31C0E94D51CEBE4F0E0EF
:200BE0000E94BA22E02121F0E6E1F0E00E94E31C0E94E81CE2E3F0E00E94BA22E02121F062
:200C0000EBE0F0E00E94E31C0E94E81CE7E3F0E00E94BA22E02121F0ECE0F0E00E94E31C8B
:200C20000E94E81CECE3F0E00E94BA22E02121F0EDE0F0E00E94E31C0E94E81CE1E4F0E066
:200C40000E94BA22E02121F0EEE0F0E00E94E31C0E94E81CE6E4F0E00E94BA22E02121F0F5
:200C6000EFE0F0E00E94E31C0E94E81CEBE4F0E00E94BA22E02121F0E0E1F0E00E94E31C2D
:200C80000E949023BEC00E94E21B0E94EA1B0E94F61CE09138050E94FB1C0E94EA1B0E94D7
:200CA0006A1C0E94FA1BE09132050E94FB1C0E94EA1B0E941C1C0E94FA1B0E94B21C0E944C
:200CC000E21B0E94EA1B0E94AE1C0E94FA1BE5E00E94FB1C0E94FF1C0E94861C0E94FA1B17
:200CE0000E94B21C0E94E21B0E94FF1C0E948F1C0E94FA1B0E94B21C0E94E21B0E94FF1C58
:200D00000E946E1C0E94FA1B0E94B21C0E94E21B0E94081D0E94F61B0E94FA1B0E94B21C40
:200D20000E94E21B0E94081D0E94F61CE2E00E94FB1C0E94081D0E946A1C0E94FA1BE2E3B3
:200D40000E94FB1C0E94081D0E941C1C0E94FA1BEDE70E94FB1C0E94111D0E946E1C0E9457
:200D6000FA1B0E94FA1B08950E948B230E941A1D5CF00E94201D0E942D238F010E94201D55
:200D80000E9432239F0102C00E94251D0E94E21B0E94EA1B0E946E1C0A930E942A1D1CF012
:200DA0000E942D1D06C0AF81AA2312F0EE8101C0E0E0EA930E94FC190E94321D5CF00E947F
:200DC000381D0E942D238F010E94381D0E9432239F0102C00E94251D0E94E21B0E94FF1CAC
:200DE0000E943D1D0A930E94FC190E94321D1CF00E942D1D01C0EC81EA930E94FC190E94B6
:200E00009223289608950E94E21B0E94411D0E94861C0E94B11B1A971CF4E8EAF3E002C049
:200E2000E9EAF3E0FA93EA930E944A1D0E94571D0E94B61B1A971CF4E8EAF3E002C0E9EA75
:200E4000F3E0FA93EA930E945A1D0E94571DA091CD05B091CE051A971CF4E8EAF3E002C047
:200E6000E9EAF3E0FA93EA930E94671D08950E94E21B0E94411D0E94FA1B0E94B11B1A978A
:200E80001CF4E8EAF3E002C0E9EAF3E0FA93EA930E944A1D0E94571D0E94B61B1A971CF4D8
:200EA000E8EAF3E002C0E9EAF3E0FA93EA930E945A1D0E94571DA091CD05B091CE051A9724
:200EC0001CF4E8EAF3E002C0E9EAF3E0FA93EA930E94671D08950E94E21BEBE0EA930E949F
:200EE000FC19E2E8EA930E94FC190E94861C0E94471CE091C905F091CA050E94741DEA0FDB
:200F0000FB1FE093CF05F093D0050E94741DDD976CF0E091CF05F091D005FC97E093CF05A0
:200F2000F093D005A1EDB5E00E94AB1BE091CB05F091CC050E94791DEA0FFB1FE093D105A7
:200F4000F093D2050E94791DDD976CF0E091D105F091D205FC97E093D105F093D205A3EDCA
:200F6000B5E00E94AB1BE091CD05F091CE050E947E1DEA0FFB1FE093D305F093D4050E9444
:200F80007E1DDD9774F0E091D305F091D405FC97E093D305F093D405E0E0E093D305E09383
:200FA000D4050E94741D1A971CF4E8EAF3E002C0E9EAF3E0FA93EA93E091CF05F091D005B2
:200FC0000E94831D0E94571D0E94791D1A971CF4E8EAF3E002C0E9EAF3E0FA93EA93E09138
:200FE000D105F091D2050E94831D0E94571D0E947E1D1A971CF4E8EAF3E002C0E9EAF3E060
:20100000FA93EA93E091D305F091D4050E94831D08950E948B230E94E21B0E94EA1B0E940C
:20102000861C0E94FA1BEE850E94FB1C0E94EA1B0E948F1C0E94FA1BEC850E94FB1C0E94B4
:20104000FF1C0E94F61B0E94FA1BEA850E94FB1C0E94FF1C0E946A1C0E94FA1BE885EA935D
:201060000E942A1D5CF00E94201D0E942D238F010E94201D0E9432239F0102C00E94251DBE
:201080000E94E21B0E94FF1C0E941C1C0A930E942A1D1CF00E942D1D06C0AF81AA2312F0D7
:2010A000EE8101C0E0E0EA930E94FC190E94321D5CF00E94381D0E942D238F010E94381D5F
:2010C0000E9432239F0102C00E94251D0E94E21B0E94FF1C0E94AE1C0A930E94FC190E9415
:2010E000321D1CF00E942D1D06C0AD81AA2312F0EC8101C0E0E0EA930E94FC190E9492236D
:201100006096089508950E94D51B0E948C1DAFD9E03011F00C943C090E94961D61F5E09128
:20112000E505F091E605309729F534DB0E94E21B0E94FE1B0E943D1D0E948F1C0E94061CFE
:201140000E2F1127002E012A31F4E0E0E093E705E093E80506C0E1E0F0E0E093E705F093E4
:20116000E8050E949C1D1D9A0E94A21D0E94AA1D0E94B01D80C0E130A0E0FA0731F41D988B
:201180000E94AA1D0E94B71D76C0E230A0E0FA0779F41E9A0E948C1D63D9E03039F4FADAEA
:2011A0000E94BE1D0E94C61D1E9801C0CBDA63C0E330A0E0FA0711F00C942809E091E7052B
:2011C000F091E805E093E105F093E205E091E705F091E805309779F40E94CD1D25D9E03045
:2011E00011F40E94D71D0E94CD1D25D9E03011F40E94E21D12C0E130A0E0FA0771F40E94A9
:20120000CD1D12D9E03011F40E94E21D0E94CD1D12D9E03011F40E94D71D0E948C1D20D9DD
:20122000E130A9F4B7DAA0919F05B091A005129721F4E3E0F0E00E94ED1D0E94F21D30973F
:2012400021F4E2E0F0E00E94ED1D0E94F71D13C0E430A0E0FA0779F40E94FE1D129729F42D
:201260000E94AA1D0E94B71D06C0E1E0F0E00E94ED1D0E94031E14C0E13091F44FDA1D9881
:201280001E980E94BE1D0E94091E0E94031E0E940F1E11F40E94151E0E941E1E0E94441E04
:2012A0000E94F21D0991199108950E94631C0E94FE1B0E943D1D0E948F1C0E94061C0E2F76
:2012C0001127002E012A19F420E030E002C021E030E0F9010E949223249608950E948B2395
:2012E0000E94251DDE9A0E944A1EEC81FD810E171F07FCF40E948C1D9AD8E13019F4DB9A12
:2013000021E030E00E948C1D92D80E94C61BD9010E94501EE02119F0DB9822E030E0E2E049
:20132000F0E0E217F30721F40F5F1F4F23E030E0DCCF0E944A1EDE980E949223269608950B
:201340000E94D01CE093DF05F093E0050E94E21B0E94FE1B0E948F1C0E941C1C0E94061CFB
:201360000E94CA1C0E94D01CA091DF05B091E005EA17FB0711F40C94340A0E94D01CED3784
:20138000A0E0FA0719F4E3E0F0E068C0E837A0E0FA0719F4E4E0F0E061C0E337A0E0FA0707
:2013A00019F4E5E0F0E05AC0EE36A0E0FA0719F4E6E0F0E053C0E936A0E0FA0719F4E7E0A2
:2013C000F0E04CC0E436A0E0FA0719F4E8E0F0E045C0EF35A0E0FA0719F4E9E0F0E03EC0A3
:2013E000EA35A0E0FA0719F4E8E1F0E037C0E535A0E0FA0719F4E9E1F0E030C0E035A0E0E9
:20140000FA0719F4EAE1F0E029C0EB34A0E0FA0719F4EBE1F0E022C0E634A0E0FA0719F467
:20142000ECE1F0E01BC0E134A0E0FA0719F4EDE1F0E014C0EC33A0E0FA0719F4EEE1F0E0D3
:201440000DC0E733A0E0FA0719F4EFE1F0E006C0E233A0E0FA0731F4E0E2F0E0E093D90513
:20146000F093DA050E94551E08952C97E0E0E883E9830E9489230E945E1E0E94631E0E94CD
:20148000691E01E010E00E94031E0E946E1E1CF00E94031E02C00E94761ED8010E94501E53
:2014A0000E947D1E0E948E1E0E94941E0E948E1E0E94501E0E948E1E0E94991E0E948E1EFA
:2014C0000E949E1E0E948E1EE4E0F0E00E94BA22E02911F40C940C0CD8010E94501E0E94FD
:2014E0007D1EE02911F40C94290BF801E130A0E0FA07B9F4DA010E94501E0E94A31E0E22B9
:20150000D601E8E0F0E00E94CC22E02949F00E94AA1E0CF4C59A02E010E0E0E00E94691E06
:2015200098C0E230A0E0FA07D1F50E94201C0E942A020E94C61BD601E8E0F0E00E94CC22CC
:20154000E021EF930E94201C0E942A02A1E00E94B5220E94A31EE021AF91EA2B11F0C5984B
:201560001BC00E94AF1EEF930E94201C0E943702A1E00E94B522AF91EA2311F00E94BA1E24
:201580000E94AF1EEF930E94201C0E94C81EAF91EA2321F00E94CE1E03E010E05AC0E33008
:2015A000A0E0FA0769F5A091AF05B091B005119769F40E94D51E19F4D89ADD9802C0DD9AAA
:2015C000D898E0E0E093AF05E093B0050E94CD1D0E94DE1EA091AF05B091B0050E94941E33
:2015E000E02169F0AE81BF81119719F4D89ADD9802C0DD9AD8980E94E51E0E94EC1E29C0A3
:20160000E430A0E0FA0729F50E948C1D0E941B02E03011F40E94FC1E0E94CD1D0E942002EC
:20162000E03021F40E94031F0E940D1FA889B9890E94501E0E94141F0E941E1FE02149F082
:20164000D898DD980E94031FE0E0E88BE98B05E010E00E948C1D0E943702E03011F00C948E
:20166000F80B0E94961DB9F50E948C1D0E94C81EEF930E948C1D0E94251FAF91EA2331F070
:20168000A091E905B091EA05109709F013C00DDEE093EB05F093EC0553DE0E949C1D7AD8E8
:2016A0000E94A21D1D9A0E94631E0E942B1F0E94B01D10C00E948C1D0E94DE1ED9010E945F
:2016C000941EE02131F0ACE7B5E00E94AB1B21E030E08DC08CC0E130A0E0FA07A1F40E9433
:2016E0008C1D0E9437020E94C61B0E94341F49F00E943C1F2CF01D980E94B71D0E944C1F64
:2017000001C075C074C0E230A0E0FA0701F50E948C1D0E943702E030B9F40E943C1F9CF0AA
:201720001E9A0E948C1D0E943002E03051F40E94541F0E945B1FE0E0EC87ED87EE87EF87BA
:2017400002C00E94A20302C0C19851C050C0E330A0E0FA07E1F5E091EB05F091EC05309740
:2017600089F40E94CD1D0E941402E03011F40E94D71D0E94CD1D0E941B02E03011F40E94FB
:20178000E21D14C0E130A0E0FA0781F40E94CD1D0E941402E03011F40E94E21D0E94CD1DE9
:2017A0000E941B02E03011F40E94D71D0E948C1D0E943002E13051F40E94CA031E980E9483
:2017C000F71DE0E0E093ED05E093EE0510C0E430A0E0FA0761F40E94761E0E945F1FE02159
:2017E00009F0DA9A0E946A1FE02109F0DA9A11C0E13079F40E94751F1E98DA980E94031E73
:201800000E94631E0E942B1F0E940F1E11F40E94151E0E947B1F41CECDC12C978CE0A0E088
:20182000B0E0EEE9F0E00E9497230E9489230E94251D40E050E00E945E1E0E94631E0E94B0
:20184000691E01E010E00E94031E0E946E1E1CF00E94031E02C00E94761E0E94721C21F136
:20186000E2E0F0E0E017F107F9F0E3E0F0E0E017F107D1F0E4E0F0E0E017F107A9F00E94FD
:20188000941F109789F00E94941F119769F00E94941F129749F00E94941F139729F00E942E
:2018A000941F149709F086C10E94721C81F0E2E0F0E0E017F10759F0E3E0F0E0E017F1079D
:2018C00031F0E4E0F0E0E017F10709F08EC0F801E130A0E0FA0799F40E94991F19F40E94FC
:2018E000AA1E1CF40E94AA1E4CF40E94AA1E0CF4C59A02E010E0E0E00E94691E76C0E2309A
:20190000A0E0FA0781F50E94201C0E942A02E03019F40E94AA1E54F00E94201C0E942A02AD
:20192000E13019F40E94AA1E0CF402C0C59818C00E949E1F34F00E94201C0E943702E130DB
:2019400009F002C00E94BA1E0E949E1F34F00E94201C0E943702E03009F004C00E94CE1EBB
:2019600003E010E042C0E330A0E0FA0759F40E94D51E19F4D89ADD9802C0DD9AD8980E94DD
:20198000EC1E33C0E430A0E0FA0779F50E948C1D0E941B02E03011F40E94FC1E0E94CD1DE0
:2019A0000E942002E03021F40E94031F0E940D1FA889B9890E94501E0E94141FEAE0F0E0BA
:2019C00060E070E00E94E022E02179F0D898DD98E1E0F0E0E093E305F093E4050E94031F68
:2019E000E0E0E88BE98B05E010E00E948C1D0E943702E03011F00C94C60D0E94961D11F06B
:201A00000C943E0D0E948C1D0E94C81EEF930E948C1D0E94251FAF91EA2331F0A091EF05C2
:201A2000B091F005109709F018C03FDCE093F105F093F205E093E105F093E20581DC0E9438
:201A40009C1D0E94CA030E94A21D1D9A0E94631E0E942B1F0E94B01D10C00E948C1D0E940B
:201A6000DE1ED9010E94941EE02131F0ACE7B5E00E94AB1B21E030E088C087C0E130A0E059
:201A8000FA07A1F40E948C1D0E9437020E94C61B0E94341F49F00E943C1F2CF01D980E9469
:201AA000B71D0E944C1F01C070C06FC0E230A0E0FA0701F50E948C1D0E943702E030B9F4B9
:201AC0000E943C1F9CF01E9A0E948C1D0E943002E03051F40E94541F0E945B1FE0E0EC87ED
:201AE000ED87EE87EF8702C00E94A20302C0C1984CC04BC0E330A0E0FA07B9F5E091F105A3
:201B0000F091F205309789F40E94CD1D0E941402E03011F40E94D71D0E94CD1D0E941B02CF
:201B2000E03011F40E94E21D14C0E130A0E0FA0781F40E94CD1D0E941402E03011F40E9419
:201B4000E21D0E94CD1D0E941B02E03011F40E94D71D0E948C1D0E943002E13029F40E94A1
:201B6000CA031E980E94F71D10C0E430A0E0FA0761F40E94761E0E945F1FE02109F0DA9AAE
:201B80000E946A1FE02109F0DA9A11C0E13079F40E94751F1E98DA980E94031E0E94631E19
:201BA0000E942B1F0E940F1E11F40E94151E0E947B1F53CE0E94902362960895A09780E2B0
:201BC000A0E0B0E0EAEAF0E00E9497230E9489230E94251D40E050E00E94E21B0E94FE1B19
:201BE0000E943D1D0E94F61B0E94061C4E2F55270E94991F11F4D99A01C0D9980E94E21BD6
:201C00000E94FE1B0E943D1D0E943D1D0E94061CF0E0ECA3FDA3ACA1BDA1119711F4C59A97
:201C200001C0C5980E94E21B0E94FE1B0E943D1D0E946A1C0E94061CF0E0EAA3FBA3AAA1FE
:201C4000BBA1119711F4C09A01C0C098022E032AD9F40E94E21B0E94FE1B0E946A1C0E94BA
:201C60006E1C0E94061CF0E0EA87FB87AA85BB85119729F4E0E0E887E987DD9805C0E1E085
:201C8000F0E0E887F987D8980E94E21B0E94FE1B0E943D1D0E941C1C0E94061C2E2F33276A
:201CA000E1E0F0E0E217F30769F4AA85BB85119711F4D89ADD98A885B985119711F4D898B8
:201CC000DD9A02C0D898DD980E94E21B0E94FE1B0E943D1D0E94471C0E94061CF0E0EA8F7E
:201CE000FB8FAA8DBB8D119711F4AF9A01C0AF980E94E21B0E94FE1B0E943D1D0E946E1C5B
:201D00000E94061CF0E0E88FF98FA88DB98D119711F4AE9A01C0AE980E94E21B0E94FE1B5F
:201D20000E943D1D0E94AE1C0E94061CF0E0EE8BFF8BAE89BF89119711F4AD9A01C0AD982B
:201D40000E94E21B0E94FE1B0E946A1C0E94FA1B0E94061CF0E0EC8BFD8BAC89BD89119794
:201D600011F4DC9A01C0DC980E94E21B0E94FE1B0E948F1C0E941C1C0E94061C0E94CA1CE6
:201D80000E94D01CED37A0E0FA0719F4E3E0F0E068C0E837A0E0FA0719F4E4E0F0E061C0E6
:201DA000E337A0E0FA0719F4E5E0F0E05AC0EE36A0E0FA0719F4E6E0F0E053C0E936A0E0D2
:201DC000FA0719F4E7E0F0E04CC0E436A0E0FA0719F4E8E0F0E045C0EF35A0E0FA0719F45B
:201DE000E9E0F0E03EC0EA35A0E0FA0719F4E8E1F0E037C0E535A0E0FA0719F4E9E1F0E0CD
:201E000030C0E035A0E0FA0719F4EAE1F0E029C0EB34A0E0FA0719F4EBE1F0E022C0E63466
:201E2000A0E0FA0719F4ECE1F0E01BC0E134A0E0FA0719F4EDE1F0E014C0EC33A0E0FA07E7
:201E400019F4EEE1F0E00DC0E733A0E0FA0719F4EFE1F0E006C0E233A0E0FA0731F4E0E27E
:201E6000F0E0E093D905F093DA050E94E21B0E94FE1B0E946A1C0E94861C0E94061CF0E085
:201E8000EA8BFB8BAA89BB891197D1F40E94551E0E94091E0E94F21D309719F40E94AA1F95
:201EA000F9CF0E94091E0E94E21B0E94111D0E94861C0E94FA1B0E94FA1BE0E0EA8BEB8BC5
:201EC0000E94E21B0E94FE1B0E946A1C0E948F1C0E94061CF0E0E8A3F9A3A8A1B9A111972D
:201EE00011F4C69A01C0C6980E94E21B0E94FE1B0E946A1C0E94F61B0E94061CF0E0EE8F18
:201F0000FF8FAE8DBF8D119711F4C29A01C0C2980E94E21B0E94FE1B0E946A1C0E94771CD1
:201F2000F0E0EC8FFD8FAC8DBD8D119711F4C19A01C0C1980E94E21B0E94FE1B0E946A1CA3
:201F40000E946A1C0E94061CF0E00E94AD1F119711F4C79A01C0C7980E94E21B0E94FE1BCF
:201F60000E946A1C0E941C1C0E94061CF0E0EE87FF87AE85BF85119711F4AC9A01C0AC9861
:201F80000E94E21B0E94FE1B0E946A1C0E94AE1C0E94061CF0E0EC87FD87AC85BD851197AD
:201FA00011F4C49A01C0C4980E94E21B0E94FE1B0E946A1C0E94471C0E94061CF0E0EE8315
:201FC000FF83AE81BF81119741F5C398AA981A9AA99AC79A0E94B21FA9980E94B21FC39AB9
:201FE0001A980E94B21FD99AAB9AE8E8F3E10E94B81FD998D998AB98C798C3980E94B21F95
:20200000AA980E94B21F0E94E21B0E94111D0E94471C0E94FA1B0E94FA1B0E94991F11F4CA
:202020000C944F10ACA1BDA11197C9F1AAA1BBA11197A9F1E1E0F0E0E217F30781F1AA8D7E
:20204000BB8D119761F1A88DB98D119741F1AE89BF89119721F1AC89BD89119701F1AA8968
:20206000BB891197E1F0A8A1B9A11197C1F0AE8DBF8D1197A1F0AC8DBD8D119781F0A8891A
:20208000B989119761F0AE85BF85119741F0AC85BD85119721F0AE81BF81119719F401E084
:2020A00010E002C000E010E0F8010E949023A69608950E94D51B0E9443060E94201C0E947A
:2020C0001402E03019F40E947A03F7CF0E94CA030E9482080E94CA030E9431030E94CA0399
:2020E0000E94CD1D0E942002E13011F4D89AF8CF0E94E51ED898DD98AB98A998AA9A1A983D
:20210000C7980E94CF020E94CA030E944103E0918E05E03029F50E94BC1FA0919B05B091D7
:202120009C051197A9F40E94441EAA981A9A0E94B21FA99A0E94B21FAA9A1A980E94C21F1D
:20214000AA981A9A0E94B21FA9980E948403FFCF002E012A11F40E94C51F30DD8F01D7CFB7
:20216000E0E0E0938E0581D9AD9A0E94441EAD987CD90E94441E79D90E94441E76D90E940F
:20218000091E0E94031E0E94FE1D0E949A1C0E94FE1D0E94991E0E2A0E94FE1D0E949E1ED7
:2021A000E02919F00E94AA1FEECF0E94091E0E94441E0E94BC1F0E94CA1FAC9AE1E0F0E039
:2021C0004CC0E1E0F0E00E94D21FE0918605F091870508951A930A931F9A0E948C1D0E9439
:2021E0001702E03019F401E010E002C000E010E0002E012AB1F4A091AD05B091AE051597C5
:2022000021F40E9498030E94D71FADEAB5E00E94AB1B0E94DD1FE1E0F0E0E0938405F09392
:2022200085050E94721CA9F40E94D71FA0918405B0918505119739F40E94CA03E0E0E093B3
:202240008405E0938505E1E0F0E00E94E31F1F98DA98E0918A05F0918B05099119910895A8
:202260000E94D51BE0911805F0911905309729F40E94E81F0E943F0201C1E130A0E0FA07DB
:2022800021F5AF9A0E94201C0E94EF1FEF930E94201C0E94251FAF91EA23A1F0E0E0E093FA
:2022A0004E05E0934F05E0935005E09351050E94F51FE2E0F0E00E94FF1F0E9404200E9403
:2022C000550302C00E944B03D9C0E230A0E0FA0769F40E940B200E9414203CF0AF980E94B3
:2022E000F51FE3E0F0E00E94FF1FC8C0E330A0E0FA0759F40E941C203CF0AE9A0E94F51F06
:20230000E4E0F0E00E94FF1FB9C0E430A0E0FA0761F40E941C2044F0AE98C49A0E94F51F9A
:20232000E5E0F0E00E94FF1FA9C0E530A0E0FA0769F40E940B200E9414203CF0C4980E941F
:20234000F51FE6E0F0E00E94FF1F98C0E630A0E0FA0711F00C94FB110E94201C0E94EF1FE9
:20236000EF930E94201C0E942002A1E00E94B522AF91EA2321F00E94E81F0E9425200E94AF
:20238000201C0E941B02A1E00E94B522EF930E94201C0E94251FAF91EA2321F00E94E81FFB
:2023A0000E9425200E94201C0E94EF1FEF930E94201C0E94251FAF91EA2331F0E3E0F0E061
:2023C0000E94FF1F0E9425200E94201C0E941B02A1E00E94B522EF930E94201C0E9420029B
:2023E000A1E00E94B522AF91EA2321F0E7E0F0E00E94FF1F43C0E730A0E0FA0759F40E94A4
:202400001C203CF0AD9A0E94F51FE8E0F0E00E94FF1F34C0E830A0E0FA0761F40E941C203F
:2024200044F0AD98C49A0E94F51FE9E0F0E00E94FF1F24C0E930A0E0FA0759F40E940B201E
:202440000E9432202CF0C498EAE0F0E00E94FF1F15C0EA30A0E0FA0789F40E94F51FE0E053
:20246000E0931805E093190501E010E0E1E0F0E0EC15FD0519F4E2E0F0E06F0179C30E94E9
:20248000D51BE0911A05F0911B05309781F4E0E0E0935205E0935305E0935405E0935505F1
:2024A0000E94031FEAE1F5E00E943A2050C0E130A0E0FA0761F40E943F200E94482034F096
:2024C0000E94031FEAE1F5E00E94502040C0E230A0E0FA0761F40E943F200E94552034F062
:2024E0000E94031FEAE1F5E00E945D2030C0E330A0E0FA0761F40E943F200E94322034F067
:202500000E94031FEAE1F5E00E94622020C0E430A0E0FA0751F40E943F200E94322024F070
:20252000EAE1F5E00E94672012C0E530A0E0FA0771F40E94031FEAE1F5E00E946C20E3E0B0
:20254000F0E0EC15FD0519F4E4E0F0E06F0110C30E94D51BE0911C05F0911D05309791F4B1
:20256000E0E0E0935605E0935705E0935805E09359050E947320C398AA98ECE1F5E00E9447
:202580003A2041C1E130A0E0FA07F1F40E947D20A230E0E0BE07E0E08E07E0E09E0734F0F4
:2025A000A091E305B091E405119709F00CC0E0E0E093E305E093E4051A9A0E947320ECE13E
:2025C000F5E00E9450201FC1E230A0E0FA07E9F4A0919D05B0919E05119721F40E94862008
:2025E0000E948D200E947D20AB30E0E0BE07E0E08E07E0E09E0744F0A99AC79A0E94732026
:20260000ECE1F5E00E945D20FEC0E330A0E0FA07A1F40E947D200E94322074F0A998A1E9B0
:20262000B5E0ED91FD913197FE93EE930E947320ECE1F5E00E946220E6C0E430A0E0FA07E9
:2026400039F40E947320ECE1F5E00E946720DBC0E530A0E0FA0781F40E947D200E94942012
:2026600054F0C39A1A980E949C20ECE1F5E0A6E0B0E0A083B183C7C0E630A0E0FA0781F407
:202680000E947D200E94142054F0D99AAB9A0E947320ECE1F5E0A7E0B0E0A083B183B3C071
:2026A000E730A0E0FA07C9F50E948C1D0E942A020E94C61B0E94A2200E94941EE02111F06E
:2026C0000E9486200E94A7200E2EE0913205F09133050E947D200E94AB220E94D822E02161
:2026E00031F0C398D9980E9473200E94A920E0913405F09135050E947D200E94AB220E9498
:20270000842354F4C398D998A1EBB5E00E94AB1B0E949C200E94A92076C0E830A0E0FA07DD
:20272000A9F50E94B0200E94A720E02109F0AA9A0E94B0200E94A2200E94941EE02109F0BE
:20274000AA9A0E947D200E941E1F0E2E0E94A720E02141F00E94B9202CF0C79A0E94732013
:202760000E948D200E947D200E941E1F0E2E0E94A2200E94941EE02141F00E94B9202CF02F
:20278000C79A0E9473200E948D203DC0E930A0E0FA07F9F40E947D20A630E0E0BE07E0E076
:2027A0008E07E0E09E07A4F0AB980E947D20A232E0E0BE07E0E08E07E0E09E074CF0C7985B
:2027C0000E947320ECE1F5E0AAE0B0E0A083B1831AC0EA30A0E0FA07B1F4E0919705F09109
:2027E0009805E0939905F0939A050E947320ECE1F5E00E946C20E5E0F0E0EC15FD0519F45F
:20280000E6E0F0E06F01B4C10E94D51BE0911E05F0911F05309791F4E0E0E0935A05E09321
:202820005B05E0935C05E0935D050E94C320EEE1F5E00E943A200E942A1C9AC1E130A0E096
:20284000FA0781F40E94C320AC980E94811CA634E0E0BE0714F41B9A1C9AEEE1F5E00E94E2
:20286000502086C1E230A0E0FA07D9F40E94CD200E94322044F00E94811CA634E0E0BE07EC
:2028800014F41B981C980E94CD200E94482044F0C19AC09A0E94C320EEE1F5E00E945D20FF
:2028A00067C1E330A0E0FA0711F00C949C14A0919905B0919A050E94501E0E2EA0919D053D
:2028C000B0919E050E94941E0E22A091A905B091AA050E94941E0E22A091B305B091B4055A
:2028E0000E94501EE02109F50E9423030E94C003E1E0F0E0E093A905F093AA050E94201CDA
:202900000E943702E030B9F4A091B305B091B4050E949A1CD601E7E0F0E00E94C622E021EB
:2029200021F0A5EBB5E00E94AB1BEEE1F5E00E9462200E94C3201CC1E430A0E0FA07D1F574
:202940000E94811CDC9741F00E94CA03E0E0E093A905E093AA05C59A0E94811CECE3F0E0E5
:202960000E94BA22EF930E94201C0E94C81EAF91EA23A9F00E94D6200E94DC200E94E32030
:202980000E94EA200E94F120EEE1F5E0A0E0B0E0A083B183E7E0F0E06F010E940D0C0E9469
:2029A000811CDC9731F00E94C320EEE1F5E00E946720DEC0E530A0E0FA0711F00C94331577
:2029C0000E94CD20E9E1F0E060E070E00E94E022EF930E94201C0E942A02A1E00E94B52272
:2029E000AF91EA230E2EA0E0C599A1E0E1E00E94B522E02149F0C69A0E94C320EEE1F5E0F2
:202A0000A6E0B0E0A083B1830E94CD20E2E3F0E060E070E00E94E022EF930E94201C0E94EF
:202A20002A02A0E00E94B522AF91EA2339F00E94C3200E9423030E94AC03C598A0E0C59922
:202A4000A1E0E0E00E94B522EF930E94201C0E94C81EAF91EA2331F00E94CA03EEE1F5E053
:202A60000E94622085C0E630A0E0FA07A1F40E94CD20AA31E0E0BE07E0E08E07E0E09E0718
:202A80004CF0C29A0E94C320EEE1F5E0A7E0B0E0A083B1836DC0E730A0E0FA0779F40E9433
:202AA000CD200E9455204CF0C0980E94C320EEE1F5E0A8E0B0E0A083B1835AC0E830A0E034
:202AC000FA0779F40E94CD200E9455204CF0C5980E94C320EEE1F5E0A9E0B0E0A083B183B0
:202AE00047C0E930A0E0FA0799F40E94F9207CF0E091E105F091E205309709F4C2980E9402
:202B0000C320EEE1F5E0AAE0B0E0A083B18330C0EA30A0E0FA0771F40E94F92054F0C19875
:202B2000AC9A0E94C320EEE1F5E0ABE0B0E0A083B1831EC0EB30A0E0FA07D1F40E94F920BA
:202B4000BCF00E94C320EEE1F5E00E946C20A6E3B5E0ED91FD913197FE93EE93E7E0F0E0D7
:202B6000EC15FD0529F4E8E0F0E06F010E94FB20F8010991199108950E9415210E949A1C66
:202B80000E941A21E02129F06BDBE0930405F09305050E9420210E9425210E942B210E9494
:202BA0003321E02129F06BDCE0930605F09307050E9438210E9425210E942B210E943D2182
:202BC0000E943321E02129F0C3DCE0930805F0930905E0910A05F0910B050E9425210E949A
:202BE0002B210E943D21D601E5E0F0E00E94C0220E22E6E0F0E00E94C0220E220E94332129
:202C0000E02129F001DEE0930A05F0930B050895AA24BB240E944E210E94FB200E940307E2
:202C20000E943F02089524971A930A930E94552100E010E00E945B210E2ED6010E94991E9D
:202C4000E02189F00E94C51F0E945D210E9477210E947D21E02139F00E9483210E94F120B7
:202C6000E3E0F0E06F010E945B210E2E0E9420210E948E21D601E4E0F0E00E94BA22E021D9
:202C8000A9F00E94C51F0E945D210E9477210E947D21E02159F00E9483210E94DC200E94AB
:202CA0003F02E5E0F0E06F010E9494210E945B210E2E0E9420210E948E210E9438210E944C
:202CC0008E21D601E6E0F0E00E94BA22E021A9F00E94C51F0E945D210E9477210E947D21A0
:202CE000E02159F00E9483210E94DC200E94E3200E94F120E7E0F0E06F010E945B210E2EED
:202D00000E9420210E948E210E9438210E948E21E0910A05F0910B050E948E21D601E8E032
:202D2000F0E00E94C622E02111F40C9492170E94C51F47DA0E94D21FE1E0F0E0E09388051F
:202D4000F09389050E94C902E0939305F0939405D5010E94501E0E2EA0918E05E1E00E9485
:202D6000B5220E22A0918605B09187050E94501E0E9477210E947D21E02111F40C949217EA
:202D80000E94DD1F0E9455210E949A210E949F21E021C9F00E94AA2119F41CDA0E94E31FF0
:202DA0000E94C22114F00E9455210E949A21D8010E94941EE02131F0AEE7B5E00E94AB1B34
:202DC00001E010E0E1CF0E949A210E94CE210E94D4210E94501EE02161F00E94AA2119F411
:202DE000F9D90E94E31F0E94C22114F00E945521EACF0E940D0CE0E0F0E0FA93EA930E940C
:202E0000F503A091C105B091C2050E94501E0E2EA091C505B091C6050E94941EE021C9F05A
:202E2000E0E0E093C105E093C205E1E0F0E0E093C505F093C6050E941003E4E0F0E00E9458
:202E4000BC1C0E94C11CEEEFFFEFE0932C05F0932D05F60131966F01E8EEF3E0EC15FD051D
:202E60001CF4E4E6F0E06F010E94A01CE3E0F0E00E94D2220E2E0E943321E02151F00E949B
:202E800094210E94D6200E94DC200E94E3200E94EA200E94A01C139744F00E9404200E9452
:202EA000DC200E94E3200E94EA200E94A01C129734F00E9404200E94E3200E94EA200E94E1
:202EC000A01C0E94802324F40E9404200E94EA209FDE0E94DA21A091A705B091A8050E94E0
:202EE000BA220E2EA091AB05B091AC050E94941EE021C1F00E9465030E94901B0E94961B37
:202F00000E949C1BE0E0E093CD05E093CE05DC98DA980E9410030E94F502E0E0E0938E0513
:202F2000CC24DD241981088126960895D601E8E0F0E00E94BA220E2ED5010E94941EE021D0
:202F400019F0E1E0F0E05F01D601E9E0F0E00E94C6220E2ED5010E94941EE02111F40C9471
:202F60007218042C0528A9F40E94A51CA0916605B091670580916805909169050E94E02171
:202F8000E02121F0A6E7B5E00E94AB1BE1E0F0E02F01062C0728A9F40E94A51CA0916A05D3
:202FA000B0916B0580916C0590916D050E94E021E02121F0A8E7B5E00E94AB1BE1E0F0E079
:202FC0003F010E948C1D0E94E421D4010E94941E0E22D601EBE0F0E00E94CC220E94D421CD
:202FE0000E94941EE021A1F00E94E721E02111F00E94F1210E94F42144F00E94F9210E9442
:20300000FC210E94DA210E94FF21E1E0F0E04F010E948C1D0E94E421D4010E94941E0E2208
:20302000D601E9E0F0E00E94BA220E94D4210E94501EE02119F0E1E0F0E04F010E948C1DC5
:203040000E94E421D4010E94941E0E2A0E94CE210E94D4210E94501EE021A1F00E94E721F4
:20306000E02111F00E94F1210E94F42144F00E94F9210E94FC210E94DA210E94FF21E1E014
:20308000F0E04F010E948C1D0E94E421D4010E94941E0E2A0E949F21E021A1F00E94E7211F
:2030A000E02111F00E94F1210E94F42144F00E94F9210E94FC210E94DA210E94FF21E1E0D4
:2030C000F0E04F01D2010E94501E0E2ED3010E94501E0E22D4010E94501EE02119F0E1E0ED
:2030E000F0E05F0108950C2C0D2811F00C94C718E0918E05E03029F40E94C51F0E9437077F
:2031000046C00E94BC1F0E94CA1F0E94091E0E94031E0E94FE1D0E949A1C0E94FE1D0E94A1
:20312000991E0E2A0E94FE1D0E949E1EE02919F00E94AA1FEECF0E94091E0E940B220E9411
:2031400011220E94D6200E94DC200E94E3200E94EA200E940B220E94CA03DC98E0E0E093D0
:20316000C505E093C605E0912C05F0912D05FA93EA93E091B905F091BA05FA93EA930E94CD
:20318000B4060E946B07AC9AE1E0F0E06F010895EFEFEABBE0E0EBBBE8BBEFEFE7BBE0E0B1
:2031A000E5BBEFEFE4BBE0E0E1BBE2BBE3B9EFEFE2B9E0936100E0E0E0936200E0936500A3
:2031C000EFE1E0936400E0E0E0BFE7E0E3BFE0E0E2BFE1BFEFBDEEBDEDBDECBDE7BDE6BD8E
:2031E000EBBDEABDE9BDE8BDE0937900E0937800E5BDE4BDE3BDE0938B00E0938A00E0930D
:203200008900E0938800E0938100E0938000E0938700E0938600E0938500E0938400E093EE
:203220008300E0938200E0936A00EABFE9BFE1E0E7BFE0E0E0937D00EBB9E8E1EAB9E6E0FB
:20324000E0939500E0E0E0939000E7E6E9B9E0E0E0939A00E0E8E8B9E0E0E0BDE6B9EDB95C
:20326000E09374000E943D2278940E94C21F0E94C21F0E94E21B0E94301CEA93BDD0E3E0FA
:20328000F0E0FA93EA930E946E09CC24DD24E0E0E0935E05E0935F05E0936005E09361052C
:2032A0000E944E21AA24BB24E4E6F0E060E070E0E0936205F0936305609364057093650598
:2032C0000E949421EEE3F0E060E070E0E0937205F093730560937405709375050E94091ECF
:2032E0000E94031EECEDF0E0E0933405F0933505E0E0E0933205E0933305E0E5F0E00E94AD
:203300007C1CE0E0E0932E05E0932F050E940B220E941122E0E0E0938C05E0938D05E09328
:20332000A305E093A405E093A505E093A605E093A905E093AA050E94D71FE0E0E093AB05D0
:20334000E093AC05E093AF05E093B005E093B105E093B205E093B505E093B605E093B30521
:20336000E093B405E093B705E093B805E093B905E093BA050E94CB1B0E949C1DE0E0E09349
:20338000C505E093C605E093D905E093DA05E093DB05E093DC05E093DD05E093DE05E093BD
:2033A0008E05E0938005E0938105E0938205E0938305E0938405E0938505E0938605E0932A
:2033C0008705E0938805E09389050E94DD1F0C2C0D2821F40E9459106F01F9CF0E949402C5
:2033E00082DECADBA3DD1FDC0E941A03F7CFFFCF5F9BFECFECB108955D9BFECFE881ECB926
:2034000021960895EA81EA93F7DFA881B9810E94AB1B2396089526970E94892310E0AC854D
:20342000BD85E0E0F0E0ED93FC93EA89FB893196EA8BFB8B3197E4912E2FE03011F40C94A3
:203440003D1BE12FE03039F4253211F411E002C00E94202211C1E130A9F4253219F40E944E
:20346000202209C112E040E000E02D3211F401E003C12B3211F44BE2FFC0203211F440E27E
:20348000FBC002C0E23039F450E013E0203311F40068F2C004C0E33011F00C943C1B2033B9
:2034A00010F02A3308F007C0AAE05A9F502DE22FE0535E0FE1C0E22FE33651F4E889F9893C
:2034C0003497E88BF98BA481AA930E942922D3C0E33741F40E9431220E9435220E946C1BE2
:2034E0001E2F0AC0E03761F40E9431220E9435220E94761B1E2F086002600F7730E039C082
:20350000E43611F0E93611F4046002C0E53731F4ECE8F0E0EE83FF8315E00DC0E83511F48A
:20352000086004C0E83711F00C943B1BE6E9F0E0EE83FF8314E002FF15C00E94312214964E
:203540000E946123EA87FB87AB85AA232AF40E949F22EA87FB874DE2403011F01F5F01C002
:203560000B7F07C00E94312214960E946123EA87FB8700FD11C0151778F407FF08C002FF0D
:2035800004C00B7F242F115001C020E301C020E20E9420225150EFCF312F01FF17C03030C8
:2035A000A1F003FF06C0EE81FF812591EE83FF8305C0AE81BF812D91AE83BF830E942022D1
:2035C000503009F051503150EACF4BC020E3EE81FF810E946F23E887F987EE81FF813296C0
:2035E000EE83FF83E885F985AA85BB85AE17BF0750F02F5FA885B985EA85FB85EA1BFB0BC0
:20360000EA87FB87EFCF2A3328F003FF02C0295F01C0295D04FD1AC0213320F4A885B98543
:20362000119709F409C0531710F000FF01C013C020E207FF0BC020E3006102FF07C00B7F96
:203640004A930E942922503009F051500E942022503009F051503150A885B985129708F0FB
:20366000B5CF00FF08C0503031F05150E0E2EA930E942922F8CF10E0D8CEAC85BD850E941F
:2036800061230E94902364960895FF92F82E26971A930A93DE0114960E949B228D01E0E0C6
:2036A000EC83ED83EE83EF83DE0118960E949B220E946123FA93EA931A930A93E2E0FAE145
:2036C000FA93EA93FE013896FA93EA93A4DE198108812896FF900895A991B991EE27FF27BB
:2036E0006D91662311F03196FBCF0895AA27BB27E991F9910590002011F01196FBCFFD0138
:2037000008950E944222E881EA930E947622E0E0EA930E945B22EA830E945122EA81089500
:20372000E0E0E093C705E093C8050895E0E0E093C905E093CA050895E0E0E093CB05E09357
:20374000CC0508950E946523EF5FFF4F6F4F7F4F0E946A230895ED91FD913196FE93EE93F8
:203760000895A091C905B091CA050895A091CB05B091CC050895E2E0F5E0A1E00E947823FB
:20378000E3E7F0E0FA93EA930C941702A0E00E94B5220E2E0895E0E0E093BB05E093BC05D3
:2037A000E093BD05E093BE0508951A930A9300E010E00895E0EDF7E0FA93EA930E948F2249
:2037C000DC980895EAE5EA930E94FC19E5EAEA930C94FC19E5E0EA930E94FC19E2E8EA9394
:2037E0000E94FC19E0E0EA930C94FC19E0E3EA930C94FC19E0E0EA930C94FC19E4E0EA93F8
:203800000E94FC19E3E8EA930C94FC19E1E0EA930E94FC190E94F8190E94F8190E94F819E6
:203820000E94F8190E94F8190E94F8190E94F8190E94F8190C94F819E0E6EA930C94FC1960
:20384000E2E0F5E0A1E00E947823E3E7F0E0FA93EA930895E0E0E0939505E093960508955A
:20386000E3E0EA930E94FC19E0E8EA930E94FC19E2E0EA930E94FC19E0E10895E3E2EA93BF
:203880000E94FC19E2E8EA930E94FC19B3CFE0E9EA930C94FC19EAECF0E0FA93EA9380E0E6
:2038A0000E94451B22968ECFEA930E94FC19E2E8EA930E94FC199ECFFA93EA9380E00E9446
:2038C000451B229608950E948B2300E010E020E030E078CFE0E5EA930C94FC19E0E8EA9380
:2038E0000C94FC19E1E0F0E0E017F1070895E0E4EA930E94FC198ACFE0933805F093390534
:203900000895A0913805B09139050895E0E1EA930C94FC192E2F3327022E032A0895E0E21A
:20392000EA930C94FC19AE81BF81E1E0F0E00E94BA220895E0E0F0E00E94BA220E2E089553
:20394000A0913605B09137050895E0915E05F0915F0560916005709161050895E0E7EA938A
:203960000C94FC19E1E0EA930C94FC190E94F8190E94F8190C94F819E0933605F09337051B
:203980000895E0913605F0913705E093A705F093A8050895F0E0E093DD05F093DE0508950D
:2039A000E091DD05F091DE050895A091D705B091D805E1E0F0E00E94BA220E2EA091DB052C
:2039C000B091DC050895E093D905F093DA050895A091D705B091D805E2E0F0E00E94BA229D
:2039E0000E2EA091DB05B091DC050895E0E4EA930E94FC19FFCEEA930E94FC19E3CEE5E04C
:203A0000EA930E94FC19E2E8EA930E94FC197ECFE5E0EA930E94FC19E2E8EA930E94FC1930
:203A20007ECFE5E0EA930E94FC19E2E8EA930E94FC1950CFAE81BF81A030E1E0BE070895C1
:203A4000AE81BF81EFEFF0E0089500E010E020E030E008950E94FC19EDCFAFEF0A02F00121
:203A6000E20F0895AC81BD81A030E1E0BE070895AC81BD81EFEFF0E00895E0E4EA930C94C3
:203A8000FC19EBE0EA930E94FC19E2E8EA930E94FC1945CFE091C905F091CA050E94AB2202
:203AA0000E94732384E00E94451B26960895ECEAF3E002CFE091CB05F091CC050E94AB2293
:203AC0000E94732384E00E94451B26960895E091CD05F091CE050E94AB220E94732384E04D
:203AE0000E94451B26960895A091CF05B091D0050895A091D105B091D2050895A091D305EE
:203B0000B091D40508950E94AB220E94732384E00E94451B26960895E3E0F5E0A1E00E94CD
:203B20007823E9E7F0E0FA93EA930895E091A105F091A20530970895E0E0E093BF05E09396
:203B4000C0050895E0910005E460E0930005E09362000895E0E9F1E0FA93EA930C948F226A
:203B6000E1E0F0E0E093A105F093A2050895E2E0F0E0E093A105F093A2050895E0910005EC
:203B8000EB7FE0930005E09362000895E3E0F0E0E093A105F093A2050895E1E0F5E0A1E047
:203BA0000E947823E1E7F0E0FA93EA930895E0910005EE7FE0930005ED7FE0930005E093D7
:203BC00062000895E0910005E160E0930005E260E0930005E09362000895E0939F05F093F1
:203BE000A0050895E0919F05F091A0050895E4E0F0E0E093A105F093A2050895A0919F0562
:203C0000B091A0050895E0E0E093A105E093A2050895E0E0E0939F05E093A0050895E09194
:203C2000BF05F091C00530970895E1E0F0E0E093BF05F093C005A7EBB5E08DCDE091B5055A
:203C4000F091B605FA93EA93E091B105F091B205FA93EA93E091B705F091B805FA93EA9340
:203C6000E091C305F091C405FA93EA93E0917C05F0917D05FA93EA93E0917E05F0917F05BF
:203C8000FA93EA930C940908E8EEF3E0FA93EA930C948F22E4EFF1E0FA93EA930C948F2266
:203CA000E1E0F0E00E94BA220895E091D905F091DA05FA93EA930E946E09ECCF20E030E0BB
:203CC00040E050E0C7CDE0E0EC87ED87EE87EF870895E887E987EA87EB870895E0E0E88B3F
:203CE000E98BE8E0F0E0CE16DF060895E5E0F0E0E093A105F093A20508950E2ED801E2E006
:203D0000F0E00E94BA220E2AE3E0F0E00E94BA220E2AE4E0F0E00E94BA2208950E2AA091BC
:203D2000A105B091A2050895E0E0F0E00E94BA220895E2E0F0E00E94BA220895E3E0F0E06D
:203D40000E94BA2208950E2ED601E8E0F0E00E94C6220895E8E0F0E0CE16DF060895A8854B
:203D6000B9858A859B85E0EDF7E060E070E00E94E02208950E9423030E94B603C598E1E21E
:203D8000FEE460E070E0E887F9876A877B8708950E943702A0E00E94B52208950E94CA0352
:203DA000E0E097DFC298C6980895C7980E94DA03EE83FF83AE81BF81119708950E9420022F
:203DC000A1E00E94B5220E2E0895E1E0F0E0E093AF05F093B0050895E0E0E093B305E09325
:203DE000B405E0933E05E0933F05E0934005E093410504E010E00895E1E0F0E0E093B305FF
:203E0000F093B4050895E0E0E0933E05E0933F05E0934005E09341050895C698C298E1E015
:203E2000F0E0E88BF98B08950E2EA0913E05B0913F0580914005909141050895E5E0F0E0FA
:203E400060E070E00E94E02208950E942002A0E00E94B5220895E0934A05E0934B05E0933F
:203E60004C05E0934D050895A0E0C199A1E0E0E00E94B522E0210895A0914A05B0914B054C
:203E800080914C0590914D05A630E0E0BE07E0E08E07E0E09E070895E0E0DDDFE0E0EC87EC
:203EA000ED87EE87EF87089541E050E0E0E011DF0E94CA036BCEE0E0CEDF1E985FCED60136
:203EC000EAE0F0E00E94C6220E2EA091D505B091D6052ACFD601E9E0F0E00E94C6220E2E2C
:203EE000A091D505B091D605DBCE0E94CA030E948E031D9843CEEC85FD856E857F85EF5F52
:203F0000FF4F6F4F7F4FEC87FD876E877F87E885F9856A857B85EF5FFF4F6F4F7F4FE88764
:203F2000F9876A877B870895A091A105B091A2050895E1E0F0E0E417F5070895A885B98585
:203F40008A859B85A13DE7E0BE07E0E08E07E0E09E0708950E94830840CEE88BF98BA8890E
:203F6000B9890895E8EBFBE0FA93EA930C948F22FA93EA930C948F22E1E0F0E0FA93EA9363
:203F80000C94F503E0EDF7E0F3CF0E94FF02E0938E050895E091D905F091DA05FA93EA9324
:203FA0000C946E09E0938605F09387050895E0E0E093AD05E093AE050895E0E0E0938A05D6
:203FC000E0938B050895E0938A05F0938B050895E1E0F0E0E0931805F093190508950E948E
:203FE0001B02A0E00E94B5220895E0E0E0933A05E0933B05E0933C05E0933D050895E09370
:204000001805F09319050895E1E0F0E0E0933005F09331050895A0913A05B0913B058091B4
:204020003C0590913D050895A932E0E0BE07E0E08E07E0E09E070895EEDFA531E0E0BE0760
:20404000E0E08E07E0E09E070895E5E1F0E060E070E0E0933A05F0933B0560933C05709337
:204060003D050895A333E0E0BE07E0E08E07E0E09E070895A1E0B0E0A083B1830895A09179
:204080003E05B0913F0580914005909141050895AD33E0E0BE07E0E08E07E0E09E07089542
:2040A000A2E0B0E0A083B1830895AF31E0E0BE07E0E08E07E0E09E070895A3E0B0E0A08308
:2040C000B1830895A4E0B0E0A083B1830895A5E0B0E0A083B1830895A0E0B0E0A083B18397
:2040E00001E010E00895E0E0E0934205E0934305E0934405E09345050895A0914205B0914E
:20410000430580914405909145050895E1E0F0E0E0939705F0939805E6CFECE1F5E0A9E055
:20412000B0E0A083B1830895A531E0E0BE07E0E08E07E0E09E070895E0E0E0939705E09307
:204140009805D1CFA0919705B09198050895FADFA7CDECE1F5E0A8E0B0E0A083B1830895DF
:20416000CCDFE0E0F0E060E070E00E94E0220E2E0895C798C2DFAE30E0E0BE07E0E08E073F
:20418000E0E09E070895E0E0E0934605E0934705E0934805E09349050895A0914605B09105
:2041A000470580914805909149050895E0E0E0930405E09305050895E6E0F5E0A0E0B0E048
:2041C000A083B1830895E8E0F5E0A0E0B0E0A083B1830895EAE0F5E0A0E0B0E0A083B18344
:2041E00008950E943F02E0E0E0933005E09331050895D3DF99CFE0E0E0936605E0936705FA
:20420000E0936805E0936905E0936A05E0936B05E0936C05E0936D05E0936E05E0936F0582
:20422000E0937005E09371050895A0910405B09105050895D601E0E0F0E00E94C022089566
:20424000E0910605F09107050895A0E0B0E00E94BA220E2EEFCF0E22D601E1E0F0E00E94F6
:20426000C0220E220895A0913005B091310518CDE0910805F09109050895D601E2E0F0E0BA
:204280000E94C0220E22E3E0F0E00E94C0220E22E4E0F0E00E94C0220E220895442455245D
:2042A00066247724882499240895E0E0EA83EB83EC83ED830895B9DFF3CC0E94E11072DE82
:2042C000E1E0F0E0E0938805F09389050E94C902E0939305F0939405A0918E05E1E00E9481
:2042E000B5220E2EA0918605B0918705D9CC0E22A0918805B0918905D3CC0E22A091930528
:20430000B0919405CDCC0E940D0C0E940307E0E0F0E0FA93EA930E94F50348CFA1E0B0E067
:204320000E94BA220E220895E0E0E0933005E09331050895A0918A05B0918B05FBCAD60157
:20434000EBE0F0E00E94C6220E22A091D505B091D605EACCEA81FB816C817D81EF5FFF4FBD
:204360006F4F7F4FEA83FB836C837D83AA81BB818C819D81A130E0E0BE07E0E08E07E0E0DA
:204380009E070895AA81BB818C819D81A536E0E0BE07E0E08E07E0E09E070895D601EAE0F1
:2043A000F0E00E94C62208950E22A091D505B091D6050895E0912C05F0912D053197089558
:2043C0000E94E0220E2EEACF0E942602DFC9BDDAA0916E05B0916F058091700590917105C5
:2043E000EFCFAAE7B5E0B7C9EAE0F0E0CE16DF060895ACE2B5E0AFC9A9EBB5E0ACC9FA9393
:20440000EA93E091B905F091BA053197FA93EA930E94B40613CCE0E0E0932C05E0932D059A
:204420000895EFEFFFEFE0937605F0937705E0937805F0937905E0937A05F0937B050895A3
:204440002A93ED85FE85FA93EA93E989FA8909950895ED85FE85FA93EA93E989FA890995DE
:204460000895E889F989349778CD14960E946123EE83FF83FA93EA93089590989198889ABF
:20448000899815C089988898EE270000819B0895809B089504D0899A02D0889AE1E06BE167
:2044A00007C0899A889A03D08898F9DF899865E36A95F1F7089578E08898F1DF809BFECF08
:2044C000EEDF889481990894889AF1DFEE1F7A9599F77991772311F4899801C0899ADFDF33
:2044E0008898E5DF889ADBDF8998D9CFE99178E0EE0F10F4899801C0899AD9DF8898CFDFD5
:20450000809BFECFCCDF889A7A9591F78998C7DF8898CDDFE1E08199EE27889AC0CFE991A1
:20452000F991309639F080EA9FE00197F1F7A8953197C9F708950024AF0DB01D0895F19567
:20454000E195F0400895F09560957095E195FF4F6F4F7F4F08956F2F660F660B762F0895E6
:204560008B2F880F880B982F0895EA17E1E009F0EE270895EA17FB07E1E009F0EE27089517
:20458000EA17FB07E1E009F4EE270895AE17BF07E1E00CF4EE270895AE17BF07E1E00CF062
:2045A000EE270895EA17FB07E1E00CF0EE270895AE17BF0786079707E1E00CF4EE270895AE
:2045C000EA17FB0768077907E1E00CF0EE270895FA9FF02DEB9FF00DEA9FE02DF10D08950C
:2045E0007A9F702D6B9F700DF89F700DE99F700D6A9F602D710DFB9F600D711DE89F600DC8
:20460000711D8827FA9FF02D610D781FEB9FF00D611D781FEA9FE02DF10D681F781F0895B7
:204620002FD0D6DF0EF48BDF089538D0D9DF0EF48ADF08950024112490E1AA0FBB1F001C7C
:20464000111C0E1A1F0A18F40E0E1F1E01C0A1609A9599F7FD01D001089512D0EBDF0EF4DC
:204660006EDF0895E894B7FF04C0A095B09511966894F7FD64DFDEDFFD010EF460DF08956D
:20468000E894F7FF02C05BDF6894B7FF06C0A095B095119600F8039400FA0895E89477FFFB
:2046A00002C051DF689497FF0BC00024A095B095809590951196801D901D00F8039400FA59
:2046C0000895ED91FC9111970895ED91FD916D917D9108957E936E93FE93EE9308950590E2
:2046E000F491E02D08957A936A93FA93EA930895BB27EA0FFB1F02900A921197E1F708959A
:2047000000240A160B060895EA17FB076807790708955A934A933A932A931A930A930895DD
:1C4720005D814C813B812A81198108810895AC0FBD1F05900D928A95E1F708954C
:00000001FF
