:200000000C9428020C9400000C9400000C9400000C9400000C9400000C9400000C940000B6
:200020000C9400000C9400000C9400000C9400000C9400000C9400000C9400000C940000C0
:200040000C9439030C9400000C9400000C9400000C9400000C9400000C9400000C94000064
:200060000C9400000C9400000C9400000C9400000C9400000C9400000C9400000C94000080
:200080000C9400000C9400000C9400001027E80364000A00010000100001100001000000CD
:2000A000000000000000000000000000000000000000000000000000000000000000000040
:2000C0000000000000000000000000000000000000000000000020202020202020202020E0
:2000E0002020202020202020202020202020202020202020202020202020202020200049F7
:200100006E69636A616C697A756A65206D61737A796E65005779637A79737A637A6F6E6FE4
:20012000206D61737A796E65004D61737A796E61207A61696E69636A616C697A6F77616E48
:200140006100437A656B616D206E612070726574206777696E746F77616E7900507261631C
:2001600061005A616B726563696C656D2077737A7973746B6965207A6164616E6520707562
:200180006368617279004272616B2077796D6167616E65676F206369736E69656E69612086
:2001A000362062617200446F7A6F776E696B206B6C656A7520707265746F77206E696520E7
:2001C000676F746F777900446F7A6F776E696B206B6C656A75206E616B726574656B206EE3
:2001E000696520676F746F77790057796C61637A206D61737A796E65206920706F637A65FD
:200200006B616A2031206D696E757465004F64736C6F6E2069207A7265736574756A206B86
:20022000757274796E65004D6F6E7465722033206E6965206E616369736E616C2070656431
:20024000616C6100437A656B616D206E612072756368206C616E637563686100506F707254
:2002600061772070726574207A2067727A79626B69656D2069206E616369736E696A2067BE
:20028000757A696B005573756E2070726574207A6520737A637A656B2069206E61636973A5
:2002A0006E696A2067757A696B0057796D69656E206C7562206E616B7265632F646F6B7264
:2002C00065632067727A7962656B2069206E616369736E696A2067757A696B004D6F6E7458
:2002E00065722033202D207A64656D6F6E74756A20707563686172206920706F74776965A3
:2003000072647A004D6F6E7465722033202D2077797A776F6C207265637A6E696520637A8F
:20032000756A6E696B207075636861726100534C415645206E696520706F74776965726433
:200340007A696C20706F64616E6961206E616B7265746B6900534C415645206E6965207072
:200360006F7477696572647A696C207A657A776F6C656E6961206E6120737A637A656B69B6
:200380000057657A207072657461207A2067727A656269656E692069206E616369736E69E4
:2003A0006A2067757A696B206269616C79004E69652077796B7279746F207769657A796338
:2003C0007A6B69207A69656C6F6E656A202D207A7265736574756A004E69652077796B725D
:2003E00079746F207769657A79637A6B6920637A6572776F6E656A202D207A726573657497
:20040000756A0020202020202020202020202020202020202020202020202020202020205D
:2004200020202020202020202020202020202020202020202000302564003A0001002D4EAD
:20044000414E00494E460000010005063C040000F894EE27ECBBF1E0F5BFE5BFE0936C0094
:20046000F8E1F1BDE1BD8DE0A2E0BB27ED938A95E9F780E090E1A0E0B1E0ED930197E9F72D
:20048000E8E4F4E085919591009761F0A591B59105901590BF01F00105900D920197E1F78D
:2004A000FB01F0CF8BBFEFEFEDBFE0E1EEBFC0E0D5E00C94251B0E94E91D25C00E94E91DD5
:2004C000E69521C00E94E91DE695E6951CC00E94E91DE695E695E69516C00E94E91DE29538
:2004E00012C00E94E91DE295EF70E6950CC00E94E91DE295EF70E695E69505C00E94E91D84
:20050000EE1FE0E0EE1FE170239608950E94F81D0E94FD1D0E94051EEC81EA930E94691C11
:20052000EA810E940D1E0E2F1127F80119810881269608950E94A5260FEF1FEF20E030E010
:20054000EE81FF812E173F0704F5F901A885B985AE0FBF1FEC91F0E00E271F2740E050E010
:200560004830E0E05E0774F400FF07C016950795E1E0F0EA0E271F2702C0169507954F5F9C
:200580005F4FEECF2F5F3F4FDBCFF8010E94AC262A960895E0919B00E072E1F3E881E09352
:2005A0009C00219608950E94A7260E94261E0E94261EC0DF8F01E0919B00E064E0939B0083
:2005C00020E030E0EC81FD812E173F075CF4F901AE81BF81AE0FBF1FEC91EA93DBDF2F5FFF
:2005E0003F4FF0CF0A93D6DFE12FEA93D3DFE0919B00E074E1F30E94AE26289608952B9756
:20060000E1E0E883E0E1E983E889EA83EF85EB83E0E0EC83E2E0ED83E4E0EE83AB85BC85BA
:200620008D859E85E8E00E94B625EF83EB85E887E8E10E94B625E987EB85FC856D857E8553
:200640000E94C225EA87FE01FA93EA93EBE0F0E0FA93EA93A8DF619608950E942B1E0E944A
:20066000311E0E94371EE0E0E093CD05E093CE0508956A937A93AA93BA93EA93FA93EFB708
:20068000EA93AAE3B5E00E943D1EAEE3B5E00E943D1EA2E4B5E00E943D1EA6E4B5E00E94C2
:2006A0003D1EAAE4B5E00E943D1EA7ECB5E00E94461EA091C705B091C805DC97D1F40E94AC
:2006C0002B1EA9ECB5E00E94461E0E944C1EDC9781F40E94311EABECB5E00E94461E0E94E8
:2006E000511EDC9731F40E94371EADECB5E00E94461EE991EFBFF991E991B991A99179910E
:20070000699118950E94561EE13009F4DC9AA0E0DC99A1E0E1E00E94D125EF930E94561E31
:20072000A0E00E94D125AF91EA2321F0ABEBB5E00E943D1E0E94561E0E94611EA091BB05F3
:20074000B091BC058091BD059091BE05E0EAF6E861E070E00E94FC25E02141F00E94661E8C
:20076000DC98E0E0E0938F05E093900508951A930A9301E010E0F80123C00E94F81D0E9449
:20078000561EE13011F4DC9AFACF0E94701E0431E0E01E077CF40E94561EE13041F40E94D8
:2007A000561EE13011F4DC9AFACF0E94701E0F5F1F4FEDCFE4E1F0E0E0939105F0939205F0
:2007C0000991199108950E94FD1D0E94781E0E94841EE0E02BC0E0E0E0938E050E94FD1DD3
:2007E0000E94051E0E948C1EE0E30E940D1EE0938E05F0E008950E94FD1D0E94781E0E944F
:20080000901EE1E013C00E94951E71DEE03011F4DF9801C0DF9A0895A5E9B5E00E94461E66
:200820000E949F1E0E94FD1D0E94A51EEA930E94691C08950E94FD1D0E94B31E0E94BC1E4C
:200840000E94C01EE7E10E94C91E0E94BC1EEFEFF0E0A6C00E94FD1DEBE10E94C91E0E9484
:20086000BC1EE9E2F1E09CC00E94FD1DECE10E94C91E0E94BC1EE2E4F1E092C00E94FD1D73
:200880000E94B31E0E94BC1E0E94C01EE8E00E94C91E0E94BC1EECE5F1E082C00E94FD1D7C
:2008A000EBE10E94C91E0E94BC1EE6EEF0E00E94D11E0E94FD1DE6E20E94C91E0E94BC1EA9
:2008C000E2E6F1E06DC00E94FD1DE2E20E94C91E0E94BC1EE6E8F1E063C00E94FD1DE5E288
:2008E0000E94C91E0E94BC1EEAEEF1E059C00E94FD1DECE10E94C91E0E94BC1EEDE0F2E004
:200900004FC00E94FD1DEFE10E94C91E0E94BC1EE7E2F2E045C00E94FD1DEAE10E94C91E87
:200920000E94BC1EE4E4F2E03BC00E94FD1DEBE20E94C91E0E94BC1EECE5F2E031C00E94E2
:20094000FD1DE7E20E94C91E0E94BC1EE5E8F2E027C00E94FD1DE4E30E94C91E0E94BC1EA1
:20096000EAEAF2E01DC00E94FD1DEEE20E94C91E0E94BC1EEEEAF3E013C00E94FD1DEEE259
:200980000E94C91E0E94BC1EE8EDF3E009C00E94FD1DE5E30E94C91E0E94BC1EE3E0F4E0C1
:2009A000FA93EA9380E00E94AD1D229608950E94D81E0E94051E0E94DF1EE0E80E940D1E7B
:2009C0000E2F11270E94E31E21F420E030E0DD9803C021E030E0D898F8010E94AE262496F8
:2009E00008950E94FD1D0E94051E0E948C1EE0E40E940D1E0E94E81E11F40E94F31E0895FF
:200A00000E94A52640E050E0E0E0E0938E0510E0AE81BF811197F1F50E94FD1D0E94051EE5
:200A20000E948C1EE0E40E940D1E0E94E81E11F40E94F31E0E94FD1D0E94051E0E94FA1E3E
:200A4000E0E10E940D1E0E94FE1E39F4E1E0F0E0E0939D05F0939E0505C0E0E0E0939D05B7
:200A6000E0939E050E94FD1D0E94051E0E94FA1EE0E20E940D1E0E94FE1E39F4E1E0F0E01A
:200A8000E0939B05F0939C0505C0E0E0E0939B05E0939C050E94FD1D0E94051E0E948C1EA6
:200AA000E0E50E940D1EF0E0E0933205F09333050E94031F1E2EAE81BF810E940A1F0E9483
:200AC000101FE4E0F0E00E94EE25E021E12971F10E94FD1D0E94051E0E948C1EE0E60E94FC
:200AE0000D1E0E94FE1E39F4E1E0F0E0E093C105F093C20505C0E0E0E093C105E093C205D4
:200B0000E0917205F09173056091740570917505A7E0B0E080E090E00E943126E0935E0559
:200B2000F0935F056093600570936105E091A305F091A405309771F4E1E0F0E0E093A305F2
:200B4000F093A405E0915E05F0915F05E093A505F093A6050E94151FA091A505B091A605C8
:200B60000E94CC250E94A02629F0E0E0E093A305E093A405D6010E940A1F0E94031FE02103
:200B800061F10E94FD1D0E94051E0E948C1E0E941E1F0E94221F0E94261F0E94261F0E9404
:200BA000651C0E94651C4E2F55270E94651CF0E00E942C1F0024041605066CF4FA01AFEF76
:200BC000B0E00E942C260E94101FEA0FFB1FE40FF51F0E942C1F0E94311FAE81BF811197B0
:200BE000C1F40E94FD1D0E94051E0E943A1FE0E30E940D1E0E94FE1E39F4E1E0F0E0E09345
:200C0000D505F093D60505C0E0E0E093D505E093D6050E94FD1D0E94051E0E943A1FE0E43C
:200C20000E940D1EF0E0E093D705F093D8050E94FD1D0E94051E0E943A1FE0E50E940D1E5A
:200C4000F0E0E093DB05F093DC050E94FD1D0E94051E0E943A1FE0E60E940D1E0E943E1FFF
:200C6000E091D505F091D605309711F00C94AE060E94441FED37A0E0FA0719F4E3E0F0E067
:200C800068C0E837A0E0FA0719F4E4E0F0E061C0E337A0E0FA0719F4E5E0F0E05AC0EE364F
:200CA000A0E0FA0719F4E6E0F0E053C0E936A0E0FA0719F4E7E0F0E04CC0E436A0E0FA0712
:200CC00019F4E8E0F0E045C0EF35A0E0FA0719F4E9E0F0E03EC0EA35A0E0FA0719F4E8E1AB
:200CE000F0E037C0E535A0E0FA0719F4E9E1F0E030C0E035A0E0FA0719F4EAE1F0E029C0D4
:200D0000EB34A0E0FA0719F4EBE1F0E022C0E634A0E0FA0719F4ECE1F0E01BC0E134A0E0F3
:200D2000FA0719F4EDE1F0E014C0EC33A0E0FA0719F4EEE1F0E00DC0E733A0E0FA0719F472
:200D4000EFE1F0E006C0E233A0E0FA0731F4E0E2F0E0E093D905F093DA0590C00E94491FD3
:200D6000E2E3F0E00E94D625E02121F0E1E1F0E00E94571F0E94491FE7E3F0E00E94D62544
:200D8000E02121F0E2E1F0E00E94571F0E94491FECE3F0E00E94D625E02121F0E3E1F0E0AA
:200DA0000E94571F0E94491FE1E4F0E00E94D625E02121F0E4E1F0E00E94571F0E94491F16
:200DC000E6E4F0E00E94D625E02121F0E5E1F0E00E94571F0E94491FEBE4F0E00E94D625D6
:200DE000E02121F0E6E1F0E00E94571F0E945C1FE2E3F0E00E94D625E02121F0EBE0F0E036
:200E00000E94571F0E945C1FE7E3F0E00E94D625E02121F0ECE0F0E00E94571F0E945C1F83
:200E2000ECE3F0E00E94D625E02121F0EDE0F0E00E94571F0E945C1FE1E4F0E00E94D62560
:200E4000E02121F0EEE0F0E00E94571F0E945C1FE6E4F0E00E94D625E02121F0EFE0F0E0C5
:200E60000E94571F0E945C1FEBE4F0E00E94D625E02121F0E0E1F0E00E94571F0E94AC26D2
:200E80005AC20E94FD1D0E94781E0E946A1FE09138050E946F1F0E94781E0E94DF1E0E94C0
:200EA0008C1EE09132050E946F1F0E94781E0E94901E0E94221F0E94FD1D0E94781E0E94AF
:200EC0001E1F0E948C1EE5E00E946F1F0E94731F0E94FA1E0E948C1E0E94221F0E94FD1DBB
:200EE0000E94731F0E943A1F0E948C1E0E94221F0E94FD1D0E94731F0E947C1F0E94221F84
:200F00000E94FD1D0E94811F0E94841E0E94221F0E94FD1D0E94811F0E946A1FE2E00E941F
:200F20006F1F0E94811F0E94DF1E0E948C1EE2E30E946F1F0E94811F0E94901EEDE70E94F9
:200F40006F1F0E948A1F0E94DF1E0E947C1F0E948C1E0E94FD1D0E948A1F0E94901E0E9497
:200F60008C1EE6E90E946F1F0E948A1F0E94921F0E94FA1E0E948C1EEBE90E946F1F0E947E
:200F80008A1F0E94921F0E943A1F0E948C1EEAEFEA930E94691C08950E94A7260E94961F2E
:200FA0005CF00E949C1F0E9449268F010E949C1F0E944E269F0102C00E94A11F0E94FD1DF4
:200FC0000E94781EE0E80E94A61F0E94961F1CF00E94AC1F06C0AF81AA2312F0EE8101C0E5
:200FE000E0E0EA930E94691C0E94B11F5CF00E94B71F0E9449268F010E94B71F0E944E2628
:201000009F0102C00E94A11F0E94FD1D0E94731FE0E40E94A61F0E94B11F1CF00E94AC1F06
:2010200001C0EC81EA930E94691C83C10E94FD1D0E94BC1F0E94FA1E0E944C1E1A971CF4DA
:20104000E6E3F4E002C0E7E3F4E0FA93EA930E94C51F0E94D21F0E94511E1A971CF4E6E3D5
:20106000F4E002C0E7E3F4E0FA93EA930E94D51F0E94D21FA091CD05B091CE051A971CF431
:20108000E6E3F4E002C0E7E3F4E0FA93EA930E94E21F08950E94FD1D0E94BC1F0E948C1E84
:2010A0000E944C1E1A971CF4E6E3F4E002C0E7E3F4E0FA93EA930E94C51F0E94D21F0E94A1
:2010C000511E1A971CF4E6E3F4E002C0E7E3F4E0FA93EA930E94D51F0E94D21FA091CD05AD
:2010E000B091CE051A971CF4E6E3F4E002C0E7E3F4E0FA93EA930E94E21F08950E94FD1D18
:20110000EBE0EA930E94691CE2E8EA930E94691C0E94FA1E0E94BC1EE091C905F091CA052D
:201120000E94EF1FEA0FFB1FE093CF05F093D0050E94EF1FDD976CF0E091CF05F091D00532
:20114000FC97E093CF05F093D005A1EDB5E00E94461EE091CB05F091CC050E94F41FEA0FF3
:20116000FB1FE093D105F093D2050E94F41FDD976CF0E091D105F091D205FC97E093D105B2
:20118000F093D205A3EDB5E00E94461EE091CD05F091CE050E94F91FEA0FFB1FE093D3051B
:2011A000F093D4050E94F91FDD9774F0E091D305F091D405FC97E093D305F093D405E0E0A4
:2011C000E093D305E093D4050E94EF1F1A971CF4E6E3F4E002C0E7E3F4E0FA93EA93E0918F
:2011E000CF05F091D0050E94FE1F0E94D21F0E94F41F1A971CF4E6E3F4E002C0E7E3F4E000
:20120000FA93EA93E091D105F091D2050E94FE1F0E94D21F0E94F91F1A971CF4E6E3F4E0BB
:2012200002C0E7E3F4E0FA93EA93E091D305F091D4050E94FE1F08950E94A7260E94FD1D1A
:201240000E94781E0E94FA1E0E948C1EEE850E946F1F0E94781E0E943A1F0E948C1EEC85BD
:201260000E946F1F0E94731F0E94841EEA850E946F1F0E94731F0E94DF1E0E948C1EE8859B
:20128000EA930E94691C0E94961F5CF00E949C1F0E9449268F010E949C1F0E944E269F01F6
:2012A00002C00E94A11F0E94AE26609608950E94A7260E94FD1D0E94731F0E94921F0A93B2
:2012C0000E94691C0E94961F1CF00E94AC1F06C0AF81AA2312F0EE8101C0E0E0EA930E9443
:2012E000691C0E94B11F5CF00E94B71F0E9449268F010E94B71F0E944E269F0102C00E9400
:20130000A11F0E94FD1D0E94731F0E941E1F0A930E94691C0E94B11F1CF00E94AC1F06C0C9
:20132000AD81AA2312F0EC8101C0E0E0EA930E94691C0E94AE262896089508950E94F81DF9
:201340000E940720DBD8E03011F00C949A0A0E94112041F5E091E505F091E605309709F527
:2013600016DB0E94FD1D0E94051E0E9417200E2F1127002E012A31F4E0E0E093E705E0939D
:20138000E80506C0E1E0F0E0E093E705F093E8050E941D201D9A0E9423200E942B200E9430
:2013A0003120C7C0E130A0E0FA0731F41D980E942B200E943820BDC0E230A0E0FA0779F485
:2013C0001E9A0E94072093D8E03039F4E0DA0E943F200E9447201E9801C09DDAAAC0E330B5
:2013E000A0E0FA0711F00C94550AE091E705F091E805E093E105F093E205E091E705F09100
:20140000E805309799F40E944E2055D8E03021F40E9458200E9461200E944E2053D8E030A1
:2014200021F40E946A200E94732016C0E130A0E0FA0791F40E944E203ED8E03021F40E945C
:2014400058200E9473200E944E203CD8E03021F40E946A200E9461200E94072048D8E1304D
:2014600019F595DAA0919F05B091A005129721F4E3E0F0E00E947C200E948120309721F486
:20148000E2E0F0E00E947C200E948620E091E905F091EA05309709F466DAE091EB05F0917F
:2014A000EC05309709F469DA44C0E430A0E0FA0711F00C94990A0E948D20129759F50E946F
:2014C000922011F40E9498200E942B200E942B200E94922011F40E94A0200E942B200E94D7
:2014E0002B200E94922011F40E94A8200E942B200E942B200E9423200E94922011F40E9424
:20150000B0200E942B200E942B200E942B200E9438200FC0E1E0F0E00E947C20E0E0E09369
:20152000E905E093EA05E093EB05E093EC050E94B82014C0E13091F4DAD91D981E980E94F0
:201540003F200E94BE200E94B8200E94C42011F40E94CA200E94D3200E94F9200E94812088
:201560000991199108950E94D81E0E94051E0E9417200E2F1127002E012A19F420E030E069
:2015800002C021E030E0F9010E94AE26249608950E94A7260E94A11FDE9A0E94FF20EC813A
:2015A000FD810E171F070CF50E9407200E945E02E13019F4DB9A21E030E00E9407200E9487
:2015C0005E020E94611ED9010E940521E02119F0DB9822E030E0E2E0F0E0E217F30721F4BF
:2015E0000F5F1F4F23E030E0DACF0E94FF20DE980E94AE26269608950E94441FE093DF05F1
:20160000F093E0050E94FD1D0E94051E0E943A1FE0E60E940D1E0E943E1F0E94441FA0911E
:20162000DF05B091E005EA17FB0711F40C948F0B0E94441FED37A0E0FA0719F4E3E0F0E014
:2016400068C0E837A0E0FA0719F4E4E0F0E061C0E337A0E0FA0719F4E5E0F0E05AC0EE3685
:20166000A0E0FA0719F4E6E0F0E053C0E936A0E0FA0719F4E7E0F0E04CC0E436A0E0FA0748
:2016800019F4E8E0F0E045C0EF35A0E0FA0719F4E9E0F0E03EC0EA35A0E0FA0719F4E8E1E1
:2016A000F0E037C0E535A0E0FA0719F4E9E1F0E030C0E035A0E0FA0719F4EAE1F0E029C00A
:2016C000EB34A0E0FA0719F4EBE1F0E022C0E634A0E0FA0719F4ECE1F0E01BC0E134A0E02A
:2016E000FA0719F4EDE1F0E014C0EC33A0E0FA0719F4EEE1F0E00DC0E733A0E0FA0719F4A9
:20170000EFE1F0E006C0E233A0E0FA0731F4E0E2F0E0E093D905F093DA050E940A210895F9
:201720002C97E0E0E883E9830E94A5260E9413210E9418210E941E2101E010E00E94B82005
:20174000E0E0E88BE98B0E9423211CF00E94B82002C00E942821D8010E9405210E942F2136
:201760000E9440210E9446210E9440210E9405210E9440210E944B210E9440210E9450216B
:201780000E944021E4E0F0E00E94D625E02911F40C94BA0DD8010E9405210E942F21E02904
:2017A00011F40C948D0CF801E130A0E0FA07B9F4DA010E9405210E9455210E22D601E8E029
:2017C000F0E00E94E825E02949F00E9423210CF4C59A02E010E0E0E00E941E219EC0E23020
:2017E000A0E0FA07D1F50E94951E0E9471020E94611ED601E8E0F0E00E94E825E021EF9376
:201800000E94951E0E947102A1E00E94D1250E945521E021AF91EA2B11F0C5981BC00E94FC
:201820005C21EF930E94951E0E947E02A1E00E94D125AF91EA2311F00E9467210E945C2182
:20184000EF930E94951E0E947521AF91EA2321F00E947B2103E010E060C0E330A0E0FA0756
:2018600079F5A091AF05B091B005119769F40E94822119F4D89ADD9802C0DD9AD898E0E078
:20188000E093AF05E093B0050E94951E0E946D020E948B21A091AF05B091B0050E94462161
:2018A000E02169F0AE81BF81119719F4D89ADD9802C0DD9AD8980E9490210E9497212DC080
:2018C000E430A0E0FA0749F50E9407200E946202E03011F40E94A7210E94951E0E946D0281
:2018E000E03041F40E94AE21C698C298E1E0F0E0E88BF98BA889B9890E9405210E94B8213C
:201900000E94C221E02149F0D898DD980E94AE21E0E0E88BE98B05E010E00E9407200E94CB
:201920007E02E03011F00C94A60D0E941120C9F50E9407200E947521EF930E9407200E9444
:20194000C921AF91EA2331F0A091ED05B091EE05109709F013C007DEE093EF05F093F005A1
:201960004BDE0E941D2013D80E9423201D9A0E9418210E94CF210E94312012C00E940720DD
:201980000E9467020E948B21D9010E944621E02131F0ACE7B5E00E94461E21E030E0D5C015
:2019A000D4C0E130A0E0FA07A1F40E9407200E947E020E94611E0E94D82149F00E94E021E9
:2019C0002CF01D980E9438200E94F02101C0BDC0BCC0E230A0E0FA0701F50E9407200E94DB
:2019E0007E02E030B9F40E94E0219CF01E9A0E9407200E947702E03051F40E94F8210E942D
:201A0000FF21E0E0EC87ED87EE87EF8702C00E948B0402C0C19899C098C0E330A0E0FA07C1
:201A200011F00C94760DE091EF05F091F0053097A9F40E944E200E945B02E03021F40E946D
:201A400003220E940C220E944E200E946202E03021F40E9410220E94192218C0E130A0E03C
:201A6000FA07A1F40E944E200E945B02E03021F40E9403220E9419220E944E200E946202E2
:201A8000E03021F40E9410220E940C220E9407200E947702E13031F40E944E200E9471023E
:201AA000E03009F022C00E94C7041E98A091F305B091F405119731F4A091F105B091F20589
:201AC000119709F002C00E948620E091F105F091F205309711F40E94B304E091F305F0916D
:201AE000F405309711F40E94BD042FC0E430A0E0FA0759F50E942821E0E0E093F305E09363
:201B0000F405E093F105E093F205E091F505F091F605FA93EA93E091F705F091F805FA9390
:201B2000EA93C5DBE0E0E093F505E093F605E093F705E093F8050E941D22E02109F0DA9ABF
:201B40000E942822E02109F0DA9A11C0E13079F40E9433221E98DA980E94B8200E94182168
:201B60000E94CF210E94C42011F40E94CA200E943922F1CD0E94AC2662960895609780E1A0
:201B8000A0E0B0E0EEE9F0E00E94B3260E94A5260E94A11F40E050E00E9413210E94182143
:201BA0000E941E2101E010E00E94B820E0E0EC8BED8B0E9423211CF00E94B82002C00E947A
:201BC00028210E94E31E21F1E2E0F0E0E017F107F9F0E3E0F0E0E017F107D1F0E4E0F0E0C6
:201BE000E017F107A9F00E945222109789F00E945222119769F00E945222129749F00E9476
:201C00005222139729F00E945222149709F0E8C10E94E31E81F0E2E0F0E0E017F10759F04C
:201C2000E3E0F0E0E017F10731F0E4E0F0E0E017F10709F092C0F801E130A0E0FA0799F41B
:201C40000E94572219F40E9423211CF40E9423214CF40E9423210CF4C59A02E010E0E0E069
:201C60000E941E217AC0E230A0E0FA0781F50E94951E0E947102E03019F40E94232154F08F
:201C80000E94951E0E947102E13019F40E9423210CF402C0C59818C00E945C2234F00E94F9
:201CA000951E0E947E02E13009F002C00E9467210E945C2234F00E94951E0E947E02E0308E
:201CC00009F004C00E947B2103E010E046C0E330A0E0FA0759F40E94822119F4D89ADD9816
:201CE00002C0DD9AD8980E94972137C0E430A0E0FA0799F50E9407200E946202E03011F4E3
:201D00000E94A7210E94951E0E946D02E03041F40E94AE21C698C298E1E0F0E0EC8BFD8BF5
:201D2000AC89BD890E9405210E94B821EAE0F0E060E070E00E94FC25E02179F0D898DD98A9
:201D4000E1E0F0E0E093E305F093E4050E94AE21E0E0EC8BED8B05E010E00E9407200E94CB
:201D60007E02E03011F00C94DC0F0E94112011F00C940C0F0E9407200E947521EF930E9493
:201D800007200E94C921AF91EA2331F0A091F905B091FA05109709F02CC00E9468220E9459
:201DA0006D22EA8BFB8BACE9BFEF0E942C26E88BF98BE7E0EA93E6E0EA93EA89FB890E944B
:201DC0007322D1DBE093FB05F093FC05E093E105F093E20511DC0E941D200E94C7040E942D
:201DE00023201D9A0E9418210E94CF210E94312012C00E9407200E9467020E948B21D901BB
:201E00000E944621E02131F0ACE7B5E00E94461E21E030E0D0C0CFC0E130A0E0FA07A1F412
:201E20000E9407200E947E020E94611E0E94D82149F00E94E0212CF01D980E9438200E94B2
:201E4000F02101C0B8C0B7C0E230A0E0FA0701F50E9407200E947E02E030B9F40E94E021ED
:201E60009CF01E9A0E9407200E947702E03051F40E94F8210E94FF21E0E0EC87ED87EE874C
:201E8000EF8702C00E948B0402C0C19894C093C0E330A0E0FA0711F00C94AC0FA0914A05A7
:201EA000B0914B0580914C0590914D050E94792214F0C698C298E091FB05F091FC05309709
:201EC000A9F40E944E200E945B02E03021F40E9481220E940C220E944E200E946202E030F6
:201EE00021F40E948A220E94192218C0E130A0E0FA07A1F40E944E200E945B02E03021F46F
:201F00000E9481220E9419220E944E200E946202E03021F40E948A220E940C220E9407207D
:201F20000E947702E130B9F40E944E200E947102E03019F40E9493220CF008C00E94C704FE
:201F4000E0E00E94CF211E980E9486200E94932214F00E9486202FC0E430A0E0FA0759F5BC
:201F60000E942821E0E0E093FF05E0930006E093FD05E093FE05E0910106F0910206FA934D
:201F8000EA93E0910306F0910406FA93EA938FD9E0E0E0930106E0930206E0930306E093A9
:201FA00004060E941D22E02109F0DA9A0E942822E02109F0DA9A11C0E13079F40E94332228
:201FC0001E98DA980E94B8200E9418210E94CF210E94C42011F40E94CA200E943922F1CD20
:201FE0000E94AC2666960895A89788E2A0E0B0E0EEEAF0E00E94B3260E94A5260E94A11F29
:2020000040E050E0E0910005E0610E9498220E94FD1D0E94051E0E949D22E0E30E940D1EEB
:202020004E2F55270E94572211F4D99A01C0D9980E94FD1D0E94051E0E949D22E0E40E949A
:202040000D1EF0E0ECA7FDA7ACA5BDA5119711F4C59A01C0C5980E94FD1D0E94051E0E944E
:202060009D22E0E50E940D1EF0E0EAA7FBA7AAA5BBA5119711F4C09A01C0C098022E032AE0
:20208000D1F40E94FD1D0E94051E0E94DF1EE0E80E940D1EF0E0EA8BFB8BAA89BB891197DC
:2020A00029F4E0E0E88BE98BDD9805C0E1E0F0E0E88BF98BD8980E94FD1D0E94051E0E9407
:2020C0009D22E0E60E940D1E2E2F3327E1E0F0E0E217F30769F4AA89BB89119711F4D89A80
:2020E000DD98A889B989119711F4D898DD9A02C0D898DD980E94FD1D0E94051E0E949D22DB
:20210000E0E90E940D1EF0E0EAA3FBA3AAA1BBA1119721F4E0910005E06203C0E0910005D9
:20212000EF7DE0930005E09362000E94FD1D0E94051E0E949D22E0E80E940D1EF0E0E8A314
:20214000F9A3A8A1B9A1119721F4E0910005E06403C0E0910005EF7BE0930005E0936200D9
:202160000E94FD1D0E94051E0E949D22E0E70E940D1EF0E0EE8FFF8FAE8DBF8D119711F4DA
:20218000AD9A01C0AD980E94FD1D0E94051E0E94DF1EE0E00E940D1EF0E0EC8FFD8FAC8D35
:2021A000BD8D119711F4DC9A01C0DC980E94FD1D0E94051E0E943A1FE0E60E940D1E0E94CC
:2021C0003E1F0E94441FED37A0E0FA0719F4E3E0F0E068C0E837A0E0FA0719F4E4E0F0E0EF
:2021E00061C0E337A0E0FA0719F4E5E0F0E05AC0EE36A0E0FA0719F4E6E0F0E053C0E936ED
:20220000A0E0FA0719F4E7E0F0E04CC0E436A0E0FA0719F4E8E0F0E045C0EF35A0E0FA07A3
:2022200019F4E9E0F0E03EC0EA35A0E0FA0719F4E8E1F0E037C0E535A0E0FA0719F4E9E14B
:20224000F0E030C0E035A0E0FA0719F4EAE1F0E029C0EB34A0E0FA0719F4EBE1F0E022C06C
:20226000E634A0E0FA0719F4ECE1F0E01BC0E134A0E0FA0719F4EDE1F0E014C0EC33A0E08A
:20228000FA0719F4EEE1F0E00DC0E733A0E0FA0719F4EFE1F0E006C0E233A0E0FA0731F4FB
:2022A000E0E2F0E0E093D905F093DA050E94FD1D0E94051E0E94DF1EE0E10E940D1EF0E05B
:2022C000EA8FFB8FAA8DBB8D119711F00C94AC110E9468220E94A1220E948602EC87FD87C4
:2022E0000E9468220E946D22EA87FB87ACE9BFEF0E942C26E887F9870E946822E0E2F0E0AA
:20230000FA93EA930E948602EE83FF83E7E0EA93E6E0EA93EA85FB850E9473220E94F9202E
:202320000E940A210E94BE200E948120309719F40E94A622F9CF0E94BE200E94FD1D0E9429
:202340008A1F0E94DF1E0E94FA1E0E948C1E0E948C1EE0E0EA8FEB8F0E94FD1D0E94051EAF
:202360000E94DF1EE0E20E940D1EF0E0E8A7F9A7A8A5B9A5119711F4C69A01C0C6980E94B7
:20238000FD1D0E94051E0E94DF1EE0E30E940D1EF0E0EEA3FFA3AEA1BFA1119711F4C29A74
:2023A00001C0C2980E94FD1D0E94051E0E94DF1EE0E40E940D1EF0E0ECA3FDA3ACA1BDA1A7
:2023C000119711F4C19A01C0C1980E94FD1D0E94051E0E94DF1EE0E50E940D1EF0E0E88FE2
:2023E000F98FA88DB98D119711F4C79A01C0C7980E94FD1D0E94051E0E94DF1EE0E60E9424
:202400000D1EF0E0EE8BFF8BAE89BF89119711F4AC9A01C0AC980E94FD1D0E94051E0E9424
:20242000DF1EE0E70E940D1EF0E0EC8BFD8BAC89BD89119711F4C49A01C0C4980E94FD1DDD
:202440000E94051E0E94DF1EE0E90E940D1EF0E0EE87FF87AE85BF85119751F5C398AA98B5
:202460001A9AA99AC79A0E94A922A9980E94A922C39A1A980E94A922D99AAB9AE8E8F3E111
:202480000E94AF22D998D998AB98C798C3980E94A922AA980E94A9220E94FD1D0E948A1FC7
:2024A0000E94DF1E0E94BC1E0E948C1E0E948C1E0E94572211F40C949A12ACA5BDA51197A2
:2024C000C9F1AAA5BBA51197A9F1E1E0F0E0E217F30781F1AAA1BBA1119761F1A8A1B9A117
:2024E000119741F1AE8DBF8D119721F1AC8DBD8D119701F1AA8DBB8D1197E1F0A8A5B9A501
:202500001197C1F0AEA1BFA11197A1F0ACA1BDA1119781F0A88DB98D119761F0AE89BF89C3
:20252000119741F0AC89BD89119721F0AE85BF85119719F401E010E002C000E010E0F80106
:202540000E94AC26AE9608950E94F81D0E9441070E94951E0E945B02E03019F40E9463040B
:20256000F7CF0E94C7040E949D090E94C7040E941A040E94C7040E94951E0E946D02E130CF
:2025800011F4D89AF8CF0E949021D898DD98AB98A998AA9A1A98C7980E94BD030E94C7041D
:2025A0000E942A04E0918E05E03029F50E94B322A0919B05B0919C051197A9F40E94F920EF
:2025C000AA981A9A0E94A922A99A0E94A922AA9A1A980E94B922AA981A9A0E94A922A998D1
:2025E0000E946D04FFCF002E012A11F40E94BC22FBDC8F01D7CFE0E0E0938E0591D8AD9A99
:202600000E94F920AD988CD80E94F92089D80E94F92086D80E94BE200E94B8200E948D20D8
:202620000E940A1F0E948D200E944B210E2A0E948D200E945021E02919F00E94A622EECF9F
:202640000E94BE200E94F9200E94B3220E94C122AC9AE1E0F0E04CC0E1E0F0E00E94C92242
:20266000E0918605F091870508951A930A931F9A0E9407200E945E02E03019F401E010E0F8
:2026800002C000E010E0002E012AB1F4A091AD05B091AE05159721F40E9481040E94CE2259
:2026A000ADEAB5E00E94461E0E94D422E1E0F0E0E0938405F09385050E94E31EA9F40E94D4
:2026C000CE22A0918405B0918505119739F40E94C704E0E0E0938405E0938505E1E0F0E0F9
:2026E0000E94DA221F98DA98E0918A05F0918B050991199108950E94F81DE0911805F0915B
:202700001905309729F40E94DF220E942D03FFC0E130A0E0FA0721F5AF9A0E94951E0E949B
:20272000E622EF930E94951E0E94C921AF91EA23A1F0E0E0E0934E05E0934F05E09350053B
:20274000E09351050E94EC22E2E0F0E00E94F6220E94FB220E943E0402C00E943404D7C0DE
:20276000E230A0E0FA0769F40E9402230E940B233CF0AF980E94EC22E3E0F0E00E94F62262
:20278000C6C0E330A0E0FA0759F40E9413233CF0AE9A0E94EC22E4E0F0E00E94F622B7C011
:2027A000E430A0E0FA0761F40E94132344F0AE98C49A0E94EC22E5E0F0E00E94F622A7C019
:2027C000E530A0E0FA0769F40E9402230E940B233CF0C4980E94EC22E6E0F0E00E94F622E7
:2027E00096C0E630A0E0FA0711F00C9446140E94951E0E94E622EF930E94951E0E94670210
:20280000A1E00E94D125AF91EA2321F00E94DF220E941C230E94951E0E946202A1E00E943F
:20282000D125EF930E94951E0E94C921AF91EA2321F00E94DF220E941C230E94951E0E9466
:20284000E622EF930E94951E0E94C921AF91EA2331F0E3E0F0E00E94F6220E941C230E94CF
:20286000951E0E946202A1E00E94D125EF930E94951E0E946702A1E00E94D125AF91EA233E
:2028800021F0E7E0F0E00E94F62241C0E730A0E0FA0759F40E9413233CF0AD9A0E94EC22F5
:2028A000E8E0F0E00E94F62232C0E830A0E0FA0761F40E94132344F0AD98C49A0E94EC2287
:2028C000E9E0F0E00E94F62222C0E930A0E0FA0759F40E9402230E9429232CF0C498EAE0E5
:2028E000F0E00E94F62213C0EA30A0E0FA0779F40E94EC22E0E0E0931805E093190501E001
:2029000010E00E94932219F4E2E0F0E06F0189C30E94F81DE0911A05F0911B05309781F4F1
:20292000E0E0E0935205E0935305E0935405E09355050E94AE21EAE1F5E00E94312350C092
:20294000E130A0E0FA0761F40E9436230E943F2334F00E94AE21EAE1F5E00E94472340C050
:20296000E230A0E0FA0761F40E9436230E944C2334F00E94AE21EAE1F5E00E94542330C025
:20298000E330A0E0FA0761F40E9436230E94292334F00E94AE21EAE1F5E00E94592320C032
:2029A000E430A0E0FA0751F40E9436230E94292324F0EAE1F5E00E945E2312C0E530A0E016
:2029C000FA0771F40E94AE21EAE1F5E00E946323E3E0F0E0EC15FD0519F4E4E0F0E06F01B1
:2029E00020C30E94F81DE0911C05F0911D05309791F4E0E0E0935605E0935705E09358058F
:202A0000E09359050E946A23C398AA98ECE1F5E00E94312350C1E130A0E0FA07F1F40E9457
:202A20007423A230E0E0BE07E0E08E07E0E09E0734F0A091E305B091E405119709F00CC01A
:202A4000E0E0E093E305E093E4051A9A0E946A23ECE1F5E00E9447232EC1E230A0E0FA07EC
:202A6000E9F4A0919D05B0919E05119721F40E947D230E9484230E9474230E9479226CF0A8
:202A8000A99AC79A0E946A230E94922011F40E949820ECE1F5E00E9454230DC1E330A0E094
:202AA000FA07A1F40E9474230E94292374F0A998A1E9B5E0ED91FD913197FE93EE930E940D
:202AC0006A23ECE1F5E00E945923F5C0E430A0E0FA0761F40E94922011F40E94A0200E94AD
:202AE0006A23ECE1F5E00E945E23E5C0E530A0E0FA07A9F40E9474230E948B237CF0C39A5A
:202B00001A980E94922011F40E94A8200E949323ECE1F5E0A6E0B0E0A083B183CCC0E63037
:202B2000A0E0FA07A9F40E9474230E940B237CF00E94922011F40E94B020D99AAB9A0E94DD
:202B40006A23ECE1F5E0A7E0B0E0A083B183B3C0E730A0E0FA07C9F50E9407200E94710231
:202B60000E94611E0E9499230E944621E02111F00E947D230E949E230E2EE0913205F091C1
:202B800033050E9474230E94C7250E94F425E02131F0C398D9980E946A230E94A023E09188
:202BA0003405F09135050E9474230E94C7250E94A02654F4C398D998A1EBB5E00E94461EB7
:202BC0000E9493230E94A02376C0E830A0E0FA07A9F50E94A7230E949E23E02109F0AA9ABE
:202BE0000E94A7230E9499230E944621E02109F0AA9A0E9474230E94C2210E2E0E949E2367
:202C0000E02141F00E94B0232CF0C79A0E946A230E9484230E9474230E94C2210E2E0E947C
:202C200099230E944621E02141F00E94B0232CF0C79A0E946A230E9484233DC0E930A0E09D
:202C4000FA07F9F40E947423A630E0E0BE07E0E08E07E0E09E07A4F0AB980E947423A23254
:202C6000E0E0BE07E0E08E07E0E09E074CF0C7980E946A23ECE1F5E0AAE0B0E0A083B18338
:202C80001AC0EA30A0E0FA07B1F4E0919705F0919805E0939905F0939A050E946A23ECE1C0
:202CA000F5E00E946323E5E0F0E0EC15FD0519F4E6E0F0E06F01B5C10E94F81DE0911E05AB
:202CC000F0911F05309791F4E0E0E0935A05E0935B05E0935C05E0935D050E94BA23EEE1A7
:202CE000F5E00E9431230E949F1E9BC1E130A0E0FA0779F40E94BA23AC980E94F1040E9453
:202D0000C42314F41B9A1C9AEEE1F5E00E94472388C1E230A0E0FA07E9F40E94CC230E94BD
:202D200029232CF00E94C42314F41B981C980E94CC230E943F236CF0E0910005EE7F0E94BD
:202D40009822C19AC09A0E94BA23EEE1F5E00E94542367C1E330A0E0FA0711F00C94F51660
:202D6000A0919905B0919A050E9405210E2EA0919D05B0919E050E9446210E22A091A905D1
:202D8000B091AA050E9446210E22A091B305B091B4050E940521E02109F50E940C040E940C
:202DA000A904E1E0F0E0E093A905F093AA050E94951E0E947E02E030B9F4A091B305B09124
:202DC000B4050E940A1FD601E7E0F0E00E94E225E02121F0A5EBB5E00E94461EEEE1F5E077
:202DE0000E9459230E94BA231CC1E430A0E0FA07D1F50E94D523DC9741F00E94C704E0E093
:202E0000E093A905E093AA05C59A0E94D523ECE3F0E00E94D625EF930E94951E0E9475212B
:202E2000AF91EA23A9F00E94DA230E94E0230E94E7230E94EE230E94F523EEE1F5E0A0E02B
:202E4000B0E0A083B183E7E0F0E06F010E94BE0D0E94D523DC9731F00E94BA23EEE1F5E0C6
:202E60000E945E23DEC0E530A0E0FA0711F00C948C170E94CC23E9E1F0E060E070E00E945A
:202E8000FC25EF930E94951E0E947102A1E00E94D125AF91EA230E2EA0E0C599A1E0E1E063
:202EA0000E94D125E02149F0C69A0E94BA23EEE1F5E0A6E0B0E0A083B1830E94CC23E2E3FA
:202EC000F0E060E070E00E94FC25EF930E94951E0E947102A0E00E94D125AF91EA2339F055
:202EE0000E94BA230E940C040E949504C598A0E0C599A1E0E0E00E94D125EF930E94951E7B
:202F00000E947521AF91EA2331F00E94C704EEE1F5E00E94592385C0E630A0E0FA07A1F46B
:202F20000E94CC23AA31E0E0BE07E0E08E07E0E09E074CF0C29A0E94BA23EEE1F5E0A7E0A4
:202F4000B0E0A083B1836DC0E730A0E0FA0779F40E94CC230E944C234CF0C0980E94BA23A3
:202F6000EEE1F5E0A8E0B0E0A083B1835AC0E830A0E0FA0779F40E94CC230E944C234CF040
:202F8000C5980E94BA23EEE1F5E0A9E0B0E0A083B18347C0E930A0E0FA0799F40E94FD2351
:202FA0007CF0E091E105F091E205309709F4C2980E94BA23EEE1F5E0AAE0B0E0A083B18334
:202FC00030C0EA30A0E0FA0771F40E94FD2354F0C198AC9A0E94BA23EEE1F5E0ABE0B0E01E
:202FE000A083B1831EC0EB30A0E0FA07D1F40E94FD23BCF00E94BA23EEE1F5E00E94632382
:20300000A6E3B5E0ED91FD913197FE93EE93E7E0F0E0EC15FD0529F4E8E0F0E06F010E944B
:20302000FF23F8010991199108950E9419240E940A1F0E941E24E02129F05DDBE093040538
:20304000F09305050E9424240E9429240E942F240E943724E02129F05BDCE0930605F093C6
:2030600007050E943C240E9429240E942F240E9441240E943724E02129F0B3DCE093080531
:20308000F0930905E0910A05F0910B050E9429240E942F240E944124D601E5E0F0E00E9495
:2030A000DC250E22E6E0F0E00E94DC250E220E943724E02129F000DEE0930A05F0930B056C
:2030C0000895AA24BB240E9452240E94FF230E9416080E942D03089524971A930A930E94F4
:2030E000592400E010E00E945F240E2ED6010E944B21E02199F00E94BC220E9461240E946A
:203100007B240E948124E02149F00E9487240E948C240E94F523E3E0F0E06F010E945F240E
:203120000E2E0E9424240E948F24D601E4E0F0E00E94D625E021B9F00E94BC220E946124BB
:203140000E947B240E948124E02169F00E9487240E948C240E94E0230E942D03E5E0F0E0E2
:203160006F010E9495240E945F240E2E0E9424240E948F240E943C240E948F24D601E6E0F0
:20318000F0E00E94D625E021B9F00E94BC220E9461240E947B240E948124E02169F00E94ED
:2031A00087240E948C240E94E0230E94E7230E94F523E7E0F0E06F010E945F240E2E0E94FD
:2031C00024240E948F240E943C240E948F24E0910A05F0910B050E948F24D601E8E0F0E026
:2031E0000E94E225E02111F40C94EF190E94BC2233DA0E94C922E1E0F0E0E0938805F0934A
:2032000089050E94B703E0939305F0939405D5010E9405210E2EA0918E05E1E00E94D125A6
:203220000E22A0918605B09187050E9405210E947B240E948124E02111F40C94EF190E9435
:20324000D4220E9459240E949B240E94A024E021C9F00E94AB2419F408DA0E94DA220E9438
:20326000C32414F00E9459240E949B24D8010E944621E02131F0AEE7B5E00E94461E01E0CE
:2032800010E0E1CF0E949B240E94CF240E94D5240E940521E02161F00E94AB2419F4E5D9A7
:2032A0000E94DA220E94C32414F00E945924EACF0E94BE0D0E94A1220E940005A091C1059B
:2032C000B091C2050E9405210E2EA091C505B091C6050E944621E021C9F0E0E0E093C1051F
:2032E000E093C205E1E0F0E0E093C505F093C6050E94FB03E4E0F0E00E942C1F0E94311F65
:20330000EEEFFFEFE0932C05F0932D05F60131966F01E8EEF3E0EC15FD051CF4E4E6F0E005
:203320006F010E94101FE3E0F0E00E94EE250E2E0E943724E02151F00E9495240E94DA238F
:203340000E94E0230E94E7230E94EE230E94101F139744F00E94FB220E94E0230E94E723AA
:203360000E94EE230E94101F129734F00E94FB220E94E7230E94EE230E94101F0E949C26A9
:2033800024F40E94FB220E94EE239BDE0E94DB24A091A705B091A8050E94D6250E2EA091B4
:2033A000AB05B091AC050E944621E021C1F00E944E040E942B1E0E94311E0E94371EE0E029
:2033C000E093CD05E093CE05DC98DA980E94FB030E94E303E0E0E0938E05CC24DD24198103
:2033E000088126960895D601E8E0F0E00E94D6250E2ED5010E944621E02119F0E1E0F0E029
:203400005F01D601E9E0F0E00E94E2250E2ED5010E944621E02111F40C94CF1A042C05282C
:20342000A9F40E94151FA0916605B091670580916805909169050E94E124E02121F0A6E77D
:20344000B5E00E94461EE1E0F0E02F01062C0728A9F40E94151FA0916A05B0916B058091DA
:203460006C0590916D050E94E124E02121F0A8E7B5E00E94461EE1E0F0E03F010E940720CB
:203480000E94E524D4010E9446210E22D601EBE0F0E00E94E8250E94D5240E944621E021AD
:2034A000A1F00E94E824E02111F00E94F2240E94F52444F00E94FA240E94FD240E94DB2400
:2034C0000E940025E1E0F0E04F010E9407200E94E524D4010E9446210E22D601E9E0F0E052
:2034E0000E94D6250E94D5240E940521E02119F0E1E0F0E04F010E9407200E94E524D40198
:203500000E9446210E2A0E94CF240E94D5240E940521E021A1F00E94E824E02111F00E948E
:20352000F2240E94F52444F00E94FA240E94FD240E94DB240E940025E1E0F0E04F010E9418
:2035400007200E94E524D4010E9446210E2A0E94A024E021A1F00E94E824E02111F00E9439
:20356000F2240E94F52444F00E94FA240E94FD240E94DB240E940025E1E0F0E04F01D201A7
:203580000E9405210E2ED3010E9405210E22D4010E940521E02119F0E1E0F0E05F01089526
:2035A0000C2C0D2811F00C94241BE0918E05E03029F40E94BC220E944A0846C00E94B3229C
:2035C0000E94C1220E94BE200E94B8200E948D200E940A1F0E948D200E944B210E2A0E941B
:2035E0008D200E945021E02919F00E94A622EECF0E94BE200E940C250E9412250E94DA2307
:203600000E94E0230E94E7230E94EE230E940C250E94C704DC98E0E0E093C505E093C605B7
:20362000E0912C05F0912D05FA93EA93E091B905F091BA05FA93EA930E94CC070E947E0815
:20364000AC9AE1E0F0E06F010895EFEFEABBE0E0EBBBE8BBEFEFE7BBE0E0E5BBEFEFE4BB9D
:20366000E0E0E1BBE2BBE3B9EFEFE2B9E0936100E0E0E0936200E0936500EFE1E093640054
:20368000E0E0E0BFE7E0E3BFE0E0E2BFE1BFEFBDEEBDEDBDECBDE7BDE6BDEBBDEABDE9BD7B
:2036A000E8BDE0937900E0937800E5BDE4BDE3BDE0938B00E0938A00E0938900E0938800B9
:2036C000E0938100E0938000E0938700E0938600E0938500E0938400E0938300E093820036
:2036E000E0936A00EABFE9BFE1E0E7BFE0E0E0937D00EBB9E8E1EAB9E6E0E0939500E0E0E7
:20370000E0939000E7E6E9B9E0E0E0939800E9E1E0939900E8E1E0939A00EEE0E0939D00E2
:20372000E0919B00E064E0939B00E0E8E8B9E0E0E0BDE6B9EDB9E09374000E94482578941E
:203740000E94B9220E94B9220E94FD1D0E94A51EEA93BFD0E3E0F0E0FA93EA930E94C80A31
:20376000CC24DD24E0E0E0935E05E0935F05E0936005E09361050E945224AA24BB24E4E6AB
:20378000F0E060E070E0E0936205F093630560936405709365050E949524EEE3F0E060E0FF
:2037A00070E0E0937205F093730560937405709375050E94BE200E94B820ECEDF0E0E093D5
:2037C0003405F0933505E0E0E0933205E0933305E0E5F0E0E0933805F0933905E0E0E093A5
:2037E0002E05E0932F050E940C250E941225E0E0E0938C05E0938D05E093A305E093A40543
:20380000E093A505E093A605E093A905E093AA050E94CE22E0E0E093AB05E093AC05E0931E
:20382000AF05E093B005E093B105E093B205E093B505E093B605E093B305E093B405E09334
:20384000B705E093B805E093B905E093BA050E94661E0E941D20E0E0E093C505E093C605D9
:20386000E093D905E093DA05E093DB05E093DC05E093DD05E093DE05E0938E05E093800555
:20388000E0938105E0938205E0938305E0938405E0938505E0938605E0938705E093880544
:2038A000E09389050E94D4220C2C0D2821F40E94A4126F01F9CF0E94820372DEB6DB93DDE5
:2038C0000BDC0E940304F7CFFFCF5F9BFECFECB108955D9BFECFE881ECB921960895EA8131
:2038E000EA93F7DFA881B9810E94461E2396089526970E94A52610E0AC85BD85E0E0F0E099
:20390000ED93FC93EA89FB893196EA8BFB8B3197E4912E2FE03011F40C94A51DE12FE030AE
:2039200039F4253211F411E002C00E9421250CC1E130A9F4253219F40E94212504C112E0E5
:2039400040E000E02D3211F401E0FEC02B3211F44BE2FAC0203211F440E2F6C002C0E23018
:2039600039F450E013E0203311F40068EDC004C0E33011F00C94A41D203310F02A3308F0A9
:2039800007C0AAE05A9F502DE22FE0535E0FDCC0E22FE33649F40E942A25E889F989A481A3
:2039A000AA930E943025CFC0E33741F40E942A250E9438250E94D41D1E2F0AC0E03761F4EF
:2039C0000E942A250E9438250E94DE1D1E2F086002600F7730E035C0E43611F0E93611F479
:2039E000046002C0E53731F4ECE8F0E0EE83FF8315E00DC0E83511F4086004C0E83711F099
:203A00000C94A31DE6E9F0E0EE83FF8314E002FF14C00E942A250E944025AB85AA233AF4C8
:203A2000EA85FB850E94AA25EA87FB874DE2403011F01F5F01C00B7F04C00E942A250E9473
:203A4000402500FD11C0151778F407FF08C002FF04C00B7F242F115001C020E301C020E243
:203A60000E9421255150EFCF312F01FF17C03030A1F003FF06C0EE81FF812591EE83FF8377
:203A800005C0AE81BF812D91AE83BF830E942125503009F051503150EACF4BC020E3EE8108
:203AA000FF810E948B26E887F987EE81FF813296EE83FF83E885F985AA85BB85AE17BF07B5
:203AC00050F02F5FA885B985EA85FB85EA1BFB0BEA87FB87EFCF2A3328F003FF02C0295F41
:203AE00001C0295D04FD1AC0213320F4A885B985119709F409C0531710F000FF01C013C066
:203B000020E207FF0BC020E3006102FF07C00B7F4A930E943025503009F051500E94212546
:203B2000503009F051503150A885B985129708F0B5CF00FF08C0503031F05150E0E2EA9312
:203B40000E943025F8CF10E0DDCEAC85BD850E947D260E94AC2664960895FF92F82E2697D5
:203B60001A930A93DE0114960E94A6258D01E0E0EC83ED83EE83EF83DE0118960E94A625FB
:203B80000E947D26FA93EA931A930A93EFE6FCE1FA93EA93FE013896FA93EA93A9DE1981D8
:203BA00008812896FF900895A991B991EE27FF276D91662311F03196FBCF0895AA27BB276A
:203BC000E991F9910590002011F01196FBCFFD0108950E944D25E881EA930E948125E0E01D
:203BE000EA930E946625EA830E945C25EA8108951A930A9300E010E00895EAE5EA930E94DE
:203C0000691CE5EAEA930C94691CE4E0EA930E94691CE3E8EA930C94691CEA930E94691C35
:203C2000E1E0EA930E94691C0E94651C0E94651C0E94651C0E94651C0E94651C0E94651C4D
:203C40000E94651C0E94651C0C94651CEE81FF81FA93EA930895E0E0E093C705E093C80528
:203C60000895E0E0E093C905E093CA050895E0E0E093CB05E093CC0508950E948126EF5F4C
:203C8000FF4F6F4F7F4F0E9486260895ED91FD913196FE93EE930895A091C905B091CA05CE
:203CA0000895A091CB05B091CC050895E2E0F5E0A1E00E949426E3E7F0E0FA93EA930C94FF
:203CC0005E02A0E00E94D1250E2E0895E0E0E093BB05E093BC05E093BD05E093BE05089564
:203CE000E0EDF7E0FA93EA930E949A25DC980895E5E0EA930E94691CE2E8EA930E94691CCD
:203D0000E0E0EA930C94691CE0E3EA930E94691CE0E0EA930C94691CE0E0EA930C94691C16
:203D2000E0E6EA930E94691CF7CFE2E0F5E0A1E00E949426E3E7F0E0FA93EA930895E0E0DE
:203D4000E0939505E09396050895E3E0EA930E94691CE0E8EA930E94691CE2E0EA930E94F7
:203D6000691CE0E10895E3E2EA930E94691CE2E8EA930E94691CD0CFE0E9EA930C94691C7F
:203D8000E6EDF0E0FA93EA9380E00E94AD1D229634CFEA930E94691CE2E8EA930E94691CDD
:203DA000BBCFFA93EA9380E00E94AD1D229608950E94A72600E010E020E030E01ECFE0E54D
:203DC000EA930C94691CE1E0F0E0E017F1070895F0E0E0933805F0933905A0913805B09134
:203DE0003905DC970895EDE3F0E0E0933805F09339050895E0E1EA930C94691C2E2F3327AD
:203E0000022E032A0895AE81BF81E1E0F0E00E94D6250895E0E0F0E00E94D6250E2E089568
:203E2000A0913605B09137050895E0915E05F0915F0560916005709161050895E0E7EA93A5
:203E40000C94691CE1E0EA930C94691C0E94651C0E94651C0C94651CE0933605F093370506
:203E60000895E0913605F0913705E093A705F093A8050895E0E2EA930C94691CF0E0E093A9
:203E8000DD05F093DE050895E091DD05F091DE050895A091D705B091D805E1E0F0E00E948B
:203EA000D6250E2EA091DB05B091DC050895E093D905F093DA050895A091D705B091D80580
:203EC000E2E0F0E00E94D6250E2EA091DB05B091DC050895E0E4EA930E94691C1DCFEA93D6
:203EE0000E94691C8ACEE5E0EA930E94691CE2E8EA930E94691C7ECFE0E8EA930E94691CB3
:203F00000BCFE5E0EA930E94691CE2E8EA930E94691CB0CFE5E0EA930E94691CE2E8EA93C1
:203F20000C94691CE0E6EA930C94691CAE81BF81A030E1E0BE070895AE81BF81EFEFF0E075
:203F4000089500E010E020E030E00895EA930E94691C0A930C94691CAFEF0A02F001E20F55
:203F60000895AC81BD81A030E1E0BE070895AC81BD81EFEFF0E00895EBE0EA930E94691C21
:203F8000E2E8EA930E94691C75CFE091C905F091CA050E94C7250E948F2684E00E94AD1D2B
:203FA00026960895EAE3F4E0FCCEE091CB05F091CC050E94C7250E948F2684E00E94AD1DF5
:203FC00026960895E091CD05F091CE050E94C7250E948F2684E00E94AD1D26960895A091B2
:203FE000CF05B091D0050895A091D105B091D2050895A091D305B091D40508950E94C72530
:204000000E948F2684E00E94AD1D26960895E3E0F5E0A1E00E949426E9E7F0E0FA93EA9301
:204020000895E091A105F091A20530970895E0E4EA930E94691CE0E2F0CDE0E0E093BF0562
:20404000E093C0050895E0910005E460E0930005E09362000895E0E9F1E0FA93EA930C94A3
:204060009A25E1E0F0E0E093A105F093A2050895E2E0F0E0E093A105F093A2050895E0912D
:204080000005EB7FE0930005E09362000895E3E0F0E0E093A105F093A2050895E1E0F5E0BE
:2040A000A1E00E949426E1E7F0E0FA93EA930895E1E0F0E0E093E905F093EA05E09100050A
:2040C0000895E160E0930005E260E0930005E09362000895E1E0F0E0E093EB05F093EC05F6
:2040E000E09100050895EE7FE0930005ED7FE0930005E09362000895E0939F05F093A00533
:204100000895E0919F05F091A0050895E4E0F0E0E093A105F093A2050895A0919F05B091A0
:20412000A0050895A091E105B091E20511970895E0910005E064E0930005E0936200089515
:20414000E0910005EF7BE0930005E09362000895E0910005E062E0930005E09362000895F3
:20416000E0910005EF7DE0930005E09362000895E0E0E093A105E093A2050895E0E0E093B0
:204180009F05E093A0050895E091BF05F091C00530970895E1E0F0E0E093BF05F093C005D7
:2041A000A7EBB5E073CDE091B505F091B605FA93EA93E091B105F091B205FA93EA93E0914D
:2041C000B705F091B805FA93EA93E091C305F091C405FA93EA93E0917C05F0917D05FA93CC
:2041E000EA93E0917E05F0917F05FA93EA930C941C09E8EEF3E0FA93EA930C949A25E4EF95
:20420000F1E0FA93EA930C949A25E1E0F0E00E94D6250895E091D905F091DA05FA93EA93E0
:204220000E94C80AECCF20E030E040E050E087CDE0E0EC87ED87EE87EF870895E887E9878D
:20424000EA87EB870895E8E0F0E0CE16DF060895E5E0F0E0E093A105F093A20508950E2E2F
:20426000D801E2E0F0E00E94D6250E2AE3E0F0E00E94D6250E2AE4E0F0E00E94D6250895C8
:204280000E2AA091A105B091A2050895E0E0F0E00E94D6250895E2E0F0E00E94D6250895F4
:2042A000E3E0F0E00E94D62508950E2ED601E8E0F0E00E94E2250895A885B9858A859B85A6
:2042C000E0EDF7E060E070E00E94FC2508950E940C040E949F04C598E1E2FEE460E070E0C1
:2042E000E887F9876A877B8708950E947E02A0E00E94D12508950E94C704E0E09FDFC29863
:20430000C6980895C7980E94D704EE83FF83AE81BF8111970895A1E00E94D1250E2E08952D
:20432000E1E0F0E0E093AF05F093B0050895E0E0E093B305E093B405E0933E05E0933F056C
:20434000E0934005E093410504E010E00895E1E0F0E0E093B305F093B4050895E0E0E093B3
:204360003E05E0933F05E0934005E093410508950E2EA0913E05B0913F0580914005909189
:2043800041050895E5E0F0E060E070E00E94FC2508950E946702A0E00E94D1250895E09382
:2043A0004A05E0934B05E0934C05E0934D050895A0E0C199A1E0E0E00E94D125E021089574
:2043C000A0914A05B0914B0580914C0590914D05A630E0E0BE07E0E08E07E0E09E07089545
:2043E000E0E0DDDFE0E0EC87ED87EE87EF87089541E050E0E0E022DF0E94C70448CEE0E0BD
:20440000CEDF1E983CCEE1E0F0E0E093F105F093F205A5EFB5E03ACC3197E091000551CE2F
:20442000E1E0F0E0E093F305F093F405A7EFB5E02DCC3197E091000556CED601EAE0F0E00D
:204440000E94E2250E2EA091D505B091D6051ECFD601E9E0F0E00E94E2250E2EA091D50503
:20446000B091D605D2CE0E94C7040E9477041D9806CEEC85FD856E857F85EF5FFF4F6F4F29
:204480007F4FEC87FD876E877F87E885F9856A857B85EF5FFF4F6F4F7F4FE887F9876A877A
:2044A0007B870895A091A105B091A2050895E1E0F0E0E417F5070895A885B9858A859B8542
:2044C000A13DE7E0BE07E0E08E07E0E09E070895E0E6F0E0FA93EA930895E0E1F0E0FA93C0
:2044E000EA930C9486020E94C7250E948F260C94FF02AB30E0E0BE07E0E08E07E0E09E0777
:204500000895E1E0F0E0E093FD05F093FE05A1E0B6E0BCCBE1E0F0E0E093FF05F093000643
:20452000A3E0B6E0B3CBE1E0F0E0EC15FD050895E0930005E09362000895E0E4EA930C94E8
:20454000691CE0E0F0E0FA93EA9308950E949E09D3CDE8EBFBE0FA93EA930C949A25FA9312
:20456000EA930C949A25E1E0F0E0FA93EA930C940005E0EDF7E0F3CF0E94EB03E0938E0523
:204580000895E091D905F091DA05FA93EA930C94C80AE0938605F09387050895E0E0E09376
:2045A000AD05E093AE050895E0E0E0938A05E0938B050895E0938A05F0938B050895E1E0B1
:2045C000F0E0E0931805F093190508950E946202A0E00E94D1250895E0E0E0933A05E0939D
:2045E0003B05E0933C05E0933D050895E0931805F09319050895E1E0F0E0E0933005F093EB
:2046000031050895A0913A05B0913B0580913C0590913D050895A932E0E0BE07E0E08E07CF
:20462000E0E09E070895EEDFA531E0E0BE07E0E08E07E0E09E070895E5E1F0E060E070E0D3
:20464000E0933A05F0933B0560933C0570933D050895A333E0E0BE07E0E08E07E0E09E07BA
:204660000895A1E0B0E0A083B1830895A0913E05B0913F0580914005909141050895AD3365
:20468000E0E0BE07E0E08E07E0E09E070895A2E0B0E0A083B1830895AF31E0E0BE07E0E013
:2046A0008E07E0E09E070895A3E0B0E0A083B1830895A4E0B0E0A083B1830895A5E0B0E03F
:2046C000A083B1830895A0E0B0E0A083B18301E010E00895E0E0E0934205E0934305E09369
:2046E0004405E09345050895A0914205B091430580914405909145050895E1E0F0E0E093B0
:204700009705F0939805E6CFECE1F5E0A9E0B0E0A083B1830895A531E0E0BE07E0E08E07C9
:20472000E0E09E070895E0E0E0939705E0939805D1CFA0919705B09198050895FADF65CDA5
:20474000ECE1F5E0A8E0B0E0A083B1830895CCDFE0E0F0E060E070E00E94FC250E2E089544
:20476000C798C2DFAE30E0E0BE07E0E08E07E0E09E070895E0E0E0934605E0934705E093CF
:204780004805E09349050895A0913805B0913905A634E0E0BE070895A0914605B09147057C
:2047A00080914805909149050895A0913805B09139050895E0E0E0930405E09305050895AF
:2047C000E6E0F5E0A0E0B0E0A083B1830895E8E0F5E0A0E0B0E0A083B1830895EAE0F5E0FA
:2047E000A0E0B0E0A083B18308950E942D03E0E0E0933005E09331050895CEDF8CCFE0E06D
:20480000E0936605E0936705E0936805E0936905E0936A05E0936B05E0936C05E0936D058C
:20482000E0936E05E0936F05E0937005E09371050895A0910405B09105050895D601E0E084
:20484000F0E00E94DC250895E0910605F09107050895A0E0B0E00E94D6250E2EEFCF0E22CB
:20486000D601E1E0F0E00E94DC250E220895A0913005B0913105C9CCE0910805F0910905E1
:204880000895D601E2E0F0E00E94DC250E22E3E0F0E00E94DC250E22E4E0F0E00E94DC25A2
:2048A0000E2208954424552466247724882499240895E0E0EA83EB83EC83ED830895B9DF70
:2048C000A4CC0E942C1365DEE1E0F0E0E0938805F09389050E94B703E0939305F09394051F
:2048E000A0918E05E1E00E94D1250E2EA0918605B09187058ACC0E22A0918805B0918905C3
:2049000084CC0E22A0919305B09194057ECC0E94BE0D0E94160815CE0E9400054BCFA1E0D8
:20492000B0E00E94D6250E220895E0E0E0933005E09331050895A0918A05B0918B056ACA0A
:20494000D601EBE0F0E00E94E2250E22A091D505B091D6059BCCEA81FB816C817D81EF5F5E
:20496000FF4F6F4F7F4FEA83FB836C837D83AA81BB818C819D81A130E0E0BE07E0E08E0746
:20498000E0E09E070895AA81BB818C819D81A536E0E0BE07E0E08E07E0E09E070895D601F5
:2049A000EAE0F0E00E94E22508950E22A091D505B091D6050895E0912C05F0912D05319706
:2049C00008950E94FC250E2EEACF0E946D0279C92CDAA0916E05B0916F0580917005909129
:2049E0007105EFCFAAE7B5E051C9EAE0F0E0CE16DF060895ACE2B5E049C9A9EBB5E046C9D6
:204A0000FA93EA93E091B905F091BA053197FA93EA930E94CC07C7CBE0E0E0932C05E0936D
:204A20002D050895EFEFFFEFE0937605F0937705E0937805F0937905E0937A05F0937B0508
:204A400008952A93ED85FE85FA93EA93E989FA8909950895E889F9893497E88BF98B08957B
:204A6000ED85FE85FA93EA93E989FA8909950895A889B98914960E947D26EE83FF83E6C804
:204A8000A889B98914960E947D26EA87FB87089590989198889A899815C089988898EE2765
:204AA0000000819B0895809B089504D0899A02D0889AE1E06BE107C0899A889A03D088988E
:204AC000F9DF899865E36A95F1F7089578E08898F1DF809BFECFEEDF889481990894889A20
:204AE000F1DFEE1F7A9599F77991772311F4899801C0899ADFDF8898E5DF889ADBDF8998ED
:204B0000D9CFE99178E0EE0F10F4899801C0899AD9DF8898CFDF809BFECFCCDF889A7A95CB
:204B200091F78998C7DF8898CDDFE1E08199EE27889AC0CFE991F991309639F080EA9FE0DD
:204B40000197F1F7A8953197C9F708950024AF0DB01D0895F195E195F0400895F0956095E6
:204B60007095E195FF4F6F4F7F4F0895EE230E2EFD01BC0131F076956795F795E7950A946D
:204B8000D1F70895E62FF72F60E070E008956F2F660F660B762F08958B2F880F880B982FD7
:204BA0000895EA17E1E009F0EE270895EA17FB07E1E009F0EE270895EA17FB07E1E009F4BB
:204BC000EE270895AE17BF07E1E00CF4EE270895AE17BF07E1E00CF0EE270895EA17FB0728
:204BE000E1E00CF0EE270895AE17BF0786079707E1E00CF4EE270895EA17FB07680779072B
:204C0000E1E00CF0EE270895FA9FF02DEB9FF00DEA9FE02DF10D08957A9F702D6B9F700D7A
:204C2000F89F700DE99F700D6A9F602D710DFB9F600D711DE89F600D711D8827FA9FF02DCB
:204C4000610D781FEB9FF00D611D781FEA9FE02DF10D681F781F08952FD0D6DF0EF47ADF55
:204C6000089538D0D9DF0EF479DF08950024112490E1AA0FBB1F001C111C0E1A1F0A18F4DD
:204C80000E0E1F1E01C0A1609A9599F7FD01D001089512D0EBDF0EF45DDF0895E894B7FF15
:204CA00004C0A095B09511966894F7FD53DFDEDFFD010EF44FDF0895E894F7FF02C04ADF08
:204CC0006894B7FF06C0A095B095119600F8039400FA0895E89477FF02C040DF689497FFB0
:204CE0000BC00024A095B095809590951196801D901D00F8039400FA0895ED91FC91119747
:204D00000895ED91FD916D917D9108957E936E93FE93EE9308950590F491E02D08957A93AF
:204D20006A93FA93EA930895BB27EA0FFB1F02900A921197E1F7089500240A160B0608959D
:204D4000EA17FB076807790708955A934A933A932A931A930A9308955D814C813B812A8177
:144D6000198108810895AC0FBD1F05900D928A95E1F7089520
:00000001FF
