:200000000C9446000C9465000C9465000C9465000C9465000C9465000C9465000C946500D7
:200020000C9465000C9465000C9465000C9465000C9465000C9465000C9465000C944301B9
:200040000C9465000C9465000C9465000C9465000C9465000C9465000C9465000C94650078
:200060000C9465000C9465000C9465000C9465000C9465000C9465000C9465000C94650058
:200080000C9465000C9465000C94650011241FBECFEFD0E1DEBFCDBF11E0A0E0B1E0E6EDD2
:2000A000F7E100E00BBF02C007900D92AA3EB107D9F722E0AAEEB1E001C01D92AF34B2071F
:2000C000E1F70E94BC040C94E90B0C940000BC0180E89EE30E949F0A862F603138F07727B5
:2000E000CB01409797FD01969595879580937000089584EA809374008091740087FFFCCF01
:20010000089584E9809374008091740084FDFCCF08958093730084E88093740080917400E2
:2001200087FFFCCF089520E4829FC00111248468809374008091740087FFFCCF80917300E9
:200140000895FF920F931F93CF93DF93082F162FC42FF22ED32F0E947900802F0E948900C3
:20016000812F0E9489000F2D1D2FCC2339F0F80181918F010E948900C150F7CFDF91CF9197
:200180001F910F91FF900C948100FF920F931F93CF93DF93182F062FC42FF22ED32F0E9473
:2001A0007900812F0E948900802F0E9489000E94790081E0810F0E948900C1500F2D1D2F41
:2001C000CF3F59F081E0C11101C080E00E949300F80181938F01C150F3CFDF91CF911F914F
:2001E0000F91FF900C9481009093900089B988E18AB986E08093950008955D9BFECF8CB959
:2002000008955F9BFECF8CB108951F93CF93DF93D82FC62F8AE50E94FD0085EA0E94FD0002
:2002200084E00E94FD0083E80E94FD008D2F0E94FD008C2F0E94FD0081E00E94FD000E945A
:2002400001010E9401010E9401010E9401010E9401010E9401010E9401010E940101182FD9
:20026000C82FD0E00E94010190E0209739F02FEF129F800D911D11248C0F9D1FDF91CF917D
:200280001F91089508951F920F920FB60F9211248F939F93AF93BF93809130029091310208
:2002A000A0913202B09133020196A11DB11D8093300290933102A0933202B0933302BF9176
:2002C000AF919F918F910F900FBE0F901F901895CF92DF92EF92FF92CF93DF936B017C0186
:2002E000D42FC22F8AE50E94FD0085EA0E94FD0087E00E94FD0082E80E94FD008D2F0E9481
:20030000FD008C2F0E94FD00D701C601BB0F880B982FDC010E94FD008E2D0E94FD008D2D33
:200320000E94FD008C2DDF91CF91FF90EF90DF90CF900C94FD00EF92FF920F931F93CF9354
:20034000DF93EC01E62EF42E8F3F910541F03CF06FEF70E00E94B30A162F082F02C000E01C
:2003600010E08AE50E94FD0085EA0E94FD0085E00E94FD0082E80E94FD008E2D0E94FD000A
:200380008F2D0E94FD00812F0E94FD00CF3FD10521F01CF0802F811B05C0D7FD02C08C2F51
:2003A00001C080E0DF91CF911F910F91FF90EF900C94FD00EF92FF920F931F93CF93DF9317
:2003C0008C01E62EF42E8AE50E94FD0085EA0E94FD0089E40E94FD0082E80E94FD008E2D6E
:2003E0000E94FD008F2D0E94FD00C0E0D1E089910E94FD0081E0CB34D807C9F7E801099078
:200400000020E9F7C01BD10B22968AE50E94FD0085EA0E94FD008C2F0E94FD0082E80E94EB
:20042000FD008E2D0E94FD008F2D0E94FD007801C701801B910B8C179D0734F4F701819119
:200440007F010E94FD00F4CFDF91CF911F910F91FF90EF9008958AE50E94FD0085EA0E94D0
:20046000FD0083E00E94FD0080E80E94FD0082E00E94FD0080E10C94FD001F93CF93DF93F1
:20048000EC01162F0E9479008EEB0E948900812F0E9489008C2F8295807F0E948900CE01C5
:2004A00024E0969587952A95E1F70E948900DF91CF911F910C9481008230910559F4209148
:2004C000EA013091EB012130310521F49093EB018093EA018091EA019091EB01009721F02A
:2004E000029709F48CC008956130710509F03FC0452B09F0A4C070933502609334021092AC
:200500001602109215027093EB016093EA011092F6011092F7011092F8011092F9018091C2
:200520000702909108020197A1F410920802109207028091090290910A02A0910B02B0913B
:200540000C0280932C0290932D02A0932E02B0932F028091070290910802892B09F06FC002
:2005600081E090E0909308028093070237C0672B09F065C04130510509F061C050931602DE
:200580004093150210923502109234025093EB014093EA011092F6011092F7011092F80165
:2005A0001092F901109226021092270210922802109229028091090290910A02A0910B02EA
:2005C000B0910C0280932C0290932D02A0932E02B0932F02509308024093070210922602CF
:2005E0001092270210922802109229021092090210920A0210920B0210920C02089580912F
:20060000F6019091F701A091F801B091F9010497A105B105A4F01092EB011092EA0110921D
:2006200035021092340210921602109215021092F6011092F7011092F8011092F901089531
:20064000CF93DF938430910524F0049721E030E002C020E030E08130910509F455C01CF481
:20066000892B49F0C9C08230910509F475C0039709F49AC0C1C0E901CC0FDD1FFE01EA5C12
:20068000FD4F80819181019739F440E250E060E170E081E090E012C08091F6019091F7018F
:2006A000A091F801B091F9010497A105B10544F040E250E060E170E080E090E00E949B01B9
:2006C000C250DE4F88819981019739F440E450E060E170E081E090E013C08091F601909141
:2006E000F701A091F801B091F9010497A105B1050CF482C040E450E060E170E080E090E0AF
:20070000DF91CF910C949B01E901CC0FDD1FFE01E35FFD4F80819181019739F440E250E055
:2007200060E170E081E090E012C08091F6019091F701A091F801B091F9010497A105B10508
:2007400044F040E250E060E170E080E090E00E949B01CF5BDD4FB6CFE901CC0FDD1FFE01D9
:20076000E650FE4F80819181019739F440E250E060E170E081E090E012C08091F60190916F
:20078000F701A091F801B091F9010497A105B10544F040E250E060E170E080E090E00E947C
:2007A0009B01CF5DDD4F8ECFE901CC0FDD1FFE01E35CFD4F80819181019739F440E250E073
:2007C00060E170E081E090E012C08091F6019091F701A091F801B091F9010497A105B10568
:2007E00044F040E250E060E170E080E090E00E949B01C55BDD4F66CFDF91CF910895843032
:20080000910524F0049721E030E002C020E030E08130910511F11CF4892B41F00895823023
:20082000910569F1039709F441C00895220F331FB49908C081E090E0F901EA5CFD4F91838A
:20084000808305C0F901EA5CFD4F11821082F901E250FE4FB09945C03FC0220F331FF901DC
:20086000E35FFD4FB59903C09183808302C011821082F901EF5BFD4FB19933C02DC0220FF0
:20088000331FB69908C081E090E0F901E650FE4F9183808305C0F901E650FE4F1182108223
:2008A000F901EF5DFD4FB2991CC016C0220F331FB79908C081E090E0F901E35CFD4F9183A4
:2008C000808305C0F901E35CFD4F11821082F901E55BFD4FB39905C081E090E09183808327
:2008E0000895118210820895109214021092130210921E0210921D021092F1011092F00180
:20090000109248021092470210921A0210921902109206021092050240E450E060E370E04B
:2009200080E090E00E949B0141E450E060E370E080E090E00E949B0142E450E060E370E0CA
:2009400080E090E00E949B0143E450E060E370E080E090E00E949B0144E450E060E370E0A6
:2009600080E090E00E949B0145E450E060E370E080E090E00C949B01CF93DF93CDB7DEB784
:2009800064970FB6F894DEBF0FBECDBF1ABA1BBA17BA18BA14BA15BA11BA12BA9FEF92B9BC
:2009A00013B81092610010926200109264001092650083B7886083BF83B7856083BF91BF43
:2009C00087B7826087BF88E090E00E94F40084E690E00E94670078942FEF33EC69E021505D
:2009E00030406040E1F700C000008FEF93ECE9E081509040E040E1F700C00000FFEF23EC33
:200A000039E0F15020403040E1F700C000006FEF83EC99E0615080409040E1F700C00000F5
:200A2000EFEFF3EC29E0E150F0402040E1F700C000003FEF63EC89E0315060408040E1F7F8
:200A400000C000008AE50E94FD0085EA0E94FD0083E00E94FD0080E80E94FD0082E00E94AD
:200A6000FD0080E10E94FD0020E630E040E050E068E17BE080E090E00E94680120E830E07C
:200A800040E050E065EB7AE080E090E00E94680120E630E040E250E067E47BE180E090E0A2
:200AA0000E94680120E830E040E250E064E57AE180E090E00E94680120E130E040E450E0DD
:200AC0006AEB72E080E090E00E94680120E930E040E350E062EA72E080E090E00E946801AF
:200AE00062E085EB9AE00E943D029FEFE9E6F8E19150E040F040E1F700C0000064E088E13D
:200B00009BE00E943D0240E050E060E070E080E090E00E949B0140E250E060E070E080E049
:200B200090E00E949B0140E450E060E070E080E090E00E949B0140E250E060E170E080E0D2
:200B400090E00E949B0140E450E060E170E080E090E00E949B0140E650E060E170E080E0AD
:200B600090E00E949B0140E850E060E170E080E090E00E949B0140E050E060E270E081E08D
:200B800090E00E949B0140E250E060E270E080E090E00E949B0140E550E060E370E080E06D
:200BA00090E00E949B0120E030E040E150E060E070E0CB010E94680140E050E060E370E0DC
:200BC0008EE691E00E94DA01109230021092310210923202109233021092F3011092F20132
:200BE000109212021092110210921C0210921B021092EF011092EE01109246021092450215
:200C000010921802109217021092040210920302109214021092130210921E0210921D021C
:200C20001092F1011092F001109248021092470210921A02109219021092060210920502E8
:200C40001BBAC12CD12C7601812C912C5401412C512C188A1F868091F2019091F3010197BD
:200C600009F04CC02091EC013091ED01243031050CF060C480E090E02230310521F18CF48E
:200C800021153105A9F021303105C1F5880F991FFC01E35FFD4F40815181FC01EF5BFD4F12
:200CA00027C023303105D1F024303105B9F026C0880F991FFC01EA5CFD4F40815181FC017C
:200CC000E250FE4F15C0880F991FFC01E650FE4F40815181FC01EF5DFD4F0AC0880F991FB0
:200CE000FC01E35CFD4F40815181FC01E55BFD4F6081718180E090E00E945C028091EC01AF
:200D00009091ED010E94FF03CA9912C02F853889232B51F43FEF831A930AA30AB30A81E0B0
:200D200090E0988B8F8704C0E1E0F0E0F88BEF87CA9B02C0188A1F86CB994CC0452809F078
:200D400046C0FFEFCF1ADF0AEF0AFF0A80910702909108020197D9F580912602909127029D
:200D6000A0912802B09129020196A11DB11D8093260290932702A0932802B0932902809126
:200D8000260290912702A0912802B0912902883E9340A105B105D9F48091090290910A020F
:200DA000A0910B02B0910C020196A11DB11D8093090290930A02A0930B02B0930C02109203
:200DC000260210922702109228021092290244244394512CCB9B02C0412C512C8091300276
:200DE00090913102A0913202B091330281309240A105B1050CF42FCFF89440E050E060E0CB
:200E000070E0C4010E949B0140E250E060E070E0C6010E949B01C818D908EA08FB08C6011B
:200E2000D7FE04C0882799278C199D0940E450E060E070E00E949B018091F6019091F7011C
:200E4000A091F801B091F9010196A11DB11D8093F6019093F701A093F801B093F90180916B
:200E6000F2019091F301019709F0E8C08091340290913502019709F072C080911F0290917C
:200E80002002892B99F080911F0290912002019769F080911F0290912002029739F0809145
:200EA0001F0290912002039709F059C08AE50E94FD0085EA0E94FD0083E00E94FD0080E89C
:200EC0000E94FD0082E00E94FD0080E10E94FD0044E450E060E370E081E090E00E949B0178
:200EE00040E650E060E170E080E090E00E949B0140E850E060E170E081E090E00E949B0105
:200F0000109235021092340280911F029091200201969093200280931F028091490290911E
:200F20004A02019791F08091490290914A02029761F08091490290914A02039731F0809104
:200F4000490290914A02049751F40E94740410924A02109249021092200210921F0280916C
:200F6000150290911602019709F060C08091490290914A02892B99F08091490290914A02A1
:200F8000019769F08091490290914A02029739F08091490290914A02039709F047C041E44D
:200FA00050E060E370E081E090E00E949B0140E650E060E170E081E090E00E949B0140E841
:200FC00050E060E170E080E090E00E949B0110921602109215028091490290914A0201966F
:200FE00090934A028093490280911F0290912002019791F080911F0290912002029761F037
:2010000080911F0290912002039731F080911F0290912002049751F40E947404109220026D
:2010200010921F0210924A021092490240E050E060E070E082E090E00E945C02CE010196FA
:201040009E838D83E1E1F2E0FC87EB872EEE31E03E872D878BE1682E82E0782E85E492E04B
:201060009A878987E3E0F2E0F887EF8397E1C92E92E0D92E212C312C00E210E060E470E0C1
:20108000C8010E9405019C8B8B8B61E470E0C8010E9405015C0162E470E0C8010E94050138
:2010A0009A8B898B63E470E0C8010E9405017C0164E470E0C8010E9405014C0165E470E083
:2010C000C8010E9405012B893C892130310501F1AA94AB2861F42091F2013091F301232BA0
:2010E00019F5F301208131812F5F3F4F22C0E989FA89319729F1F1E0EF16F10449F121E0C0
:201100008216910429F18130910509F06FC120C0EB85FC85208131812F5F3F4F3183208381
:20112000AA94AB2841F4D7CFF301208131812B5F3F4F3183208329893A892130310541F4DC
:20114000ED85FE85208131812F5F3F4F31832083EA94EF2841F4E985FA85208131812F5F3C
:201160003F4F318320838A94892891F42091F2013091F301F601232B29F4208131812F5F9A
:201180003F4F04C0208131812B5F3F4F31832083019739F4EF81F8858081918101969183CB
:2011A00080832114310409F03FC04091EE015091EF016CE964039001659F300D1124809165
:2011C000450290914602885E944F820F931F40911B0250911C0266EF64039001659F300DD8
:2011E0001124820F931F2091110230911202821B930B4091030250910402E4E6E49F900108
:20120000E59F300D1124820F931F4091170250911802FAE0F49F9001F59F300D1124820F1B
:20122000931F9A8389833EC0ED85FE85408151816CE964039001659F300D1124E985FA859D
:20124000808191818B54954F820F931FF3014081518166EF64039001659F300D1124820F9A
:20126000931FEB85FC8520813181821B930BEF81F88540815181F4E6F49F9001F59F300DEE
:201280001124820F931FF60140815181FAE0F49F9001F59F300D1124820F931FED81FE8118
:2012A00091838083ED81FE81808191818115904130F02FEF3FE0ED81FE813183208340E4EB
:2012C00050E0B80180E090E00E949B0141E450E0B80180E090E00E949B0142E450E0B801EC
:2012E00080E090E00E949B0143E450E0B80180E090E00E949B0144E450E0B80180E090E0E1
:201300000E949B0145E450E0B80180E090E00E949B012114310499F5E980FA804701A12C7F
:20132000B12C20E630E040E050E0C501B4010E946801C501B4010E94F80A25ED3FEC4BE756
:201340005EE30E945E0B4B015C0120E030E040E251E40E945E0B0E94C70A20E630E040E27B
:2013600050E00E946801C501B4010E94C70A20E130E040E450E00E94680162E034C0ED8130
:20138000FE81E080F1804701A12CB12C20E830E040E050E0C501B4010E946801C501B401A2
:2013A0000E94F80A25ED3FEC4BE75EE30E945E0B4B015C0120E030E040E251E40E945E0BB3
:2013C0000E94C70A20E830E040E250E00E946801C501B4010E94C70A20E930E040E350E0CB
:2013E0000E94680164E0C7010E943D02005F1F4FFFEF2F1A3F0A2D813E812E5F3F4F3E835F
:201400002D838B859C8502969C878B87ED85FE853296FE87ED87F2E06F0E711C29853A851F
:201420002E5F3F4F3A8729878F819885029698878F8392E0C90ED11C0034110509F01ECEC5
:2014400060E570E080E390E00E9405019093ED018093EC0160E070E080E290E00E94050161
:201460008C01E090F201F090F30160E270E080E290E00E9405019093F3018093F2018091CE
:20148000F2019091F301892B09F5EA94EF28F1F41092090210920A0210920B0210920C025E
:2014A0001092260210922702109228021092290210920802109207021092200210921F0220
:2014C00010924A02109249020E9474048091EC019091ED010E94200380913A0201301105B1
:2014E00061F48B7F877F80933A0283B940E050E060E370E082E991E00BC084608860809393
:201500003A0283B940E050E060E370E082EC91E00E94DA0110923002109231021092320295
:20152000109233027894C12CD12C7601812C912C540191CB2450310981E090E09DCBAA1BA0
:20154000BB1B51E107C0AA1FBB1FA617B70710F0A61BB70B881F991F5A95A9F780959095F3
:20156000BC01CD01089597FB072E16F4009407D077FD09D00E949F0A07FC05D03EF4909540
:2015800081959F4F0895709561957F4F089504D06894B1118DC0089570D088F09F5790F09A
:2015A000B92F9927B751A0F0D1F0660F771F881F991F1AF0BA95C9F712C0B13081F077D03C
:2015C000B1E0089574C0672F782F8827B85F39F0B93FCCF3869577956795B395D9F73EF459
:2015E00090958095709561957F4F8F4F9F4F0895E89409C097FB3EF4909580957095619541
:201600007F4F8F4F9F4F9923A9F0F92F96E9BB279395F695879577956795B795F111F8CF66
:20162000FAF4BB0F11F460FF1BC06F5F7F4F8F4F9F4F16C0882311F096E911C0772321F0CE
:201640009EE8872F762F05C0662371F096E8862F70E060E02AF09A95660F771F881FDAF76B
:20166000880F9695879597F9089557FD9058440F551F59F05F3F71F04795880F97FB991F57
:2016800061F09F3F79F087950895121613061406551FF2CF4695F1DF08C01616170618068F
:2016A000991FF1CF86957105610508940895E894BB2766277727CB0197F908950BD078C0ED
:2016C00069D028F06ED018F0952309F05AC05FC01124EECFCADFA0F3959FD1F3950F50E08F
:2016E000551F629FF001729FBB27F00DB11D639FAA27F00DB11DAA1F649F6627B00DA11D54
:20170000661F829F2227B00DA11D621F739FB00DA11D621F839FA00D611D221F749F3327D5
:20172000A00D611D231F849F600D211D822F762F6A2F11249F5750408AF0E1F088234AF094
:20174000EE0FFF1FBB1F661F771F881F91505040A9F79E3F510570F014C0AACF5F3FECF364
:20176000983EDCF3869577956795B795F795E7959F5FC1F7FE2B880F911D9695879597F952
:20178000089597F99F6780E870E060E008959FEF80EC089500240A941616170618060906B2
:2017A000089500240A9412161306140605060895092E0394000C11F4882352F0BB0F40F4FD
:2017C000BF2B11F460FF04C06F5F7F4F8F4F9F4F0895F894FFCF2020202020202020202058
:2017E0002020202020202020202020202020202020202020202020202020202020202020E9
:201800002020202020202020202020202020202020202020202020202020202020202020C8
:201820002020202020202020202020202020202020202020202020202020202020202020A8
:20184000202020004E6173746177612066616C6F776E696B6F77207A20706F74656E636A4B
:201860006F6D6574726F770055727563686F6D696F6E6F206E6173746177652066616C6FEE
:20188000776E696B6F77207A20706F74656E636A6F6D6574726F770055727563686F6D69A3
:2018A0006F6E6F206E6173746177612066616C6F776E696B6F77207A2070616E656C75002D
:00000001FF
