:020000000C945E
:1000020059000C9400000C9400000C9400000C9415
:1000120000000C9400000C9400000C9400000C945E
:1000220000000C9400000C94A5000C9400000C94A9
:1000320000000C9400000C9400000C9400000C943E
:100042008C000C9400000C9400000C9400000C94A2
:1000520000000C9400000C9400000C9400000C941E
:1000620000000C9400000C9400000C9400000C940E
:1000720000000C9400000C9400000C9400000C94FE
:1000820000000C9400000C9400001027E8036400A8
:100092000A000100001000011000010001002D4EB5
:1000A200414E00494E46000001008E059E000000B0
:1000B200F894EE27ECBBF1E0F5BFE5BFE0936C00EE
:1000C200F8E1F1BDE1BD8DE0A2E0BB27ED938A9599
:1000D200E9F780E090E1A0E0B1E0ED930197E9F764
:1000E200EAEAF0E085919591009761F0A591B591CA
:1000F20005901590BF01F00105900D920197E1F76F
:10010200FB01F0CF8BBFEFEFEDBFE0E1EEBFC0E050
:10011200D5E00C9416070E945A08A0E0B5E00E94B0
:100122006308A4E0B5E00E946308A8E0B5E00E947D
:100132006308ACE0B5E00E946308A0E1B5E00E946C
:100142006308A8E8B5E008C00E945A08A4E1B5E037
:100152000E946308A8E1B5E00E94010BEF5FFF4F28
:100162006F4F7F4F0E94060BE991EFBFF991E99122
:10017200B991A991799169911895EE81E03011F4C4
:10018200C19801C0C19AEC81E03011F4C29801C05B
:10019200C29AEA81E03011F4C79801C0C79AE88197
:1001A200E03011F4909801C0909A289608950E9428
:1001B2006C08139789F4059903C00E94710802C064
:1001C2000E9478080E947E0811F00E9496080E9400
:1001D2009E0809F0C69810C0059903C00E947108D4
:1001E20002C00E9478080E947E0811F00E949608C0
:1001F2000E949E0809F0C6980895049903C0959A32
:10020200969801C095980895C89902C0C09801C0F7
:10021200C09A0895189A0F9B30C0E0918C05F09116
:100222008D05309779F4E0E0E0938805E093890545
:10023200E0938A05E0938B05E1E0F0E0E0938C0522
:10024200F0938D05A0918805B091890580918A056A
:1002520090918B050E94B608A0E00F99A1E00E9440
:10026200BE0859F0E0E0E0938605E0938705A9987F
:100272001898E0938C05E0938D05A0E00F99A1E01A
:100282000E94C308A0918C05B0918D050E94C808F8
:10029200E02129F0E0E0E0938C05E0938D050895DC
:1002A2000E94CD08E0911C05F0911D05309791F454
:1002B200E0917E05F0917F05309719F4E1E0F0E0DE
:1002C20002C0EFE6F0E0E0931C05F0931D050E94EA
:1002D200D20895C1EF36A0E0FA0761F4CF9B09C0BE
:1002E2000E94DC08C39AC49AC59A0E94D2080E944E
:1002F200E30885C1E130A0E0FA07D9F4A0915005E6
:10030200B09151050E94C8080E2E0E94EA08E8E248
:10031200F0E060E070E00E94C10AE02149F00E9432
:10032200DC08C59AC39AC49A0E94D2080E94E308C4
:1003320066C1E230A0E0FA0789F40E94EA08A0311F
:10034200E0E0BE07E0E08E07E0E09E0734F00E94A6
:10035200D208E3E0F0E00E94F30851C1E330A0E0EC
:10036200FA07C1F40E94EA080E94B608A0E0C39905
:10037200A1E00E94BE0811F0C398C4980E94F80838
:1003820044F0C59895980E94D208E4E0F0E00E94FB
:10039200F30835C1E430A0E0FA07C9F4CC9902C0F1
:1003A2000E9401090E94EA08AA31E0E0BE07E0E0EB
:1003B2008E07E0E09E0754F00E94D208E5E0F0E0EC
:1003C2000E94F308CC9902C00E94010918C1E530CD
:1003D200A0E0FA07D1F5A0E0CC99A1E00E94C30801
:1003E200A0915C05B0915D050E94C808E02959F012
:1003F2000E9408090E940E09E2E3F0E060E070E06A
:100402000E94110921C00E940809A0E6B5E0ED9101
:10041200FD913196FE93EE93A0916005B091610536
:10042200149744F00E940E09E0E0E0936005E09327
:10043200610508C0959AC39AC49AC59AE6E0F0E0AD
:100442000E94F3080E94D208DAC0E630A0E0FA0760
:1004520021F50E94EA08E2E8F0E060E070E00E9424
:10046200C10A0E2EA0E0C399A1E00E94BE0819F0B5
:10047200C398C498C5980E94EA08A739E0E0BE076D
:10048200E0E08E07E0E09E073CF095980E94D208DB
:10049200E7E0F0E00E94F308B2C0E730A0E0FA071C
:1004A20099F4CC9902C00E9401090E94EA08A13580
:1004B200E0E0BE07E0E08E07E0E09E0724F0E5E022
:1004C200F0E00E94F3089BC0E830A0E0FA0751F484
:1004D2000E94F80834F00E94D208E9E0F0E00E949D
:1004E200F3088DC0E930A0E0FA0751F40E941A091E
:1004F20034F0C798929A0E94D2080E940E097FC0D7
:10050200EA30A0E0FA07C1F40E941A09A4F0969A10
:100512000E94D208E0917E05F0917F05309719F490
:10052200EBE0F0E002C0E7E5F4E0E0931C05F093B5
:100532001D050E94D20863C0EB30A0E0FA07C9F49F
:100542000E941A09ACF059DEA0915205B0915305F0
:10055200119741F496980E94D208ECE0F0E00E94D4
:10056200F30806C0E3E3F0E060E070E00E941109E6
:1005720046C0E735A4E0FA0729F50E941A0934F0CB
:10058200CF9B04C0959896980E94D20836DEA0E0D0
:100592009699A1E00E94C3080E94EA08E2E3F0E013
:1005A20060E070E00E94C10A0E22A0E09599A1E0ED
:1005B200E0E00E94B60AE02121F0ECE0F0E00E94C7
:1005C200F3081DC0EC30A0E0FA0751F40E94EA08DB
:1005D2000E94230924F0EDE0F0E00E94F3080FC02E
:1005E200ED30A0E0FA0759F40E94D208E0E0E0936F
:1005F2001C05E0931D0501E010E00E942B09E1C1FA
:100602000E94CD08E0911E05F0911F05309759F424
:10061200A0915005B0915105119721F4EEE1F5E05A
:100622000E943509CBC0E130A0E0FA07B9F4A0E09E
:10063200CA99A1E00E94C308A0916205B091630526
:100642000E943A09E02149F00E943F09AC98EEE18C
:10065200F5E0A2E0B0E0A083B183B0C0E230A0E058
:10066200FA0791F4A0E0CA99A1E00E9449090E9408
:100672004E09E02141F00E943F09EEE1F5E0A3E0DE
:10068200B0E0A083B1839AC0E330A0E0FA0749F456
:100692000E943F09EEE1F5E0A4E0B0E0A083B1835F
:1006A2008DC0E430A0E0FA07D9F40E9453090E94F9
:1006B2000B0BACF4979AA0E00A99A1E0A03029F4C0
:1006C200A0E00B99A1E0A03009F001C0949A0E9429
:1006D2003F09EEE1F5E0A5E0B0E0A083B1836EC092
:1006E200E530A0E0FA07A1F50E945309A536E0E043
:1006F200BE07E0E08E07E0E09E074CF1A0E0CF9954
:10070200A1E00E944909A0911C05B0911D05EBE0F2
:10071200F0E00E94BB0AE02171F0939A9798AC9A9C
:100722000E945C090E943F09EEE1F5E0A6E0B0E01C
:10073200A083B1830CC0E5E6F0E060E070E0E093F6
:100742000405F0930505609306057093070536C00E
:10075200E630A0E0FA0771F40E9453090E942309CF
:1007620044F00E943F09EEE1F5E0A7E0B0E0A0838B
:10077200B18324C0E730A0E0FA07A1F40E94530934
:10078200AF31E0E0BE07E0E08E07E0E09E074CF00C
:1007920093989498AC98EEE1F5E0A8E0B0E0A083DD
:1007A200B1830CC0E830A0E0FA0741F40E943F098F
:1007B200EEE1F5E00E94630901E010E002C10E944F
:1007C200CD08E0912205F09123053097B9F4A0E01D
:1007D2000E99A1E00E9449090E944E09E02169F0A8
:1007E200AD9AAE980E94680911F4AA9802C0AB9A19
:1007F200AF980E946E090E9435098EC0E130A0E0D8
:10080200FA07A9F40E947A09A531E0E0BE07E0E008
:100812008E07E0E09E0754F00E948309AD98AE9ADD
:100822000E946E09A2E0B0E0A083B18375C0E230FD
:10083200A0E0FA0781F40E990DC00E94680911F434
:10084200AA9A02C0AB98AF9A0E946E09A3E0B0E0E8
:10085200A083B18361C0E330A0E0FA0789F40E946B
:100862007A09A330E0E0BE07E0E08E07E0E09E07F1
:1008720034F00E946E09A4E0B0E0A083B1834CC0C2
:10088200E430A0E0FA0749F40E9B06C00E946E090C
:10089200A5E0B0E0A083B1833FC0E530A0E0FA0755
:1008A20031F5E0918205F09183053097F9F40E94C9
:1008B200680939F4E1E0F0E0E0938405F0938505FE
:1008C20005C0E0E0E0938405E0938505E1E0F0E017
:1008D200E0938605F0938705E0938205F093830504
:1008E200E2E2F5E0A6E0B0E0A083B18315C0E63015
:1008F200A0E0FA0789F40E990FC0E6E3F5E00E9442
:1009020063090E946E090E946309E0E0E0936805B2
:10091200E093690500E010E054C00E94CD08E09128
:100922002405F0912505309759F5A0E0CF99A1E073
:100932000E944909A0918205B09183050E94C808CE
:10094200E021E9F0A89902C0A89A01C0A898A99A42
:10095200A0918405B0918505119711F4AA9802C05F
:10096200AB9AAF98E0E0E0931005E0931105E093B5
:100972001205E0931305E4E2F5E00E94350921C077
:10098200E130A0E0FA07E9F4A0911005B091110559
:100992008091120590911305AD33E0E0BE07E0E0CF
:1009A2008E07E0E09E076CF0E0E0E0938205E093C2
:1009B20083050E945C09E4E2F5E00E94630901E01C
:1009C20010E0F801099119910895E0913005F09134
:1009D2003105309711F40E948A09E0913205F091B5
:1009E20033050E949109E3E0F0E00E94BB0AE02196
:1009F20029F006DEE0933205F0933305E0913605E7
:100A0200F09137050E9491090E943A090E22A091A5
:100A12008605B09187050E949709E02111F00E9496
:100A22009C09E0913805F09139050E9491090E94D4
:100A32003A09E02129F071DFE0933805F093390596
:100A420008950E94A3090E2EE0913205F09133051C
:100A52000E94A8090E220E946C08E3E0F0E00E94C6
:100A6200BB0AE02131F00E94B2090E9483090E9470
:100A7200BA090E94A3090E2EA0917E05B0917F05AE
:100A82000E94C808E02131F00E94B2090E94830945
:100A92000E94BA090E94A3090E2EE0913805F09136
:100AA20039050E94A8090E220E946C080E943A0988
:100AB200E02159F0E0E0E0933005E0933105E8E30E
:100AC200F5E00E9463090E94BA090895079934C0AB
:100AD200A0E00699A1E00E94C308A0917805B09118
:100AE20079050E949709E021A1F0C69AE1E0F0E0C1
:100AF200E0938005F0938105AAE7B5E0ED91FD91C1
:100B02003196FE93EE93E1E0F0E0E0937805F09306
:100B12007905A0E00699A1E00E944909A091780513
:100B2200B09179050E94C808E02131F0C698E0E052
:100B3200E0937805E0937905A0E00799A1E00E948F
:100B42004909A0918005B09181050E94C808E02161
:100B520011F40C941507E0917A05F0917B0530971A
:100B620029F40E94C1090E94C7095EC1E330A0E0D6
:100B7200FA0739F40E94CC090E94D9090E94E609B9
:100B820050C1E430A0E0FA0729F40E94CC090E9487
:100B9200D90943C1E530A0E0FA0739F40E94CC0933
:100BA2000E94EB090E94F4093CC1E630A0E0FA077A
:100BB20029F40E94CC090E94EB092BC1E730A0E086
:100BC200FA0739F40E94CC090E94F9090E94E60949
:100BD20028C1E830A0E0FA0729F40E94CC090E945B
:100BE200F9091BC1E930A0E0FA0779F40E94CC09A7
:100BF2000E94020A1C981D98E0E0F0E00E94070A99
:100C02000E94070A0E94E6090CC1EB30A0E0FA0735
:100C120029F40E940C0A0E94130A06C1EC30A0E0DB
:100C2200FA0729F40E940C0A0E942B0AFDC0ED303B
:100C3200A0E0FA0729F40E940C0A0E94430AF4C0B9
:100C4200EE30A0E0FA0739F40E940C0A0E945B0A17
:100C52000E94620AE9C0EF30A0E0FA0751F40E9454
:100C62000C0A0E94700A0E94020A1C980E94770ACB
:100C7200DBC0E031A0E0FA0741F40E940C0A0E94B6
:100C8200840A1C9A0E94770ACFC0E131A0E0FA07D9
:100C920029F40E940C0A0E94130AC6C0E231A0E0A5
:100CA200FA0729F40E940C0A0E942B0ABDC0E33104
:100CB200A0E0FA0729F40E940C0A0E94430AB4C079
:100CC200E431A0E0FA0739F40E940C0A0E945B0AA0
:100CD2000E94620AA9C0E531A0E0FA0791F40E94DD
:100CE2000C0A0E94020A1C981D9A0E94700A0E9415
:100CF2008B0AE0E0E0937A05E0937B050E94C70946
:100D020093C0E631A0E0FA0741F40E940C0A0E9467
:100D1200840A1C9A0E94770A87C0E831A0E0FA0789
:100D220049F40E94CC090E94020A1C981D98E0E036
:100D3200F0E06BC0E931A0E0FA0759F40E94CC0957
:100D42000E94020A0E94920A0E94E6090E94E60993
:100D520068C0EA31A0E0FA0749F40E94CC090E9477
:100D6200020A0E94920A0E94E60957C0EB31A0E0F3
:100D7200FA0749F40E94CC090E94020A0E94920AD0
:100D82000E94F4094EC0EC31A0E0FA0739F40E9447
:100D9200CC090E94020A0E94920A3BC0ED31A0E0F7
:100DA200FA0749F40E94CC090E94020A0E94970A9B
:100DB2000E94E60936C0EE31A0E0FA0739F40E943B
:100DC200CC090E94020A0E94970A27C0EF31A0E0D4
:100DD200FA0779F40E94CC090E94020A1C981D9815
:100DE200E1E0F0E00E94070A0E94070A0E94E60979
:100DF20018C0E032A0E0FA07B9F40E94CC090E94C0
:100E0200020A1C981D98E1E0F0E0FA93EA93E1E00F
:100E1200F0E0FA93EA93E1E0F0E0FA93EA93E1E09A
:100E2200F0E0FA93EA93A9D90895E0E0EBBBEABBBC
:100E3200E8BBEFEFE7BBE0E0E5BBEFEFE4BBE0E0F0
:100E4200E2BBEFEFE1BBE0E0E3B9EFE3E2B9E0E000
:100E5200E0936200E0936100E0936500EFE1E093CC
:100E62006400E0E0E0BFE7E0E3BFE0E0E2BFE1BF53
:100E7200EFBDEEBDEDBDECBDE7BDE6BDEBBDEABD30
:100E8200E9BDE8BDE0937900E0937800E1E0E5BDDB
:100E9200E0E0E4BDE3BDE0938B00E0938A00E093E1
:100EA2008900E0938800E0938100E0938000E09362
:100EB2008700E0938600E0938500E0938400E0934E
:100EC2008300E0938200E0936A00EABFE9BFE1E4B5
:100ED200E7BFE0E0E0937D00EAB9E0939A00E0E842
:100EE200E8B9E0E0E0BDE6B9EDB9E0937400AD9891
:100EF200AE9AAB9AAF98E7E0F0E060E070E0E09382
:100F02004805F093490560934A0570934B05EEE35B
:100F1200F0E060E070E0E0934C05F0934D056093E3
:100F22004E0570934F05A0914805B09149058091F7
:100F32004A0590914B050E94E90AE0934405F0931B
:100F42004505609346057093470544245524929ABB
:100F5200E1E0F0E04F0166247724AA24BB240E943A
:100F62002B09E0E0E0935405E0935505E093560524
:100F7200E0935705CC24DD24E0935805E09359050E
:100F8200E0935A05E0935B050E940809E0E0E093D4
:100F92005E05E0935F05E0936205E0936305E093ED
:100FA2007005E0937105E0937205E0937305E09399
:100FB2007E05E0937F05E0938205E09383050E941E
:100FC200BA09E0E0E0935205E0935305E093560539
:100FD200E09357050E947808E2E0F0E0E0936205B2
:100FE200F0936305E0E0E0938405E0938505E093E8
:100FF2006805E0936905E0936A05E0936B05E09369
:101002006C05E0936D05ECE3F0E0E0936E05F09380
:101012006F050E948B0A0E94C109E0938605E09346
:101022008705A89AA99AC59A0E949C0A0E949C0ABE
:10103200E0E0F0E00E94E6090E94E6090E94E6096B
:10104200FA93EA939AD8E0917C05F0917D05309766
:1010520011F43CDDF8CF0F9902C0189AFCCF189812
:10106200C5987894B2DCEDDCCFD80E94D8002EDD92
:10107200A0918605B09187050E94C8080E2E0E9495
:101082006C080E943A09E02191F0C4D8E091300541
:10109200F0913105309711F40E948A09E0913605EA
:1010A200F0913705309711F40E949C09E1CFDACF15
:1010B200FFCF6A937A93AA93BA93EA93FA93EFB71C
:1010C200EA9308950E94010BEF5FFF4F6F4F7F4F2E
:1010D2000E94060B0895A0917C05B0917D050895AC
:1010E200E1E0F0E0E0936405F09365050895E0E047
:1010F200E0936405E09365050895A0E0CB99A1E033
:10110200E0E00E94B60A0E2EA0916205B09163053E
:10111200E1E0F0E00E94BB0A0E22A0E00799A1E004
:10112200E1E00E94B60AE0210895C69AE2E0F0E00A
:10113200E0936205F09363050895A0E0CB99A1E0E6
:10114200E1E00E94B60A0E2EA0916205B0916305FD
:10115200E2E0F0E00E94BB0A0E22A0E00799A1E0C3
:10116200E1E00E94B60AE0210895E5E0F0E060E0E7
:1011720070E00E94C10A0E2E0895E1E00E94B60AB4
:10118200E0210895E0E00E94B60A0E2E0895E1E003
:10119200F0E00E94BB0A08951A930A9300E010E05F
:1011A2000895E0E0E0930005E0930105E093020575
:1011B200E09303050895E0E0E0936005E0936105A4
:1011C200959A0895E2E0F0E0E0931C05F0931D0586
:1011D2000895A0910005B0910105809102059091BA
:1011E20003050895E0931C05F0931D050895F1DFB2
:1011F200A531E0E0BE07E0E08E07E0E09E0708953B
:10120200E1E0F0E0E0935C05F0935D050895E0E035
:10121200E0935C05E0935D050895EAE0F0E0E2CF3B
:10122200E0930005F09301056093020570930305B6
:101232000895CFDFA333E0E0BE07E0E08E07E0E0F1
:101242009E070895A230E0E0BE07E0E08E07E0E0EE
:101252009E070895E0E0E0935005E0935105E09386
:101262005205E09353050895A1E0B0E0A083B18355
:101272000895E2E0F0E00E94BB0A0895E0E0E09306
:101282000405E0930505E0930605E093070508953C
:10129200E1E00E94B60A0E2E0895A0916405B09175
:1012A200650575CFA0910405B091050580910605ED
:1012B200909107050895E1E0F0E0E0935205F09384
:1012C20053050895A0E0B0E0A083B1830895E091B2
:1012D2008405F091850530970895E0E0E0930C05D0
:1012E200E0930D05E0930E05E0930F05E2E2F5E0D1
:1012F2000895A0910C05B0910D0580910E05909175
:101302000F050895E1E0F0E0E0936205F0936305D4
:1013120008950E945101E0933005F093310508953C
:10132200A0E0B0E00E94BB0A0E2ED5CEE0E0F0E0D5
:101332000E94BB0A08950E94E003E0933605F093F1
:1013420037050895A0913005B091310520CFA1E075
:10135200B0E00E94BB0A0E22A0917E05B0917F05EB
:10136200E5CFE0E0E0933005E0933105E2E3F5E01C
:10137200A9CFE1E0F0E0E0935005F0935105089524
:10138200E0E0E0937C05E0937D050895E09380051D
:10139200E09381050895E3E0F0E0E0937C05F093AB
:1013A2007D05E0E0E0937A05E0937B05EFDFE1CF96
:1013B200189819981A981B981C981D98E0E0F0E06C
:1013C200FA93EA93FA93EA930895FA93EA93E0E0A0
:1013D200F0E00895189819981A981B981C981D986F
:1013E200E0E0F0E0F2CFFA93EA93E1E0F0E0EDCF53
:1013F200189819981A981B981C981D98E0E0F0E02C
:10140200F2CF189819981A981B980895FA93EA93AC
:10141200E1E0F0E00895E2E0F0E0E0937C05F09393
:101422007D050895E2E3F0E0E0937205F093730521
:101432001898199A1A981B981C981D98E8E0F0E0E1
:10144200E0937405F0937505E0E0E0937A05E0938C
:101452007B059CCFE7E3F0E0E0937205F093730520
:10146200189819981A9A1B981C981D98E8E0F0E0B1
:10147200E0937405F0937505E0E0E0937A05E0935C
:101482007B0584CFECE3F0E0E0937205F093730503
:10149200189819981A981B9A1C981D98E8E0F0E081
:1014A200E0937405F0937505E0E0E0937A05E0932C
:1014B2007B056CCFE1E4F0E0E0937205F0937305F5
:1014C200A0CF1C9A1D98E8E0F0E0E0937405F09339
:1014D2007505E0E0E0937A05E0937B0557CFE6E4FB
:1014E200F0E0E0937205F093730508951D9AE8E029
:1014F200F0E0E0937405F0937505E0E0E0937A057F
:10150200E0937B0543CFEBE4F0E0E0937205F093C8
:10151200730577CFE8E0F0E0E0937405F09375058A
:1015220008951C981D98E1E0F0E04FCF1C981D989B
:10153200E1E0F0E058CFE8EEF3E0FA93EA930C949E
:10154200A20AE991F991309639F080EA9FE0019779
:10155200F1F7A8953197C9F70895F09560957095C0
:10156200E195FF4F6F4F7F4F0895EA17E1E009F0D1
:10157200EE270895EA17FB07E1E009F0EE27089548
:10158200EA17FB0768077907E1E00CF0EE270895F8
:101592007A9F702D6B9F700DF89F700DE99F700DF3
:1015A2006A9F602D710DFB9F600D711DE89F600D9C
:1015B200711D8827FA9FF02D610D781FEB9FF00DAA
:1015C200611D781FEA9FE02DF10D681F781F0895B5
:1015D20004D0DEDF0EF4C1DF0895E89477FF02C085
:1015E200BCDF689497FF0BC00024A095B09580954E
:1015F20090951196801D901D00F8039400FA0895AD
:10160200ED91FD916D917D9108957E936E93FE9380
:10161200EE93089500240A160B060806090608959B
:00000001FF
