:080000000C943B020C9400007B
:100008000C9400000C9400000C9400000C94000068
:100018000C9400000C9400000C9400000C94000058
:100028000C9400000C9400000C9400000C94000048
:100038000C9400000C9400000C944C030C940000E9
:100048000C9400000C9400000C9400000C94000028
:100058000C9400000C9400000C9400000C94000018
:100068000C9400000C9400000C9400000C94000008
:100078000C9400000C9400000C9400000C940000F8
:100088000C9400001027E80364000A000100001027
:100098000001100001000000000000000000000046
:1000A8000000000000000000000000000000000048
:1000B8000000000000000000000000000000000038
:1000C80000000000000000000000000000002020E8
:1000D8002020202020202020202020202020202018
:1000E8002020202020202020202020202020202008
:1000F80020202020202000496E69636A616C697A9B
:10010800756A65206D61737A796E65005779637ACF
:1001180079737A637A6F6E6F206D61737A796E6521
:10012800004D61737A796E61207A61696E69636ADC
:10013800616C697A6F77616E6100437A656B616D96
:10014800206E612070726574206777696E746F77AE
:10015800616E79005072616361005A616B72656308
:10016800696C656D2077737A7973746B6965207A29
:100178006164616E652070756368617279004272AE
:10018800616B2077796D6167616E65676F20636960
:10019800736E69656E696120362062617200446F12
:1001A8007A6F776E696B206B6C656A752070726503
:1001B800746F77206E696520676F746F7779004474
:1001C8006F7A6F776E696B206B6C656A75206E61EC
:1001D8006B726574656B206E696520676F746F77E5
:1001E800790057796C61637A206D61737A796E65ED
:1001F800206920706F637A656B616A2031206D69B0
:100208006E757465004F64736C6F6E2069207A7226
:1002180065736574756A206B757274796E65004DC7
:100228006F6E7465722033206E6965206E61636934
:10023800736E616C20706564616C6100437A656BF4
:10024800616D206E612072756368206C616E6375E4
:1002580063686100506F70726177207072657420F6
:100268007A2067727A79626B69656D2069206E61A0
:100278006369736E696A2067757A696B005573756F
:100288006E2070726574207A6520737A637A656B64
:100298002069206E616369736E696A2067757A697F
:1002A8006B0057796D69656E206C7562206E616BA5
:1002B8007265632F646F6B7265632067727A796207
:1002C800656B2069206E616369736E696A20677562
:1002D8007A696B004D6F6E7465722033202D207A19
:1002E80064656D6F6E74756A2070756368617220DD
:1002F8006920706F7477696572647A004D6F6E74E7
:1003080065722033202D2077797A776F6C2072659B
:10031800637A6E696520637A756A6E696B20707599
:10032800636861726100534C415645206E696520CF
:10033800706F7477696572647A696C20706F646134
:100348006E6961206E616B7265746B6900534C4114
:100358005645206E696520706F7477696572647A96
:10036800696C207A657A776F6C656E6961206E6159
:1003780020737A637A656B690057657A20707265B5
:100388007461207A2067727A656269656E6920698E
:10039800206E616369736E696A2067757A696B207C
:1003A8006269616C79004E69652077796B7279743E
:1003B8006F207769657A79637A6B69207A69656CE9
:1003C8006F6E656A202D207A7265736574756A0090
:1003D8004E69652077796B7279746F207769657AD1
:1003E80079637A6B6920637A6572776F6E656A20C4
:1003F8002D207A7265736574756A00506F64616A3E
:1004080020696C6F7363207075636861726F772001
:1004180069206E616369736E696A207374617274AE
:1004280000202020202020202020202020202020E4
:1004380020202020202020202020202020202020B4
:1004480020202020202020202020202020202020A4
:1004580020202000302564003A0001002D4E414E36
:1004680000494E4600000100070662040000F894A7
:10047800EE27ECBBF1E0F5BFE5BFE0936C00F8E1D7
:10048800F1BDE1BD8DE0A2E0BB27ED938A95E9F7C8
:1004980080E090E1A0E0B1E0ED930197E9F7EEE6A6
:1004A800F4E085919591009761F0A591B59105903B
:1004B8001590BF01F00105900D920197E1F7FB013E
:1004C800F0CF8BBFEFEFEDBFE0E1EEBFC0E0D5E0CE
:1004D8000C94A61B0E946E1E25C00E946E1EE695F7
:1004E80021C00E946E1EE695E6951CC00E946E1EF5
:1004F800E695E695E69516C00E946E1EE29512C036
:100508000E946E1EE295EF70E6950CC00E946E1E6A
:10051800E295EF70E695E69505C00E946E1EEE1F07
:10052800E0E0EE1FE170239608950E947D1E0E9470
:10053800821E0E948A1EEC81EA930E94EE1CEA81C8
:100548000E94921E0E2F1127F80119810881269604
:1005580008950E940F270FEF1FEF20E030E0EE8193
:10056800FF812E173F0704F5F901A885B985AE0F5D
:10057800BF1FEC91F0E00E271F2740E050E0483005
:10058800E0E05E0774F400FF07C016950795E1E008
:10059800F0EA0E271F2702C0169507954F5F5F4F99
:1005A800EECF2F5F3F4FDBCFF8010E9416272A9628
:1005B8000895E0919B00E072E1F3E881E0939C00EC
:1005C800219608950E9411270E94AB1E0E94AB1E1F
:1005D800C0DF8F01E0919B00E064E0939B0020E086
:1005E80030E0EC81FD812E173F075CF4F901AE8104
:1005F800BF81AE0FBF1FEC91EA93DBDF2F5F3F4F48
:10060800F0CF0A93D6DFE12FEA93D3DFE0919B0086
:10061800E074E1F30E941827289608952B97E1E0EB
:10062800E883E0E1E983E889EA83EF85EB83E0E0AA
:10063800EC83E2E0ED83E4E0EE83AB85BC858D8559
:100648009E85E8E00E942026EF83EB85E887E8E1B5
:100658000E942026E987EB85FC856D857E850E94B2
:100668002C26EA87FE01FA93EA93EBE0F0E0FA938E
:10067800EA93A8DF619608950E94B01E0E94B61EF4
:100688000E94BC1EE0E0E093CD05E093CE050895FE
:100698006A937A93AA93BA93EA93FA93EFB7EA9391
:1006A800AAE3B5E00E94C21EAEE3B5E00E94C21EF6
:1006B800A2E4B5E00E94C21EA6E4B5E00E94C21EF4
:1006C800AAE4B5E00E94C21EAEE4B5E00E94C21ED4
:1006D800A7ECB5E00E94CB1EA091C705B091C80554
:1006E800DC97D1F40E94B01EA9ECB5E00E94CB1EA5
:1006F8000E94D11EDC9781F40E94B61EABECB5E0D7
:100708000E94CB1E0E94D61EDC9731F40E94BC1EAC
:10071800ADECB5E00E94CB1EE991EFBFF991E991EC
:10072800B991A9917991699118950E94DB1EE130E0
:1007380019F4DC9A0E94E61E0E94DB1EE03081F468
:10074800A0914E05B0914F058091500590915105AB
:10075800A538ECE1BE07E0E08E07E0E09E070CF468
:1007680003C0DC980E94E61E08950E947D1E0E9428
:10077800DB1EE13011F4DC9AFACF0E94F01E04313E
:10078800E0E01E077CF40E94DB1EE13041F40E9489
:10079800DB1EE13011F4DC9AFACF0E94F01E0F5FE5
:1007A8001F4FEDCFE4E1F0E0E0939305F09394055B
:1007B8000991199108950E94821E0E94F81E0E94B4
:1007C800041FE0E02BC0E0E0E09392050E94821E47
:1007D8000E948A1E0E940C1FE0E30E94921EE09372
:1007E8009205F0E008950E94821E0E94F81E0E9461
:1007F800101FE1E013C00E94151F88DEE03011F4DD
:10080800DF9801C0DF9A0895A5E9B5E00E94CB1EE4
:100818000E941F1F0E94821E0E94251FEA930E94A9
:10082800EE1C08950E94821E0E94331F0E943C1FE6
:100838000E94401FE7E10E94491F0E943C1FEFEF02
:10084800F0E0B0C00E94821EEBE10E94491F0E94A6
:100858003C1FE9E2F1E0A6C00E94821EECE10E9482
:10086800491F0E943C1FE2E4F1E09CC00E94821EE6
:100878000E94331F0E943C1F0E94401FE8E00E9414
:10088800491F0E943C1FECE5F1E08CC00E94821ECB
:10089800EBE10E94491F0E943C1FE6EEF0E00E9437
:1008A800511F0E94821EE6E20E94491F0E943C1FBF
:1008B800E2E6F1E077C00E94821EE2E20E94491F50
:1008C8000E943C1FE6E8F1E06DC00E94821EE5E24E
:1008D8000E94491F0E943C1FEAEEF1E063C00E949B
:1008E800821EECE10E94491F0E943C1FEDE0F2E0ED
:1008F80059C00E94821EEFE10E94491F0E943C1FBE
:10090800E7E2F2E04FC00E94821EEAE10E94491F1E
:100918000E943C1FE4E4F2E045C00E94821EEBE224
:100928000E94491F0E943C1FECE5F2E03BC00E9478
:10093800821EE7E20E94491F0E943C1FE5E8F2E0A0
:1009480031C00E94821EE4E30E94491F0E943C1F9E
:10095800EAEAF2E027C00E94821EEEE20E94491FE6
:100968000E943C1FEEEAF3E01DC00E94821EEEE2E8
:100978000E94491F0E943C1FE8EDF3E013C00E944B
:10098800821EE8E20E94491F0E943C1FE3E0F4E057
:1009980009C00E94821EE5E30E94491F0E943C1F75
:1009A800E9E2F4E0FA93EA9380E00E94321E22968C
:1009B80008950E94581F0E948A1E0E945F1FE0E847
:1009C8000E94921E0E2F11270E94631F21F420E01F
:1009D80030E0DD9803C021E030E0D898F8010E94AB
:1009E8001827249608950E94821E0E948A1E0E943B
:1009F8000C1FE0E40E94921E0E94681F11F40E94DE
:100A0800731F08950E940F2740E050E0E0E0E09354
:100A1800920510E0AE81BF811197F1F50E94821E08
:100A28000E948A1E0E940C1FE0E40E94921E0E94EF
:100A3800681F11F40E94731F0E94821E0E948A1E62
:100A48000E947A1FE0E10E94921E0E947E1F39F4E4
:100A5800E1E0F0E0E0939D05F0939E0505C0E0E03D
:100A6800E0939D05E0939E050E94821E0E948A1EC7
:100A78000E947A1FE0E20E94921E0E947E1F39F4B3
:100A8800E1E0F0E0E0939B05F0939C0505C0E0E011
:100A9800E0939B05E0939C050E94821E0E948A1E9B
:100AA8000E940C1FE0E50E94921EF0E0E0933205E0
:100AB800F09333050E94831F1E2EAE81BF810E94D2
:100AC8008A1F0E94901FE4E0F0E00E945826E0216F
:100AD800E12971F10E94821E0E948A1E0E940C1F49
:100AE800E0E60E94921E0E947E1F39F4E1E0F0E0E9
:100AF800E093C105F093C20505C0E0E0E093C105AD
:100B0800E093C205E0917605F0917705609178054C
:100B180070917905A7E0B0E080E090E00E949B2604
:100B2800E0936205F093630560936405709365052F
:100B3800E091A305F091A405309771F4E1E0F0E0AD
:100B4800E093A305F093A405E0916205F091630595
:100B5800E093A505F093A6050E94951FA091A50511
:100B6800B091A6050E9436260E940A2729F0E0E0E7
:100B7800E093A305E093A405D6010E948A1F0E9472
:100B8800831FE02161F10E94821E0E948A1E0E943A
:100B98000C1F0E949E1F0E94A21F0E94A61F0E9457
:100BA800A61F0E94EA1C0E94EA1C4E2F55270E948D
:100BB800EA1CF0E00E94AC1F0024041605066CF441
:100BC800FA01AFEFB0E00E9496260E94901FEA0F4C
:100BD800FB1FE40FF51F0E94AC1F0E94B11FAE81DE
:100BE800BF811197C1F40E94821E0E948A1E0E9432
:100BF800BA1FE0E30E94921E0E947E1F39F4E1E0D2
:100C0800F0E0E093D505F093D60505C0E0E0E09369
:100C1800D505E093D6050E94821E0E948A1E0E9476
:100C2800BA1FE0E40E94921EF0E0E093D705F0932B
:100C3800D8050E94821E0E948A1E0E94BA1FE0E503
:100C48000E94921EF0E0E093DB05F093DC050E9421
:100C5800821E0E948A1E0E94BA1FE0E60E94921E0F
:100C68000E94BE1FE091D505F091D605309711F08E
:100C78000C94B4060E94C41FED37A0E0FA0719F4DB
:100C8800E3E0F0E068C0E837A0E0FA0719F4E4E030
:100C9800F0E061C0E337A0E0FA0719F4E5E0F0E01E
:100CA8005AC0EE36A0E0FA0719F4E6E0F0E053C0C7
:100CB800E936A0E0FA0719F4E7E0F0E04CC0E436C2
:100CC800A0E0FA0719F4E8E0F0E045C0EF35A0E04D
:100CD800FA0719F4E9E0F0E03EC0EA35A0E0FA07C7
:100CE80019F4E8E1F0E037C0E535A0E0FA0719F4B7
:100CF800E9E1F0E030C0E035A0E0FA0719F4EAE1F4
:100D0800F0E029C0EB34A0E0FA0719F4EBE1F0E0D9
:100D180022C0E634A0E0FA0719F4ECE1F0E01BC0C9
:100D2800E134A0E0FA0719F4EDE1F0E014C0EC3387
:100D3800A0E0FA0719F4EEE1F0E00DC0E733A0E017
:100D4800FA0719F4EFE1F0E006C0E233A0E0FA0791
:100D580031F4E0E2F0E0E093D905F093DA0590C0D1
:100D68000E94C91FE2E3F0E00E944026E02121F042
:100D7800E1E1F0E00E94D71F0E94C91FE7E3F0E01D
:100D88000E944026E02121F0E2E1F0E00E94D71F16
:100D98000E94C91FECE3F0E00E944026E02121F008
:100DA800E3E1F0E00E94D71F0E94C91FE1E4F0E0F0
:100DB8000E944026E02121F0E4E1F0E00E94D71FE4
:100DC8000E94C91FE6E4F0E00E944026E02121F0DD
:100DD800E5E1F0E00E94D71F0E94C91FEBE4F0E0B4
:100DE8000E944026E02121F0E6E1F0E00E94D71FB2
:100DF8000E94DC1FE2E3F0E00E944026E02121F09F
:100E0800EBE0F0E00E94D71F0E94DC1FE7E3F0E070
:100E18000E944026E02121F0ECE0F0E00E94D71F7C
:100E28000E94DC1FECE3F0E00E944026E02121F064
:100E3800EDE0F0E00E94D71F0E94DC1FE1E4F0E043
:100E48000E944026E02121F0EEE0F0E00E94D71F4A
:100E58000E94DC1FE6E4F0E00E944026E02121F039
:100E6800EFE0F0E00E94D71F0E94DC1FEBE4F0E007
:100E78000E944026E02121F0E0E1F0E00E94D71F27
:100E88000E9416275AC20E94821E0E94F81E0E94C3
:100E9800EA1FE09138050E94EF1F0E94F81E0E9489
:100EA8005F1F0E940C1FE09132050E94EF1F0E94F5
:100EB800F81E0E94101F0E94A21F0E94821E0E94FC
:100EC800F81E0E949E1F0E940C1FE5E00E94EF1F63
:100ED8000E94F31F0E947A1F0E940C1F0E94A21FEB
:100EE8000E94821E0E94F31F0E94BA1F0E940C1FBC
:100EF8000E94A21F0E94821E0E94F31F0E94FC1FD4
:100F08000E94A21F0E94821E0E9401200E94041FAC
:100F18000E94A21F0E94821E0E9401200E94EA1FB6
:100F2800E2E00E94EF1F0E9401200E945F1F0E94C2
:100F38000C1FE2E30E94EF1F0E9401200E94101F75
:100F4800EDE70E94EF1F0E940A200E945F1F0E9487
:100F5800FC1F0E940C1F0E94821E0E940A200E94F1
:100F6800101F0E940C1FE6E90E94EF1F0E940A2032
:100F78000E9412200E947A1F0E940C1FEBE90E9417
:100F8800EF1F0E940A200E9412200E94BA1F0E948E
:100F98000C1FEAEFEA930E94EE1C08950E941127A5
:100FA8000E9416205CF00E941C200E94B3268F012C
:100FB8000E941C200E94B8269F0102C00E94212086
:100FC8000E94821E0E94F81EE0E80E9426200E94CD
:100FD80016201CF00E942C2006C0AF81AA2312F014
:100FE800EE8101C0E0E0EA930E94EE1C0E943120ED
:100FF8005CF00E9437200E94B3268F010E943720A0
:101008000E94B8269F0102C00E9421200E94821ED1
:101018000E94F31FE0E40E9426200E9431201CF069
:101028000E942C2001C0EC81EA930E94EE1C83C12F
:101038000E94821E0E943C200E947A1F0E94D11E9C
:101048001A971CF4ECE5F4E002C0EDE5F4E0FA933D
:10105800EA930E9445200E9452200E94D61E1A97A9
:101068001CF4ECE5F4E002C0EDE5F4E0FA93EA9351
:101078000E9455200E945220A091CD05B091CE0526
:101088001A971CF4ECE5F4E002C0EDE5F4E0FA93FD
:10109800EA930E94622008950E94821E0E943C20CA
:1010A8000E940C1F0E94D11E1A971CF4ECE5F4E074
:1010B80002C0EDE5F4E0FA93EA930E9445200E940D
:1010C80052200E94D61E1A971CF4ECE5F4E002C0E8
:1010D800EDE5F4E0FA93EA930E9455200E9452202D
:1010E800A091CD05B091CE051A971CF4ECE5F4E07B
:1010F80002C0EDE5F4E0FA93EA930E9462200895B5
:101108000E94821EEBE0EA930E94EE1CE2E8EA935A
:101118000E94EE1C0E947A1F0E943C1FE091C905A4
:10112800F091CA050E946F20EA0FFB1FE093CF05DC
:10113800F093D0050E946F20DD976CF0E091CF0509
:10114800F091D005FC97E093CF05F093D005A1ED81
:10115800B5E00E94CB1EE091CB05F091CC050E9432
:101168007420EA0FFB1FE093D105F093D2050E948B
:101178007420DD976CF0E091D105F091D205FC97D1
:10118800E093D105F093D205A3EDB5E00E94CB1E04
:10119800E091CD05F091CE050E947920EA0FFB1F62
:1011A800E093D305F093D4050E947920DD9774F07D
:1011B800E091D305F091D405FC97E093D305F09323
:1011C800D405E0E0E093D305E093D4050E946F20B6
:1011D8001A971CF4ECE5F4E002C0EDE5F4E0FA93AC
:1011E800EA93E091CF05F091D0050E947E200E94FD
:1011F80052200E9474201A971CF4ECE5F4E002C017
:10120800EDE5F4E0FA93EA93E091D105F091D20587
:101218000E947E200E9452200E9479201A971CF476
:10122800ECE5F4E002C0EDE5F4E0FA93EA93E0912E
:10123800D305F091D4050E947E2008950E941127BD
:101248000E94821E0E94F81E0E947A1F0E940C1F94
:10125800EE850E94EF1F0E94F81E0E94BA1F0E948E
:101268000C1FEC850E94EF1F0E94F31F0E94041FB1
:10127800EA850E94EF1F0E94F31F0E945F1F0E94D1
:101288000C1FE885EA930E94EE1C0E9416205CF071
:101298000E941C200E94B3268F010E941C200E94DD
:1012A800B8269F0102C00E9421200E94182760963C
:1012B80008950E9411270E94821E0E94F31F0E9417
:1012C80012200A930E94EE1C0E9416201CF00E9415
:1012D8002C2006C0AF81AA2312F0EE8101C0E0E005
:1012E800EA930E94EE1C0E9431205CF00E94372095
:1012F8000E94B3268F010E9437200E94B8269F01C2
:1013080002C00E9421200E94821E0E94F31F0E9498
:101318009E1F0A930E94EE1C0E9431201CF00E941E
:101328002C2006C0AD81AA2312F0EC8101C0E0E0B8
:10133800EA930E94EE1C0E941827289608950895A3
:101348000E947D1E0E948720E8D8E03011F00C949E
:10135800AB0A0E949120B9F5E091E705F091E80504
:10136800309781F516DB0E94821E0E948A1E0E9419
:1013780097200E2F1127002E012A31F4E0E0E09388
:10138800E905E093EA0506C0E1E0F0E0E093E9054D
:10139800F093EA050E949D20309721F4E091000522
:1013A800E77F03C0E0910005E860E09300050E9434
:1013B800A2200E94A7201D9A0E94AD200E94B3205F
:1013C8000E94B920C3C0E130A0E0FA0731F41D98AB
:1013D8000E94B3200E94C020B9C0E230A0E0FA0702
:1013E80079F41E9A0E94872091D8E03039F4D1DA36
:1013F8000E94C7200E94CD201E9801C084DAA6C092
:10140800E330A0E0FA0711F00C94660A0E949D20D0
:10141800E093E105F093E2050E949D20309799F44E
:101428000E94D42057D8E03021F40E94DE200E9488
:10143800E7200E94D42055D8E03021F40E94EE2005
:101448000E94F72016C0E130A0E0FA0791F40E944C
:10145800D42040D8E03021F40E94DE200E94F720FA
:101468000E94D4203ED8E03021F40E94EE200E9451
:10147800E7200E9487204AD8E13019F58ADAA0913E
:101488009F05B091A005129721F4E3E0F0E00E94D7
:10149800FE200E940321309721F4E2E0F0E00E9450
:1014A800FE200E940821E091EB05F091EC053097B1
:1014B80009F451DAE091ED05F091EE05309709F461
:1014C80054DA44C0E430A0E0FA0711F00C94AA0AF8
:1014D8000E940F21129759F50E94142111F40E94BD
:1014E8001A210E94B3200E94B3200E94142111F4F3
:1014F8000E9420210E94B3200E94B3200E94142140
:1015080011F40E9426210E94B3200E94B3200E9459
:10151800AD200E94142111F40E942C210E94B320B6
:101528000E94B3200E94B3200E94C0200FC0E1E0B7
:10153800F0E00E94FE20E0E0E093EB05E093EC058C
:10154800E093ED05E093EE050E94322114C0E130EE
:1015580091F4C5D91D981E980E94C7200E94382171
:101568000E9432210E943E2111F40E9444210E94CF
:101578004D210E9473210E94032109911991089518
:101588000E94581F0E948A1E0E9497200E2F112722
:10159800002E012A19F420E030E002C021E030E0FA
:1015A800F9010E941827249608950E9411270E9485
:1015B8002120DE9A0E947921EC81FD810E171F07F8
:1015C8000CF50E9487200E947102E13019F4DB9A21
:1015D80021E030E00E9487200E9471020E947F2152
:1015E800D9010E948421E02119F0DB9822E030E043
:1015F800E2E0F0E0E217F30721F40F5F1F4F23E06A
:1016080030E0DACF0E947921DE980E9418272696CA
:1016180008950E94C41FE093DF05F093E0050E943F
:10162800821E0E948A1E0E94BA1FE0E60E94921E35
:101638000E94BE1F0E94C41FA091DF05B091E00563
:10164800EA17FB0711F40C94A00B0E94C41FED3796
:10165800A0E0FA0719F4E3E0F0E068C0E837A0E09A
:10166800FA0719F4E4E0F0E061C0E337A0E0FA0714
:1016780019F4E5E0F0E05AC0EE36A0E0FA0719F4F4
:10168800E6E0F0E053C0E936A0E0FA0719F4E7E035
:10169800F0E04CC0E436A0E0FA0719F4E8E0F0E026
:1016A80045C0EF35A0E0FA0719F4E9E0F0E03EC0E4
:1016B800EA35A0E0FA0719F4E8E1F0E037C0E535CB
:1016C800A0E0FA0719F4E9E1F0E030C0E035A0E065
:1016D800FA0719F4EAE1F0E029C0EB34A0E0FA07D0
:1016E80019F4EBE1F0E022C0E634A0E0FA0719F4BF
:1016F800ECE1F0E01BC0E134A0E0FA0719F4EDE1F9
:10170800F0E014C0EC33A0E0FA0719F4EEE1F0E0E1
:101718000DC0E733A0E0FA0719F4EFE1F0E006C0E6
:10172800E233A0E0FA0731F4E0E2F0E0E093D90513
:10173800F093DA050E94892108952C97E0E0E88368
:10174800E9830E940F270E9492210E9497210E94FC
:101758009D2101E010E00E943221E0E0E88BE98B56
:101768000E94A2211CF00E94322102C00E94A721DF
:10177800D8010E9484210E94AE210E94BF210E94AC
:10178800C5210E94BF210E9484210E94BF210E947E
:10179800CA210E94BF210E94CF210E94BF21E4E0FC
:1017A800F0E00E944026E02911F40C94DB0DD801EA
:1017B8000E9484210E94AE21E02911F40C949E0C11
:1017C800F801E130A0E0FA07B9F4DA010E948421B7
:1017D8000E94D4210E22D601E8E0F0E00E945226B1
:1017E800E02949F00E94A2210CF4C59A02E010E019
:1017F800E0E00E949D219EC0E230A0E0FA07D1F50A
:101808000E94151F0E9484020E947F21D601E8E0F1
:10181800F0E00E945226E021EF930E94151F0E94DB
:101828008402A1E00E943B260E94D421E021AF91CE
:10183800EA2B11F0C5981BC00E94DB21EF930E9490
:10184800151F0E949102A1E00E943B26AF91EA2356
:1018580011F00E94E6210E94DB21EF930E94151FE0
:101868000E94F421AF91EA2321F00E94FA2103E0BB
:1018780010E060C0E330A0E0FA0779F5A091AF0569
:10188800B091B005119769F40E94012219F4D89A11
:10189800DD9802C0DD9AD898E0E0E093AF05E093C8
:1018A800B0050E94151F0E9480020E940A22A09182
:1018B800AF05B091B0050E94C521E02169F0AE8165
:1018C800BF81119719F4D89ADD9802C0DD9AD8988B
:1018D8000E940F220E9416222DC0E430A0E0FA07D1
:1018E80049F50E9487200E947502E03011F40E9499
:1018F80026220E94151F0E948002E03041F40E94B7
:101908002D22C698C298E1E0F0E0E88BF98BA8890F
:10191800B9890E9484210E9437220E944122E02135
:1019280049F0D898DD980E942D22E0E0E88BE98BF9
:1019380005E010E00E9487200E949102E03011F03B
:101948000C94C70D0E94912011F00C94F20C0E9487
:1019580087200E94F421EF930E9487200E9448224A
:10196800AF91EA2331F0A091EF05B091F0051097FF
:1019780009F021C005DEE093F105F093F2053097F8
:1019880021F4E0910005E77F03C0E0910005E860DD
:10199800E09300050E94A2203CDE0E94A7200E943E
:1019A800CD040E94AD201D9A0E9497210E944E22CC
:1019B8000E94B92012C00E9487200E947A020E94C9
:1019C8000A22D9010E94C521E02131F0A0E8B5E042
:1019D8000E94CB1E21E030E0D5C0D4C0E130A0E0A9
:1019E800FA07A1F40E9487200E9491020E947F2199
:1019F8000E94572249F00E945F222CF01D980E94F5
:101A0800C0200E946F2201C0BDC0BCC0E230A0E06F
:101A1800FA0701F50E9487200E949102E030B9F48C
:101A28000E945F229CF01E9A0E9487200E948A02D0
:101A3800E03051F40E9477220E947E22E0E0EC8799
:101A4800ED87EE87EF8702C00E94870402C0C19825
:101A580099C098C0E330A0E0FA0711F00C94970DF4
:101A6800E091F105F091F2053097A9F40E94D42095
:101A78000E946E02E03021F40E9482220E948B2292
:101A88000E94D4200E947502E03021F40E948F2227
:101A98000E94982218C0E130A0E0FA07A1F40E9441
:101AA800D4200E946E02E03021F40E9482220E941B
:101AB80098220E94D4200E947502E03021F40E94EE
:101AC8008F220E948B220E9487200E948A02E13086
:101AD80031F40E94D4200E948402E03009F022C030
:101AE8000E94CD041E98A091F505B091F6051197B6
:101AF80031F4A091F305B091F405119709F002C0F3
:101B08000E940821E091F305F091F405309711F453
:101B18000E94AF04E091F505F091F605309711F4B5
:101B28000E94B9042FC0E430A0E0FA0759F50E94DA
:101B3800A721E0E0E093F505E093F605E093F305CF
:101B4800E093F405E091F705F091F805FA93EA932C
:101B5800E091F905F091FA05FA93EA93AADBE0E03F
:101B6800E093F705E093F805E093F905E093FA05AB
:101B78000E949C22E02109F0DA9A0E94A722E02123
:101B880009F0DA9A11C0E13079F40E94B2221E9865
:101B9800DA980E9432210E9497210E944E220E94C8
:101BA8003E2111F40E9444210E94B822E1CD0E94F6
:101BB800162762960895609780E1A0E0B0E0EEE90C
:101BC800F0E00E941D270E940F270E94212040E07C
:101BD80050E00E9492210E9497210E949D2101E0DD
:101BE80010E00E943221E0E0EC8BED8B0E94A221F4
:101BF8001CF00E94322102C00E94A7210E94631F8C
:101C080021F1E2E0F0E0E017F107F9F0E3E0F0E0BD
:101C1800E017F107D1F0E4E0F0E0E017F107A9F0F0
:101C28000E94D122109789F00E94D122119769F061
:101C38000E94D122129749F00E94D122139729F0CD
:101C48000E94D122149709F0F9C10E94631F81F004
:101C5800E2E0F0E0E017F10759F0E3E0F0E0E01728
:101C6800F10731F0E4E0F0E0E017F10709F092C085
:101C7800F801E130A0E0FA0799F40E94D62219F49D
:101C88000E94A2211CF40E94A2214CF40E94A221CD
:101C98000CF4C59A02E010E0E0E00E949D217AC0B1
:101CA800E230A0E0FA0781F50E94151F0E94840225
:101CB800E03019F40E94A22154F00E94151F0E94DE
:101CC8008402E13019F40E94A2210CF402C0C598E4
:101CD80018C00E94DB2234F00E94151F0E94910256
:101CE800E13009F002C00E94E6210E94DB2234F0B4
:101CF8000E94151F0E949102E03009F004C00E9462
:101D0800FA2103E010E046C0E330A0E0FA0759F4F6
:101D18000E94012219F4D89ADD9802C0DD9AD89859
:101D28000E94162237C0E430A0E0FA0799F50E9415
:101D380087200E947502E03011F40E9426220E943A
:101D4800151F0E948002E03041F40E942D22C6989F
:101D5800C298E1E0F0E0EC8BFD8BAC89BD890E9474
:101D680084210E943722EAE0F0E060E070E00E94FF
:101D78006626E02179F0D898DD98E1E0F0E0E0937C
:101D8800E305F093E4050E942D22E0E0EC8BED8B57
:101D980005E010E00E9487200E949102E03011F0D7
:101DA8000C940C100E94912011F00C943E0F0E948C
:101DB80087200E94F421EF930E9487200E944822E6
:101DC800AF91EA2331F0A091FB05B091FC05109783
:101DD80009F03DC00E94E7220E94EC22EA8BFB8BAF
:101DE800ACE9BFEF0E949626E88BF98BE7E0EA930F
:101DF800E6E0EA93EA89FB890E94F222C1DBE093DC
:101E0800FD05F093FE050E94F822309721F4E09139
:101E18000005E77F03C0E0910005E860E093000556
:101E28000E94A2200E94F822E093E105F093E205C7
:101E3800F0DB0E94A7200E94CD040E94AD201D9ACD
:101E48000E9497210E944E220E94B92012C00E942F
:101E580087200E947A020E940A22D9010E94C52185
:101E6800E02131F0A0E8B5E00E94CB1E21E030E08F
:101E7800CEC0CDC0E130A0E0FA07A1F40E948720CF
:101E88000E9491020E947F210E94572249F00E94DD
:101E98005F222CF01D980E94C0200E946F2201C072
:101EA800B6C0B5C0E230A0E0FA0701F50E9487206D
:101EB8000E949102E030B9F40E945F229CF01E9AC1
:101EC8000E9487200E948A02E03051F40E94772203
:101ED8000E947E22E0E0EC87ED87EE87EF8702C064
:101EE8000E94870402C0C19892C091C0E330A0E06C
:101EF800FA0711F00C94DC0FA0914A05B0914B053C
:101F080080914C0590914D050E94FD2214F0C698D1
:101F1800C2980E94F8223097A9F40E94D4200E9407
:101F28006E02E03021F40E9405230E948B220E9459
:101F3800D4200E947502E03021F40E940E230E94F2
:101F4800982218C0E130A0E0FA07A1F40E94D4203A
:101F58000E946E02E03021F40E9405230E9498221C
:101F68000E94D4200E947502E03021F40E940E23C2
:101F78000E948B220E9487200E948A02E130B9F4D5
:101F88000E94D4200E948402E03019F40E94172392
:101F98000CF008C00E94CD04E0E00E944E221E987A
:101FA8000E9408210E94172314F00E9408212FC0C4
:101FB800E430A0E0FA0759F50E94A721E0E0E09399
:101FC8000106E0930206E093FF05E0930006E09126
:101FD8000306F0910406FA93EA93E0910506F0915E
:101FE8000606FA93EA9365D9E0E0E0930306E093E6
:101FF8000406E0930506E09306060E949C22E02171
:1020080009F0DA9A0E94A722E02109F0DA9A11C0B1
:10201800E13079F40E94B2221E98DA980E943221A7
:102028000E9497210E944E220E943E2111F40E9494
:1020380044210E94B8220E949903E0CD0E941627ED
:1020480066960895A89788E2A0E0B0E0EEEAF0E08E
:102058000E941D270E940F270E94212040E050E087
:10206800E0910005E061E09300050E94A2200E9433
:10207800821E0E948A1E0E941C23E0E30E94921E78
:102088004E2F55270E94D62211F4D99A01C0D9980B
:102098000E94821E0E948A1E0E941C23E0E40E9465
:1020A800921EF0E0ECA7FDA7ACA5BDA5119711F411
:1020B800C59A01C0C5980E94821E0E948A1E0E946D
:1020C8001C23E0E50E94921EF0E0EAA7FBA7AAA560
:1020D800BBA5119711F4C09A01C0C098022E032A1B
:1020E800D1F40E94821E0E948A1E0E945F1FE0E8AF
:1020F8000E94921EF0E0EA8BFB8BAA89BB8911979C
:1021080029F4E0E0E88BE98BDD9805C0E1E0F0E038
:10211800E88BF98BD8980E94821E0E948A1E0E9422
:102128001C23E0E60E94921E2E2F3327E1E0F0E008
:10213800E217F30769F4AA89BB89119711F4D89AB1
:10214800DD98A889B989119711F4D898DD9A02C049
:10215800D898DD980E94821E0E948A1E0E941C2325
:10216800E0E90E94921EF0E0EAA3FBA3AAA1BBA1AA
:10217800119721F4E0910005E06203C0E0910005A9
:10218800EF7DE09300050E94A2200E94821E0E941B
:102198008A1E0E941C23E0E80E94921EF0E0E8A339
:1021A800F9A3A8A1B9A1119721F4E0910005E06471
:1021B80003C0E0910005EF7BE09300050E94A22098
:1021C8000E94821E0E948A1E0E941C23E0E70E9431
:1021D800921EF0E0EE8FFF8FAE8DBF8D119711F438
:1021E800AD9A01C0AD980E94821E0E948A1E0E946C
:1021F8005F1FE0E00E94921EF0E0EC8FFD8FAC8D37
:10220800BD8D119711F4DC9A01C0DC980E94821EE2
:102218000E948A1E0E94BA1FE0E60E94921E0E9437
:10222800BE1F0E94C41FED37A0E0FA0719F4E3E0CF
:10223800F0E068C0E837A0E0FA0719F4E4E0F0E05D
:1022480061C0E337A0E0FA0719F4E5E0F0E05AC00E
:10225800EE36A0E0FA0719F4E6E0F0E053C0E936FC
:10226800A0E0FA0719F4E7E0F0E04CC0E436A0E09B
:10227800FA0719F4E8E0F0E045C0EF35A0E0FA0706
:1022880019F4E9E0F0E03EC0EA35A0E0FA0719F4F5
:10229800E8E1F0E037C0E535A0E0FA0719F4E9E134
:1022A800F0E030C0E035A0E0FA0719F4EAE1F0E028
:1022B80029C0EB34A0E0FA0719F4EBE1F0E022C002
:1022C800E634A0E0FA0719F4ECE1F0E01BC0E134D1
:1022D800A0E0FA0719F4EDE1F0E014C0EC33A0E057
:1022E800FA0719F4EEE1F0E00DC0E733A0E0FA07D1
:1022F80019F4EFE1F0E006C0E233A0E0FA0731F4A8
:10230800E0E2F0E0E093D905F093DA050E94821E3E
:102318000E948A1E0E945F1FE0E10E94921EF0E068
:10232800EA8FFB8FAA8DBB8D119711F00C94DE11EB
:102338000E94E7220E9420230E949902EC87FD87D1
:102348000E94E7220E94EC22EA87FB87ACE9BFEFF4
:102358000E949626E887F9870E94E722E0E2F0E0EB
:102368000E942523EE83FF83E7E0EA93E6E0EA9301
:10237800EA85FB850E94F2220E9473210E9489212E
:102388000E9438210E940321309719F40E942923C2
:10239800F9CF0E9438210E94821E0E940A200E94C2
:1023A8005F1F0E947A1F0E940C1F0E940C1FE0E012
:1023B800EA8FEB8F0E94821E0E948A1E0E945F1F76
:1023C800E0E20E94921EF0E0E8A7F9A7A8A5B9A547
:1023D800119711F4C69A01C0C6980E94821E0E94E5
:1023E8008A1E0E945F1FE0E30E94921EF0E0EEA3A7
:1023F800FFA3AEA1BFA1119711F4C29A01C0C29860
:102408000E94821E0E948A1E0E945F1FE0E40E94B2
:10241800921EF0E0ECA3FDA3ACA1BDA1119711F4AD
:10242800C19A01C0C1980E94821E0E948A1E0E9401
:102438005F1FE0E50E94921EF0E0E88FF98FA88DFB
:10244800B98D119711F4C79A01C0C7980E94821ECE
:102458000E948A1E0E945F1FE0E60E94921EF0E022
:10246800EE8BFF8BAE89BF89119711F4AC9A01C02E
:10247800AC980E94821E0E948A1E0E945F1FE0E79D
:102488000E94921EF0E0EC8BFD8BAC89BD89119700
:1024980011F4C49A01C0C4980E94821E0E948A1E28
:1024A8000E945F1FE0E90E94921EF0E0EE87FF871E
:1024B800AE85BF85119751F5C398AA981A9AA99A1B
:1024C800C79A0E942C23A9980E942C23C39A1A9871
:1024D8000E942C23D99AAB9AE8E8F3E10E943223B0
:1024E800D998D998AB98C798C3980E942C23AA98D2
:1024F8000E942C230E94821E0E940A200E945F1FB5
:102508000E943C1F0E940C1F0E940C1F0E94D62292
:1025180011F40C94CC12ACA5BDA51197C9F1AAA5CC
:10252800BBA51197A9F1E1E0F0E0E217F30781F10B
:10253800AAA1BBA1119761F1A8A1B9A1119741F175
:10254800AE8DBF8D119721F1AC8DBD8D119701F125
:10255800AA8DBB8D1197E1F0A8A5B9A51197C1F077
:10256800AEA1BFA11197A1F0ACA1BDA1119781F0B7
:10257800A88DB98D119761F0AE89BF89119741F087
:10258800AC89BD89119721F0AE85BF85119719F4E3
:1025980001E010E002C000E010E0F8010E941627F8
:1025A800AE9608950E947D1E0E9447070E94151F3F
:1025B8000E946E02E03019F40E945F04F7CF0E9477
:1025C800CD040E94A3090E94CD040E9416040E9413
:1025D800CD040E94151F0E948002E13011F4D89AA0
:1025E800F8CF0E940F22D898DD98AB98A998AA9A9C
:1025F8001A98C7980E94B9030E94CD040E94260425
:10260800E0919205E03029F50E943623A0919B05C0
:10261800B0919C051197A9F40E947321AA981A9A5F
:102628000E942C23A99A0E942C23AA9A1A980E94E5
:102638003C23AA981A9A0E942C23A9980E946904FC
:10264800FFCF002E012A11F40E943F23FBDC8F01EB
:10265800D7CFE0E0E093920570D8AD9A0E9473213D
:10266800AD986BD80E94732168D80E94732165D8F1
:102678000E9438210E9432210E940F210E948A1F45
:102688000E940F210E94CA210E2A0E940F210E9437
:10269800CF21E02919F00E942923EECF0E9438218A
:1026A8000E9473210E9436230E944423AC9AE1E0E1
:1026B800F0E04CC0E1E0F0E00E944C23E0918A0594
:1026C800F0918B0508951A930A931F9A0E94872008
:1026D8000E947102E03019F401E010E002C000E04D
:1026E80010E0002E012AB1F4A091AD05B091AE051D
:1026F800159721F40E947D040E945123ADEAB5E0AC
:102708000E94CB1E0E945723E1E0F0E0E093880589
:10271800F09389050E94631FA9F40E945123A09198
:102728008805B0918905119739F40E94CD04E0E03D
:10273800E0938805E0938905E1E0F0E00E945D23DD
:102748001F98DA98E0918E05F0918F0509911991FB
:1027580008950E947D1EE0911805F09119053097A3
:1027680029F40E9462230E944003FDC0E130A0E0EA
:10277800FA0761F5AF9A0E94151F0E947502E030B2
:1027880031F40E94151F0E947A02E03009F014C04B
:10279800E0E0E0935205E0935305E0935405E0939D
:1027A80055050E946923E2E0F0E00E9473230E942D
:1027B80078230E943A0409C00E947F230E9488233C
:1027C80024F00E9430040E946923CDC0E230A0E0CA
:1027D800FA0759F40E9490233CF0AF980E946923AD
:1027E800E3E0F0E00E947323BEC0E330A0E0FA0704
:1027F80059F40E9499233CF0AE9A0E946923E4E0C0
:10280800F0E00E947323AFC0E430A0E0FA0761F45F
:102818000E94992344F0AE98C49A0E946923E5E087
:10282800F0E00E9473239FC0E530A0E0FA0759F456
:102838000E9490233CF0C4980E946923E6E0F0E0EF
:102848000E94732390C0E630A0E0FA0711F00C94C0
:1028580076140E94151F0E947502E03031F40E9420
:10286800151F0E947A02E13009F004C00E94622319
:102878000E949B230E94151F0E947502E13031F4CB
:102888000E94151F0E947A02E03009F004C00E94DD
:1028980062230E949B230E94151F0E947502A0E0DC
:1028A8000E943B26EF930E94151F0E944822AF9179
:1028B800EA2331F0E3E0F0E00E9473230E949B23B7
:1028C8000E94151F0E947502E13031F40E94151F05
:1028D8000E947A02E13009F004C0E7E0F0E00E94CB
:1028E800732341C0E730A0E0FA0759F40E94992306
:1028F8003CF0AD9A0E946923E8E0F0E00E9473235F
:1029080032C0E830A0E0FA0761F40E94992344F04D
:10291800AD98C49A0E946923E9E0F0E00E9473230D
:1029280022C0E930A0E0FA0759F40E947F230E94F0
:10293800A8232CF0C498EAE0F0E00E94732313C0A7
:10294800EA30A0E0FA0779F40E946923E0E0E09316
:102958001805E093190501E010E00E94172319F407
:10296800E2E0F0E06F0196C30E947D1EE0911A0537
:10297800F0911B05309781F4E0E0E0935605E09371
:102988005705E0935805E09359050E942D22EAE186
:10299800F5E00E94B02350C0E130A0E0FA0761F4EE
:1029A8000E94B5230E94BE2334F00E942D22EAE142
:1029B800F5E00E94C62340C0E230A0E0FA0761F4C7
:1029C8000E94B5230E94CB2334F00E942D22EAE115
:1029D800F5E00E94D32330C0E330A0E0FA0761F4A9
:1029E8000E94B5230E94A82334F00E942D22EAE118
:1029F800F5E00E94D82320C0E430A0E0FA0751F4A3
:102A08000E94B5230E94A82324F0EAE1F5E00E9481
:102A1800DD2312C0E530A0E0FA0771F40E942D22F0
:102A2800EAE1F5E00E94E223E3E0F0E0EC15FD05C1
:102A380019F4E4E0F0E06F012DC30E947D1EE091DF
:102A48001C05F0911D05309791F4E0E0E0935A05DC
:102A5800E0935B05E0935C05E0935D050E94E92344
:102A6800C398AA98ECE1F5E00E94B02355C1E13083
:102A7800A0E0FA07F1F40E94F323A230E0E0BE07D9
:102A8800E0E08E07E0E09E0734F0A091E305B09106
:102A9800E405119709F00CC0E0E0E093E305E0934A
:102AA800E4051A9A0E94E923ECE1F5E00E94C623A6
:102AB80033C1E230A0E0FA07E9F4A0919D05B09196
:102AC8009E05119721F40E94FC230E9403240E9472
:102AD800F3230E94FD226CF0A99AC79A0E94E92369
:102AE8000E94142111F40E941A21ECE1F5E00E94E1
:102AF800D32312C1E330A0E0FA07A1F40E94F32324
:102B08000E94A82374F0A998A3E9B5E0ED91FD917E
:102B18003197FE93EE930E94E923ECE1F5E00E94E1
:102B2800D823FAC0E430A0E0FA0761F40E94142127
:102B380011F40E9420210E94E923ECE1F5E00E94B3
:102B4800DD23EAC0E530A0E0FA07A9F40E94F323E8
:102B58000E9488237CF0C39A1A980E94142111F4C9
:102B68000E9426210E940A24ECE1F5E0A6E0B0E0EC
:102B7800A083B183D1C0E630A0E0FA07D1F40E9467
:102B8800F323A932E0E0BE07E0E08E07E0E09E070D
:102B98007CF00E94142111F40E942C21D99AAB9A3E
:102BA8000E94E923ECE1F5E0A7E0B0E0A083B1835F
:102BB800B3C0E730A0E0FA07C9F50E9487200E9459
:102BC80084020E947F210E9410240E94C521E021D6
:102BD80011F00E94FC230E9415240E2EE09132056C
:102BE800F09133050E94F3230E9431260E945E264D
:102BF800E02131F0C398D9980E94E9230E94172454
:102C0800E0913405F09135050E94F3230E943126A6
:102C18000E940A2754F4C398D998A1EBB5E00E9402
:102C2800CB1E0E940A240E94172476C0E830A0E038
:102C3800FA07A9F50E941E240E941524E02109F034
:102C4800AA9A0E941E240E9410240E94C521E021F5
:102C580009F0AA9A0E94F3230E9441220E2E0E9494
:102C68001524E02141F00E9427242CF0C79A0E94E5
:102C7800E9230E9403240E94F3230E9441220E2E7E
:102C88000E9410240E94C521E02141F00E942724BF
:102C98002CF0C79A0E94E9230E9403243DC0E93022
:102CA800A0E0FA07F9F40E94F323A630E0E0BE079B
:102CB800E0E08E07E0E09E07A4F0AB980E94F323C3
:102CC800A232E0E0BE07E0E08E07E0E09E074CF0AD
:102CD800C7980E94E923ECE1F5E0AAE0B0E0A08300
:102CE800B1831AC0EA30A0E0FA07B1F4E091970581
:102CF800F0919805E0939905F0939A050E94E923CD
:102D0800ECE1F5E00E94E223E5E0F0E0EC15FD05DA
:102D180019F4E6E0F0E06F01BDC10E947D1EE0916C
:102D28001E05F0911F05309791F4E0E0E0935E05F1
:102D3800E0935F05E0936005E09361050E9431240C
:102D4800EEE1F5E00E94B0230E941F1FA3C1E1300D
:102D5800A0E0FA0791F40E943124AC980E94F7048D
:102D68000E943B241CF00E94142111F41B9A1C9A07
:102D7800EEE1F5E00E94C6238DC1E230A0E0FA073B
:102D880011F50E9443240E94A82344F00E943B248A
:102D98001CF00E94142111F41B981C980E944324D3
:102DA8000E94BE237CF0E0910005EE7FE0930005D1
:102DB8000E94A220C19AC09A0E943124EEE1F5E057
:102DC8000E94D32367C1E330A0E0FA0711F00C9406
:102DD8003217A0919905B0919A050E9484210E2E70
:102DE800A0919D05B0919E050E94C5210E22A0913B
:102DF800A905B091AA050E94C5210E22A091B3058C
:102E0800B091B4050E948421E02109F50E940804CC
:102E18000E94A504E1E0F0E0E093A905F093AA057B
:102E28000E94151F0E949102E030B9F4A091B305E9
:102E3800B091B4050E948A1FD601E7E0F0E00E9435
:102E48004C26E02121F0A5EBB5E00E94CB1EEEE177
:102E5800F5E00E94D8230E9431241CC1E430A0E090
:102E6800FA07D1F50E944C24DC9741F00E94CD046A
:102E7800E0E0E093A905E093AA05C59A0E944C24D6
:102E8800ECE3F0E00E944026EF930E94151F0E9499
:102E9800F421AF91EA23A9F00E9451240E945724FB
:102EA8000E945E240E9465240E946C24EEE1F5E0F5
:102EB800A0E0B0E0A083B183E7E0F0E06F010E94FA
:102EC800DF0D0E944C24DC9731F00E943124EEE1A2
:102ED800F5E00E94DD23DEC0E530A0E0FA0711F03E
:102EE8000C94C9170E944324E9E1F0E060E070E027
:102EF8000E946626EF930E94151F0E948402A1E09B
:102F08000E943B26AF91EA230E2EA0E0C599A1E0CE
:102F1800E1E00E943B26E02149F0C69A0E94312454
:102F2800EEE1F5E0A6E0B0E0A083B1830E9443247F
:102F3800E2E3F0E060E070E00E946626EF930E9412
:102F4800151F0E948402A0E00E943B26AF91EA234D
:102F580039F00E9431240E9408040E949104C59807
:102F6800A0E0C599A1E0E0E00E943B26EF930E9413
:102F7800151F0E94F421AF91EA2331F00E94CD047D
:102F8800EEE1F5E00E94D82385C0E630A0E0FA071C
:102F9800A1F40E944324AA31E0E0BE07E0E08E07D6
:102FA800E0E09E074CF0C29A0E943124EEE1F5E081
:102FB800A7E0B0E0A083B1836DC0E730A0E0FA07D6
:102FC80079F40E9443240E94CB234CF0C0980E94BD
:102FD8003124EEE1F5E0A8E0B0E0A083B1835AC067
:102FE800E830A0E0FA0779F40E9443240E94CB233A
:102FF8004CF0C5980E943124EEE1F5E0A9E0B0E07C
:10300800A083B18347C0E930A0E0FA0799F40E9491
:1030180074247CF0E091E105F091E205309709F421
:10302800C2980E943124EEE1F5E0AAE0B0E0A08366
:10303800B18330C0EA30A0E0FA0771F40E9474242A
:1030480054F0C198AC9A0E943124EEE1F5E0ABE06F
:10305800B0E0A083B1831EC0EB30A0E0FA07D1F442
:103068000E947424BCF00E943124EEE1F5E00E9435
:10307800E223A6E3B5E0ED91FD913197FE93EE933F
:10308800E7E0F0E0EC15FD0529F4E8E0F0E06F0179
:103098000E947624F8010991199108950E949024BC
:1030A8000E948A1F0E949524E02129F052DBE093B8
:1030B8000405F09305050E949B240E94A0240E9409
:1030C800A6240E94AE24E02129F04EDCE0930605F8
:1030D800F09307050E94B3240E94A0240E94A6240E
:1030E8000E94B8240E94AE24E02129F0A6DCE093D7
:1030F8000805F0930905E0910A05F0910B050E9477
:10310800A0240E94A6240E94B824D601E5E0F0E09D
:103118000E9446260E22E6E0F0E00E9446260E2295
:103128000E94AE24E02129F0F8DDE0930A05F0932F
:103138000B050895AA24BB240E94C9240E94762462
:103148000E941C080E944003089524970E9411279A
:1031580000E010E00E94D02420E030E00E94D62455
:103168000E2ED6010E94CA21E02189F00E943F2339
:103178000E94D8240E94EB24E02149F00E94F12407
:103188000E94F6240E946C24E3E0F0E06F010E94A4
:10319800D6240E2E0E949B240E94F924D601E4E036
:1031A800F0E00E944026E021A9F00E943F230E94FF
:1031B800D8240E94EB24E02169F00E94F1240E94A7
:1031C800F6240E9457240E944003E5E0F0E06F01D6
:1031D8000E94FF240E94D6240E2E0E949B240E9447
:1031E800F9240E94B3240E94F924D601E6E0F0E015
:1031F8000E944026E021A9F00E943F230E94D82483
:103208000E94EB24E02169F00E94F1240E94F62438
:103218000E9457240E945E240E946C24E7E0F0E09C
:103228006F010E94D6240E2E0E949B240E94F9242E
:103238000E94B3240E94F924E0910A05F0910B053D
:103248000E94F924D601E8E0F0E00E944C26E02133
:1032580011F40C94731A0E943F232CDA0E944C2319
:10326800E1E0F0E0E0938C05F0938D05D5010E9434
:1032780084210E2EA0919205E1E00E943B260E22A9
:10328800A0918A05B0918B050E9484210E94EB24AD
:10329800E02111F40C94731A0E9457230E94D02441
:1032A8000E9405250E940A25E021C9F00E941525E3
:1032B80019F409DA0E945D230E942D2514F00E945A
:1032C800D0240E940525D9010E94C521E02131F0B2
:1032D800A2E8B5E00E94CB1E21E030E0E1CF0E94D9
:1032E80005250E9439250E943F250E948421E0215E
:1032F80061F00E94152519F4E6D90E945D230E9409
:103308002D2514F00E94D024EACF0E94DF0D0E94E0
:10331800901F139711F00C94DD19E0E1F0E0FA9397
:10332800EA93E0E8F0E00E942523E093E505F093B6
:10333800E6053097F1F50E94DF030E94CD040E9454
:10334800C3040E9499030E942023E0E3F0E00E9456
:1033580025238F010E94821E0E94251FEA930E9446
:10336800EE1C0E94631F21F50E942023E0E4F0E098
:103378000E942523E0933805F09339050E94202305
:10338800E0E7F0E00E94252333960E94AC1F0E94DC
:10339800B11FE1E0F0E0E0932C05F0932D050E94C9
:1033A80045250E944A250E9451250E94CD0401C04E
:1033B800C8CF0E9420230E940605A091C105B091A4
:1033C800C2050E9484210E2EA091C505B091C605A4
:1033D8000E94C521E021C9F0E0E0E093C105E09337
:1033E800C205E1E0F0E0E093C505F093C6050E9450
:1033F800F703E4E0F0E00E94AC1F0E94B11FEEEF7B
:10340800FFEFE0932C05F0932D05F60131966F013F
:10341800E8EEF3E0EC15FD051CF4E4E6F0E06F01DE
:103428000E94901FE3E0F0E00E9458260E2E0E94B2
:10343800AE24E02151F00E94FF240E9451240E94F2
:1034480057240E945E240E9465240E94901F1397AF
:1034580044F00E9478230E9457240E945E240E9410
:1034680065240E94901F129734F00E9478230E94CE
:103478005E240E9465240E94901F0E94062724F45F
:103488000E9478230E94652455DE0E9445253197C5
:10349800A091A705B091A8050E9440260E2EA091E4
:1034A800AB05B091AC050E94C521E021C1F00E9496
:1034B8004A040E94B01E0E94B61E0E94BC1EE0E094
:1034C800E093CD05E093CE05DC98DA980E94F703E7
:1034D8000E94DF03E0E0E0939205CC24DD240E9403
:1034E800182728960895D601E8E0F0E00E944026C3
:1034F8000E2ED5010E94C521E02119F0E1E0F0E08F
:103508005F01D601E9E0F0E00E944C260E2ED501BD
:103518000E94C521E02111F40C945C1B042C0528A1
:10352800A9F40E94951FA0916A05B0916B0580913E
:103538006C0590916D050E945525E02121F0AAE7C0
:10354800B5E00E94CB1EE1E0F0E02F01062C072831
:10355800A9F40E94951FA0916E05B0916F05809106
:103568007005909171050E945525E02121F0ACE786
:10357800B5E00E94CB1EE1E0F0E03F010E94872009
:103588000E945925D4010E94C5210E22D601EBE0E4
:10359800F0E00E9452260E943F250E94C521E021AA
:1035A800B9F00E945C25E02111F00E9466250E9476
:1035B80069255CF00E946E250E9471250E94742581
:1035C80031970E9451250E944D21E1E0F0E04F0122
:1035D8000E9487200E945925D4010E94C5210E22ED
:1035E800D601E9E0F0E00E9440260E943F250E94B3
:1035F8008421E02119F0E1E0F0E04F010E948720EA
:103608000E945925D4010E94C5210E2A0E943925FD
:103618000E943F250E948421E021B9F00E945C2588
:10362800E02111F00E9466250E9469255CF00E9445
:103638006E250E9471250E94742531970E9451259C
:103648000E944D21E1E0F0E04F010E9487200E9496
:103658005925D4010E94C5210E2A0E940A25E0217D
:10366800B9F00E945C25E02111F00E9466250E94B5
:1036780069255CF00E946E250E9471250E947425C0
:1036880031970E9451250E944D21E1E0F0E04F0161
:10369800D2010E9484210E2ED3010E9484210E2281
:1036A800D4010E948421E02119F0E1E0F0E05F01FB
:1036B80008950C2C0D2811F00C94A51BE09192058F
:1036C800E03029F40E943F230E9450083AC00E942B
:1036D80036230E9444230E9438210E9432210E94EE
:1036E8000F210E948A1F0E940F210E94CA210E2AC0
:1036F8000E940F210E94CF21E02919F00E9429235E
:10370800EECF0E9438210E9477250E9451240E9402
:1037180057240E945E240E9465240E94CD04DC98F0
:10372800E0E0E093C505E093C6050E9445250E94A8
:103738004A250E9451250E948408AC9AE1E0F0E0F5
:103748006F010895EFEFEABBE0E0EBBBE8BBEFEFFA
:10375800E7BBE0E0E5BBEFEFE4BBE0E0E1BBE2BBE9
:10376800E3B9EFEFE2B9E0936100E0E0E0936200D3
:10377800E0936500EFE1E0936400E0E0E0BFE7E09C
:10378800E3BFE0E0E2BFE1BFEFBDEEBDEDBDECBDE4
:10379800E7BDE6BDEBBDEABDE9BDE8BDE093790054
:1037A800E0937800E5BDE4BDE3BDE0938B00E093D2
:1037B8008A00E0938900E0938800E0938100E09319
:1037C8008000E0938700E0938600E0938500E09313
:1037D8008400E0938300E0938200E0936A00EABFEC
:1037E800E9BFE1E0E7BFE0E0E0937D00EBB9E8E1A5
:1037F800EAB9E6E0E0939500E0E0E0939000E7E6C0
:10380800E9B9E0E0E0939800E9E1E0939900E8E1A4
:10381800E0939A00EEE0E0939D00E0919B00E06465
:10382800E0939B00E0E8E8B9E0E0E0BDE6B9EDB977
:10383800E09374000E94B22578940E943C230E9471
:103848003C230E94821E0E94251FEA93C3D0E3E016
:10385800F0E0FA93EA930E94D90ACC24DD24E0E050
:10386800E0936205E0936305E0936405E0936505E2
:103878000E94C924AA24BB24E4E6F0E060E070E0DA
:10388800E0936605F0936705609368057093690592
:103898000E94FF24EEE3F0E060E070E0E09376053C
:1038A800F093770560937805709379050E94382125
:1038B8000E943221ECEDF0E0E0933405F0933505F9
:1038C800E0E0E0933205E0933305E0E5F0E0E093D3
:1038D8003805F0933905E0E0E0932E05E0932F05D5
:1038E8000E947725E0E0E0939005E0939105E0934E
:1038F800A305E093A405E093A505E093A605E0934E
:10390800A905E093AA050E945123E0E0E093AB05E6
:10391800E093AC05E093AF05E093B005E093B10503
:10392800E093B205E093B505E093B605E093B305DF
:10393800E093B405E093B705E093B805E093B905C3
:10394800E093BA05E093BB05E093BC05E093BD05A1
:10395800E093BE050E94A720E0E0E093C505E09350
:10396800C605E093D905E093DA05E093DB05E0931B
:10397800DC05E093DD05E093DE05E0939205E09336
:103988008405E0938505E0938605E0938705E09339
:103998008805E0938905E0938A05E0938B05E09319
:1039A8008C05E0938D050E9457230C2C0D2821F4DB
:1039B8000E94D6126F01F9CF0E9499037ADE6EDB5E
:1039C80092DDC3DB0E94FF03F7CFFFCF5F9BFECFE3
:1039D800ECB108955D9BFECFE881ECB9219608957E
:1039E800EA81EA93F7DFA881B9810E94CB1E23966A
:1039F800089526970E940F2710E0AC85BD85E0E06A
:103A0800F0E0ED93FC93EA89FB893196EA8BFB8B16
:103A18003197E4912E2FE03011F40C942A1EE12FF7
:103A2800E03039F4253211F411E002C00E948B25F0
:103A38000CC1E130A9F4253219F40E948B2504C188
:103A480012E040E000E02D3211F401E0FEC02B321C
:103A580011F44BE2FAC0203211F440E2F6C002C081
:103A6800E23039F450E013E0203311F40068EDC07F
:103A780004C0E33011F00C94291E203310F02A33CF
:103A880008F007C0AAE05A9F502DE22FE0535E0FBE
:103A9800DCC0E22FE33649F40E949425E889F989CD
:103AA800A481AA930E949A25CFC0E33741F40E94CB
:103AB80094250E94A2250E94591E1E2F0AC0E03795
:103AC80061F40E9494250E94A2250E94631E1E2F65
:103AD800086002600F7730E035C0E43611F0E9364F
:103AE80011F4046002C0E53731F4ECE8F0E0EE834D
:103AF800FF8315E00DC0E83511F4086004C0E8370D
:103B080011F00C94281EE6E9F0E0EE83FF8314E040
:103B180002FF14C00E9494250E94AA25AB85AA23FF
:103B28003AF4EA85FB850E941426EA87FB874DE272
:103B3800403011F01F5F01C00B7F04C00E94942524
:103B48000E94AA2500FD11C0151778F407FF08C0C8
:103B580002FF04C00B7F242F115001C020E301C0D5
:103B680020E20E948B255150EFCF312F01FF17C063
:103B78003030A1F003FF06C0EE81FF812591EE836E
:103B8800FF8305C0AE81BF812D91AE83BF830E94A4
:103B98008B25503009F051503150EACF4BC020E30B
:103BA800EE81FF810E94F526E887F987EE81FF8183
:103BB8003296EE83FF83E885F985AA85BB85AE1723
:103BC800BF0750F02F5FA885B985EA85FB85EA1BFA
:103BD800FB0BEA87FB87EFCF2A3328F003FF02C0ED
:103BE800295F01C0295D04FD1AC0213320F4A8858E
:103BF800B985119709F409C0531710F000FF01C0E7
:103C080013C020E207FF0BC020E3006102FF07C0DA
:103C18000B7F4A930E949A25503009F051500E9418
:103C28008B25503009F051503150A885B98512972D
:103C380008F0B5CF00FF08C0503031F05150E0E235
:103C4800EA930E949A25F8CF10E0DDCEAC85BD85B9
:103C58000E94E7260E94162764960895FF92F82E80
:103C680026971A930A93DE0114960E9410268D0156
:103C7800E0E0EC83ED83EE83EF83DE0118960E948B
:103C880010260E94E726FA93EA931A930A93E4EF20
:103C9800FCE1FA93EA93FE013896FA93EA93A9DED7
:103CA800198108812896FF900895A991B991EE2766
:103CB800FF276D91662311F03196FBCF0895AA274F
:103CC800BB27E991F9910590002011F01196FBCFDF
:103CD800FD0108950E94B725E881EA930E94EB252B
:103CE800E0E0EA930E94D025EA830E94C625EA8193
:103CF80008951A930A9300E010E00895EAE5EA931C
:103D08000E94EE1CE5EAEA930C94EE1CE4E0EA93C8
:103D18000E94EE1CE3E8EA930C94EE1CEA930E94DE
:103D2800EE1CE1E0EA930E94EE1C0E94EA1C0E944D
:103D3800EA1C0E94EA1C0E94EA1C0E94EA1C0E94DB
:103D4800EA1C0E94EA1C0E94EA1C0C94EA1CEE8100
:103D5800FF81FA93EA930895E0E0E093C705E093C2
:103D6800C8050895E0E0E093C905E093CA05089501
:103D7800E0E0E093CB05E093CC0508950E94EB26A4
:103D8800EF5FFF4F6F4F7F4F0E94F0260895ED9130
:103D9800FD913196FE93EE930895A091C905B091D7
:103DA800CA050895A091CB05B091CC050895E2E02D
:103DB800F5E0A1E00E94FE26E3E7F0E0FA93EA933B
:103DC8000C947102E0E0E0934E05E0934F05E09318
:103DD8005005E09351050895E0EDF7E0FA93EA9372
:103DE8000E940426DC980895E5E0EA930E94EE1C00
:103DF800E2E8EA930E94EE1CE0E0EA930C94EE1CE1
:103E0800E0E3EA930E94EE1CE0E0EA930C94EE1CD7
:103E1800E0E0EA930C94EE1CE0E6EA930E94EE1CC4
:103E2800F7CFE2E0F5E0A1E00E94FE26E3E7F0E04C
:103E3800FA93EA930895E0E0E0939505E0939605F8
:103E48000895E3E0EA930E94EE1CE0E8EA930E94FA
:103E5800EE1CE2E0EA930E94EE1CE0E10895E3E242
:103E6800EA930E94EE1CE2E8EA930E94EE1CD0CF8F
:103E7800E0E9EA930C94EE1CE6EDF0E0FA93EA939D
:103E880080E00E94321E229639CFEA930E94EE1CEF
:103E9800E2E8EA930E94EE1CBBCFFA93EA9380E033
:103EA8000E94321E229608950E94112700E010E019
:103EB80020E030E023CFE0E5EA930C94EE1CE1E04B
:103EC800F0E0E017F1070895F0E0E0933805F0938B
:103ED8003905A0913805B0913905DC970895EDE3CF
:103EE800F0E0E0933805F09339050895E0E1EA93AE
:103EF8000C94EE1C2E2F3327022E032A0895AE8130
:103F0800BF81E1E0F0E00E9440260895E0E0F0E0A3
:103F18000E9440260E2E0895A0913605B0913705CF
:103F28000895E0916205F0916305609164057091D0
:103F380065050895E0E7EA930C94EE1CE1E0EA9346
:103F48000C94EE1C0E94EA1C0E94EA1C0C94EA1CC9
:103F5800E0933605F09337050895E0913605F09122
:103F68003705E093A705F093A8050895E0E2EA93E2
:103F78000C94EE1CF0E0E093DD05F093DE05089567
:103F8800E091DD05F091DE050895A091D705B09187
:103F9800D805E1E0F0E00E9440260E2EA091DB0556
:103FA800B091DC050895E093D905F093DA050895FA
:103FB800A091D705B091D805E2E0F0E00E94402634
:103FC8000E2EA091DB05B091DC050895E0E4EA939C
:103FD8000E94EE1C1DCFEA930E94EE1C8FCEE5E0F6
:103FE800EA930E94EE1CE2E8EA930E94EE1C7ECF60
:103FF800E0E8EA930E94EE1C0BCFE5E0EA930E940A
:10400800EE1CE2E8EA930E94EE1CB0CFE5E0EA93EA
:104018000E94EE1CE2E8EA930C94EE1CE0E6EA93B8
:104028000C94EE1CAE81BF81A030E1E0BE0708957C
:10403800AE81BF81EFEFF0E0089500E010E020E0EE
:1040480030E00895EA930E94EE1C0A930C94EE1C4B
:10405800AFEF0A02F001E20F0895AC81BD81A030F4
:10406800E1E0BE070895AC81BD81EFEFF0E008956F
:10407800EBE0EA930E94EE1CE2E8EA930E94EE1C51
:1040880075CFE091C905F091CA050E9431260E94BA
:10409800F92684E00E94321E26960895E0E6F4E0B0
:1040A800FCCEE091CB05F091CC050E9431260E9410
:1040B800F92684E00E94321E26960895E091CD05E7
:1040C800F091CE050E9431260E94F92684E00E94D4
:1040D800321E26960895A091CF05B091D005089577
:1040E800A091D105B091D2050895A091D305B091C2
:1040F800D40508950E9431260E94F92684E00E9482
:10410800321E26960895E3E0F5E0A1E00E94FE261F
:10411800E9E7F0E0FA93EA930895E091A105F091B8
:10412800A20530970895E0E4EA930E94EE1CE0E2CD
:10413800F5CDE091E905F091EA050895E0910005D3
:10414800E09362000895E0E0E093BF05E093C005C6
:104158000895E0910005E460E0930005EFCFE0E901
:10416800F1E0FA93EA930C940426E1E0F0E0E0939E
:10417800A105F093A2050895E2E0F0E0E093A1051F
:10418800F093A2050895E0910005EB7FE093000508
:10419800D5CFE3E0F0E0E093A105F093A205089500
:1041A800E1E0F5E0A1E00E94FE26E1E7F0E0FA9305
:1041B800EA930895E1E0F0E0E093EB05F093EC0575
:1041C800E09100050895E160E0930005E260E09366
:1041D8000005B4CFE1E0F0E0E093ED05F093EE05E3
:1041E800E09100050895EE7FE0930005ED7FE093F0
:1041F8000005A4CFE0939F05F093A0050895E091F2
:104208009F05F091A0050895E4E0F0E0E093A10592
:10421800F093A2050895A0919F05B091A005089577
:10422800A091E105B091E20511970895E09100058C
:10423800E064E093000582CFE0910005EF7BE09316
:1042480000057CCFE0910005E062E093000576CFA1
:10425800E0910005EF7DE093000570CFE0E0E0938A
:10426800A105E093A2050895E0E0E0939F05E0939F
:10427800A0050895E091BF05F091C0053097089515
:10428800E1E0F0E0E093BF05F093C005A7EBB5E0EF
:104298007ECDE091B505F091B605FA93EA93E091E9
:1042A800B105F091B205FA93EA93E091B705F09160
:1042B800B805FA93EA93E091C305F091C405FA931F
:1042C800EA93E0918005F0918105FA93EA93E091F1
:1042D8008205F0918305FA93EA930C942209E8EE9B
:1042E800F3E0FA93EA930C940426E4EFF1E0FA93EE
:1042F800EA930C940426A0E00E943B260E2E089513
:10430800E1E0F0E00E9440260895E091D905F0919F
:10431800DA05FA93EA930E94D90AE7CF20E030E061
:1043280040E050E088CDE0E0EC87ED87EE87EF874E
:104338000895E887E987EA87EB870895E8E0F0E0E1
:10434800CE16DF060895E5E0F0E0E093A105F093CE
:10435800A20508950E2ED801E2E0F0E00E94402662
:104368000E2AE3E0F0E00E9440260E2AE4E0F0E0A6
:104378000E94402608950E2AA091A105B091A20599
:104388000895E0E0F0E00E9440260895E2E0F0E0C1
:104398000E9440260895E3E0F0E00E944026089538
:1043A8000E2ED601E8E0F0E00E944C260895A8857C
:1043B800B9858A859B85E0EDF7E060E070E00E94B2
:1043C800662608950E9408040E949B04C598E1E2AD
:1043D800FEE460E070E0E887F9876A877B870895E4
:1043E8000E949102A0E00E943B2608950E94CD04FD
:1043F800E0E09FDFC298C6980895C7980E94DD0440
:10440800EE83FF83AE81BF8111970895A1E00E94DA
:104418003B260E2E0895E1E0F0E0E093AF05F0931F
:10442800B0050895E0E0E093B305E093B405E093A8
:104438003E05E0933F05E0934005E093410504E025
:1044480010E00895E1E0F0E0E093B305F093B405DF
:104458000895E0E0E0933E05E0933F05E0934005D2
:10446800E093410508950E2EA0913E05B0913F05B9
:1044780080914005909141050895E5E0F0E060E005
:1044880070E00E94662608950E947A02A0E00E94C9
:104498003B260895E0934A05E0934B05E0934C05CD
:1044A800E0934D050895A0E0C199A1E0E0E00E94E5
:1044B8003B26E0210895A0914A05B0914B058091D3
:1044C8004C0590914D05A630E0E0BE07E0E08E0770
:1044D800E0E09E070895E0E0DDDFE0E0EC87ED87AF
:1044E800EE87EF87089541E050E0E0E022DF0E9488
:1044F800CD044FCEE0E0CEDF1E9845CEE1E0F0E0FF
:10450800E093F305F093F405A7EFB5E040CC3197BD
:10451800E091000558CEE1E0F0E0E093F505F09376
:10452800F605A9EFB5E033CC3197E09100055BCEF5
:10453800D601EAE0F0E00E944C260E2EA091D505A7
:10454800B091D6051ECFD601E9E0F0E00E944C26D6
:104558000E2EA091D505B091D605D2CE0E94CD04DD
:104568000E9473041D980FCEEC85FD856E857F85AE
:10457800EF5FFF4F6F4F7F4FEC87FD876E877F8719
:10458800E885F9856A857B85EF5FFF4F6F4F7F4F21
:10459800E887F9876A877B870895A091A105B0917C
:1045A800A2050895E1E0F0E0E417F5070895A8856D
:1045B800B9858A859B85A13DE7E0BE07E0E08E07C7
:1045C800E0E09E070895E0E6F0E0FA93EA930895A4
:1045D800E0E1F0E0FA93EA930C9499020E94312604
:1045E8000E94F9260C941203E091FD05F091FE0556
:1045F8000895AB30E0E0BE07E0E08E07E0E09E07FC
:104608000895E1E0F0E0E093FF05F0930006A3E0F1
:10461800B6E0BDCBE1E0F0E0E0930106F0930206DE
:10462800A5E0B6E0B4CBE1E0F0E0EC15FD050895B7
:10463800E0E4EA930C94EE1CE0E0F0E0FA93EA93ED
:104648000895FA93EA930C9499020E94A409D2CD92
:10465800E8EBFBE0FA93EA930C940426FA93EA93C6
:104668000C940426E1E0F0E0FA93EA930C94060532
:10467800E0EDF7E0F3CF0E94E703E0939205089599
:10468800E091D905F091DA05FA93EA930C94D90AE6
:10469800E0938A05F0938B050895E0E0E093AD057B
:1046A800E093AE050895E0E0E0938E05E0938F0572
:1046B8000895E0938E05F0938F050895E1E0F0E00A
:1046C800E0931805F09319050895E0E0E0933A05A2
:1046D800E0933B05E0933C05E0933D050895E093A6
:1046E8001805F09319050895E1E0F0E0E09330052E
:1046F800F09331050895A0913A05B0913B0580915A
:104708003C0590913D050895A531E0E0BE07E0E045
:104718008E07E0E09E070895EEDFA932E0E0BE07CD
:10472800E0E08E07E0E09E070895E5DFEDCFE5E1E4
:10473800F0E060E070E0E0933A05F0933B056093A9
:104748003C0570933D050895A333E0E0BE07E0E023
:104758008E07E0E09E070895A1E0B0E0A083B18352
:104768000895A0913E05B0913F0580914005909134
:1047780041050895AD33E0E0BE07E0E08E07E0E0D4
:104788009E070895A2E0B0E0A083B1830895AF31F9
:10479800E0E0BE07E0E08E07E0E09E070895A3E0B2
:1047A800B0E0A083B1830895A4E0B0E0A083B18312
:1047B8000895A5E0B0E0A083B1830895A0E0B0E03B
:1047C800A083B18301E010E00895E0E0E0934205A2
:1047D800E0934305E0934405E09345050895A091CF
:1047E8004205B0914305809144059091450508958F
:1047F800E1E0F0E0E0939705F0939805E6CFECE16F
:10480800F5E0A9E0B0E0A083B1830895E0E0E0938B
:104818009705E0939805D9CFA0919705B091980591
:104828000895FADF6DCDECE1F5E0A8E0B0E0A083F3
:10483800B1830895D4DFE0E0F0E060E070E00E942A
:1048480066260E2E0895C798CADFAE30E0E0BE0790
:10485800E0E08E07E0E09E070895E0E0E09346057B
:10486800E0934705E0934805E09349050895A09132
:104878003805B0913905A634E0E0BE070895A09147
:104888004605B091470580914805909149050895DE
:10489800A0913805B09139050895E0E0E09304054A
:1048A800E09305050895E6E0F5E0A0E0B0E0A08318
:1048B800B1830895E8E0F5E0A0E0B0E0A083B1831B
:1048C8000895EAE0F5E0A0E0B0E0A083B1830895A0
:1048D8000E944003E0E0E0933005E093310508953D
:1048E800CEDF12CFE0E0E0936A05E0936B05E0933A
:1048F8006C05E0936D05E0936E05E0936F05E0931A
:104908007005E0937105E0937205E0937305E093F9
:104918007405E09375050895A0910405B091050507
:104928000895D601E0E0F0E00E9446260895E0915F
:104938000605F09107050895A0E0B0E00E94402622
:104948000E2EEFCF0E22D601E1E0F0E00E944626BF
:104958000E220895A0913005B0913105D1CCE09197
:104968000805F09109050895D601E2E0F0E00E94FB
:1049780046260E22E3E0F0E00E9446260E22E4E0FE
:10498800F0E00E9446260E22089544245524662409
:104998007724882499240895E0E0EC83ED83EE835E
:1049A800EF830895B9DFACCC0E945E1371DEE1E0BD
:1049B800F0E0E0938C05F0938D05A09192050E949C
:1049C8003B260E2EA0918A05B0918B0599CC0E221C
:1049D800A0918C05B0918D0593CC0E94DF0D0E94AB
:1049E8001C082ACE0E94060558CFA1E0B0E00E941C
:1049F80040260E220895E0E0E0933005E09331056B
:104A08000895A0918E05B0918F0580CAD601EBE07C
:104A1800F0E00E944C260E22A091D505B091D60553
:104A2800B0CCEC81FD816E817F81EF5FFF4F6F4FCE
:104A38007F4FEC83FD836E837F83AC81BD818E8144
:104A48009F81A130E0E0BE07E0E08E07E0E09E072E
:104A58000895AC81BD818E819F81A536E0E0BE07B7
:104A6800E0E08E07E0E09E070895D601EAE0F0E076
:104A78000E944C2608950E22A091D505B091D60526
:104A88000895E0912C05F0912D050895FA93EA9385
:104A9800E091B905F091BA050895FA93EA930C9458
:104AA800D2070E9466260E2EE0CF0E94800223CCF9
:104AB80038DAA0917205B0917305809174059091D0
:104AC8007505EFCFAEE7B5E062C9EAE0F0E0CE16D3
:104AD800DF060895ACE2B5E05AC9A9EBB5E057C9BD
:104AE800D0DF3197D3CFE0E0E0932C05E0932D059C
:104AF800EFEFFFEFE0937A05F0937B05E0937C05F9
:104B0800F0937D05E0937E05F0937F0508952A9341
:104B1800ED85FE85FA93EA93E989FA89099508955E
:104B2800E889F9893497E88BF98B0895ED85FE8536
:104B3800FA93EA93E989FA8909950895A889B989C0
:104B480014960E94E726EE83FF8301C9A889B989D4
:104B580014960E94E726EA87FB8708959098919813
:104B6800889A899815C089988898EE270000819BB3
:104B78000895809B089504D0899A02D0889AE1E02C
:104B88006BE107C0899A889A03D08898F9DF8998D9
:104B980065E36A95F1F7089578E08898F1DF809BDE
:104BA800FECFEEDF889481990894889AF1DFEE1F92
:104BB8007A9599F77991772311F4899801C0899AA0
:104BC800DFDF8898E5DF889ADBDF8998D9CFE9911C
:104BD80078E0EE0F10F4899801C0899AD9DF889897
:104BE800CFDF809BFECFCCDF889A7A9591F78998A2
:104BF800C7DF8898CDDFE1E08199EE27889AC0CF9A
:104C0800E991F991309639F080EA9FE00197F1F740
:104C1800A8953197C9F708950024AF0DB01D0895E0
:104C2800F195E195F0400895F09560957095E195BE
:104C3800FF4F6F4F7F4F0895EE230E2EFD01BC01ED
:104C480031F076956795F795E7950A94D1F7089529
:104C5800E62FF72F60E070E008956F2F660F660B60
:104C6800762F08958B2F880F880B982F0895EA17B1
:104C7800E1E009F0EE270895EA17FB07E1E009F003
:104C8800EE270895EA17FB07E1E009F4EE270895F7
:104C9800AE17BF07E1E00CF4EE270895AE17BF0783
:104CA800E1E00CF0EE270895EA17FB07E1E00CF0CD
:104CB800EE270895AE17BF0786079707E1E00CF4C3
:104CC800EE270895EA17FB0768077907E1E00CF07B
:104CD800EE270895FA9FF02DEB9FF00DEA9FE02D47
:104CE800F10D08957A9F702D6B9F700DF89F700DD0
:104CF800E99F700D6A9F602D710DFB9F600D711DFE
:104D0800E89F600D711D8827FA9FF02D610D781FAF
:104D1800EB9FF00D611D781FEA9FE02DF10D681FD4
:104D2800781F08952FD0D6DF0EF47ADF089538D093
:104D3800D9DF0EF479DF08950024112490E1AA0F39
:104D4800BB1F001C111C0E1A1F0A18F40E0E1F1E82
:104D580001C0A1609A9599F7FD01D001089512D07C
:104D6800EBDF0EF45DDF0895E894B7FF04C0A0956B
:104D7800B09511966894F7FD53DFDEDFFD010EF460
:104D88004FDF0895E894F7FF02C04ADF6894B7FF41
:104D980006C0A095B095119600F8039400FA0895FE
:104DA800E89477FF02C040DF689497FF0BC00024A7
:104DB800A095B095809590951196801D901D00F84E
:104DC800039400FA0895ED91FC9111970895ED91DF
:104DD800FD916D917D9108957E936E93FE93EE9370
:104DE80008950590F491E02D08957A936A93FA93C3
:104DF800EA930895BB27EA0FFB1F02900A921197C6
:104E0800E1F7089500240A160B060895EA17FB0730
:104E18006807790708955A934A933A932A931A93FD
:104E28000A9308955D814C813B812A81198108810B
:104E38000895AC0FBD1F05900D928A95E1F708956E
:00000001FF
