:200000000C9459000C9400000C9400000C9400000C9400000C9400000C9400000C94000087
:200020000C9400000C9400000C94A5000C9400000C9400000C9400000C9400000C9400001B
:200040000C948C000C9400000C9400000C9400000C9400000C9400000C9400000C94000014
:200060000C9400000C9400000C9400000C9400000C9400000C9400000C9400000C94000080
:200080000C9400000C9400000C9400001027E80364000A00010000100001100001000100CC
:2000A0002D4E414E00494E460000010092059E000000F894EE27ECBBF1E0F5BFE5BFE0933F
:2000C0006C00F8E1F1BDE1BD8DE0A2E0BB27ED938A95E9F780E090E1A0E0B1E0ED93019745
:2000E000E9F7EAEAF0E085919591009761F0A591B59105901590BF01F00105900D92019725
:20010000E1F7FB01F0CF8BBFEFEFEDBFE0E1EEBFC0E0D5E00C941A070E945F08A0E0B5E0D6
:200120000E946808A4E0B5E00E946808A8E0B5E00E946808ACE0B5E00E946808A0E1B5E00A
:200140000E946808ACE8B5E008C00E945F08A4E1B5E00E946808A8E1B5E00E941E0BEF5F30
:20016000FF4F6F4F7F4F0E94230BE991EFBFF991E991B991A991799169911895ACE5B5E04E
:200180000E9468080E947108A037E7E1BE07E0E08E07E0E09E0709F4949A0E947108A03EF0
:2001A000EEE2BE07E0E08E07E0E09E0719F494980E947A080895EE81E03011F4C19801C058
:2001C000C19AEC81E03011F4C29801C0C29AEA81E03011F4C79801C0C79AE881E03011F44C
:2001E000909801C0909A289608950E948408139789F4059903C00E94890802C00E949008AC
:200200000E94960811F00E94AE080E94B60809F0C69810C0059903C00E94890802C00E94C6
:2002200090080E94960811F00E94AE080E94B60809F0C6980895049903C0959A969801C0BB
:2002400095980895C89902C0C09801C0C09A0895189A0F9B30C0E0919005F0919105309771
:2002600079F4E0E0E0938C05E0938D05E0938E05E0938F05E1E0F0E0E0939005F093910589
:20028000A0918C05B0918D0580918E0590918F050E94CE08A0E00F99A1E00E94D60859F086
:2002A000E0E0E0938A05E0938B05A9981898E0939005E0939105A0E00F99A1E00E94DB0849
:2002C000A0919005B09191050E94E008E02129F0E0E0E0939005E093910508950E94E508E0
:2002E000E0911C05F0911D05309791F4E0918205F0918305309719F4E1E0F0E002C0EFE680
:20030000F0E0E0931C05F0931D050E94EA089AC1EF36A0E0FA0769F4CF9B0AC00E94F40810
:20032000C39AC49AC59A949A0E94EA080E94FB0889C1E130A0E0FA07E1F4A0915005B091C4
:2003400051050E94E0080E2E0E940209E8E2F0E060E070E00E94DE0AE02151F00E94F40840
:20036000C59AC39AC49A949A0E94EA080E94FB0869C1E230A0E0FA0789F40E940209A03144
:20038000E0E0BE07E0E08E07E0E09E0734F00E94EA08E3E0F0E00E940B0954C1E330A0E075
:2003A000FA07C1F40E9410090E94CE08A0E0C399A1E00E94D60811F0C398C4980E94130901
:2003C00044F0C59895980E94EA08E4E0F0E00E940B0938C1E430A0E0FA07C9F4CC9902C00F
:2003E0000E941C090E941009AA31E0E0BE07E0E08E07E0E09E0754F00E94EA08E5E0F0E0F4
:200400000E940B09CC9902C00E941C091BC1E530A0E0FA07E1F5A0E0CC99A1E00E94DB0805
:20042000A0916005B09161050E94E008E02961F094980E9423090E942909E2E3F0E060E0F8
:2004400070E00E942C0922C00E942309A4E6B5E0ED91FD913196FE93EE93A0916405B091E6
:20046000650514974CF00E942909E0E0E0936405E0936505949808C0959AC39AC49AC59AA1
:20048000E6E0F0E00E940B090E94EA08DBC0E630A0E0FA0721F50E941009E2E8F0E060E09F
:2004A00070E00E94DE0A0E2EA0E0C399A1E00E94D60819F0C398C498C5980E940209A7399F
:2004C000E0E0BE07E0E08E07E0E09E073CF095980E94EA08E7E0F0E00E940B09B3C0E73019
:2004E000A0E0FA07A1F44ADECC9902C00E941C090E940209A135E0E0BE07E0E08E07E0E0B3
:200500009E0724F0E5E0F0E00E940B099BC0E830A0E0FA0751F40E94130934F00E94EA0828
:20052000E9E0F0E00E940B098DC0E930A0E0FA0751F40E94350934F0C798929A0E94EA081D
:200540000E9429097FC0EA30A0E0FA07C1F40E943509A4F0969A0E94EA08E0918205F09187
:200560008305309719F4EBE0F0E002C0E7E5F4E0E0931C05F0931D050E94EA0863C0EB3017
:20058000A0E0FA07C9F40E943509ACF054DEA0915205B0915305119741F496980E94EA08AF
:2005A000ECE0F0E00E940B0906C0E3E3F0E060E070E00E942C0946C0E735A4E0FA0729F561
:2005C0000E94350934F0CF9B04C0959896980E94EA0831DEA0E09699A1E00E94DB080E9494
:2005E0000209E2E3F0E060E070E00E94DE0A0E22A0E09599A1E0E0E00E94D30AE02121F091
:20060000ECE0F0E00E940B091DC0EC30A0E0FA0751F40E9402090E943E0924F0EDE0F0E082
:200620000E940B090FC0ED30A0E0FA0759F40E94EA08E0E0E0931C05E0931D0501E010E0FC
:200640000E944609C3C10E94E508E0911E05F0911F05309759F4A0915005B0915105119784
:2006600021F4EEE1F5E00E945009ADC0E130A0E0FA07A1F4A0E0CA99A1E00E94DB08A09118
:200680006605B09167050E945509E02131F00E945A09A2E0B0E0A083B18395C0E230A0E0CB
:2006A000FA0781F4A0E0CA99A1E00E9466090E946B09E02131F00E945A09A3E0B0E0A083DC
:2006C000B18381C0E330A0E0FA0739F40E945A09A4E0B0E0A083B18376C0E430A0E0FA07A9
:2006E00069F40E9470090E94280B3CF4979A0E945A09A5E0B0E0A083B18365C0E530A0E021
:20070000FA0789F50E947009A536E0E0BE07E0E08E07E0E09E0734F1A0E0CF99A1E00E94F5
:200720006609A0911C05B0911D05EBE0F0E00E94D80AE02159F0939A97980E9479090E940A
:200740005A09A6E0B0E0A083B1830CC0E5E6F0E060E070E0E0930405F093050560930605CB
:200760007093070530C0E630A0E0FA0761F40E9470090E943E0934F00E945A09A7E0B0E04A
:20078000A083B18320C0E730A0E0FA0791F40E947009AF31E0E0BE07E0E08E07E0E09E07CB
:2007A0003CF09398EEE1F5E0A8E0B0E0A083B1830AC0E830A0E0FA0731F40E945A090E94A0
:2007C000800901E010E002C10E94E508E0912205F09123053097B9F4A0E00E99A1E00E946E
:2007E00066090E946B09E02169F0AD9AAE980E94850911F4AA9802C0AB9AAF980E948B0992
:200800000E9450098EC0E130A0E0FA07A9F40E949709A531E0E0BE07E0E08E07E0E09E0709
:2008200054F00E94A009AD98AE9A0E948B09A2E0B0E0A083B18375C0E230A0E0FA0781F4C0
:200840000E990DC00E94850911F4AA9A02C0AB98AF9A0E948B09A3E0B0E0A083B18361C09C
:20086000E330A0E0FA0789F40E949709A330E0E0BE07E0E08E07E0E09E0734F00E948B09B9
:20088000A4E0B0E0A083B1834CC0E430A0E0FA0749F40E9B06C00E948B09A5E0B0E0A08332
:2008A000B1833FC0E530A0E0FA0731F5E0918605F09187053097F9F40E94850939F4E1E06E
:2008C000F0E0E0938805F093890505C0E0E0E0938805E0938905E1E0F0E0E0938A05F0939B
:2008E0008B05E0938605F0938705E2E2F5E0A6E0B0E0A083B18315C0E630A0E0FA0789F46C
:200900000E990FC0E6E3F5E00E9480090E948B090E948009E0E0E0936C05E0936D0500E0CE
:2009200010E054C00E94E508E0912405F0912505309759F5A0E0CF99A1E00E946609A0911F
:200940008605B09187050E94E008E021E9F0A89902C0A89A01C0A898A99AA0918805B09153
:200960008905119711F4AA9802C0AB9AAF98E0E0E0931005E0931105E0931205E0931305C6
:20098000E4E2F5E00E94500921C0E130A0E0FA07E9F4A0911005B09111058091120590918B
:2009A0001305AD33E0E0BE07E0E08E07E0E09E076CF0E0E0E0938605E09387050E947909C3
:2009C000E4E2F5E00E94800901E010E0F801099119910895E0913005F0913105309711F47D
:2009E0000E94A709E0913205F09133050E94AE09E3E0F0E00E94D80AE02129F024DEE09345
:200A00003205F0933305E0913605F09137050E94AE090E9455090E22A0918A05B0918B0561
:200A20000E94B409E02111F00E94B909E0913805F09139050E94AE090E945509E02129F011
:200A400071DFE0933805F093390508950E94C0090E2EE0913205F09133050E94C5090E2290
:200A60000E948408E3E0F0E00E94D80AE02131F00E94CF090E94A0090E94D7090E94C0095D
:200A80000E2EA0918205B09183050E94E008E02131F00E94CF090E94A0090E94D7090E9404
:200AA000C0090E2EE0913805F09139050E94C5090E220E9484080E945509E02159F0E0E0EC
:200AC000E0933005E0933105E8E3F5E00E9480090E94D7090895079934C0A0E00699A1E0A7
:200AE0000E94DB08A0917C05B0917D050E94B409E021A1F0C69AE1E0F0E0E0938405F0939B
:200B00008505AEE7B5E0ED91FD913196FE93EE93E1E0F0E0E0937C05F0937D05A0E0069993
:200B2000A1E00E946609A0917C05B0917D050E94E008E02131F0C698E0E0E0937C05E0937D
:200B40007D05A0E00799A1E00E946609A0918405B09185050E94E008E02111F40C9419078C
:200B6000E0917E05F0917F05309729F40E94DE090E94E4095EC1E330A0E0FA0739F40E94FE
:200B8000E9090E94F6090E94030A50C1E430A0E0FA0729F40E94E9090E94F60943C1E53002
:200BA000A0E0FA0739F40E94E9090E94080A0E94110A3CC1E630A0E0FA0729F40E94E9093D
:200BC0000E94080A2BC1E730A0E0FA0739F40E94E9090E94160A0E94030A28C1E830A0E02A
:200BE000FA0729F40E94E9090E94160A1BC1E930A0E0FA0779F40E94E9090E941F0A1C988B
:200C00001D98E0E0F0E00E94240A0E94240A0E94030A0CC1EB30A0E0FA0729F40E94290AE5
:200C20000E94300A06C1EC30A0E0FA0729F40E94290A0E94480AFDC0ED30A0E0FA0729F416
:200C40000E94290A0E94600AF4C0EE30A0E0FA0739F40E94290A0E94780A0E947F0AE9C066
:200C6000EF30A0E0FA0751F40E94290A0E948D0A0E941F0A1C980E94940ADBC0E031A0E096
:200C8000FA0741F40E94290A0E94A10A1C9A0E94940ACFC0E131A0E0FA0729F40E94290AF2
:200CA0000E94300AC6C0E231A0E0FA0729F40E94290A0E94480ABDC0E331A0E0FA0729F429
:200CC0000E94290A0E94600AB4C0E431A0E0FA0739F40E94290A0E94780A0E947F0AA9C06F
:200CE000E531A0E0FA0791F40E94290A0E941F0A1C981D9A0E948D0A0E94A80AE0E0E0930D
:200D00007E05E0937F050E94E40993C0E631A0E0FA0741F40E94290A0E94A10A1C9A0E9430
:200D2000940A87C0E831A0E0FA0749F40E94E9090E941F0A1C981D98E0E0F0E06BC0E9315A
:200D4000A0E0FA0759F40E94E9090E941F0A0E94AF0A0E94030A0E94030A68C0EA31A0E0EA
:200D6000FA0749F40E94E9090E941F0A0E94AF0A0E94030A57C0EB31A0E0FA0749F40E9439
:200D8000E9090E941F0A0E94AF0A0E94110A4EC0EC31A0E0FA0739F40E94E9090E941F0A46
:200DA0000E94AF0A3BC0ED31A0E0FA0749F40E94E9090E941F0A0E94B40A0E94030A36C09D
:200DC000EE31A0E0FA0739F40E94E9090E941F0A0E94B40A27C0EF31A0E0FA0779F40E94F0
:200DE000E9090E941F0A1C981D98E1E0F0E00E94240A0E94240A0E94030A18C0E032A0E083
:200E0000FA07B9F40E94E9090E941F0A1C981D98E1E0F0E0FA93EA93E1E0F0E0FA93EA9326
:200E2000E1E0F0E0FA93EA93E1E0F0E0FA93EA93C2D90895E0E0EBBBEABBE8BBEFEFE7BB16
:200E4000E0E0E5BBEFEFE4BBE0E0E2BBEFEFE1BBE0E0E3B9EFE3E2B9E0E0E0936200E0930D
:200E60006100E0936500EFE1E0936400E0E0E0BFE7E0E3BFE0E0E2BFE1BFEFBDEEBDEDBDC8
:200E8000ECBDE7BDE6BDEBBDEABDE9BDE8BDE0937900E0937800E1E0E5BDE0E0E4BDE3BD8D
:200EA000E0938B00E0938A00E0938900E0938800E0938100E0938000E0938700E093860066
:200EC000E0938500E0938400E0938300E0938200E0936A00EABFE9BFE1E4E7BFE0E0E0936C
:200EE0007D00EAB9E0939A00E0E8E8B9E0E0E0BDE6B9EDB9E0937400AD98AE9AAB9AAF98BA
:200F0000E7E0F0E060E070E0E0934805F093490560934A0570934B05EEE3F0E060E070E053
:200F2000E0934C05F0934D0560934E0570934F05A0914805B091490580914A0590914B059D
:200F40000E94060BE0934405F0934505609346057093470544245524929AE1E0F0E04F01DA
:200F600066247724AA24BB240E944609E0E0E0935405E0935505E0935605E0935705CC24C8
:200F8000DD24E0935805E0935905E0935A05E0935B050E947A080E942309E0E0E09362057E
:200FA000E0936305E0936605E0936705E0937405E0937505E0937605E0937705E0938205E9
:200FC000E0938305E0938605E09387050E94D709E0E0E0935205E0935305E0935605E09301
:200FE00057050E949008E2E0F0E0E0936605F0936705E0E0E0938805E0938905E0936C0557
:20100000E0936D05E0936E05E0936F05E0937005E0937105ECE3F0E0E0937205F0937305C9
:201020000E94A80A0E94DE09E0938A05E0938B05A89AA99AC59A0E94B90A0E94B90AE0E060
:20104000F0E00E94030A0E94030A0E94030AFA93EA93B1D8E0918005F0918105309711F457
:201060003ADDF8CF0F9902C0189AFCCF1898C5987894B0DCEBDCE6D8B8D82DDDA0918A0527
:20108000B0918B050E94E0080E2E0E9484080E945509E02191F0DCD8E0913005F0913105F8
:2010A000309711F40E94A709E0913605F0913705309711F40E94B909E1CFDBCFFFCF6A9354
:2010C0007A93AA93BA93EA93FA93EFB7EA9308950E941E0BEF5FFF4F6F4F7F4F0E94230BEC
:2010E0000895A0915C05B0915D0580915E0590915F050895E0E0E0935C05E0935D05E093AC
:201100005E05E0935F050895A0918005B09181050895E1E0F0E0E0936805F09369050895DF
:20112000E0E0E0936805E09369050895A0E0CB99A1E0E0E00E94D30A0E2EA0916605B091D4
:201140006705E1E0F0E00E94D80A0E22A0E00799A1E0E1E00E94D30AE0210895C69AE2E03D
:20116000F0E0E0936605F09367050895A0E0CB99A1E0E1E00E94D30A0E2EA0916605B09177
:201180006705E2E0F0E00E94D80A0E22A0E00799A1E0E1E00E94D30AE0210895E5E0F0E089
:2011A00060E070E00E94DE0A0E2E0895E1E00E94D30AE0210895E0E00E94D30A0E2E089546
:2011C000E1E0F0E00E94D80A08951A930A9300E010E00895E0E0E0930005E0930105E09382
:2011E0000205E09303050895E0E0E0936405E0936505959A0895E2E0F0E0E0931C05F093E2
:201200001D050895A0910005B091010580910205909103050895E0931C05F0931D050895DE
:201220000E94BE00EFCFEEDFA531E0E0BE07E0E08E07E0E09E070895E1E0F0E0E0936005A8
:20124000F09361050895E0E0E0936005E09361050895EAE0F0E0DFCFE0930005F0930105B1
:2012600060930205709303050895CCDFA333E0E0BE07E0E08E07E0E09E070895A230E0E0DD
:20128000BE07E0E08E07E0E09E070895E0E0E0935005E0935105E0935205E09353050895AF
:2012A000A1E0B0E0A083B1830895E2E0F0E00E94D80A0895E0E0E0930405E0930505E0934A
:2012C0000605E0930705EEE1F5E00895E1E00E94D30A0E2E0895A0916805B091690570CF9E
:2012E000A0910405B091050580910605909107050895E1E0F0E0E0935205F09353050895B0
:20130000A0E0B0E0A083B1830895E0918805F091890530970895E0E0E0930C05E0930D058F
:20132000E0930E05E0930F05E2E2F5E00895A0910C05B0910D0580910E0590910F050895DF
:20134000E1E0F0E0E0936605F093670508950E946E01E0933005F09331050895A0E0B0E073
:201360000E94D80A0E2ED0CEE0E0F0E00E94D80A08950E94E403E0933605F09337050895CB
:20138000A0913005B09131051BCFA1E0B0E00E94D80A0E22A0918205B0918305E5CFE0E0CC
:2013A000E0933005E0933105E2E3F5E0A9CFE1E0F0E0E0935005F09351050895E0E0E093C8
:2013C0008005E09381050895E0938405E09385050895E3E0F0E0E0938005F0938105E0E008
:2013E000E0937E05E0937F05EFDFE1CF189819981A981B981C981D98E0E0F0E0FA93EA93B9
:20140000FA93EA930895FA93EA93E0E0F0E00895189819981A981B981C981D98E0E0F0E02F
:20142000F2CFFA93EA93E1E0F0E0EDCF189819981A981B981C981D98E0E0F0E0F2CF189864
:2014400019981A981B980895FA93EA93E1E0F0E00895E2E0F0E0E0938005F0938105089571
:20146000E2E3F0E0E0937605F09377051898199A1A981B981C981D98E8E0F0E0E093780531
:20148000F0937905E0E0E0937E05E0937F059CCFE7E3F0E0E0937605F0937705189819984B
:2014A0001A9A1B981C981D98E8E0F0E0E0937805F0937905E0E0E0937E05E0937F0584CFD3
:2014C000ECE3F0E0E0937605F0937705189819981A981B9A1C981D98E8E0F0E0E0937805C7
:2014E000F0937905E0E0E0937E05E0937F056CCFE1E4F0E0E0937605F0937705A0CF1C9A5C
:201500001D98E8E0F0E0E0937805F0937905E0E0E0937E05E0937F0557CFE6E4F0E0E093AD
:201520007605F093770508951D9AE8E0F0E0E0937805F0937905E0E0E0937E05E0937F05A7
:2015400043CFEBE4F0E0E0937605F093770577CFE8E0F0E0E0937805F093790508951C98CD
:201560001D98E1E0F0E04FCF1C981D98E1E0F0E058CFE8EEF3E0FA93EA930C94BF0AE99150
:20158000F991309639F080EA9FE00197F1F7A8953197C9F70895F09560957095E195FF4FC4
:2015A0006F4F7F4F0895EA17E1E009F0EE270895EA17FB07E1E009F0EE270895EA17FB0723
:2015C00068077907E1E00CF0EE2708957A9F702D6B9F700DF89F700DE99F700D6A9F602DC1
:2015E000710DFB9F600D711DE89F600D711D8827FA9FF02D610D781FEB9FF00D611D781F50
:20160000EA9FE02DF10D681F781F089504D0DEDF0EF4C1DF0895E89477FF02C0BCDF689460
:2016200097FF0BC00024A095B095809590951196801D901D00F8039400FA0895ED91FD914E
:1C1640006D917D9108957E936E93FE93EE93089500240A160B0608060906089515
:00000001FF
